{
  "contractName": "EGOLDContract",
  "abi": [
    {
      "inputs": [],
      "stateMutability": "nonpayable",
      "type": "constructor"
    },
    {
      "anonymous": false,
      "inputs": [
        {
          "indexed": true,
          "internalType": "address",
          "name": "owner",
          "type": "address"
        },
        {
          "indexed": true,
          "internalType": "address",
          "name": "spender",
          "type": "address"
        },
        {
          "indexed": false,
          "internalType": "uint256",
          "name": "value",
          "type": "uint256"
        }
      ],
      "name": "Approval",
      "type": "event"
    },
    {
      "anonymous": false,
      "inputs": [
        {
          "indexed": true,
          "internalType": "address",
          "name": "_to",
          "type": "address"
        },
        {
          "indexed": false,
          "internalType": "uint256",
          "name": "_amount",
          "type": "uint256"
        }
      ],
      "name": "Burned",
      "type": "event"
    },
    {
      "anonymous": false,
      "inputs": [
        {
          "indexed": false,
          "internalType": "address",
          "name": "_from",
          "type": "address"
        },
        {
          "indexed": true,
          "internalType": "address",
          "name": "_to",
          "type": "address"
        },
        {
          "indexed": false,
          "internalType": "uint256",
          "name": "_EGoldAmount",
          "type": "uint256"
        },
        {
          "indexed": false,
          "internalType": "uint256",
          "name": "_EINRAmount",
          "type": "uint256"
        }
      ],
      "name": "EGOLD_EINR_Transfer",
      "type": "event"
    },
    {
      "anonymous": false,
      "inputs": [
        {
          "indexed": false,
          "internalType": "address",
          "name": "_from",
          "type": "address"
        },
        {
          "indexed": true,
          "internalType": "address",
          "name": "_to",
          "type": "address"
        },
        {
          "indexed": false,
          "internalType": "uint256",
          "name": "_EGoldAmount",
          "type": "uint256"
        },
        {
          "indexed": false,
          "internalType": "uint256",
          "name": "_EUSDAmount",
          "type": "uint256"
        }
      ],
      "name": "EGOLD_EUSD_Transfer",
      "type": "event"
    },
    {
      "anonymous": false,
      "inputs": [
        {
          "indexed": true,
          "internalType": "address",
          "name": "_setBy",
          "type": "address"
        },
        {
          "indexed": false,
          "internalType": "uint256",
          "name": "_EGOLDPriceINR",
          "type": "uint256"
        }
      ],
      "name": "EGOLD_INR_PriceSet",
      "type": "event"
    },
    {
      "anonymous": false,
      "inputs": [
        {
          "indexed": false,
          "internalType": "address",
          "name": "_from",
          "type": "address"
        },
        {
          "indexed": true,
          "internalType": "address",
          "name": "_to",
          "type": "address"
        },
        {
          "indexed": true,
          "internalType": "string",
          "name": "_receipt",
          "type": "string"
        },
        {
          "indexed": false,
          "internalType": "uint256",
          "name": "_EGoldmount",
          "type": "uint256"
        },
        {
          "indexed": false,
          "internalType": "uint256",
          "name": "_INRAmount",
          "type": "uint256"
        }
      ],
      "name": "EGOLD_INR_Transfer",
      "type": "event"
    },
    {
      "anonymous": false,
      "inputs": [
        {
          "indexed": true,
          "internalType": "address",
          "name": "_setBy",
          "type": "address"
        },
        {
          "indexed": false,
          "internalType": "uint256",
          "name": "_EGOLDPriceUSD",
          "type": "uint256"
        }
      ],
      "name": "EGOLD_USD_PriceSet",
      "type": "event"
    },
    {
      "anonymous": false,
      "inputs": [
        {
          "indexed": false,
          "internalType": "address",
          "name": "_from",
          "type": "address"
        },
        {
          "indexed": true,
          "internalType": "address",
          "name": "_to",
          "type": "address"
        },
        {
          "indexed": true,
          "internalType": "string",
          "name": "_receipt",
          "type": "string"
        },
        {
          "indexed": false,
          "internalType": "uint256",
          "name": "_EGoldmount",
          "type": "uint256"
        },
        {
          "indexed": false,
          "internalType": "uint256",
          "name": "_USDAmount",
          "type": "uint256"
        }
      ],
      "name": "EGOLD_USD_Transfer",
      "type": "event"
    },
    {
      "anonymous": false,
      "inputs": [
        {
          "indexed": true,
          "internalType": "address",
          "name": "_setBy",
          "type": "address"
        },
        {
          "indexed": true,
          "internalType": "address",
          "name": "_EINRAdd",
          "type": "address"
        }
      ],
      "name": "EINRAddressSet",
      "type": "event"
    },
    {
      "anonymous": false,
      "inputs": [
        {
          "indexed": true,
          "internalType": "address",
          "name": "_setBy",
          "type": "address"
        },
        {
          "indexed": true,
          "internalType": "address",
          "name": "_EUSDAdd",
          "type": "address"
        }
      ],
      "name": "EUSDAddressSet",
      "type": "event"
    },
    {
      "anonymous": false,
      "inputs": [
        {
          "indexed": true,
          "internalType": "address",
          "name": "_setBy",
          "type": "address"
        },
        {
          "indexed": true,
          "internalType": "address",
          "name": "_InventoryAdd",
          "type": "address"
        }
      ],
      "name": "InventoryAddressSet",
      "type": "event"
    },
    {
      "anonymous": false,
      "inputs": [
        {
          "indexed": true,
          "internalType": "address",
          "name": "_to",
          "type": "address"
        },
        {
          "indexed": false,
          "internalType": "uint256",
          "name": "_amount",
          "type": "uint256"
        }
      ],
      "name": "Minted",
      "type": "event"
    },
    {
      "anonymous": false,
      "inputs": [
        {
          "indexed": true,
          "internalType": "address",
          "name": "previousOwner",
          "type": "address"
        },
        {
          "indexed": true,
          "internalType": "address",
          "name": "newOwner",
          "type": "address"
        }
      ],
      "name": "OwnershipTransferred",
      "type": "event"
    },
    {
      "anonymous": false,
      "inputs": [
        {
          "indexed": true,
          "internalType": "address",
          "name": "from",
          "type": "address"
        },
        {
          "indexed": true,
          "internalType": "address",
          "name": "to",
          "type": "address"
        },
        {
          "indexed": false,
          "internalType": "uint256",
          "name": "value",
          "type": "uint256"
        }
      ],
      "name": "Transfer",
      "type": "event"
    },
    {
      "inputs": [],
      "name": "EGoldPriceINR",
      "outputs": [
        {
          "internalType": "uint256",
          "name": "",
          "type": "uint256"
        }
      ],
      "stateMutability": "view",
      "type": "function",
      "constant": true
    },
    {
      "inputs": [],
      "name": "EGoldPriceUSD",
      "outputs": [
        {
          "internalType": "uint256",
          "name": "",
          "type": "uint256"
        }
      ],
      "stateMutability": "view",
      "type": "function",
      "constant": true
    },
    {
      "inputs": [],
      "name": "_EINR",
      "outputs": [
        {
          "internalType": "contract EINRContract",
          "name": "",
          "type": "address"
        }
      ],
      "stateMutability": "view",
      "type": "function",
      "constant": true
    },
    {
      "inputs": [],
      "name": "_EUSD",
      "outputs": [
        {
          "internalType": "contract EUSDContract",
          "name": "",
          "type": "address"
        }
      ],
      "stateMutability": "view",
      "type": "function",
      "constant": true
    },
    {
      "inputs": [
        {
          "internalType": "address",
          "name": "owner",
          "type": "address"
        },
        {
          "internalType": "address",
          "name": "spender",
          "type": "address"
        }
      ],
      "name": "allowance",
      "outputs": [
        {
          "internalType": "uint256",
          "name": "",
          "type": "uint256"
        }
      ],
      "stateMutability": "view",
      "type": "function",
      "constant": true
    },
    {
      "inputs": [
        {
          "internalType": "address",
          "name": "spender",
          "type": "address"
        },
        {
          "internalType": "uint256",
          "name": "amount",
          "type": "uint256"
        }
      ],
      "name": "approve",
      "outputs": [
        {
          "internalType": "bool",
          "name": "",
          "type": "bool"
        }
      ],
      "stateMutability": "nonpayable",
      "type": "function"
    },
    {
      "inputs": [],
      "name": "availableSupply",
      "outputs": [
        {
          "internalType": "uint256",
          "name": "",
          "type": "uint256"
        }
      ],
      "stateMutability": "view",
      "type": "function",
      "constant": true
    },
    {
      "inputs": [
        {
          "internalType": "address",
          "name": "account",
          "type": "address"
        }
      ],
      "name": "balanceOf",
      "outputs": [
        {
          "internalType": "uint256",
          "name": "",
          "type": "uint256"
        }
      ],
      "stateMutability": "view",
      "type": "function",
      "constant": true
    },
    {
      "inputs": [],
      "name": "decimals",
      "outputs": [
        {
          "internalType": "uint8",
          "name": "",
          "type": "uint8"
        }
      ],
      "stateMutability": "view",
      "type": "function",
      "constant": true
    },
    {
      "inputs": [
        {
          "internalType": "address",
          "name": "spender",
          "type": "address"
        },
        {
          "internalType": "uint256",
          "name": "subtractedValue",
          "type": "uint256"
        }
      ],
      "name": "decreaseAllowance",
      "outputs": [
        {
          "internalType": "bool",
          "name": "",
          "type": "bool"
        }
      ],
      "stateMutability": "nonpayable",
      "type": "function"
    },
    {
      "inputs": [
        {
          "internalType": "address",
          "name": "spender",
          "type": "address"
        },
        {
          "internalType": "uint256",
          "name": "addedValue",
          "type": "uint256"
        }
      ],
      "name": "increaseAllowance",
      "outputs": [
        {
          "internalType": "bool",
          "name": "",
          "type": "bool"
        }
      ],
      "stateMutability": "nonpayable",
      "type": "function"
    },
    {
      "inputs": [],
      "name": "inventoryHandler",
      "outputs": [
        {
          "internalType": "address",
          "name": "",
          "type": "address"
        }
      ],
      "stateMutability": "view",
      "type": "function",
      "constant": true
    },
    {
      "inputs": [],
      "name": "name",
      "outputs": [
        {
          "internalType": "string",
          "name": "",
          "type": "string"
        }
      ],
      "stateMutability": "view",
      "type": "function",
      "constant": true
    },
    {
      "inputs": [],
      "name": "owner",
      "outputs": [
        {
          "internalType": "address",
          "name": "",
          "type": "address"
        }
      ],
      "stateMutability": "view",
      "type": "function",
      "constant": true
    },
    {
      "inputs": [],
      "name": "renounceOwnership",
      "outputs": [],
      "stateMutability": "nonpayable",
      "type": "function"
    },
    {
      "inputs": [],
      "name": "symbol",
      "outputs": [
        {
          "internalType": "string",
          "name": "",
          "type": "string"
        }
      ],
      "stateMutability": "view",
      "type": "function",
      "constant": true
    },
    {
      "inputs": [],
      "name": "totalSupply",
      "outputs": [
        {
          "internalType": "uint256",
          "name": "",
          "type": "uint256"
        }
      ],
      "stateMutability": "view",
      "type": "function",
      "constant": true
    },
    {
      "inputs": [
        {
          "internalType": "address",
          "name": "to",
          "type": "address"
        },
        {
          "internalType": "uint256",
          "name": "amount",
          "type": "uint256"
        }
      ],
      "name": "transfer",
      "outputs": [
        {
          "internalType": "bool",
          "name": "",
          "type": "bool"
        }
      ],
      "stateMutability": "nonpayable",
      "type": "function"
    },
    {
      "inputs": [
        {
          "internalType": "address",
          "name": "from",
          "type": "address"
        },
        {
          "internalType": "address",
          "name": "to",
          "type": "address"
        },
        {
          "internalType": "uint256",
          "name": "amount",
          "type": "uint256"
        }
      ],
      "name": "transferFrom",
      "outputs": [
        {
          "internalType": "bool",
          "name": "",
          "type": "bool"
        }
      ],
      "stateMutability": "nonpayable",
      "type": "function"
    },
    {
      "inputs": [
        {
          "internalType": "address",
          "name": "newOwner",
          "type": "address"
        }
      ],
      "name": "transferOwnership",
      "outputs": [],
      "stateMutability": "nonpayable",
      "type": "function"
    },
    {
      "inputs": [
        {
          "internalType": "address",
          "name": "_address",
          "type": "address"
        }
      ],
      "name": "setInventoryHandler",
      "outputs": [],
      "stateMutability": "nonpayable",
      "type": "function"
    },
    {
      "inputs": [
        {
          "internalType": "uint256",
          "name": "_amount",
          "type": "uint256"
        }
      ],
      "name": "mint",
      "outputs": [],
      "stateMutability": "nonpayable",
      "type": "function"
    },
    {
      "inputs": [
        {
          "internalType": "uint256",
          "name": "_amount",
          "type": "uint256"
        }
      ],
      "name": "burn",
      "outputs": [],
      "stateMutability": "nonpayable",
      "type": "function"
    },
    {
      "inputs": [
        {
          "internalType": "address",
          "name": "_Einr",
          "type": "address"
        }
      ],
      "name": "setEINR",
      "outputs": [],
      "stateMutability": "nonpayable",
      "type": "function"
    },
    {
      "inputs": [
        {
          "internalType": "address",
          "name": "_Eusd",
          "type": "address"
        }
      ],
      "name": "setEUSD",
      "outputs": [],
      "stateMutability": "nonpayable",
      "type": "function"
    },
    {
      "inputs": [
        {
          "internalType": "uint256",
          "name": "_price",
          "type": "uint256"
        }
      ],
      "name": "setEGoldPriceINR",
      "outputs": [],
      "stateMutability": "nonpayable",
      "type": "function"
    },
    {
      "inputs": [
        {
          "internalType": "uint256",
          "name": "_price",
          "type": "uint256"
        }
      ],
      "name": "setEGoldPriceUSD",
      "outputs": [],
      "stateMutability": "nonpayable",
      "type": "function"
    },
    {
      "inputs": [
        {
          "internalType": "uint256",
          "name": "_EGoldAmount",
          "type": "uint256"
        }
      ],
      "name": "buyEGoldEINR",
      "outputs": [],
      "stateMutability": "nonpayable",
      "type": "function"
    },
    {
      "inputs": [
        {
          "internalType": "uint256",
          "name": "_EGoldAmount",
          "type": "uint256"
        },
        {
          "internalType": "address",
          "name": "_to",
          "type": "address"
        },
        {
          "internalType": "string",
          "name": "_receipt",
          "type": "string"
        }
      ],
      "name": "buyEGoldINR",
      "outputs": [],
      "stateMutability": "nonpayable",
      "type": "function"
    },
    {
      "inputs": [
        {
          "internalType": "uint256",
          "name": "_EGoldAmount",
          "type": "uint256"
        }
      ],
      "name": "buyEGoldEUSD",
      "outputs": [],
      "stateMutability": "nonpayable",
      "type": "function"
    },
    {
      "inputs": [
        {
          "internalType": "uint256",
          "name": "_EGoldAmount",
          "type": "uint256"
        },
        {
          "internalType": "address",
          "name": "_to",
          "type": "address"
        },
        {
          "internalType": "string",
          "name": "_receipt",
          "type": "string"
        }
      ],
      "name": "buyEGoldUSD",
      "outputs": [],
      "stateMutability": "nonpayable",
      "type": "function"
    },
    {
      "inputs": [],
      "name": "BalEINR",
      "outputs": [
        {
          "internalType": "uint256",
          "name": "_BalEINR",
          "type": "uint256"
        },
        {
          "internalType": "uint256",
          "name": "_BalEUSD",
          "type": "uint256"
        }
      ],
      "stateMutability": "view",
      "type": "function",
      "constant": true
    }
  ],
  "bytecode": "0x60806040523480156200001157600080fd5b506040518060400160405280600581526020017f45474f4c440000000000000000000000000000000000000000000000000000008152506040518060400160405280600581526020017f45474f4c440000000000000000000000000000000000000000000000000000008152506200009e62000092620000ca60201b60201c565b620000d260201b60201c565b8160049081620000af919062000410565b508060059081620000c1919062000410565b505050620004f7565b600033905090565b60008060009054906101000a900473ffffffffffffffffffffffffffffffffffffffff169050816000806101000a81548173ffffffffffffffffffffffffffffffffffffffff021916908373ffffffffffffffffffffffffffffffffffffffff1602179055508173ffffffffffffffffffffffffffffffffffffffff168173ffffffffffffffffffffffffffffffffffffffff167f8be0079c531659141344cd1fd0a4f28419497f9722a3daafe3b4186f6b6457e060405160405180910390a35050565b600081519050919050565b7f4e487b7100000000000000000000000000000000000000000000000000000000600052604160045260246000fd5b7f4e487b7100000000000000000000000000000000000000000000000000000000600052602260045260246000fd5b600060028204905060018216806200021857607f821691505b6020821081036200022e576200022d620001d0565b5b50919050565b60008190508160005260206000209050919050565b60006020601f8301049050919050565b600082821b905092915050565b600060088302620002987fffffffffffffffffffffffffffffffffffffffffffffffffffffffffffffffff8262000259565b620002a4868362000259565b95508019841693508086168417925050509392505050565b6000819050919050565b6000819050919050565b6000620002f1620002eb620002e584620002bc565b620002c6565b620002bc565b9050919050565b6000819050919050565b6200030d83620002d0565b620003256200031c82620002f8565b84845462000266565b825550505050565b600090565b6200033c6200032d565b6200034981848462000302565b505050565b5b8181101562000371576200036560008262000332565b6001810190506200034f565b5050565b601f821115620003c0576200038a8162000234565b620003958462000249565b81016020851015620003a5578190505b620003bd620003b48562000249565b8301826200034e565b50505b505050565b600082821c905092915050565b6000620003e560001984600802620003c5565b1980831691505092915050565b6000620004008383620003d2565b9150826002028217905092915050565b6200041b8262000196565b67ffffffffffffffff811115620004375762000436620001a1565b5b620004438254620001ff565b6200045082828562000375565b600060209050601f83116001811462000488576000841562000473578287015190505b6200047f8582620003f2565b865550620004ef565b601f198416620004988662000234565b60005b82811015620004c2578489015182556001820191506020850194506020810190506200049b565b86831015620004e25784890151620004de601f891682620003d2565b8355505b6001600288020188555050505b505050505050565b6133da80620005076000396000f3fe608060405234801561001057600080fd5b50600436106101f05760003560e01c8063715018a61161010f578063a5953547116100a2578063f2fde38b11610071578063f2fde38b14610594578063f85abda1146105b0578063fcf6b5ae146105ce578063fe03e84a146105ec576101f0565b8063a5953547146104fc578063a9059cbb14610518578063aa7bc94914610548578063dd62ed3e14610564576101f0565b806392a8463d116100de57806392a8463d1461047657806395d89b4114610492578063a0712d68146104b0578063a457c2d7146104cc576101f0565b8063715018a6146104145780637ecc2b561461041e5780638d05a4c21461043c5780638da5cb5b14610458576101f0565b80633481bb6111610187578063485e3e1a11610156578063485e3e1a1461038957806349f3b6fe146103a8578063561e7702146103c657806370a08231146103e4576101f0565b80633481bb611461030357806339509351146103215780634016ea731461035157806342966c681461036d576101f0565b80630d13a926116101c35780630d13a9261461027b57806318160ddd1461029757806323b872dd146102b5578063313ce567146102e5576101f0565b806305ecf4f7146101f557806306fdde031461021157806307f3d3cb1461022f578063095ea7b31461024b575b600080fd5b61020f600480360381019061020a91906122ed565b610608565b005b61021961066a565b60405161022691906123aa565b60405180910390f35b610249600480360381019061024491906122ed565b6106fc565b005b6102656004803603810190610260919061242a565b61075e565b6040516102729190612485565b60405180910390f35b610295600480360381019061029091906125d5565b610781565b005b61029f6108e3565b6040516102ac9190612653565b60405180910390f35b6102cf60048036038101906102ca919061266e565b6108ed565b6040516102dc9190612485565b60405180910390f35b6102ed61091c565b6040516102fa91906126dd565b60405180910390f35b61030b610925565b6040516103189190612757565b60405180910390f35b61033b6004803603810190610336919061242a565b61094b565b6040516103489190612485565b60405180910390f35b61036b60048036038101906103669190612772565b610982565b005b610387600480360381019061038291906122ed565b610adb565b005b610391610c1f565b60405161039f92919061279f565b60405180910390f35b6103b0610d62565b6040516103bd9190612653565b60405180910390f35b6103ce610d68565b6040516103db91906127e9565b60405180910390f35b6103fe60048036038101906103f99190612772565b610d8e565b60405161040b9190612653565b60405180910390f35b61041c610dd7565b005b610426610deb565b6040516104339190612653565b60405180910390f35b610456600480360381019061045191906122ed565b610df1565b005b61046061108d565b60405161046d9190612813565b60405180910390f35b610490600480360381019061048b9190612772565b6110b6565b005b61049a61115c565b6040516104a791906123aa565b60405180910390f35b6104ca60048036038101906104c591906122ed565b6111ee565b005b6104e660048036038101906104e1919061242a565b6112e7565b6040516104f39190612485565b60405180910390f35b610516600480360381019061051191906125d5565b61135e565b005b610532600480360381019061052d919061242a565b6114c0565b60405161053f9190612485565b60405180910390f35b610562600480360381019061055d91906122ed565b6114e3565b005b61057e6004803603810190610579919061282e565b61177f565b60405161058b9190612653565b60405180910390f35b6105ae60048036038101906105a99190612772565b611806565b005b6105b8611889565b6040516105c59190612653565b60405180910390f35b6105d661188f565b6040516105e39190612813565b60405180910390f35b61060660048036038101906106019190612772565b6118b5565b005b61061061195b565b806009819055503373ffffffffffffffffffffffffffffffffffffffff167fe2af2e40180851ca869d5b4f94b61cf9241496ca9dbc6e3b2083382ec07a751160095460405161065f9190612653565b60405180910390a250565b6060600480546106799061289d565b80601f01602080910402602001604051908101604052809291908181526020018280546106a59061289d565b80156106f25780601f106106c7576101008083540402835291602001916106f2565b820191906000526020600020905b8154815290600101906020018083116106d557829003601f168201915b5050505050905090565b61070461195b565b806008819055503373ffffffffffffffffffffffffffffffffffffffff167f4bb7ad2630dfff3f1c80235fb217e04e7824290975fcc2851beb4e27e72eb9c26008546040516107539190612653565b60405180910390a250565b6000806107696119d9565b90506107768185856119e1565b600191505092915050565b61078961195b565b8261079330610d8e565b10156107d4576040517f08c379a00000000000000000000000000000000000000000000000000000000081526004016107cb9061291a565b60405180910390fd5b600060095411610819576040517f08c379a000000000000000000000000000000000000000000000000000000000815260040161081090612986565b60405180910390fd5b6000670de0b6b3a76400008461082f9190612a04565b670de0b6b3a76400006009546108459190612a04565b61084f9190612a35565b905061085c308486611baa565b83600a600082825461086e9190612a77565b92505081905550816040516108839190612ae7565b60405180910390208373ffffffffffffffffffffffffffffffffffffffff167f8759d4914e1fc33aa04ea974e3cbf208363e1ff8fd72803cf819289e3d4cf1ad3087856040516108d593929190612afe565b60405180910390a350505050565b6000600354905090565b6000806108f86119d9565b9050610905858285611e23565b610910858585611baa565b60019150509392505050565b60006012905090565b600660009054906101000a900473ffffffffffffffffffffffffffffffffffffffff1681565b6000806109566119d9565b9050610977818585610968858961177f565b6109729190612b35565b6119e1565b600191505092915050565b61098a61195b565b600073ffffffffffffffffffffffffffffffffffffffff16600b60009054906101000a900473ffffffffffffffffffffffffffffffffffffffff1673ffffffffffffffffffffffffffffffffffffffff1614610a1b576040517f08c379a0000000000000000000000000000000000000000000000000000000008152600401610a1290612bb5565b60405180910390fd5b80600b60006101000a81548173ffffffffffffffffffffffffffffffffffffffff021916908373ffffffffffffffffffffffffffffffffffffffff160217905550600b60009054906101000a900473ffffffffffffffffffffffffffffffffffffffff1673ffffffffffffffffffffffffffffffffffffffff163373ffffffffffffffffffffffffffffffffffffffff167f2c639e388bc0e9bec1a30f91c4696708799b3f0da645d0a8f0ec26c44305935860405160405180910390a350565b600b60009054906101000a900473ffffffffffffffffffffffffffffffffffffffff1673ffffffffffffffffffffffffffffffffffffffff163373ffffffffffffffffffffffffffffffffffffffff1614610b6b576040517f08c379a0000000000000000000000000000000000000000000000000000000008152600401610b6290612c47565b60405180910390fd5b80610b7530610d8e565b1015610bb6576040517f08c379a0000000000000000000000000000000000000000000000000000000008152600401610bad9061291a565b60405180910390fd5b610bc03082611eaf565b610bc86108e3565b600a819055503073ffffffffffffffffffffffffffffffffffffffff167f696de425f79f4a40bc6d2122ca50507f0efbeabbff86a84871b7196ab8ea8df782604051610c149190612653565b60405180910390a250565b600080600660009054906101000a900473ffffffffffffffffffffffffffffffffffffffff1673ffffffffffffffffffffffffffffffffffffffff166370a08231306040518263ffffffff1660e01b8152600401610c7d9190612813565b602060405180830381865afa158015610c9a573d6000803e3d6000fd5b505050506040513d601f19601f82011682018060405250810190610cbe9190612c7c565b9150600760009054906101000a900473ffffffffffffffffffffffffffffffffffffffff1673ffffffffffffffffffffffffffffffffffffffff166370a08231306040518263ffffffff1660e01b8152600401610d1b9190612813565b602060405180830381865afa158015610d38573d6000803e3d6000fd5b505050506040513d601f19601f82011682018060405250810190610d5c9190612c7c565b91509091565b60095481565b600760009054906101000a900473ffffffffffffffffffffffffffffffffffffffff1681565b6000600160008373ffffffffffffffffffffffffffffffffffffffff1673ffffffffffffffffffffffffffffffffffffffff168152602001908152602001600020549050919050565b610ddf61195b565b610de9600061207e565b565b600a5481565b80610dfb30610d8e565b1015610e3c576040517f08c379a0000000000000000000000000000000000000000000000000000000008152600401610e339061291a565b60405180910390fd5b600060095411610e81576040517f08c379a0000000000000000000000000000000000000000000000000000000008152600401610e7890612986565b60405180910390fd5b6000670de0b6b3a764000082610e979190612a04565b600954610ea49190612a35565b905080600760009054906101000a900473ffffffffffffffffffffffffffffffffffffffff1673ffffffffffffffffffffffffffffffffffffffff166370a08231336040518263ffffffff1660e01b8152600401610f029190612813565b602060405180830381865afa158015610f1f573d6000803e3d6000fd5b505050506040513d601f19601f82011682018060405250810190610f439190612c7c565b1015610f84576040517f08c379a0000000000000000000000000000000000000000000000000000000008152600401610f7b90612cf5565b60405180910390fd5b600760009054906101000a900473ffffffffffffffffffffffffffffffffffffffff1673ffffffffffffffffffffffffffffffffffffffff1663e3060f2233836040518363ffffffff1660e01b8152600401610fe1929190612d15565b600060405180830381600087803b158015610ffb57600080fd5b505af115801561100f573d6000803e3d6000fd5b5050505061101e303384611baa565b81600a60008282546110309190612a77565b925050819055503373ffffffffffffffffffffffffffffffffffffffff167f7c6ac5c136b06f49647ac1133ca519b5676ec82fb9f58e9ad5ca1afeb059939d30848460405161108193929190612afe565b60405180910390a25050565b60008060009054906101000a900473ffffffffffffffffffffffffffffffffffffffff16905090565b6110be61195b565b80600660006101000a81548173ffffffffffffffffffffffffffffffffffffffff021916908373ffffffffffffffffffffffffffffffffffffffff1602179055508073ffffffffffffffffffffffffffffffffffffffff163373ffffffffffffffffffffffffffffffffffffffff167f830be06b07932bb2e2881ba32668581cdee3c399577cdf53b9d9ec05ae7198aa60405160405180910390a350565b60606005805461116b9061289d565b80601f01602080910402602001604051908101604052809291908181526020018280546111979061289d565b80156111e45780601f106111b9576101008083540402835291602001916111e4565b820191906000526020600020905b8154815290600101906020018083116111c757829003601f168201915b5050505050905090565b600b60009054906101000a900473ffffffffffffffffffffffffffffffffffffffff1673ffffffffffffffffffffffffffffffffffffffff163373ffffffffffffffffffffffffffffffffffffffff161461127e576040517f08c379a000000000000000000000000000000000000000000000000000000000815260040161127590612c47565b60405180910390fd5b6112883082612142565b6112906108e3565b600a819055503073ffffffffffffffffffffffffffffffffffffffff167f30385c845b448a36257a6a1716e6ad2e1bc2cbe333cde1e69fe849ad6511adfe826040516112dc9190612653565b60405180910390a250565b6000806112f26119d9565b90506000611300828661177f565b905083811015611345576040517f08c379a000000000000000000000000000000000000000000000000000000000815260040161133c90612db0565b60405180910390fd5b61135282868684036119e1565b60019250505092915050565b61136661195b565b8261137030610d8e565b10156113b1576040517f08c379a00000000000000000000000000000000000000000000000000000000081526004016113a89061291a565b60405180910390fd5b6000600854116113f6576040517f08c379a00000000000000000000000000000000000000000000000000000000081526004016113ed90612986565b60405180910390fd5b6000670de0b6b3a76400008461140c9190612a04565b670de0b6b3a76400006008546114229190612a04565b61142c9190612a35565b9050611439308486611baa565b83600a600082825461144b9190612a77565b92505081905550816040516114609190612ae7565b60405180910390208373ffffffffffffffffffffffffffffffffffffffff167f5f02b2e42c6ffbebd1549b76bf8bd2e613b44f1153dd124af9e1c234008604443087856040516114b293929190612afe565b60405180910390a350505050565b6000806114cb6119d9565b90506114d8818585611baa565b600191505092915050565b806114ed30610d8e565b101561152e576040517f08c379a00000000000000000000000000000000000000000000000000000000081526004016115259061291a565b60405180910390fd5b600060085411611573576040517f08c379a000000000000000000000000000000000000000000000000000000000815260040161156a90612986565b60405180910390fd5b6000670de0b6b3a7640000826115899190612a04565b6008546115969190612a35565b905080600660009054906101000a900473ffffffffffffffffffffffffffffffffffffffff1673ffffffffffffffffffffffffffffffffffffffff166370a08231336040518263ffffffff1660e01b81526004016115f49190612813565b602060405180830381865afa158015611611573d6000803e3d6000fd5b505050506040513d601f19601f820116820180604052508101906116359190612c7c565b1015611676576040517f08c379a000000000000000000000000000000000000000000000000000000000815260040161166d90612cf5565b60405180910390fd5b600660009054906101000a900473ffffffffffffffffffffffffffffffffffffffff1673ffffffffffffffffffffffffffffffffffffffff1663e3060f2233836040518363ffffffff1660e01b81526004016116d3929190612d15565b600060405180830381600087803b1580156116ed57600080fd5b505af1158015611701573d6000803e3d6000fd5b50505050611710303384611baa565b81600a60008282546117229190612a77565b925050819055503373ffffffffffffffffffffffffffffffffffffffff167fbfb2d47f240a2514f345656ec0f60068f7683420f974614a603e6b23b08f36bb30848460405161177393929190612afe565b60405180910390a25050565b6000600260008473ffffffffffffffffffffffffffffffffffffffff1673ffffffffffffffffffffffffffffffffffffffff16815260200190815260200160002060008373ffffffffffffffffffffffffffffffffffffffff1673ffffffffffffffffffffffffffffffffffffffff16815260200190815260200160002054905092915050565b61180e61195b565b600073ffffffffffffffffffffffffffffffffffffffff168173ffffffffffffffffffffffffffffffffffffffff160361187d576040517f08c379a000000000000000000000000000000000000000000000000000000000815260040161187490612e42565b60405180910390fd5b6118868161207e565b50565b60085481565b600b60009054906101000a900473ffffffffffffffffffffffffffffffffffffffff1681565b6118bd61195b565b80600760006101000a81548173ffffffffffffffffffffffffffffffffffffffff021916908373ffffffffffffffffffffffffffffffffffffffff1602179055508073ffffffffffffffffffffffffffffffffffffffff163373ffffffffffffffffffffffffffffffffffffffff167f51c9a95724308f3b69758603328ff8af83109b54c8b7d8f88a2f3af4b09d09ea60405160405180910390a350565b6119636119d9565b73ffffffffffffffffffffffffffffffffffffffff1661198161108d565b73ffffffffffffffffffffffffffffffffffffffff16146119d7576040517f08c379a00000000000000000000000000000000000000000000000000000000081526004016119ce90612eae565b60405180910390fd5b565b600033905090565b600073ffffffffffffffffffffffffffffffffffffffff168373ffffffffffffffffffffffffffffffffffffffff1603611a50576040517f08c379a0000000000000000000000000000000000000000000000000000000008152600401611a4790612f40565b60405180910390fd5b600073ffffffffffffffffffffffffffffffffffffffff168273ffffffffffffffffffffffffffffffffffffffff1603611abf576040517f08c379a0000000000000000000000000000000000000000000000000000000008152600401611ab690612fd2565b60405180910390fd5b80600260008573ffffffffffffffffffffffffffffffffffffffff1673ffffffffffffffffffffffffffffffffffffffff16815260200190815260200160002060008473ffffffffffffffffffffffffffffffffffffffff1673ffffffffffffffffffffffffffffffffffffffff168152602001908152602001600020819055508173ffffffffffffffffffffffffffffffffffffffff168373ffffffffffffffffffffffffffffffffffffffff167f8c5be1e5ebec7d5bd14f71427d1e84f3dd0314c0f7b2291e5b200ac8c7c3b92583604051611b9d9190612653565b60405180910390a3505050565b600073ffffffffffffffffffffffffffffffffffffffff168373ffffffffffffffffffffffffffffffffffffffff1603611c19576040517f08c379a0000000000000000000000000000000000000000000000000000000008152600401611c1090613064565b60405180910390fd5b600073ffffffffffffffffffffffffffffffffffffffff168273ffffffffffffffffffffffffffffffffffffffff1603611c88576040517f08c379a0000000000000000000000000000000000000000000000000000000008152600401611c7f906130f6565b60405180910390fd5b611c93838383612299565b6000600160008573ffffffffffffffffffffffffffffffffffffffff1673ffffffffffffffffffffffffffffffffffffffff16815260200190815260200160002054905081811015611d1a576040517f08c379a0000000000000000000000000000000000000000000000000000000008152600401611d1190613188565b60405180910390fd5b818103600160008673ffffffffffffffffffffffffffffffffffffffff1673ffffffffffffffffffffffffffffffffffffffff1681526020019081526020016000208190555081600160008573ffffffffffffffffffffffffffffffffffffffff1673ffffffffffffffffffffffffffffffffffffffff168152602001908152602001600020600082825401925050819055508273ffffffffffffffffffffffffffffffffffffffff168473ffffffffffffffffffffffffffffffffffffffff167fddf252ad1be2c89b69c2b068fc378daa952ba7f163c4a11628f55a4df523b3ef84604051611e0a9190612653565b60405180910390a3611e1d84848461229e565b50505050565b6000611e2f848461177f565b90507fffffffffffffffffffffffffffffffffffffffffffffffffffffffffffffffff8114611ea95781811015611e9b576040517f08c379a0000000000000000000000000000000000000000000000000000000008152600401611e92906131f4565b60405180910390fd5b611ea884848484036119e1565b5b50505050565b600073ffffffffffffffffffffffffffffffffffffffff168273ffffffffffffffffffffffffffffffffffffffff1603611f1e576040517f08c379a0000000000000000000000000000000000000000000000000000000008152600401611f1590613286565b60405180910390fd5b611f2a82600083612299565b6000600160008473ffffffffffffffffffffffffffffffffffffffff1673ffffffffffffffffffffffffffffffffffffffff16815260200190815260200160002054905081811015611fb1576040517f08c379a0000000000000000000000000000000000000000000000000000000008152600401611fa890613318565b60405180910390fd5b818103600160008573ffffffffffffffffffffffffffffffffffffffff1673ffffffffffffffffffffffffffffffffffffffff1681526020019081526020016000208190555081600360008282540392505081905550600073ffffffffffffffffffffffffffffffffffffffff168373ffffffffffffffffffffffffffffffffffffffff167fddf252ad1be2c89b69c2b068fc378daa952ba7f163c4a11628f55a4df523b3ef846040516120659190612653565b60405180910390a36120798360008461229e565b505050565b60008060009054906101000a900473ffffffffffffffffffffffffffffffffffffffff169050816000806101000a81548173ffffffffffffffffffffffffffffffffffffffff021916908373ffffffffffffffffffffffffffffffffffffffff1602179055508173ffffffffffffffffffffffffffffffffffffffff168173ffffffffffffffffffffffffffffffffffffffff167f8be0079c531659141344cd1fd0a4f28419497f9722a3daafe3b4186f6b6457e060405160405180910390a35050565b600073ffffffffffffffffffffffffffffffffffffffff168273ffffffffffffffffffffffffffffffffffffffff16036121b1576040517f08c379a00000000000000000000000000000000000000000000000000000000081526004016121a890613384565b60405180910390fd5b6121bd60008383612299565b80600360008282546121cf9190612b35565b9250508190555080600160008473ffffffffffffffffffffffffffffffffffffffff1673ffffffffffffffffffffffffffffffffffffffff168152602001908152602001600020600082825401925050819055508173ffffffffffffffffffffffffffffffffffffffff16600073ffffffffffffffffffffffffffffffffffffffff167fddf252ad1be2c89b69c2b068fc378daa952ba7f163c4a11628f55a4df523b3ef836040516122819190612653565b60405180910390a36122956000838361229e565b5050565b505050565b505050565b6000604051905090565b600080fd5b600080fd5b6000819050919050565b6122ca816122b7565b81146122d557600080fd5b50565b6000813590506122e7816122c1565b92915050565b600060208284031215612303576123026122ad565b5b6000612311848285016122d8565b91505092915050565b600081519050919050565b600082825260208201905092915050565b60005b83811015612354578082015181840152602081019050612339565b60008484015250505050565b6000601f19601f8301169050919050565b600061237c8261231a565b6123868185612325565b9350612396818560208601612336565b61239f81612360565b840191505092915050565b600060208201905081810360008301526123c48184612371565b905092915050565b600073ffffffffffffffffffffffffffffffffffffffff82169050919050565b60006123f7826123cc565b9050919050565b612407816123ec565b811461241257600080fd5b50565b600081359050612424816123fe565b92915050565b60008060408385031215612441576124406122ad565b5b600061244f85828601612415565b9250506020612460858286016122d8565b9150509250929050565b60008115159050919050565b61247f8161246a565b82525050565b600060208201905061249a6000830184612476565b92915050565b600080fd5b600080fd5b7f4e487b7100000000000000000000000000000000000000000000000000000000600052604160045260246000fd5b6124e282612360565b810181811067ffffffffffffffff82111715612501576125006124aa565b5b80604052505050565b60006125146122a3565b905061252082826124d9565b919050565b600067ffffffffffffffff8211156125405761253f6124aa565b5b61254982612360565b9050602081019050919050565b82818337600083830152505050565b600061257861257384612525565b61250a565b905082815260208101848484011115612594576125936124a5565b5b61259f848285612556565b509392505050565b600082601f8301126125bc576125bb6124a0565b5b81356125cc848260208601612565565b91505092915050565b6000806000606084860312156125ee576125ed6122ad565b5b60006125fc868287016122d8565b935050602061260d86828701612415565b925050604084013567ffffffffffffffff81111561262e5761262d6122b2565b5b61263a868287016125a7565b9150509250925092565b61264d816122b7565b82525050565b60006020820190506126686000830184612644565b92915050565b600080600060608486031215612687576126866122ad565b5b600061269586828701612415565b93505060206126a686828701612415565b92505060406126b7868287016122d8565b9150509250925092565b600060ff82169050919050565b6126d7816126c1565b82525050565b60006020820190506126f260008301846126ce565b92915050565b6000819050919050565b600061271d612718612713846123cc565b6126f8565b6123cc565b9050919050565b600061272f82612702565b9050919050565b600061274182612724565b9050919050565b61275181612736565b82525050565b600060208201905061276c6000830184612748565b92915050565b600060208284031215612788576127876122ad565b5b600061279684828501612415565b91505092915050565b60006040820190506127b46000830185612644565b6127c16020830184612644565b9392505050565b60006127d382612724565b9050919050565b6127e3816127c8565b82525050565b60006020820190506127fe60008301846127da565b92915050565b61280d816123ec565b82525050565b60006020820190506128286000830184612804565b92915050565b60008060408385031215612845576128446122ad565b5b600061285385828601612415565b925050602061286485828601612415565b9150509250929050565b7f4e487b7100000000000000000000000000000000000000000000000000000000600052602260045260246000fd5b600060028204905060018216806128b557607f821691505b6020821081036128c8576128c761286e565b5b50919050565b7f496e73756666696369656e742045474f4c4420696e20436f6e74726163742e00600082015250565b6000612904601f83612325565b915061290f826128ce565b602082019050919050565b60006020820190508181036000830152612933816128f7565b9050919050565b7f45474f4c44205072696365206e6f742073657400000000000000000000000000600082015250565b6000612970601383612325565b915061297b8261293a565b602082019050919050565b6000602082019050818103600083015261299f81612963565b9050919050565b7f4e487b7100000000000000000000000000000000000000000000000000000000600052601260045260246000fd5b7f4e487b7100000000000000000000000000000000000000000000000000000000600052601160045260246000fd5b6000612a0f826122b7565b9150612a1a836122b7565b925082612a2a57612a296129a6565b5b828204905092915050565b6000612a40826122b7565b9150612a4b836122b7565b9250828202612a59816122b7565b91508282048414831517612a7057612a6f6129d5565b5b5092915050565b6000612a82826122b7565b9150612a8d836122b7565b9250828203905081811115612aa557612aa46129d5565b5b92915050565b600081905092915050565b6000612ac18261231a565b612acb8185612aab565b9350612adb818560208601612336565b80840191505092915050565b6000612af38284612ab6565b915081905092915050565b6000606082019050612b136000830186612804565b612b206020830185612644565b612b2d6040830184612644565b949350505050565b6000612b40826122b7565b9150612b4b836122b7565b9250828201905080821115612b6357612b626129d5565b5b92915050565b7f696e76656e746f72792048616e646c657220616c7265616479207365742e0000600082015250565b6000612b9f601e83612325565b9150612baa82612b69565b602082019050919050565b60006020820190508181036000830152612bce81612b92565b9050919050565b7f4f6e6c7920496e76656e746f72792048616e646c657220436f6e74726163742060008201527f616c6c6f7765642e000000000000000000000000000000000000000000000000602082015250565b6000612c31602883612325565b9150612c3c82612bd5565b604082019050919050565b60006020820190508181036000830152612c6081612c24565b9050919050565b600081519050612c76816122c1565b92915050565b600060208284031215612c9257612c916122ad565b5b6000612ca084828501612c67565b91505092915050565b7f496e737566666369656e742042616c616e636500000000000000000000000000600082015250565b6000612cdf601383612325565b9150612cea82612ca9565b602082019050919050565b60006020820190508181036000830152612d0e81612cd2565b9050919050565b6000604082019050612d2a6000830185612804565b612d376020830184612644565b9392505050565b7f45524332303a2064656372656173656420616c6c6f77616e63652062656c6f7760008201527f207a65726f000000000000000000000000000000000000000000000000000000602082015250565b6000612d9a602583612325565b9150612da582612d3e565b604082019050919050565b60006020820190508181036000830152612dc981612d8d565b9050919050565b7f4f776e61626c653a206e6577206f776e657220697320746865207a65726f206160008201527f6464726573730000000000000000000000000000000000000000000000000000602082015250565b6000612e2c602683612325565b9150612e3782612dd0565b604082019050919050565b60006020820190508181036000830152612e5b81612e1f565b9050919050565b7f4f776e61626c653a2063616c6c6572206973206e6f7420746865206f776e6572600082015250565b6000612e98602083612325565b9150612ea382612e62565b602082019050919050565b60006020820190508181036000830152612ec781612e8b565b9050919050565b7f45524332303a20617070726f76652066726f6d20746865207a65726f2061646460008201527f7265737300000000000000000000000000000000000000000000000000000000602082015250565b6000612f2a602483612325565b9150612f3582612ece565b604082019050919050565b60006020820190508181036000830152612f5981612f1d565b9050919050565b7f45524332303a20617070726f766520746f20746865207a65726f20616464726560008201527f7373000000000000000000000000000000000000000000000000000000000000602082015250565b6000612fbc602283612325565b9150612fc782612f60565b604082019050919050565b60006020820190508181036000830152612feb81612faf565b9050919050565b7f45524332303a207472616e736665722066726f6d20746865207a65726f20616460008201527f6472657373000000000000000000000000000000000000000000000000000000602082015250565b600061304e602583612325565b915061305982612ff2565b604082019050919050565b6000602082019050818103600083015261307d81613041565b9050919050565b7f45524332303a207472616e7366657220746f20746865207a65726f206164647260008201527f6573730000000000000000000000000000000000000000000000000000000000602082015250565b60006130e0602383612325565b91506130eb82613084565b604082019050919050565b6000602082019050818103600083015261310f816130d3565b9050919050565b7f45524332303a207472616e7366657220616d6f756e742065786365656473206260008201527f616c616e63650000000000000000000000000000000000000000000000000000602082015250565b6000613172602683612325565b915061317d82613116565b604082019050919050565b600060208201905081810360008301526131a181613165565b9050919050565b7f45524332303a20696e73756666696369656e7420616c6c6f77616e6365000000600082015250565b60006131de601d83612325565b91506131e9826131a8565b602082019050919050565b6000602082019050818103600083015261320d816131d1565b9050919050565b7f45524332303a206275726e2066726f6d20746865207a65726f2061646472657360008201527f7300000000000000000000000000000000000000000000000000000000000000602082015250565b6000613270602183612325565b915061327b82613214565b604082019050919050565b6000602082019050818103600083015261329f81613263565b9050919050565b7f45524332303a206275726e20616d6f756e7420657863656564732062616c616e60008201527f6365000000000000000000000000000000000000000000000000000000000000602082015250565b6000613302602283612325565b915061330d826132a6565b604082019050919050565b60006020820190508181036000830152613331816132f5565b9050919050565b7f45524332303a206d696e7420746f20746865207a65726f206164647265737300600082015250565b600061336e601f83612325565b915061337982613338565b602082019050919050565b6000602082019050818103600083015261339d81613361565b905091905056fea2646970667358221220b0d0f019156fabdb88e59c0f438c559948328f92c38a0cbd03043f24cb5d337c64736f6c63430008110033",
  "immutableReferences": {},
  "source": "//SPDX-License-Identifier: MIT\n\npragma solidity ^0.8.17;\n\nimport \"@openzeppelin/contracts/token/ERC20/ERC20.sol\";\nimport \"@openzeppelin/contracts/access/Ownable.sol\";\nimport \"./EINR.sol\";\nimport \"./EUSD.sol\";\n\ncontract EGOLDContract is Ownable, ERC20 {\n    event Minted(address indexed _to, uint256 _amount);\n    event Burned(address indexed _to, uint256 _amount);\n    event InventoryAddressSet(\n        address indexed _setBy,\n        address indexed _InventoryAdd\n    );\n    event EINRAddressSet(address indexed _setBy, address indexed _EINRAdd);\n    event EUSDAddressSet(address indexed _setBy, address indexed _EUSDAdd);\n    event EGOLD_INR_PriceSet(address indexed _setBy, uint256 _EGOLDPriceINR);\n    event EGOLD_USD_PriceSet(address indexed _setBy, uint256 _EGOLDPriceUSD);\n    event EGOLD_EINR_Transfer(\n        address _from,\n        address indexed _to,\n        uint256 _EGoldAmount,\n        uint256 _EINRAmount\n    );\n    event EGOLD_INR_Transfer(\n        address _from,\n        address indexed _to,\n        string indexed _receipt,\n        uint256 _EGoldmount,\n        uint256 _INRAmount\n    );\n    event EGOLD_EUSD_Transfer(\n        address _from,\n        address indexed _to,\n        uint256 _EGoldAmount,\n        uint256 _EUSDAmount\n    );\n    event EGOLD_USD_Transfer(\n        address _from,\n        address indexed _to,\n        string indexed _receipt,\n        uint256 _EGoldmount,\n        uint256 _USDAmount\n    );\n\n    EINRContract public _EINR;\n    EUSDContract public _EUSD;\n    uint256 public EGoldPriceINR;\n    uint256 public EGoldPriceUSD;\n    uint256 public availableSupply;\n    address public inventoryHandler;\n\n    modifier onlyInventoryHandler() {\n        require(\n            msg.sender == inventoryHandler,\n            \"Only Inventory Handler Contract allowed.\"\n        );\n        _;\n    }\n\n    constructor() ERC20(\"EGOLD\", \"EGOLD\") {}\n\n    function setInventoryHandler(address _address) public onlyOwner {\n        require(\n            inventoryHandler == address(0),\n            \"inventory Handler already set.\"\n        );\n        inventoryHandler = _address;\n        emit InventoryAddressSet(msg.sender, inventoryHandler);\n    }\n\n    function mint(uint256 _amount) public onlyInventoryHandler {\n        _mint(address(this), _amount);\n        availableSupply = totalSupply();\n        emit Minted(address(this), _amount);\n    }\n\n    function burn(uint256 _amount) public onlyInventoryHandler {\n        require(\n            balanceOf(address(this)) >= _amount,\n            \"Insufficient EGOLD in Contract.\"\n        );\n        _burn(address(this), _amount);\n        availableSupply = totalSupply();\n        emit Burned(address(this), _amount);\n    }\n\n    function setEINR(address _Einr) public onlyOwner {\n        _EINR = EINRContract(_Einr);\n        emit EINRAddressSet(msg.sender, _Einr);\n    }\n\n    function setEUSD(address _Eusd) public onlyOwner {\n        _EUSD = EUSDContract(_Eusd);\n        emit EUSDAddressSet(msg.sender, _Eusd);\n    }\n\n    function setEGoldPriceINR(uint256 _price) public onlyOwner{\n        EGoldPriceINR = _price;\n        emit EGOLD_INR_PriceSet(msg.sender, EGoldPriceINR);\n    }\n\n    function setEGoldPriceUSD(uint256 _price) public onlyOwner{\n        EGoldPriceUSD = _price;\n        emit EGOLD_USD_PriceSet(msg.sender, EGoldPriceUSD);\n    }\n\n    function buyEGoldEINR(uint256 _EGoldAmount) public {\n        require(\n            balanceOf(address(this)) >= _EGoldAmount,\n            \"Insufficient EGOLD in Contract.\"\n        );\n        require(EGoldPriceINR > 0, \"EGOLD Price not set\");\n        uint256 totalEINR = EGoldPriceINR * (_EGoldAmount / 10**18);\n        require(\n            _EINR.balanceOf(msg.sender) >= totalEINR,\n            \"Insuffcient Balance\"\n        );\n        _EINR.transferBal(msg.sender, totalEINR);\n        _transfer(address(this), msg.sender, _EGoldAmount);\n        availableSupply -= _EGoldAmount;\n        emit EGOLD_EINR_Transfer(\n            address(this),\n            msg.sender,\n            _EGoldAmount,\n            totalEINR\n        );\n    }\n\n    function buyEGoldINR(uint256 _EGoldAmount, address _to, string memory _receipt) public onlyOwner{\n        require(\n            balanceOf(address(this)) >= _EGoldAmount,\n            \"Insufficient EGOLD in Contract.\"\n        );\n        require(EGoldPriceINR > 0, \"EGOLD Price not set\");\n        uint256 totalINR = (EGoldPriceINR / 10**18) * (_EGoldAmount / 10**18);\n        _transfer(address(this), _to, _EGoldAmount);\n        availableSupply -= _EGoldAmount;\n        emit EGOLD_INR_Transfer(\n            address(this),\n            _to,\n            _receipt,\n            _EGoldAmount,\n            totalINR\n        );\n    }\n\n\n    function buyEGoldEUSD(uint256 _EGoldAmount) public {\n        require(\n            balanceOf(address(this)) >= _EGoldAmount,\n            \"Insufficient EGOLD in Contract.\"\n        );\n        require(EGoldPriceUSD > 0, \"EGOLD Price not set\");\n        uint256 totalEUSD = EGoldPriceUSD * (_EGoldAmount / 10**18);\n        require(\n            _EUSD.balanceOf(msg.sender) >= totalEUSD,\n            \"Insuffcient Balance\"\n        );\n        _EUSD.transferBal(msg.sender, totalEUSD);\n        _transfer(address(this), msg.sender, _EGoldAmount);\n        availableSupply -= _EGoldAmount;\n        emit EGOLD_EUSD_Transfer(\n            address(this),\n            msg.sender,\n            _EGoldAmount,\n            totalEUSD\n        );\n    }\n\n    function buyEGoldUSD(uint256 _EGoldAmount, address _to, string memory _receipt) public onlyOwner{\n        require(\n            balanceOf(address(this)) >= _EGoldAmount,\n            \"Insufficient EGOLD in Contract.\"\n        );\n        require(EGoldPriceUSD > 0, \"EGOLD Price not set\");\n        uint256 totalUSD = (EGoldPriceUSD / 10**18) * (_EGoldAmount / 10**18);\n        _transfer(address(this), _to, _EGoldAmount);\n        availableSupply -= _EGoldAmount;\n        emit EGOLD_USD_Transfer(\n            address(this),\n            _to,\n            _receipt,\n            _EGoldAmount,\n            totalUSD\n        );\n    }\n\n    function BalEINR()\n        public\n        view\n        returns (uint256 _BalEINR, uint256 _BalEUSD)\n    {\n        _BalEINR = _EINR.balanceOf(address(this));\n        _BalEINR = _EUSD.balanceOf(address(this));\n        return (_BalEINR, _BalEUSD);\n    }\n}\n",
  "sourcePath": "/home/neosoft/S/EGOLD-EINR-POC/solidity/contracts/EGOLD.sol",
  "compiler": {
    "name": "solc",
    "version": "0.8.17+commit.8df45f5f.Emscripten.clang"
  },
  "schemaVersion": "3.4.11",
  "updatedAt": "2023-03-10T03:33:43.419Z",
  "networkType": "ethereum",
  "devdoc": {
    "kind": "dev",
    "methods": {
      "allowance(address,address)": {
        "details": "See {IERC20-allowance}."
      },
      "approve(address,uint256)": {
        "details": "See {IERC20-approve}. NOTE: If `amount` is the maximum `uint256`, the allowance is not updated on `transferFrom`. This is semantically equivalent to an infinite approval. Requirements: - `spender` cannot be the zero address."
      },
      "balanceOf(address)": {
        "details": "See {IERC20-balanceOf}."
      },
      "decimals()": {
        "details": "Returns the number of decimals used to get its user representation. For example, if `decimals` equals `2`, a balance of `505` tokens should be displayed to a user as `5.05` (`505 / 10 ** 2`). Tokens usually opt for a value of 18, imitating the relationship between Ether and Wei. This is the value {ERC20} uses, unless this function is overridden; NOTE: This information is only used for _display_ purposes: it in no way affects any of the arithmetic of the contract, including {IERC20-balanceOf} and {IERC20-transfer}."
      },
      "decreaseAllowance(address,uint256)": {
        "details": "Atomically decreases the allowance granted to `spender` by the caller. This is an alternative to {approve} that can be used as a mitigation for problems described in {IERC20-approve}. Emits an {Approval} event indicating the updated allowance. Requirements: - `spender` cannot be the zero address. - `spender` must have allowance for the caller of at least `subtractedValue`."
      },
      "increaseAllowance(address,uint256)": {
        "details": "Atomically increases the allowance granted to `spender` by the caller. This is an alternative to {approve} that can be used as a mitigation for problems described in {IERC20-approve}. Emits an {Approval} event indicating the updated allowance. Requirements: - `spender` cannot be the zero address."
      },
      "name()": {
        "details": "Returns the name of the token."
      },
      "owner()": {
        "details": "Returns the address of the current owner."
      },
      "renounceOwnership()": {
        "details": "Leaves the contract without owner. It will not be possible to call `onlyOwner` functions anymore. Can only be called by the current owner. NOTE: Renouncing ownership will leave the contract without an owner, thereby removing any functionality that is only available to the owner."
      },
      "symbol()": {
        "details": "Returns the symbol of the token, usually a shorter version of the name."
      },
      "totalSupply()": {
        "details": "See {IERC20-totalSupply}."
      },
      "transfer(address,uint256)": {
        "details": "See {IERC20-transfer}. Requirements: - `to` cannot be the zero address. - the caller must have a balance of at least `amount`."
      },
      "transferFrom(address,address,uint256)": {
        "details": "See {IERC20-transferFrom}. Emits an {Approval} event indicating the updated allowance. This is not required by the EIP. See the note at the beginning of {ERC20}. NOTE: Does not update the allowance if the current allowance is the maximum `uint256`. Requirements: - `from` and `to` cannot be the zero address. - `from` must have a balance of at least `amount`. - the caller must have allowance for ``from``'s tokens of at least `amount`."
      },
      "transferOwnership(address)": {
        "details": "Transfers ownership of the contract to a new account (`newOwner`). Can only be called by the current owner."
      }
    },
    "version": 1
  },
  "userdoc": {
    "kind": "user",
    "methods": {},
    "version": 1
  }
}