{
  "contractName": "EGOLDContract",
  "abi": [
    {
      "inputs": [],
      "stateMutability": "nonpayable",
      "type": "constructor"
    },
    {
      "anonymous": false,
      "inputs": [
        {
          "indexed": true,
          "internalType": "address",
          "name": "owner",
          "type": "address"
        },
        {
          "indexed": true,
          "internalType": "address",
          "name": "spender",
          "type": "address"
        },
        {
          "indexed": false,
          "internalType": "uint256",
          "name": "value",
          "type": "uint256"
        }
      ],
      "name": "Approval",
      "type": "event"
    },
    {
      "anonymous": false,
      "inputs": [
        {
          "indexed": true,
          "internalType": "address",
          "name": "_to",
          "type": "address"
        },
        {
          "indexed": false,
          "internalType": "uint256",
          "name": "_amount",
          "type": "uint256"
        }
      ],
      "name": "Burned",
      "type": "event"
    },
    {
      "anonymous": false,
      "inputs": [
        {
          "indexed": false,
          "internalType": "address",
          "name": "_from",
          "type": "address"
        },
        {
          "indexed": true,
          "internalType": "address",
          "name": "_to",
          "type": "address"
        },
        {
          "indexed": false,
          "internalType": "uint256",
          "name": "_EGoldAmount",
          "type": "uint256"
        },
        {
          "indexed": false,
          "internalType": "uint256",
          "name": "_EINRAmount",
          "type": "uint256"
        }
      ],
      "name": "EGOLD_EINR_Transfer",
      "type": "event"
    },
    {
      "anonymous": false,
      "inputs": [
        {
          "indexed": false,
          "internalType": "address",
          "name": "_from",
          "type": "address"
        },
        {
          "indexed": true,
          "internalType": "address",
          "name": "_to",
          "type": "address"
        },
        {
          "indexed": false,
          "internalType": "uint256",
          "name": "_EGoldAmount",
          "type": "uint256"
        },
        {
          "indexed": false,
          "internalType": "uint256",
          "name": "_EUSDAmount",
          "type": "uint256"
        }
      ],
      "name": "EGOLD_EUSD_Transfer",
      "type": "event"
    },
    {
      "anonymous": false,
      "inputs": [
        {
          "indexed": true,
          "internalType": "address",
          "name": "_setBy",
          "type": "address"
        },
        {
          "indexed": false,
          "internalType": "uint256",
          "name": "_EGOLDPriceINR",
          "type": "uint256"
        }
      ],
      "name": "EGOLD_INR_PriceSet",
      "type": "event"
    },
    {
      "anonymous": false,
      "inputs": [
        {
          "indexed": false,
          "internalType": "address",
          "name": "_from",
          "type": "address"
        },
        {
          "indexed": true,
          "internalType": "address",
          "name": "_to",
          "type": "address"
        },
        {
          "indexed": true,
          "internalType": "bytes32",
          "name": "_receipt",
          "type": "bytes32"
        },
        {
          "indexed": false,
          "internalType": "uint256",
          "name": "_EGoldmount",
          "type": "uint256"
        },
        {
          "indexed": false,
          "internalType": "uint256",
          "name": "_INRAmount",
          "type": "uint256"
        }
      ],
      "name": "EGOLD_INR_Transfer",
      "type": "event"
    },
    {
      "anonymous": false,
      "inputs": [
        {
          "indexed": true,
          "internalType": "address",
          "name": "_setBy",
          "type": "address"
        },
        {
          "indexed": false,
          "internalType": "uint256",
          "name": "_EGOLDPriceUSD",
          "type": "uint256"
        }
      ],
      "name": "EGOLD_USD_PriceSet",
      "type": "event"
    },
    {
      "anonymous": false,
      "inputs": [
        {
          "indexed": false,
          "internalType": "address",
          "name": "_from",
          "type": "address"
        },
        {
          "indexed": true,
          "internalType": "address",
          "name": "_to",
          "type": "address"
        },
        {
          "indexed": true,
          "internalType": "bytes32",
          "name": "_receipt",
          "type": "bytes32"
        },
        {
          "indexed": false,
          "internalType": "uint256",
          "name": "_EGoldmount",
          "type": "uint256"
        },
        {
          "indexed": false,
          "internalType": "uint256",
          "name": "_USDAmount",
          "type": "uint256"
        }
      ],
      "name": "EGOLD_USD_Transfer",
      "type": "event"
    },
    {
      "anonymous": false,
      "inputs": [
        {
          "indexed": true,
          "internalType": "address",
          "name": "_setBy",
          "type": "address"
        },
        {
          "indexed": true,
          "internalType": "address",
          "name": "_EINRAdd",
          "type": "address"
        }
      ],
      "name": "EINRAddressSet",
      "type": "event"
    },
    {
      "anonymous": false,
      "inputs": [
        {
          "indexed": true,
          "internalType": "address",
          "name": "_setBy",
          "type": "address"
        },
        {
          "indexed": true,
          "internalType": "address",
          "name": "_EUSDAdd",
          "type": "address"
        }
      ],
      "name": "EUSDAddressSet",
      "type": "event"
    },
    {
      "anonymous": false,
      "inputs": [
        {
          "indexed": true,
          "internalType": "address",
          "name": "_setBy",
          "type": "address"
        },
        {
          "indexed": true,
          "internalType": "address",
          "name": "_InventoryAdd",
          "type": "address"
        }
      ],
      "name": "InventoryAddressSet",
      "type": "event"
    },
    {
      "anonymous": false,
      "inputs": [
        {
          "indexed": true,
          "internalType": "address",
          "name": "_to",
          "type": "address"
        },
        {
          "indexed": false,
          "internalType": "uint256",
          "name": "_amount",
          "type": "uint256"
        }
      ],
      "name": "Minted",
      "type": "event"
    },
    {
      "anonymous": false,
      "inputs": [
        {
          "indexed": true,
          "internalType": "address",
          "name": "_setBy",
          "type": "address"
        },
        {
          "indexed": true,
          "internalType": "address",
          "name": "_OwnableAddress",
          "type": "address"
        }
      ],
      "name": "OwnableAddressSet",
      "type": "event"
    },
    {
      "anonymous": false,
      "inputs": [
        {
          "indexed": true,
          "internalType": "address",
          "name": "from",
          "type": "address"
        },
        {
          "indexed": true,
          "internalType": "address",
          "name": "to",
          "type": "address"
        },
        {
          "indexed": false,
          "internalType": "uint256",
          "name": "value",
          "type": "uint256"
        }
      ],
      "name": "Transfer",
      "type": "event"
    },
    {
      "inputs": [],
      "name": "EGoldPriceINR",
      "outputs": [
        {
          "internalType": "uint256",
          "name": "",
          "type": "uint256"
        }
      ],
      "stateMutability": "view",
      "type": "function",
      "constant": true
    },
    {
      "inputs": [],
      "name": "EGoldPriceUSD",
      "outputs": [
        {
          "internalType": "uint256",
          "name": "",
          "type": "uint256"
        }
      ],
      "stateMutability": "view",
      "type": "function",
      "constant": true
    },
    {
      "inputs": [],
      "name": "_EINR",
      "outputs": [
        {
          "internalType": "contract EINRContract",
          "name": "",
          "type": "address"
        }
      ],
      "stateMutability": "view",
      "type": "function",
      "constant": true
    },
    {
      "inputs": [],
      "name": "_EUSD",
      "outputs": [
        {
          "internalType": "contract EUSDContract",
          "name": "",
          "type": "address"
        }
      ],
      "stateMutability": "view",
      "type": "function",
      "constant": true
    },
    {
      "inputs": [
        {
          "internalType": "address",
          "name": "owner",
          "type": "address"
        },
        {
          "internalType": "address",
          "name": "spender",
          "type": "address"
        }
      ],
      "name": "allowance",
      "outputs": [
        {
          "internalType": "uint256",
          "name": "",
          "type": "uint256"
        }
      ],
      "stateMutability": "view",
      "type": "function",
      "constant": true
    },
    {
      "inputs": [
        {
          "internalType": "address",
          "name": "spender",
          "type": "address"
        },
        {
          "internalType": "uint256",
          "name": "amount",
          "type": "uint256"
        }
      ],
      "name": "approve",
      "outputs": [
        {
          "internalType": "bool",
          "name": "",
          "type": "bool"
        }
      ],
      "stateMutability": "nonpayable",
      "type": "function"
    },
    {
      "inputs": [],
      "name": "availableSupply",
      "outputs": [
        {
          "internalType": "uint256",
          "name": "",
          "type": "uint256"
        }
      ],
      "stateMutability": "view",
      "type": "function",
      "constant": true
    },
    {
      "inputs": [
        {
          "internalType": "address",
          "name": "account",
          "type": "address"
        }
      ],
      "name": "balanceOf",
      "outputs": [
        {
          "internalType": "uint256",
          "name": "",
          "type": "uint256"
        }
      ],
      "stateMutability": "view",
      "type": "function",
      "constant": true
    },
    {
      "inputs": [],
      "name": "decimals",
      "outputs": [
        {
          "internalType": "uint8",
          "name": "",
          "type": "uint8"
        }
      ],
      "stateMutability": "view",
      "type": "function",
      "constant": true
    },
    {
      "inputs": [
        {
          "internalType": "address",
          "name": "spender",
          "type": "address"
        },
        {
          "internalType": "uint256",
          "name": "subtractedValue",
          "type": "uint256"
        }
      ],
      "name": "decreaseAllowance",
      "outputs": [
        {
          "internalType": "bool",
          "name": "",
          "type": "bool"
        }
      ],
      "stateMutability": "nonpayable",
      "type": "function"
    },
    {
      "inputs": [
        {
          "internalType": "address",
          "name": "spender",
          "type": "address"
        },
        {
          "internalType": "uint256",
          "name": "addedValue",
          "type": "uint256"
        }
      ],
      "name": "increaseAllowance",
      "outputs": [
        {
          "internalType": "bool",
          "name": "",
          "type": "bool"
        }
      ],
      "stateMutability": "nonpayable",
      "type": "function"
    },
    {
      "inputs": [],
      "name": "inventoryHandler",
      "outputs": [
        {
          "internalType": "address",
          "name": "",
          "type": "address"
        }
      ],
      "stateMutability": "view",
      "type": "function",
      "constant": true
    },
    {
      "inputs": [],
      "name": "name",
      "outputs": [
        {
          "internalType": "string",
          "name": "",
          "type": "string"
        }
      ],
      "stateMutability": "view",
      "type": "function",
      "constant": true
    },
    {
      "inputs": [],
      "name": "ownable",
      "outputs": [
        {
          "internalType": "contract OwnableContract",
          "name": "",
          "type": "address"
        }
      ],
      "stateMutability": "view",
      "type": "function",
      "constant": true
    },
    {
      "inputs": [],
      "name": "symbol",
      "outputs": [
        {
          "internalType": "string",
          "name": "",
          "type": "string"
        }
      ],
      "stateMutability": "view",
      "type": "function",
      "constant": true
    },
    {
      "inputs": [],
      "name": "totalSupply",
      "outputs": [
        {
          "internalType": "uint256",
          "name": "",
          "type": "uint256"
        }
      ],
      "stateMutability": "view",
      "type": "function",
      "constant": true
    },
    {
      "inputs": [
        {
          "internalType": "address",
          "name": "to",
          "type": "address"
        },
        {
          "internalType": "uint256",
          "name": "amount",
          "type": "uint256"
        }
      ],
      "name": "transfer",
      "outputs": [
        {
          "internalType": "bool",
          "name": "",
          "type": "bool"
        }
      ],
      "stateMutability": "nonpayable",
      "type": "function"
    },
    {
      "inputs": [
        {
          "internalType": "address",
          "name": "from",
          "type": "address"
        },
        {
          "internalType": "address",
          "name": "to",
          "type": "address"
        },
        {
          "internalType": "uint256",
          "name": "amount",
          "type": "uint256"
        }
      ],
      "name": "transferFrom",
      "outputs": [
        {
          "internalType": "bool",
          "name": "",
          "type": "bool"
        }
      ],
      "stateMutability": "nonpayable",
      "type": "function"
    },
    {
      "inputs": [
        {
          "internalType": "address",
          "name": "_ownable",
          "type": "address"
        }
      ],
      "name": "setOwnable",
      "outputs": [
        {
          "internalType": "bool",
          "name": "",
          "type": "bool"
        }
      ],
      "stateMutability": "nonpayable",
      "type": "function"
    },
    {
      "inputs": [
        {
          "internalType": "address",
          "name": "_address",
          "type": "address"
        }
      ],
      "name": "setInventoryHandler",
      "outputs": [],
      "stateMutability": "nonpayable",
      "type": "function"
    },
    {
      "inputs": [
        {
          "internalType": "uint256",
          "name": "_amount",
          "type": "uint256"
        }
      ],
      "name": "mint",
      "outputs": [],
      "stateMutability": "nonpayable",
      "type": "function"
    },
    {
      "inputs": [
        {
          "internalType": "uint256",
          "name": "_amount",
          "type": "uint256"
        }
      ],
      "name": "burn",
      "outputs": [],
      "stateMutability": "nonpayable",
      "type": "function"
    },
    {
      "inputs": [
        {
          "internalType": "address",
          "name": "_Einr",
          "type": "address"
        }
      ],
      "name": "setEINR",
      "outputs": [],
      "stateMutability": "nonpayable",
      "type": "function"
    },
    {
      "inputs": [
        {
          "internalType": "address",
          "name": "_Eusd",
          "type": "address"
        }
      ],
      "name": "setEUSD",
      "outputs": [],
      "stateMutability": "nonpayable",
      "type": "function"
    },
    {
      "inputs": [
        {
          "internalType": "uint256",
          "name": "_price",
          "type": "uint256"
        }
      ],
      "name": "setEGoldPriceINR",
      "outputs": [],
      "stateMutability": "nonpayable",
      "type": "function"
    },
    {
      "inputs": [
        {
          "internalType": "uint256",
          "name": "_price",
          "type": "uint256"
        }
      ],
      "name": "setEGoldPriceUSD",
      "outputs": [],
      "stateMutability": "nonpayable",
      "type": "function"
    },
    {
      "inputs": [
        {
          "internalType": "uint256",
          "name": "_EGoldAmount",
          "type": "uint256"
        }
      ],
      "name": "buyEGoldEINR",
      "outputs": [],
      "stateMutability": "nonpayable",
      "type": "function"
    },
    {
      "inputs": [
        {
          "internalType": "uint256",
          "name": "_EGoldAmount",
          "type": "uint256"
        },
        {
          "internalType": "address",
          "name": "_to",
          "type": "address"
        },
        {
          "internalType": "bytes32",
          "name": "_receipt",
          "type": "bytes32"
        }
      ],
      "name": "buyEGoldINR",
      "outputs": [],
      "stateMutability": "nonpayable",
      "type": "function"
    },
    {
      "inputs": [
        {
          "internalType": "uint256",
          "name": "_EGoldAmount",
          "type": "uint256"
        }
      ],
      "name": "buyEGoldEUSD",
      "outputs": [],
      "stateMutability": "nonpayable",
      "type": "function"
    },
    {
      "inputs": [
        {
          "internalType": "uint256",
          "name": "_EGoldAmount",
          "type": "uint256"
        },
        {
          "internalType": "address",
          "name": "_to",
          "type": "address"
        },
        {
          "internalType": "bytes32",
          "name": "_receipt",
          "type": "bytes32"
        }
      ],
      "name": "buyEGoldUSD",
      "outputs": [],
      "stateMutability": "nonpayable",
      "type": "function"
    },
    {
      "inputs": [],
      "name": "BalEINR",
      "outputs": [
        {
          "internalType": "uint256",
          "name": "_BalEINR",
          "type": "uint256"
        },
        {
          "internalType": "uint256",
          "name": "_BalEUSD",
          "type": "uint256"
        }
      ],
      "stateMutability": "view",
      "type": "function",
      "constant": true
    }
  ],
  "bytecode": "0x60806040523480156200001157600080fd5b506040518060400160405280600581526020017f45474f4c440000000000000000000000000000000000000000000000000000008152506040518060400160405280600581526020017f45474f4c4400000000000000000000000000000000000000000000000000000081525081600390816200008f919062000324565b508060049081620000a1919062000324565b5050506200040b565b600081519050919050565b7f4e487b7100000000000000000000000000000000000000000000000000000000600052604160045260246000fd5b7f4e487b7100000000000000000000000000000000000000000000000000000000600052602260045260246000fd5b600060028204905060018216806200012c57607f821691505b602082108103620001425762000141620000e4565b5b50919050565b60008190508160005260206000209050919050565b60006020601f8301049050919050565b600082821b905092915050565b600060088302620001ac7fffffffffffffffffffffffffffffffffffffffffffffffffffffffffffffffff826200016d565b620001b886836200016d565b95508019841693508086168417925050509392505050565b6000819050919050565b6000819050919050565b600062000205620001ff620001f984620001d0565b620001da565b620001d0565b9050919050565b6000819050919050565b6200022183620001e4565b6200023962000230826200020c565b8484546200017a565b825550505050565b600090565b6200025062000241565b6200025d81848462000216565b505050565b5b8181101562000285576200027960008262000246565b60018101905062000263565b5050565b601f821115620002d4576200029e8162000148565b620002a9846200015d565b81016020851015620002b9578190505b620002d1620002c8856200015d565b83018262000262565b50505b505050565b600082821c905092915050565b6000620002f960001984600802620002d9565b1980831691505092915050565b6000620003148383620002e6565b9150826002028217905092915050565b6200032f82620000aa565b67ffffffffffffffff8111156200034b576200034a620000b5565b5b62000357825462000113565b6200036482828562000289565b600060209050601f8311600181146200039c576000841562000387578287015190505b62000393858262000306565b86555062000403565b601f198416620003ac8662000148565b60005b82811015620003d657848901518255600182019150602085019450602081019050620003af565b86831015620003f65784890151620003f2601f891682620002e6565b8355505b6001600288020188555050505b505050505050565b613c94806200041b6000396000f3fe608060405234801561001057600080fd5b50600436106101e55760003560e01c806370a082311161010f578063aa7bc949116100a2578063f85abda111610071578063f85abda114610593578063fcf6b5ae146105b1578063fe03e84a146105cf578063ffac932b146105eb576101e5565b8063aa7bc949146104f9578063b38854be14610515578063c4618d1814610533578063dd62ed3e14610563576101e5565b806395d89b41116100de57806395d89b411461045f578063a0712d681461047d578063a457c2d714610499578063a9059cbb146104c9576101e5565b806370a08231146103d95780637ecc2b56146104095780638d05a4c21461042757806392a8463d14610443576101e5565b80633481bb611161018757806342966c681161015657806342966c6814610362578063485e3e1a1461037e57806349f3b6fe1461039d578063561e7702146103bb576101e5565b80633481bb61146102dc57806339509351146102fa57806339b3af631461032a5780634016ea7314610346576101e5565b8063095ea7b3116101c3578063095ea7b31461024057806318160ddd1461027057806323b872dd1461028e578063313ce567146102be576101e5565b806305ecf4f7146101ea57806306fdde031461020657806307f3d3cb14610224575b600080fd5b61020460048036038101906101ff9190612bc8565b610607565b005b61020e610797565b60405161021b9190612c85565b60405180910390f35b61023e60048036038101906102399190612bc8565b610829565b005b61025a60048036038101906102559190612d05565b6109b9565b6040516102679190612d60565b60405180910390f35b6102786109dc565b6040516102859190612d8a565b60405180910390f35b6102a860048036038101906102a39190612da5565b6109e6565b6040516102b59190612d60565b60405180910390f35b6102c6610a15565b6040516102d39190612e14565b60405180910390f35b6102e4610a1e565b6040516102f19190612e8e565b60405180910390f35b610314600480360381019061030f9190612d05565b610a44565b6040516103219190612d60565b60405180910390f35b610344600480360381019061033f9190612edf565b610a7b565b005b610360600480360381019061035b9190612f32565b610cf6565b005b61037c60048036038101906103779190612bc8565b610f7d565b005b6103866110c2565b604051610394929190612f5f565b60405180910390f35b6103a5611205565b6040516103b29190612d8a565b60405180910390f35b6103c361120b565b6040516103d09190612fa9565b60405180910390f35b6103f360048036038101906103ee9190612f32565b611231565b6040516104009190612d8a565b60405180910390f35b610411611279565b60405161041e9190612d8a565b60405180910390f35b610441600480360381019061043c9190612bc8565b61127f565b005b61045d60048036038101906104589190612f32565b61151b565b005b6104676116ef565b6040516104749190612c85565b60405180910390f35b61049760048036038101906104929190612bc8565b611781565b005b6104b360048036038101906104ae9190612d05565b61187b565b6040516104c09190612d60565b60405180910390f35b6104e360048036038101906104de9190612d05565b6118f2565b6040516104f09190612d60565b60405180910390f35b610513600480360381019061050e9190612bc8565b611915565b005b61051d611bb1565b60405161052a9190612fe5565b60405180910390f35b61054d60048036038101906105489190612f32565b611bd7565b60405161055a9190612d60565b60405180910390f35b61057d60048036038101906105789190613000565b611e8b565b60405161058a9190612d8a565b60405180910390f35b61059b611f12565b6040516105a89190612d8a565b60405180910390f35b6105b9611f18565b6040516105c6919061304f565b60405180910390f35b6105e960048036038101906105e49190612f32565b611f3e565b005b61060560048036038101906106009190612edf565b612112565b005b600073ffffffffffffffffffffffffffffffffffffffff16600560009054906101000a900473ffffffffffffffffffffffffffffffffffffffff1673ffffffffffffffffffffffffffffffffffffffff16141580156106fe5750600560009054906101000a900473ffffffffffffffffffffffffffffffffffffffff1673ffffffffffffffffffffffffffffffffffffffff1663e0e3671c336040518263ffffffff1660e01b81526004016106bc919061304f565b602060405180830381865afa1580156106d9573d6000803e3d6000fd5b505050506040513d601f19601f820116820180604052508101906106fd9190613096565b5b61073d576040517f08c379a00000000000000000000000000000000000000000000000000000000081526004016107349061310f565b60405180910390fd5b806009819055503373ffffffffffffffffffffffffffffffffffffffff167fe2af2e40180851ca869d5b4f94b61cf9241496ca9dbc6e3b2083382ec07a751160095460405161078c9190612d8a565b60405180910390a250565b6060600380546107a69061315e565b80601f01602080910402602001604051908101604052809291908181526020018280546107d29061315e565b801561081f5780601f106107f45761010080835404028352916020019161081f565b820191906000526020600020905b81548152906001019060200180831161080257829003601f168201915b5050505050905090565b600073ffffffffffffffffffffffffffffffffffffffff16600560009054906101000a900473ffffffffffffffffffffffffffffffffffffffff1673ffffffffffffffffffffffffffffffffffffffff16141580156109205750600560009054906101000a900473ffffffffffffffffffffffffffffffffffffffff1673ffffffffffffffffffffffffffffffffffffffff1663e0e3671c336040518263ffffffff1660e01b81526004016108de919061304f565b602060405180830381865afa1580156108fb573d6000803e3d6000fd5b505050506040513d601f19601f8201168201806040525081019061091f9190613096565b5b61095f576040517f08c379a00000000000000000000000000000000000000000000000000000000081526004016109569061310f565b60405180910390fd5b806008819055503373ffffffffffffffffffffffffffffffffffffffff167f4bb7ad2630dfff3f1c80235fb217e04e7824290975fcc2851beb4e27e72eb9c26008546040516109ae9190612d8a565b60405180910390a250565b6000806109c461238d565b90506109d1818585612395565b600191505092915050565b6000600254905090565b6000806109f161238d565b90506109fe85828561255e565b610a098585856125ea565b60019150509392505050565b60006012905090565b600660009054906101000a900473ffffffffffffffffffffffffffffffffffffffff1681565b600080610a4f61238d565b9050610a70818585610a618589611e8b565b610a6b91906131be565b612395565b600191505092915050565b600073ffffffffffffffffffffffffffffffffffffffff16600560009054906101000a900473ffffffffffffffffffffffffffffffffffffffff1673ffffffffffffffffffffffffffffffffffffffff1614158015610b725750600560009054906101000a900473ffffffffffffffffffffffffffffffffffffffff1673ffffffffffffffffffffffffffffffffffffffff1663e0e3671c336040518263ffffffff1660e01b8152600401610b30919061304f565b602060405180830381865afa158015610b4d573d6000803e3d6000fd5b505050506040513d601f19601f82011682018060405250810190610b719190613096565b5b610bb1576040517f08c379a0000000000000000000000000000000000000000000000000000000008152600401610ba89061310f565b60405180910390fd5b82610bbb30611231565b1015610bfc576040517f08c379a0000000000000000000000000000000000000000000000000000000008152600401610bf390613264565b60405180910390fd5b600060095411610c41576040517f08c379a0000000000000000000000000000000000000000000000000000000008152600401610c38906132d0565b60405180910390fd5b6000670de0b6b3a764000084610c57919061331f565b670de0b6b3a7640000600954610c6d919061331f565b610c779190613350565b9050610c843084866125ea565b83600a6000828254610c969190613392565b92505081905550818373ffffffffffffffffffffffffffffffffffffffff167fd80d6c70026f2d994b87695b959b5b7b690c03f4e38c00d2e66d723ffe86f55c308785604051610ce8939291906133c6565b60405180910390a350505050565b600073ffffffffffffffffffffffffffffffffffffffff16600560009054906101000a900473ffffffffffffffffffffffffffffffffffffffff1673ffffffffffffffffffffffffffffffffffffffff1614158015610ded5750600560009054906101000a900473ffffffffffffffffffffffffffffffffffffffff1673ffffffffffffffffffffffffffffffffffffffff1663e0e3671c336040518263ffffffff1660e01b8152600401610dab919061304f565b602060405180830381865afa158015610dc8573d6000803e3d6000fd5b505050506040513d601f19601f82011682018060405250810190610dec9190613096565b5b610e2c576040517f08c379a0000000000000000000000000000000000000000000000000000000008152600401610e239061310f565b60405180910390fd5b600073ffffffffffffffffffffffffffffffffffffffff16600b60009054906101000a900473ffffffffffffffffffffffffffffffffffffffff1673ffffffffffffffffffffffffffffffffffffffff1614610ebd576040517f08c379a0000000000000000000000000000000000000000000000000000000008152600401610eb49061346f565b60405180910390fd5b80600b60006101000a81548173ffffffffffffffffffffffffffffffffffffffff021916908373ffffffffffffffffffffffffffffffffffffffff160217905550600b60009054906101000a900473ffffffffffffffffffffffffffffffffffffffff1673ffffffffffffffffffffffffffffffffffffffff163373ffffffffffffffffffffffffffffffffffffffff167f2c639e388bc0e9bec1a30f91c4696708799b3f0da645d0a8f0ec26c44305935860405160405180910390a350565b600b60009054906101000a900473ffffffffffffffffffffffffffffffffffffffff1673ffffffffffffffffffffffffffffffffffffffff163373ffffffffffffffffffffffffffffffffffffffff161461100d576040517f08c379a000000000000000000000000000000000000000000000000000000000815260040161100490613501565b60405180910390fd5b8061101730611231565b1015611058576040517f08c379a000000000000000000000000000000000000000000000000000000000815260040161104f90613264565b60405180910390fd5b6110623082612860565b61106b30611231565b600a819055503073ffffffffffffffffffffffffffffffffffffffff167f696de425f79f4a40bc6d2122ca50507f0efbeabbff86a84871b7196ab8ea8df7826040516110b79190612d8a565b60405180910390a250565b600080600660009054906101000a900473ffffffffffffffffffffffffffffffffffffffff1673ffffffffffffffffffffffffffffffffffffffff166370a08231306040518263ffffffff1660e01b8152600401611120919061304f565b602060405180830381865afa15801561113d573d6000803e3d6000fd5b505050506040513d601f19601f820116820180604052508101906111619190613536565b9150600760009054906101000a900473ffffffffffffffffffffffffffffffffffffffff1673ffffffffffffffffffffffffffffffffffffffff166370a08231306040518263ffffffff1660e01b81526004016111be919061304f565b602060405180830381865afa1580156111db573d6000803e3d6000fd5b505050506040513d601f19601f820116820180604052508101906111ff9190613536565b91509091565b60095481565b600760009054906101000a900473ffffffffffffffffffffffffffffffffffffffff1681565b60008060008373ffffffffffffffffffffffffffffffffffffffff1673ffffffffffffffffffffffffffffffffffffffff168152602001908152602001600020549050919050565b600a5481565b8061128930611231565b10156112ca576040517f08c379a00000000000000000000000000000000000000000000000000000000081526004016112c190613264565b60405180910390fd5b60006009541161130f576040517f08c379a0000000000000000000000000000000000000000000000000000000008152600401611306906132d0565b60405180910390fd5b6000670de0b6b3a764000082611325919061331f565b6009546113329190613350565b905080600760009054906101000a900473ffffffffffffffffffffffffffffffffffffffff1673ffffffffffffffffffffffffffffffffffffffff166370a08231336040518263ffffffff1660e01b8152600401611390919061304f565b602060405180830381865afa1580156113ad573d6000803e3d6000fd5b505050506040513d601f19601f820116820180604052508101906113d19190613536565b1015611412576040517f08c379a0000000000000000000000000000000000000000000000000000000008152600401611409906135af565b60405180910390fd5b600760009054906101000a900473ffffffffffffffffffffffffffffffffffffffff1673ffffffffffffffffffffffffffffffffffffffff1663e3060f2233836040518363ffffffff1660e01b815260040161146f9291906135cf565b600060405180830381600087803b15801561148957600080fd5b505af115801561149d573d6000803e3d6000fd5b505050506114ac3033846125ea565b81600a60008282546114be9190613392565b925050819055503373ffffffffffffffffffffffffffffffffffffffff167f7c6ac5c136b06f49647ac1133ca519b5676ec82fb9f58e9ad5ca1afeb059939d30848460405161150f939291906133c6565b60405180910390a25050565b600073ffffffffffffffffffffffffffffffffffffffff16600560009054906101000a900473ffffffffffffffffffffffffffffffffffffffff1673ffffffffffffffffffffffffffffffffffffffff16141580156116125750600560009054906101000a900473ffffffffffffffffffffffffffffffffffffffff1673ffffffffffffffffffffffffffffffffffffffff1663e0e3671c336040518263ffffffff1660e01b81526004016115d0919061304f565b602060405180830381865afa1580156115ed573d6000803e3d6000fd5b505050506040513d601f19601f820116820180604052508101906116119190613096565b5b611651576040517f08c379a00000000000000000000000000000000000000000000000000000000081526004016116489061310f565b60405180910390fd5b80600660006101000a81548173ffffffffffffffffffffffffffffffffffffffff021916908373ffffffffffffffffffffffffffffffffffffffff1602179055508073ffffffffffffffffffffffffffffffffffffffff163373ffffffffffffffffffffffffffffffffffffffff167f830be06b07932bb2e2881ba32668581cdee3c399577cdf53b9d9ec05ae7198aa60405160405180910390a350565b6060600480546116fe9061315e565b80601f016020809104026020016040519081016040528092919081815260200182805461172a9061315e565b80156117775780601f1061174c57610100808354040283529160200191611777565b820191906000526020600020905b81548152906001019060200180831161175a57829003601f168201915b5050505050905090565b600b60009054906101000a900473ffffffffffffffffffffffffffffffffffffffff1673ffffffffffffffffffffffffffffffffffffffff163373ffffffffffffffffffffffffffffffffffffffff1614611811576040517f08c379a000000000000000000000000000000000000000000000000000000000815260040161180890613501565b60405180910390fd5b61181b3082612a2d565b61182430611231565b600a819055503073ffffffffffffffffffffffffffffffffffffffff167f30385c845b448a36257a6a1716e6ad2e1bc2cbe333cde1e69fe849ad6511adfe826040516118709190612d8a565b60405180910390a250565b60008061188661238d565b905060006118948286611e8b565b9050838110156118d9576040517f08c379a00000000000000000000000000000000000000000000000000000000081526004016118d09061366a565b60405180910390fd5b6118e68286868403612395565b60019250505092915050565b6000806118fd61238d565b905061190a8185856125ea565b600191505092915050565b8061191f30611231565b1015611960576040517f08c379a000000000000000000000000000000000000000000000000000000000815260040161195790613264565b60405180910390fd5b6000600854116119a5576040517f08c379a000000000000000000000000000000000000000000000000000000000815260040161199c906132d0565b60405180910390fd5b6000670de0b6b3a7640000826119bb919061331f565b6008546119c89190613350565b905080600660009054906101000a900473ffffffffffffffffffffffffffffffffffffffff1673ffffffffffffffffffffffffffffffffffffffff166370a08231336040518263ffffffff1660e01b8152600401611a26919061304f565b602060405180830381865afa158015611a43573d6000803e3d6000fd5b505050506040513d601f19601f82011682018060405250810190611a679190613536565b1015611aa8576040517f08c379a0000000000000000000000000000000000000000000000000000000008152600401611a9f906136d6565b60405180910390fd5b600660009054906101000a900473ffffffffffffffffffffffffffffffffffffffff1673ffffffffffffffffffffffffffffffffffffffff1663e3060f2233836040518363ffffffff1660e01b8152600401611b059291906135cf565b600060405180830381600087803b158015611b1f57600080fd5b505af1158015611b33573d6000803e3d6000fd5b50505050611b423033846125ea565b81600a6000828254611b549190613392565b925050819055503373ffffffffffffffffffffffffffffffffffffffff167fbfb2d47f240a2514f345656ec0f60068f7683420f974614a603e6b23b08f36bb308484604051611ba5939291906133c6565b60405180910390a25050565b600560009054906101000a900473ffffffffffffffffffffffffffffffffffffffff1681565b60008073ffffffffffffffffffffffffffffffffffffffff168273ffffffffffffffffffffffffffffffffffffffff1603611c47576040517f08c379a0000000000000000000000000000000000000000000000000000000008152600401611c3e90613768565b60405180910390fd5b600073ffffffffffffffffffffffffffffffffffffffff16600560009054906101000a900473ffffffffffffffffffffffffffffffffffffffff1673ffffffffffffffffffffffffffffffffffffffff1603611d415781600560006101000a81548173ffffffffffffffffffffffffffffffffffffffff021916908373ffffffffffffffffffffffffffffffffffffffff1602179055508173ffffffffffffffffffffffffffffffffffffffff163373ffffffffffffffffffffffffffffffffffffffff167fb309a3e7f526e103b1b3df0dfa0a2e9784e4505551ab3a82c0bc7db7087699f260405160405180910390a360019050611e86565b600560009054906101000a900473ffffffffffffffffffffffffffffffffffffffff1673ffffffffffffffffffffffffffffffffffffffff1663e0e3671c336040518263ffffffff1660e01b8152600401611d9c919061304f565b602060405180830381865afa158015611db9573d6000803e3d6000fd5b505050506040513d601f19601f82011682018060405250810190611ddd9190613096565b611de657600080fd5b81600560006101000a81548173ffffffffffffffffffffffffffffffffffffffff021916908373ffffffffffffffffffffffffffffffffffffffff1602179055508173ffffffffffffffffffffffffffffffffffffffff163373ffffffffffffffffffffffffffffffffffffffff167fb309a3e7f526e103b1b3df0dfa0a2e9784e4505551ab3a82c0bc7db7087699f260405160405180910390a3600190505b919050565b6000600160008473ffffffffffffffffffffffffffffffffffffffff1673ffffffffffffffffffffffffffffffffffffffff16815260200190815260200160002060008373ffffffffffffffffffffffffffffffffffffffff1673ffffffffffffffffffffffffffffffffffffffff16815260200190815260200160002054905092915050565b60085481565b600b60009054906101000a900473ffffffffffffffffffffffffffffffffffffffff1681565b600073ffffffffffffffffffffffffffffffffffffffff16600560009054906101000a900473ffffffffffffffffffffffffffffffffffffffff1673ffffffffffffffffffffffffffffffffffffffff16141580156120355750600560009054906101000a900473ffffffffffffffffffffffffffffffffffffffff1673ffffffffffffffffffffffffffffffffffffffff1663e0e3671c336040518263ffffffff1660e01b8152600401611ff3919061304f565b602060405180830381865afa158015612010573d6000803e3d6000fd5b505050506040513d601f19601f820116820180604052508101906120349190613096565b5b612074576040517f08c379a000000000000000000000000000000000000000000000000000000000815260040161206b9061310f565b60405180910390fd5b80600760006101000a81548173ffffffffffffffffffffffffffffffffffffffff021916908373ffffffffffffffffffffffffffffffffffffffff1602179055508073ffffffffffffffffffffffffffffffffffffffff163373ffffffffffffffffffffffffffffffffffffffff167f51c9a95724308f3b69758603328ff8af83109b54c8b7d8f88a2f3af4b09d09ea60405160405180910390a350565b600073ffffffffffffffffffffffffffffffffffffffff16600560009054906101000a900473ffffffffffffffffffffffffffffffffffffffff1673ffffffffffffffffffffffffffffffffffffffff16141580156122095750600560009054906101000a900473ffffffffffffffffffffffffffffffffffffffff1673ffffffffffffffffffffffffffffffffffffffff1663e0e3671c336040518263ffffffff1660e01b81526004016121c7919061304f565b602060405180830381865afa1580156121e4573d6000803e3d6000fd5b505050506040513d601f19601f820116820180604052508101906122089190613096565b5b612248576040517f08c379a000000000000000000000000000000000000000000000000000000000815260040161223f9061310f565b60405180910390fd5b8261225230611231565b1015612293576040517f08c379a000000000000000000000000000000000000000000000000000000000815260040161228a90613264565b60405180910390fd5b6000600854116122d8576040517f08c379a00000000000000000000000000000000000000000000000000000000081526004016122cf906132d0565b60405180910390fd5b6000670de0b6b3a7640000846122ee919061331f565b670de0b6b3a7640000600854612304919061331f565b61230e9190613350565b905061231b3084866125ea565b83600a600082825461232d9190613392565b92505081905550818373ffffffffffffffffffffffffffffffffffffffff167fb1abc58cc2f308d42e3d195e7348cf0e874ab4d2d8ca2e8da52681784882f59130878560405161237f939291906133c6565b60405180910390a350505050565b600033905090565b600073ffffffffffffffffffffffffffffffffffffffff168373ffffffffffffffffffffffffffffffffffffffff1603612404576040517f08c379a00000000000000000000000000000000000000000000000000000000081526004016123fb906137fa565b60405180910390fd5b600073ffffffffffffffffffffffffffffffffffffffff168273ffffffffffffffffffffffffffffffffffffffff1603612473576040517f08c379a000000000000000000000000000000000000000000000000000000000815260040161246a9061388c565b60405180910390fd5b80600160008573ffffffffffffffffffffffffffffffffffffffff1673ffffffffffffffffffffffffffffffffffffffff16815260200190815260200160002060008473ffffffffffffffffffffffffffffffffffffffff1673ffffffffffffffffffffffffffffffffffffffff168152602001908152602001600020819055508173ffffffffffffffffffffffffffffffffffffffff168373ffffffffffffffffffffffffffffffffffffffff167f8c5be1e5ebec7d5bd14f71427d1e84f3dd0314c0f7b2291e5b200ac8c7c3b925836040516125519190612d8a565b60405180910390a3505050565b600061256a8484611e8b565b90507fffffffffffffffffffffffffffffffffffffffffffffffffffffffffffffffff81146125e457818110156125d6576040517f08c379a00000000000000000000000000000000000000000000000000000000081526004016125cd906138f8565b60405180910390fd5b6125e38484848403612395565b5b50505050565b600073ffffffffffffffffffffffffffffffffffffffff168373ffffffffffffffffffffffffffffffffffffffff1603612659576040517f08c379a00000000000000000000000000000000000000000000000000000000081526004016126509061398a565b60405180910390fd5b600073ffffffffffffffffffffffffffffffffffffffff168273ffffffffffffffffffffffffffffffffffffffff16036126c8576040517f08c379a00000000000000000000000000000000000000000000000000000000081526004016126bf90613a1c565b60405180910390fd5b6126d3838383612b83565b60008060008573ffffffffffffffffffffffffffffffffffffffff1673ffffffffffffffffffffffffffffffffffffffff16815260200190815260200160002054905081811015612759576040517f08c379a000000000000000000000000000000000000000000000000000000000815260040161275090613aae565b60405180910390fd5b8181036000808673ffffffffffffffffffffffffffffffffffffffff1673ffffffffffffffffffffffffffffffffffffffff16815260200190815260200160002081905550816000808573ffffffffffffffffffffffffffffffffffffffff1673ffffffffffffffffffffffffffffffffffffffff168152602001908152602001600020600082825401925050819055508273ffffffffffffffffffffffffffffffffffffffff168473ffffffffffffffffffffffffffffffffffffffff167fddf252ad1be2c89b69c2b068fc378daa952ba7f163c4a11628f55a4df523b3ef846040516128479190612d8a565b60405180910390a361285a848484612b88565b50505050565b600073ffffffffffffffffffffffffffffffffffffffff168273ffffffffffffffffffffffffffffffffffffffff16036128cf576040517f08c379a00000000000000000000000000000000000000000000000000000000081526004016128c690613b40565b60405180910390fd5b6128db82600083612b83565b60008060008473ffffffffffffffffffffffffffffffffffffffff1673ffffffffffffffffffffffffffffffffffffffff16815260200190815260200160002054905081811015612961576040517f08c379a000000000000000000000000000000000000000000000000000000000815260040161295890613bd2565b60405180910390fd5b8181036000808573ffffffffffffffffffffffffffffffffffffffff1673ffffffffffffffffffffffffffffffffffffffff1681526020019081526020016000208190555081600260008282540392505081905550600073ffffffffffffffffffffffffffffffffffffffff168373ffffffffffffffffffffffffffffffffffffffff167fddf252ad1be2c89b69c2b068fc378daa952ba7f163c4a11628f55a4df523b3ef84604051612a149190612d8a565b60405180910390a3612a2883600084612b88565b505050565b600073ffffffffffffffffffffffffffffffffffffffff168273ffffffffffffffffffffffffffffffffffffffff1603612a9c576040517f08c379a0000000000000000000000000000000000000000000000000000000008152600401612a9390613c3e565b60405180910390fd5b612aa860008383612b83565b8060026000828254612aba91906131be565b92505081905550806000808473ffffffffffffffffffffffffffffffffffffffff1673ffffffffffffffffffffffffffffffffffffffff168152602001908152602001600020600082825401925050819055508173ffffffffffffffffffffffffffffffffffffffff16600073ffffffffffffffffffffffffffffffffffffffff167fddf252ad1be2c89b69c2b068fc378daa952ba7f163c4a11628f55a4df523b3ef83604051612b6b9190612d8a565b60405180910390a3612b7f60008383612b88565b5050565b505050565b505050565b600080fd5b6000819050919050565b612ba581612b92565b8114612bb057600080fd5b50565b600081359050612bc281612b9c565b92915050565b600060208284031215612bde57612bdd612b8d565b5b6000612bec84828501612bb3565b91505092915050565b600081519050919050565b600082825260208201905092915050565b60005b83811015612c2f578082015181840152602081019050612c14565b60008484015250505050565b6000601f19601f8301169050919050565b6000612c5782612bf5565b612c618185612c00565b9350612c71818560208601612c11565b612c7a81612c3b565b840191505092915050565b60006020820190508181036000830152612c9f8184612c4c565b905092915050565b600073ffffffffffffffffffffffffffffffffffffffff82169050919050565b6000612cd282612ca7565b9050919050565b612ce281612cc7565b8114612ced57600080fd5b50565b600081359050612cff81612cd9565b92915050565b60008060408385031215612d1c57612d1b612b8d565b5b6000612d2a85828601612cf0565b9250506020612d3b85828601612bb3565b9150509250929050565b60008115159050919050565b612d5a81612d45565b82525050565b6000602082019050612d756000830184612d51565b92915050565b612d8481612b92565b82525050565b6000602082019050612d9f6000830184612d7b565b92915050565b600080600060608486031215612dbe57612dbd612b8d565b5b6000612dcc86828701612cf0565b9350506020612ddd86828701612cf0565b9250506040612dee86828701612bb3565b9150509250925092565b600060ff82169050919050565b612e0e81612df8565b82525050565b6000602082019050612e296000830184612e05565b92915050565b6000819050919050565b6000612e54612e4f612e4a84612ca7565b612e2f565b612ca7565b9050919050565b6000612e6682612e39565b9050919050565b6000612e7882612e5b565b9050919050565b612e8881612e6d565b82525050565b6000602082019050612ea36000830184612e7f565b92915050565b6000819050919050565b612ebc81612ea9565b8114612ec757600080fd5b50565b600081359050612ed981612eb3565b92915050565b600080600060608486031215612ef857612ef7612b8d565b5b6000612f0686828701612bb3565b9350506020612f1786828701612cf0565b9250506040612f2886828701612eca565b9150509250925092565b600060208284031215612f4857612f47612b8d565b5b6000612f5684828501612cf0565b91505092915050565b6000604082019050612f746000830185612d7b565b612f816020830184612d7b565b9392505050565b6000612f9382612e5b565b9050919050565b612fa381612f88565b82525050565b6000602082019050612fbe6000830184612f9a565b92915050565b6000612fcf82612e5b565b9050919050565b612fdf81612fc4565b82525050565b6000602082019050612ffa6000830184612fd6565b92915050565b6000806040838503121561301757613016612b8d565b5b600061302585828601612cf0565b925050602061303685828601612cf0565b9150509250929050565b61304981612cc7565b82525050565b60006020820190506130646000830184613040565b92915050565b61307381612d45565b811461307e57600080fd5b50565b6000815190506130908161306a565b92915050565b6000602082840312156130ac576130ab612b8d565b5b60006130ba84828501613081565b91505092915050565b7f45474f4c443a204f776e61626c652061646472657373206e6f74207365740000600082015250565b60006130f9601e83612c00565b9150613104826130c3565b602082019050919050565b60006020820190508181036000830152613128816130ec565b9050919050565b7f4e487b7100000000000000000000000000000000000000000000000000000000600052602260045260246000fd5b6000600282049050600182168061317657607f821691505b6020821081036131895761318861312f565b5b50919050565b7f4e487b7100000000000000000000000000000000000000000000000000000000600052601160045260246000fd5b60006131c982612b92565b91506131d483612b92565b92508282019050808211156131ec576131eb61318f565b5b92915050565b7f45474f4c443a20496e73756666696369656e742045474f4c4420696e20436f6e60008201527f74726163742e0000000000000000000000000000000000000000000000000000602082015250565b600061324e602683612c00565b9150613259826131f2565b604082019050919050565b6000602082019050818103600083015261327d81613241565b9050919050565b7f45474f4c443a2045474f4c44205072696365206e6f7420736574000000000000600082015250565b60006132ba601a83612c00565b91506132c582613284565b602082019050919050565b600060208201905081810360008301526132e9816132ad565b9050919050565b7f4e487b7100000000000000000000000000000000000000000000000000000000600052601260045260246000fd5b600061332a82612b92565b915061333583612b92565b925082613345576133446132f0565b5b828204905092915050565b600061335b82612b92565b915061336683612b92565b925082820261337481612b92565b9150828204841483151761338b5761338a61318f565b5b5092915050565b600061339d82612b92565b91506133a883612b92565b92508282039050818111156133c0576133bf61318f565b5b92915050565b60006060820190506133db6000830186613040565b6133e86020830185612d7b565b6133f56040830184612d7b565b949350505050565b7f45474f4c443a206e76656e746f72792048616e646c657220616c72656164792060008201527f7365742e00000000000000000000000000000000000000000000000000000000602082015250565b6000613459602483612c00565b9150613464826133fd565b604082019050919050565b600060208201905081810360008301526134888161344c565b9050919050565b7f45474f4c443a204f6e6c7920496e76656e746f72792048616e646c657220436f60008201527f6e747261637420616c6c6f7765642e0000000000000000000000000000000000602082015250565b60006134eb602f83612c00565b91506134f68261348f565b604082019050919050565b6000602082019050818103600083015261351a816134de565b9050919050565b60008151905061353081612b9c565b92915050565b60006020828403121561354c5761354b612b8d565b5b600061355a84828501613521565b91505092915050565b7f45474f4c443a20496e737566666369656e7420455553442042616c616e636500600082015250565b6000613599601f83612c00565b91506135a482613563565b602082019050919050565b600060208201905081810360008301526135c88161358c565b9050919050565b60006040820190506135e46000830185613040565b6135f16020830184612d7b565b9392505050565b7f45524332303a2064656372656173656420616c6c6f77616e63652062656c6f7760008201527f207a65726f000000000000000000000000000000000000000000000000000000602082015250565b6000613654602583612c00565b915061365f826135f8565b604082019050919050565b6000602082019050818103600083015261368381613647565b9050919050565b7f45474f4c443a20496e737566666369656e742045494e522042616c616e636500600082015250565b60006136c0601f83612c00565b91506136cb8261368a565b602082019050919050565b600060208201905081810360008301526136ef816136b3565b9050919050565b7f45474f4c443a206e6577205f6f776e616c626520697320746865207a65726f2060008201527f6164647265737300000000000000000000000000000000000000000000000000602082015250565b6000613752602783612c00565b915061375d826136f6565b604082019050919050565b6000602082019050818103600083015261378181613745565b9050919050565b7f45524332303a20617070726f76652066726f6d20746865207a65726f2061646460008201527f7265737300000000000000000000000000000000000000000000000000000000602082015250565b60006137e4602483612c00565b91506137ef82613788565b604082019050919050565b60006020820190508181036000830152613813816137d7565b9050919050565b7f45524332303a20617070726f766520746f20746865207a65726f20616464726560008201527f7373000000000000000000000000000000000000000000000000000000000000602082015250565b6000613876602283612c00565b91506138818261381a565b604082019050919050565b600060208201905081810360008301526138a581613869565b9050919050565b7f45524332303a20696e73756666696369656e7420616c6c6f77616e6365000000600082015250565b60006138e2601d83612c00565b91506138ed826138ac565b602082019050919050565b60006020820190508181036000830152613911816138d5565b9050919050565b7f45524332303a207472616e736665722066726f6d20746865207a65726f20616460008201527f6472657373000000000000000000000000000000000000000000000000000000602082015250565b6000613974602583612c00565b915061397f82613918565b604082019050919050565b600060208201905081810360008301526139a381613967565b9050919050565b7f45524332303a207472616e7366657220746f20746865207a65726f206164647260008201527f6573730000000000000000000000000000000000000000000000000000000000602082015250565b6000613a06602383612c00565b9150613a11826139aa565b604082019050919050565b60006020820190508181036000830152613a35816139f9565b9050919050565b7f45524332303a207472616e7366657220616d6f756e742065786365656473206260008201527f616c616e63650000000000000000000000000000000000000000000000000000602082015250565b6000613a98602683612c00565b9150613aa382613a3c565b604082019050919050565b60006020820190508181036000830152613ac781613a8b565b9050919050565b7f45524332303a206275726e2066726f6d20746865207a65726f2061646472657360008201527f7300000000000000000000000000000000000000000000000000000000000000602082015250565b6000613b2a602183612c00565b9150613b3582613ace565b604082019050919050565b60006020820190508181036000830152613b5981613b1d565b9050919050565b7f45524332303a206275726e20616d6f756e7420657863656564732062616c616e60008201527f6365000000000000000000000000000000000000000000000000000000000000602082015250565b6000613bbc602283612c00565b9150613bc782613b60565b604082019050919050565b60006020820190508181036000830152613beb81613baf565b9050919050565b7f45524332303a206d696e7420746f20746865207a65726f206164647265737300600082015250565b6000613c28601f83612c00565b9150613c3382613bf2565b602082019050919050565b60006020820190508181036000830152613c5781613c1b565b905091905056fea26469706673582212200d15e61f221f4fc9d3ae0e8414f16365861398230a7c694715196111795a06a764736f6c63430008110033",
  "immutableReferences": {},
  "source": "//SPDX-License-Identifier: MIT\n\npragma solidity ^0.8.17;\n\nimport \"./ERC20/ERC20.sol\";\nimport \"./ERC20/Ownable.sol\";\nimport \"./EINR.sol\";\nimport \"./EUSD.sol\";\n\ncontract EGOLDContract is ERC20 {\n    event Minted(address indexed _to, uint256 _amount);\n    event Burned(address indexed _to, uint256 _amount);\n    event InventoryAddressSet(\n        address indexed _setBy,\n        address indexed _InventoryAdd\n    );\n    event EINRAddressSet(address indexed _setBy, address indexed _EINRAdd);\n    event EUSDAddressSet(address indexed _setBy, address indexed _EUSDAdd);\n    event OwnableAddressSet(\n        address indexed _setBy,\n        address indexed _OwnableAddress\n    );\n    event EGOLD_INR_PriceSet(address indexed _setBy, uint256 _EGOLDPriceINR);\n    event EGOLD_USD_PriceSet(address indexed _setBy, uint256 _EGOLDPriceUSD);\n    event EGOLD_EINR_Transfer(\n        address _from,\n        address indexed _to,\n        uint256 _EGoldAmount,\n        uint256 _EINRAmount\n    );\n    event EGOLD_INR_Transfer(\n        address _from,\n        address indexed _to,\n        bytes32 indexed _receipt,\n        uint256 _EGoldmount,\n        uint256 _INRAmount\n    );\n    event EGOLD_EUSD_Transfer(\n        address _from,\n        address indexed _to,\n        uint256 _EGoldAmount,\n        uint256 _EUSDAmount\n    );\n    event EGOLD_USD_Transfer(\n        address _from,\n        address indexed _to,\n        bytes32 indexed _receipt,\n        uint256 _EGoldmount,\n        uint256 _USDAmount\n    );\n\n    OwnableContract public ownable;\n    EINRContract public _EINR;\n    EUSDContract public _EUSD;\n    uint256 public EGoldPriceINR;\n    uint256 public EGoldPriceUSD;\n    uint256 public availableSupply;\n    address public inventoryHandler;\n\n    modifier onlyInventoryHandler() {\n        require(\n            msg.sender == inventoryHandler,\n            \"EGOLD: Only Inventory Handler Contract allowed.\"\n        );\n        _;\n    }\n\n    constructor() ERC20(\"EGOLD\", \"EGOLD\") {}\n\n    function setOwnable(address _ownable) external returns (bool) {\n        require(\n            _ownable != address(0),\n            \"EGOLD: new _ownalbe is the zero address\"\n        );\n        if (address(ownable) == address(0)) {\n            ownable = OwnableContract(_ownable);\n            emit OwnableAddressSet(msg.sender, _ownable);\n            return true;\n        }\n        require(ownable.checkOwner(msg.sender));\n        ownable = OwnableContract(_ownable);\n        emit OwnableAddressSet(msg.sender, _ownable);\n        return true;\n    }\n\n    function setInventoryHandler(address _address) public {\n        require(\n            address(ownable) != address(0) && ownable.checkOwner(msg.sender),\n            \"EGOLD: Ownable address not set\"\n        );\n        require(\n            inventoryHandler == address(0),\n            \"EGOLD: nventory Handler already set.\"\n        );\n        inventoryHandler = _address;\n        emit InventoryAddressSet(msg.sender, inventoryHandler);\n    }\n\n    function mint(uint256 _amount) public onlyInventoryHandler {\n        _mint(address(this), _amount);\n        availableSupply = balanceOf(address(this));\n        emit Minted(address(this), _amount);\n    }\n\n    function burn(uint256 _amount) public onlyInventoryHandler {\n        require(\n            balanceOf(address(this)) >= _amount,\n            \"EGOLD: Insufficient EGOLD in Contract.\"\n        );\n        _burn(address(this), _amount);\n        availableSupply = balanceOf(address(this));\n        emit Burned(address(this), _amount);\n    }\n\n    function setEINR(address _Einr) public {\n        require(\n            address(ownable) != address(0) && ownable.checkOwner(msg.sender),\n            \"EGOLD: Ownable address not set\"\n        );\n        _EINR = EINRContract(_Einr);\n        emit EINRAddressSet(msg.sender, _Einr);\n    }\n\n    function setEUSD(address _Eusd) public {\n        require(\n            address(ownable) != address(0) && ownable.checkOwner(msg.sender),\n            \"EGOLD: Ownable address not set\"\n        );\n        _EUSD = EUSDContract(_Eusd);\n        emit EUSDAddressSet(msg.sender, _Eusd);\n    }\n\n    function setEGoldPriceINR(uint256 _price) public {\n        require(\n            address(ownable) != address(0) && ownable.checkOwner(msg.sender),\n            \"EGOLD: Ownable address not set\"\n        );\n        EGoldPriceINR = _price;\n        emit EGOLD_INR_PriceSet(msg.sender, EGoldPriceINR);\n    }\n\n    function setEGoldPriceUSD(uint256 _price) public {\n        require(\n            address(ownable) != address(0) && ownable.checkOwner(msg.sender),\n            \"EGOLD: Ownable address not set\"\n        );\n        EGoldPriceUSD = _price;\n        emit EGOLD_USD_PriceSet(msg.sender, EGoldPriceUSD);\n    }\n\n    function buyEGoldEINR(uint256 _EGoldAmount) public {\n        require(\n            balanceOf(address(this)) >= _EGoldAmount,\n            \"EGOLD: Insufficient EGOLD in Contract.\"\n        );\n        require(EGoldPriceINR > 0, \"EGOLD: EGOLD Price not set\");\n        uint256 totalEINR = EGoldPriceINR * (_EGoldAmount / 10 ** 18);\n        require(\n            _EINR.balanceOf(msg.sender) >= totalEINR,\n            \"EGOLD: Insuffcient EINR Balance\"\n        );\n        _EINR.transferBal(msg.sender, totalEINR);\n        _transfer(address(this), msg.sender, _EGoldAmount);\n        availableSupply -= _EGoldAmount;\n        emit EGOLD_EINR_Transfer(\n            address(this),\n            msg.sender,\n            _EGoldAmount,\n            totalEINR\n        );\n    }\n\n    function buyEGoldINR(\n        uint256 _EGoldAmount,\n        address _to,\n        bytes32 _receipt\n    ) public {\n        require(\n            address(ownable) != address(0) && ownable.checkOwner(msg.sender),\n            \"EGOLD: Ownable address not set\"\n        );\n        require(\n            balanceOf(address(this)) >= _EGoldAmount,\n            \"EGOLD: Insufficient EGOLD in Contract.\"\n        );\n        require(EGoldPriceINR > 0, \"EGOLD: EGOLD Price not set\");\n        uint256 totalINR = (EGoldPriceINR / 10 ** 18) *\n            (_EGoldAmount / 10 ** 18);\n        _transfer(address(this), _to, _EGoldAmount);\n        availableSupply -= _EGoldAmount;\n        emit EGOLD_INR_Transfer(\n            address(this),\n            _to,\n            _receipt,\n            _EGoldAmount,\n            totalINR\n        );\n    }\n\n    function buyEGoldEUSD(uint256 _EGoldAmount) public {\n        require(\n            balanceOf(address(this)) >= _EGoldAmount,\n            \"EGOLD: Insufficient EGOLD in Contract.\"\n        );\n        require(EGoldPriceUSD > 0, \"EGOLD: EGOLD Price not set\");\n        uint256 totalEUSD = EGoldPriceUSD * (_EGoldAmount / 10 ** 18);\n        require(\n            _EUSD.balanceOf(msg.sender) >= totalEUSD,\n            \"EGOLD: Insuffcient EUSD Balance\"\n        );\n        _EUSD.transferBal(msg.sender, totalEUSD);\n        _transfer(address(this), msg.sender, _EGoldAmount);\n        availableSupply -= _EGoldAmount;\n        emit EGOLD_EUSD_Transfer(\n            address(this),\n            msg.sender,\n            _EGoldAmount,\n            totalEUSD\n        );\n    }\n\n    function buyEGoldUSD(\n        uint256 _EGoldAmount,\n        address _to,\n        bytes32 _receipt\n    ) public {\n        require(\n            address(ownable) != address(0) && ownable.checkOwner(msg.sender),\n            \"EGOLD: Ownable address not set\"\n        );\n        require(\n            balanceOf(address(this)) >= _EGoldAmount,\n            \"EGOLD: Insufficient EGOLD in Contract.\"\n        );\n        require(EGoldPriceUSD > 0, \"EGOLD: EGOLD Price not set\");\n        uint256 totalUSD = (EGoldPriceUSD / 10 ** 18) *\n            (_EGoldAmount / 10 ** 18);\n        _transfer(address(this), _to, _EGoldAmount);\n        availableSupply -= _EGoldAmount;\n        emit EGOLD_USD_Transfer(\n            address(this),\n            _to,\n            _receipt,\n            _EGoldAmount,\n            totalUSD\n        );\n    }\n\n    function BalEINR()\n        public\n        view\n        returns (uint256 _BalEINR, uint256 _BalEUSD)\n    {\n        _BalEINR = _EINR.balanceOf(address(this));\n        _BalEINR = _EUSD.balanceOf(address(this));\n        return (_BalEINR, _BalEUSD);\n    }\n}\n",
  "sourcePath": "/home/neosoft/S/EGOLD-EINR-POC/solidity/contracts/EGOLD.sol",
  "compiler": {
    "name": "solc",
    "version": "0.8.17+commit.8df45f5f.Emscripten.clang"
  },
  "schemaVersion": "3.4.11",
  "updatedAt": "2023-04-24T13:30:25.765Z",
  "networkType": "ethereum",
  "devdoc": {
    "kind": "dev",
    "methods": {
      "allowance(address,address)": {
        "details": "See {IERC20-allowance}."
      },
      "approve(address,uint256)": {
        "details": "See {IERC20-approve}. NOTE: If `amount` is the maximum `uint256`, the allowance is not updated on `transferFrom`. This is semantically equivalent to an infinite approval. Requirements: - `spender` cannot be the zero address."
      },
      "balanceOf(address)": {
        "details": "See {IERC20-balanceOf}."
      },
      "decimals()": {
        "details": "Returns the number of decimals used to get its user representation. For example, if `decimals` equals `2`, a balance of `505` tokens should be displayed to a user as `5.05` (`505 / 10 ** 2`). Tokens usually opt for a value of 18, imitating the relationship between Ether and Wei. This is the value {ERC20} uses, unless this function is overridden; NOTE: This information is only used for _display_ purposes: it in no way affects any of the arithmetic of the contract, including {IERC20-balanceOf} and {IERC20-transfer}."
      },
      "decreaseAllowance(address,uint256)": {
        "details": "Atomically decreases the allowance granted to `spender` by the caller. This is an alternative to {approve} that can be used as a mitigation for problems described in {IERC20-approve}. Emits an {Approval} event indicating the updated allowance. Requirements: - `spender` cannot be the zero address. - `spender` must have allowance for the caller of at least `subtractedValue`."
      },
      "increaseAllowance(address,uint256)": {
        "details": "Atomically increases the allowance granted to `spender` by the caller. This is an alternative to {approve} that can be used as a mitigation for problems described in {IERC20-approve}. Emits an {Approval} event indicating the updated allowance. Requirements: - `spender` cannot be the zero address."
      },
      "name()": {
        "details": "Returns the name of the token."
      },
      "symbol()": {
        "details": "Returns the symbol of the token, usually a shorter version of the name."
      },
      "totalSupply()": {
        "details": "See {IERC20-totalSupply}."
      },
      "transfer(address,uint256)": {
        "details": "See {IERC20-transfer}. Requirements: - `to` cannot be the zero address. - the caller must have a balance of at least `amount`."
      },
      "transferFrom(address,address,uint256)": {
        "details": "See {IERC20-transferFrom}. Emits an {Approval} event indicating the updated allowance. This is not required by the EIP. See the note at the beginning of {ERC20}. NOTE: Does not update the allowance if the current allowance is the maximum `uint256`. Requirements: - `from` and `to` cannot be the zero address. - `from` must have a balance of at least `amount`. - the caller must have allowance for ``from``'s tokens of at least `amount`."
      }
    },
    "version": 1
  },
  "userdoc": {
    "kind": "user",
    "methods": {},
    "version": 1
  }
}