{
  "contractName": "EGOLDContract",
  "abi": [
    {
      "inputs": [],
      "stateMutability": "nonpayable",
      "type": "constructor"
    },
    {
      "anonymous": false,
      "inputs": [
        {
          "indexed": true,
          "internalType": "address",
          "name": "owner",
          "type": "address"
        },
        {
          "indexed": true,
          "internalType": "address",
          "name": "spender",
          "type": "address"
        },
        {
          "indexed": false,
          "internalType": "uint256",
          "name": "value",
          "type": "uint256"
        }
      ],
      "name": "Approval",
      "type": "event"
    },
    {
      "anonymous": false,
      "inputs": [
        {
          "indexed": true,
          "internalType": "address",
          "name": "_to",
          "type": "address"
        },
        {
          "indexed": false,
          "internalType": "uint256",
          "name": "_amount",
          "type": "uint256"
        }
      ],
      "name": "Burned",
      "type": "event"
    },
    {
      "anonymous": false,
      "inputs": [
        {
          "indexed": true,
          "internalType": "address",
          "name": "_setBy",
          "type": "address"
        },
        {
          "indexed": false,
          "internalType": "uint256",
          "name": "_EGOLDPriceEINR",
          "type": "uint256"
        }
      ],
      "name": "EGOLD_EINR_PriceSet",
      "type": "event"
    },
    {
      "anonymous": false,
      "inputs": [
        {
          "indexed": false,
          "internalType": "address",
          "name": "_from",
          "type": "address"
        },
        {
          "indexed": true,
          "internalType": "address",
          "name": "_to",
          "type": "address"
        },
        {
          "indexed": false,
          "internalType": "uint256",
          "name": "_EGoldAmount",
          "type": "uint256"
        },
        {
          "indexed": false,
          "internalType": "uint256",
          "name": "_EINRAmount",
          "type": "uint256"
        }
      ],
      "name": "EGOLD_EINR_Transfer",
      "type": "event"
    },
    {
      "anonymous": false,
      "inputs": [
        {
          "indexed": true,
          "internalType": "address",
          "name": "_setBy",
          "type": "address"
        },
        {
          "indexed": false,
          "internalType": "uint256",
          "name": "_EGOLDPriceINR",
          "type": "uint256"
        }
      ],
      "name": "EGOLD_INR_PriceSet",
      "type": "event"
    },
    {
      "anonymous": false,
      "inputs": [
        {
          "indexed": false,
          "internalType": "address",
          "name": "_from",
          "type": "address"
        },
        {
          "indexed": true,
          "internalType": "address",
          "name": "_to",
          "type": "address"
        },
        {
          "indexed": true,
          "internalType": "string",
          "name": "_receipt",
          "type": "string"
        },
        {
          "indexed": false,
          "internalType": "uint256",
          "name": "_EGoldmount",
          "type": "uint256"
        },
        {
          "indexed": false,
          "internalType": "uint256",
          "name": "_INRAmount",
          "type": "uint256"
        }
      ],
      "name": "EGOLD_INR_Transfer",
      "type": "event"
    },
    {
      "anonymous": false,
      "inputs": [
        {
          "indexed": true,
          "internalType": "address",
          "name": "_setBy",
          "type": "address"
        },
        {
          "indexed": true,
          "internalType": "address",
          "name": "_EGOLDAdd",
          "type": "address"
        }
      ],
      "name": "EINRAddressSet",
      "type": "event"
    },
    {
      "anonymous": false,
      "inputs": [
        {
          "indexed": true,
          "internalType": "address",
          "name": "_setBy",
          "type": "address"
        },
        {
          "indexed": true,
          "internalType": "address",
          "name": "_InventoryAdd",
          "type": "address"
        }
      ],
      "name": "InventoryAddressSet",
      "type": "event"
    },
    {
      "anonymous": false,
      "inputs": [
        {
          "indexed": true,
          "internalType": "address",
          "name": "_to",
          "type": "address"
        },
        {
          "indexed": false,
          "internalType": "uint256",
          "name": "_amount",
          "type": "uint256"
        }
      ],
      "name": "Minted",
      "type": "event"
    },
    {
      "anonymous": false,
      "inputs": [
        {
          "indexed": true,
          "internalType": "address",
          "name": "from",
          "type": "address"
        },
        {
          "indexed": true,
          "internalType": "address",
          "name": "to",
          "type": "address"
        },
        {
          "indexed": false,
          "internalType": "uint256",
          "name": "value",
          "type": "uint256"
        }
      ],
      "name": "Transfer",
      "type": "event"
    },
    {
      "inputs": [],
      "name": "EGoldPriceEINR",
      "outputs": [
        {
          "internalType": "uint256",
          "name": "",
          "type": "uint256"
        }
      ],
      "stateMutability": "view",
      "type": "function",
      "constant": true
    },
    {
      "inputs": [],
      "name": "EGoldPriceINR",
      "outputs": [
        {
          "internalType": "uint256",
          "name": "",
          "type": "uint256"
        }
      ],
      "stateMutability": "view",
      "type": "function",
      "constant": true
    },
    {
      "inputs": [],
      "name": "_EINR",
      "outputs": [
        {
          "internalType": "contract EINRContract",
          "name": "",
          "type": "address"
        }
      ],
      "stateMutability": "view",
      "type": "function",
      "constant": true
    },
    {
      "inputs": [
        {
          "internalType": "address",
          "name": "owner",
          "type": "address"
        },
        {
          "internalType": "address",
          "name": "spender",
          "type": "address"
        }
      ],
      "name": "allowance",
      "outputs": [
        {
          "internalType": "uint256",
          "name": "",
          "type": "uint256"
        }
      ],
      "stateMutability": "view",
      "type": "function",
      "constant": true
    },
    {
      "inputs": [
        {
          "internalType": "address",
          "name": "spender",
          "type": "address"
        },
        {
          "internalType": "uint256",
          "name": "amount",
          "type": "uint256"
        }
      ],
      "name": "approve",
      "outputs": [
        {
          "internalType": "bool",
          "name": "",
          "type": "bool"
        }
      ],
      "stateMutability": "nonpayable",
      "type": "function"
    },
    {
      "inputs": [],
      "name": "availableSupply",
      "outputs": [
        {
          "internalType": "uint256",
          "name": "",
          "type": "uint256"
        }
      ],
      "stateMutability": "view",
      "type": "function",
      "constant": true
    },
    {
      "inputs": [
        {
          "internalType": "address",
          "name": "account",
          "type": "address"
        }
      ],
      "name": "balanceOf",
      "outputs": [
        {
          "internalType": "uint256",
          "name": "",
          "type": "uint256"
        }
      ],
      "stateMutability": "view",
      "type": "function",
      "constant": true
    },
    {
      "inputs": [],
      "name": "decimals",
      "outputs": [
        {
          "internalType": "uint8",
          "name": "",
          "type": "uint8"
        }
      ],
      "stateMutability": "view",
      "type": "function",
      "constant": true
    },
    {
      "inputs": [
        {
          "internalType": "address",
          "name": "spender",
          "type": "address"
        },
        {
          "internalType": "uint256",
          "name": "subtractedValue",
          "type": "uint256"
        }
      ],
      "name": "decreaseAllowance",
      "outputs": [
        {
          "internalType": "bool",
          "name": "",
          "type": "bool"
        }
      ],
      "stateMutability": "nonpayable",
      "type": "function"
    },
    {
      "inputs": [
        {
          "internalType": "address",
          "name": "spender",
          "type": "address"
        },
        {
          "internalType": "uint256",
          "name": "addedValue",
          "type": "uint256"
        }
      ],
      "name": "increaseAllowance",
      "outputs": [
        {
          "internalType": "bool",
          "name": "",
          "type": "bool"
        }
      ],
      "stateMutability": "nonpayable",
      "type": "function"
    },
    {
      "inputs": [],
      "name": "inventoryHandler",
      "outputs": [
        {
          "internalType": "address",
          "name": "",
          "type": "address"
        }
      ],
      "stateMutability": "view",
      "type": "function",
      "constant": true
    },
    {
      "inputs": [],
      "name": "name",
      "outputs": [
        {
          "internalType": "string",
          "name": "",
          "type": "string"
        }
      ],
      "stateMutability": "view",
      "type": "function",
      "constant": true
    },
    {
      "inputs": [],
      "name": "symbol",
      "outputs": [
        {
          "internalType": "string",
          "name": "",
          "type": "string"
        }
      ],
      "stateMutability": "view",
      "type": "function",
      "constant": true
    },
    {
      "inputs": [],
      "name": "totalSupply",
      "outputs": [
        {
          "internalType": "uint256",
          "name": "",
          "type": "uint256"
        }
      ],
      "stateMutability": "view",
      "type": "function",
      "constant": true
    },
    {
      "inputs": [
        {
          "internalType": "address",
          "name": "to",
          "type": "address"
        },
        {
          "internalType": "uint256",
          "name": "amount",
          "type": "uint256"
        }
      ],
      "name": "transfer",
      "outputs": [
        {
          "internalType": "bool",
          "name": "",
          "type": "bool"
        }
      ],
      "stateMutability": "nonpayable",
      "type": "function"
    },
    {
      "inputs": [
        {
          "internalType": "address",
          "name": "from",
          "type": "address"
        },
        {
          "internalType": "address",
          "name": "to",
          "type": "address"
        },
        {
          "internalType": "uint256",
          "name": "amount",
          "type": "uint256"
        }
      ],
      "name": "transferFrom",
      "outputs": [
        {
          "internalType": "bool",
          "name": "",
          "type": "bool"
        }
      ],
      "stateMutability": "nonpayable",
      "type": "function"
    },
    {
      "inputs": [
        {
          "internalType": "address",
          "name": "_address",
          "type": "address"
        }
      ],
      "name": "setInventoryHandler",
      "outputs": [],
      "stateMutability": "nonpayable",
      "type": "function"
    },
    {
      "inputs": [
        {
          "internalType": "uint256",
          "name": "_amount",
          "type": "uint256"
        }
      ],
      "name": "mint",
      "outputs": [],
      "stateMutability": "nonpayable",
      "type": "function"
    },
    {
      "inputs": [
        {
          "internalType": "uint256",
          "name": "_amount",
          "type": "uint256"
        }
      ],
      "name": "burn",
      "outputs": [],
      "stateMutability": "nonpayable",
      "type": "function"
    },
    {
      "inputs": [
        {
          "internalType": "address",
          "name": "_Einr",
          "type": "address"
        }
      ],
      "name": "setEINR",
      "outputs": [],
      "stateMutability": "nonpayable",
      "type": "function"
    },
    {
      "inputs": [
        {
          "internalType": "uint256",
          "name": "_price",
          "type": "uint256"
        }
      ],
      "name": "setGoldPriceEINR",
      "outputs": [],
      "stateMutability": "nonpayable",
      "type": "function"
    },
    {
      "inputs": [
        {
          "internalType": "uint256",
          "name": "_price",
          "type": "uint256"
        }
      ],
      "name": "setGoldPriceINR",
      "outputs": [],
      "stateMutability": "nonpayable",
      "type": "function"
    },
    {
      "inputs": [
        {
          "internalType": "uint256",
          "name": "_EGoldAmount",
          "type": "uint256"
        }
      ],
      "name": "buyEGoldEINR",
      "outputs": [],
      "stateMutability": "nonpayable",
      "type": "function"
    },
    {
      "inputs": [
        {
          "internalType": "uint256",
          "name": "_EGoldAmount",
          "type": "uint256"
        },
        {
          "internalType": "string",
          "name": "_receipt",
          "type": "string"
        }
      ],
      "name": "buyEGoldINR",
      "outputs": [],
      "stateMutability": "nonpayable",
      "type": "function"
    },
    {
      "inputs": [],
      "name": "BalEINR",
      "outputs": [
        {
          "internalType": "uint256",
          "name": "",
          "type": "uint256"
        }
      ],
      "stateMutability": "view",
      "type": "function",
      "constant": true
    }
  ],
  "bytecode": "0x60806040523480156200001157600080fd5b506040518060400160405280600581526020017f45474f4c440000000000000000000000000000000000000000000000000000008152506040518060400160405280600581526020017f45474f4c4400000000000000000000000000000000000000000000000000000081525081600390816200008f919062000324565b508060049081620000a1919062000324565b5050506200040b565b600081519050919050565b7f4e487b7100000000000000000000000000000000000000000000000000000000600052604160045260246000fd5b7f4e487b7100000000000000000000000000000000000000000000000000000000600052602260045260246000fd5b600060028204905060018216806200012c57607f821691505b602082108103620001425762000141620000e4565b5b50919050565b60008190508160005260206000209050919050565b60006020601f8301049050919050565b600082821b905092915050565b600060088302620001ac7fffffffffffffffffffffffffffffffffffffffffffffffffffffffffffffffff826200016d565b620001b886836200016d565b95508019841693508086168417925050509392505050565b6000819050919050565b6000819050919050565b600062000205620001ff620001f984620001d0565b620001da565b620001d0565b9050919050565b6000819050919050565b6200022183620001e4565b6200023962000230826200020c565b8484546200017a565b825550505050565b600090565b6200025062000241565b6200025d81848462000216565b505050565b5b8181101562000285576200027960008262000246565b60018101905062000263565b5050565b601f821115620002d4576200029e8162000148565b620002a9846200015d565b81016020851015620002b9578190505b620002d1620002c8856200015d565b83018262000262565b50505b505050565b600082821c905092915050565b6000620002f960001984600802620002d9565b1980831691505092915050565b6000620003148383620002e6565b9150826002028217905092915050565b6200032f82620000aa565b67ffffffffffffffff8111156200034b576200034a620000b5565b5b62000357825462000113565b6200036482828562000289565b600060209050601f8311600181146200039c576000841562000387578287015190505b62000393858262000306565b86555062000403565b601f198416620003ac8662000148565b60005b82811015620003d657848901518255600182019150602085019450602081019050620003af565b86831015620003f65784890151620003f2601f891682620002e6565b8355505b6001600288020188555050505b505050505050565b61294f806200041b6000396000f3fe608060405234801561001057600080fd5b50600436106101735760003560e01c8063721e3b9e116100de578063a9059cbb11610097578063dd62ed3e11610071578063dd62ed3e1461044a578063f85abda11461047a578063fc5e079714610498578063fcf6b5ae146104b657610173565b8063a9059cbb146103e2578063aa7bc94914610412578063d809d7db1461042e57610173565b8063721e3b9e146103225780637ecc2b561461033e57806392a8463d1461035c57806395d89b4114610378578063a0712d6814610396578063a457c2d7146103b257610173565b8063395093511161013057806339509351146102505780634016ea731461028057806342966c681461029c578063485e3e1a146102b8578063579b686f146102d657806370a08231146102f257610173565b806306fdde0314610178578063095ea7b31461019657806318160ddd146101c657806323b872dd146101e4578063313ce567146102145780633481bb6114610232575b600080fd5b6101806104d4565b60405161018d9190611a1e565b60405180910390f35b6101b060048036038101906101ab9190611ae8565b610566565b6040516101bd9190611b43565b60405180910390f35b6101ce610589565b6040516101db9190611b6d565b60405180910390f35b6101fe60048036038101906101f99190611b88565b610593565b60405161020b9190611b43565b60405180910390f35b61021c6105c2565b6040516102299190611bf7565b60405180910390f35b61023a6105cb565b6040516102479190611c71565b60405180910390f35b61026a60048036038101906102659190611ae8565b6105f1565b6040516102779190611b43565b60405180910390f35b61029a60048036038101906102959190611c8c565b610628565b005b6102b660048036038101906102b19190611cb9565b610779565b005b6102c06108bd565b6040516102cd9190611b6d565b60405180910390f35b6102f060048036038101906102eb9190611cb9565b610960565b005b61030c60048036038101906103079190611c8c565b6109ba565b6040516103199190611b6d565b60405180910390f35b61033c60048036038101906103379190611e1b565b610a02565b005b610346610b16565b6040516103539190611b6d565b60405180910390f35b61037660048036038101906103719190611c8c565b610b1c565b005b610380610bba565b60405161038d9190611a1e565b60405180910390f35b6103b060048036038101906103ab9190611cb9565b610c4c565b005b6103cc60048036038101906103c79190611ae8565b610d45565b6040516103d99190611b43565b60405180910390f35b6103fc60048036038101906103f79190611ae8565b610dbc565b6040516104099190611b43565b60405180910390f35b61042c60048036038101906104279190611cb9565b610ddf565b005b61044860048036038101906104439190611cb9565b61107b565b005b610464600480360381019061045f9190611e77565b6110d5565b6040516104719190611b6d565b60405180910390f35b61048261115c565b60405161048f9190611b6d565b60405180910390f35b6104a0611162565b6040516104ad9190611b6d565b60405180910390f35b6104be611168565b6040516104cb9190611ec6565b60405180910390f35b6060600380546104e390611f10565b80601f016020809104026020016040519081016040528092919081815260200182805461050f90611f10565b801561055c5780601f106105315761010080835404028352916020019161055c565b820191906000526020600020905b81548152906001019060200180831161053f57829003601f168201915b5050505050905090565b60008061057161118e565b905061057e818585611196565b600191505092915050565b6000600254905090565b60008061059e61118e565b90506105ab85828561135f565b6105b68585856113eb565b60019150509392505050565b60006012905090565b600560009054906101000a900473ffffffffffffffffffffffffffffffffffffffff1681565b6000806105fc61118e565b905061061d81858561060e85896110d5565b6106189190611f70565b611196565b600191505092915050565b600073ffffffffffffffffffffffffffffffffffffffff16600960009054906101000a900473ffffffffffffffffffffffffffffffffffffffff1673ffffffffffffffffffffffffffffffffffffffff16146106b9576040517f08c379a00000000000000000000000000000000000000000000000000000000081526004016106b090611ff0565b60405180910390fd5b80600960006101000a81548173ffffffffffffffffffffffffffffffffffffffff021916908373ffffffffffffffffffffffffffffffffffffffff160217905550600960009054906101000a900473ffffffffffffffffffffffffffffffffffffffff1673ffffffffffffffffffffffffffffffffffffffff163373ffffffffffffffffffffffffffffffffffffffff167f2c639e388bc0e9bec1a30f91c4696708799b3f0da645d0a8f0ec26c44305935860405160405180910390a350565b600960009054906101000a900473ffffffffffffffffffffffffffffffffffffffff1673ffffffffffffffffffffffffffffffffffffffff163373ffffffffffffffffffffffffffffffffffffffff1614610809576040517f08c379a000000000000000000000000000000000000000000000000000000000815260040161080090612082565b60405180910390fd5b80610813306109ba565b1015610854576040517f08c379a000000000000000000000000000000000000000000000000000000000815260040161084b906120ee565b60405180910390fd5b61085e3082611661565b610866610589565b6008819055503073ffffffffffffffffffffffffffffffffffffffff167f696de425f79f4a40bc6d2122ca50507f0efbeabbff86a84871b7196ab8ea8df7826040516108b29190611b6d565b60405180910390a250565b6000600560009054906101000a900473ffffffffffffffffffffffffffffffffffffffff1673ffffffffffffffffffffffffffffffffffffffff166370a08231306040518263ffffffff1660e01b815260040161091a9190611ec6565b602060405180830381865afa158015610937573d6000803e3d6000fd5b505050506040513d601f19601f8201168201806040525081019061095b9190612123565b905090565b806006819055503373ffffffffffffffffffffffffffffffffffffffff167feddfcc4c735761863283625eeeb8f381ae31035e0a81a7b5e0ae6e2f421b8da66006546040516109af9190611b6d565b60405180910390a250565b60008060008373ffffffffffffffffffffffffffffffffffffffff1673ffffffffffffffffffffffffffffffffffffffff168152602001908152602001600020549050919050565b81610a0c306109ba565b1015610a4d576040517f08c379a0000000000000000000000000000000000000000000000000000000008152600401610a44906120ee565b60405180910390fd5b6000670de0b6b3a764000083610a63919061217f565b670de0b6b3a7640000600754610a79919061217f565b610a8391906121b0565b9050610a903033856113eb565b8260086000828254610aa291906121f2565b9250508190555081604051610ab79190612262565b60405180910390203373ffffffffffffffffffffffffffffffffffffffff167f5f02b2e42c6ffbebd1549b76bf8bd2e613b44f1153dd124af9e1c23400860444308685604051610b0993929190612279565b60405180910390a3505050565b60085481565b80600560006101000a81548173ffffffffffffffffffffffffffffffffffffffff021916908373ffffffffffffffffffffffffffffffffffffffff1602179055508073ffffffffffffffffffffffffffffffffffffffff163373ffffffffffffffffffffffffffffffffffffffff167f830be06b07932bb2e2881ba32668581cdee3c399577cdf53b9d9ec05ae7198aa60405160405180910390a350565b606060048054610bc990611f10565b80601f0160208091040260200160405190810160405280929190818152602001828054610bf590611f10565b8015610c425780601f10610c1757610100808354040283529160200191610c42565b820191906000526020600020905b815481529060010190602001808311610c2557829003601f168201915b5050505050905090565b600960009054906101000a900473ffffffffffffffffffffffffffffffffffffffff1673ffffffffffffffffffffffffffffffffffffffff163373ffffffffffffffffffffffffffffffffffffffff1614610cdc576040517f08c379a0000000000000000000000000000000000000000000000000000000008152600401610cd390612082565b60405180910390fd5b610ce6308261182e565b610cee610589565b6008819055503073ffffffffffffffffffffffffffffffffffffffff167f30385c845b448a36257a6a1716e6ad2e1bc2cbe333cde1e69fe849ad6511adfe82604051610d3a9190611b6d565b60405180910390a250565b600080610d5061118e565b90506000610d5e82866110d5565b905083811015610da3576040517f08c379a0000000000000000000000000000000000000000000000000000000008152600401610d9a90612322565b60405180910390fd5b610db08286868403611196565b60019250505092915050565b600080610dc761118e565b9050610dd48185856113eb565b600191505092915050565b80610de9306109ba565b1015610e2a576040517f08c379a0000000000000000000000000000000000000000000000000000000008152600401610e21906120ee565b60405180910390fd5b600060065411610e6f576040517f08c379a0000000000000000000000000000000000000000000000000000000008152600401610e669061238e565b60405180910390fd5b6000670de0b6b3a764000082610e85919061217f565b600654610e9291906121b0565b905080600560009054906101000a900473ffffffffffffffffffffffffffffffffffffffff1673ffffffffffffffffffffffffffffffffffffffff166370a08231336040518263ffffffff1660e01b8152600401610ef09190611ec6565b602060405180830381865afa158015610f0d573d6000803e3d6000fd5b505050506040513d601f19601f82011682018060405250810190610f319190612123565b1015610f72576040517f08c379a0000000000000000000000000000000000000000000000000000000008152600401610f69906123fa565b60405180910390fd5b600560009054906101000a900473ffffffffffffffffffffffffffffffffffffffff1673ffffffffffffffffffffffffffffffffffffffff1663e3060f2233836040518363ffffffff1660e01b8152600401610fcf92919061241a565b600060405180830381600087803b158015610fe957600080fd5b505af1158015610ffd573d6000803e3d6000fd5b5050505061100c3033846113eb565b816008600082825461101e91906121f2565b925050819055503373ffffffffffffffffffffffffffffffffffffffff167fbfb2d47f240a2514f345656ec0f60068f7683420f974614a603e6b23b08f36bb30848460405161106f93929190612279565b60405180910390a25050565b806007819055503373ffffffffffffffffffffffffffffffffffffffff167f4bb7ad2630dfff3f1c80235fb217e04e7824290975fcc2851beb4e27e72eb9c26007546040516110ca9190611b6d565b60405180910390a250565b6000600160008473ffffffffffffffffffffffffffffffffffffffff1673ffffffffffffffffffffffffffffffffffffffff16815260200190815260200160002060008373ffffffffffffffffffffffffffffffffffffffff1673ffffffffffffffffffffffffffffffffffffffff16815260200190815260200160002054905092915050565b60075481565b60065481565b600960009054906101000a900473ffffffffffffffffffffffffffffffffffffffff1681565b600033905090565b600073ffffffffffffffffffffffffffffffffffffffff168373ffffffffffffffffffffffffffffffffffffffff1603611205576040517f08c379a00000000000000000000000000000000000000000000000000000000081526004016111fc906124b5565b60405180910390fd5b600073ffffffffffffffffffffffffffffffffffffffff168273ffffffffffffffffffffffffffffffffffffffff1603611274576040517f08c379a000000000000000000000000000000000000000000000000000000000815260040161126b90612547565b60405180910390fd5b80600160008573ffffffffffffffffffffffffffffffffffffffff1673ffffffffffffffffffffffffffffffffffffffff16815260200190815260200160002060008473ffffffffffffffffffffffffffffffffffffffff1673ffffffffffffffffffffffffffffffffffffffff168152602001908152602001600020819055508173ffffffffffffffffffffffffffffffffffffffff168373ffffffffffffffffffffffffffffffffffffffff167f8c5be1e5ebec7d5bd14f71427d1e84f3dd0314c0f7b2291e5b200ac8c7c3b925836040516113529190611b6d565b60405180910390a3505050565b600061136b84846110d5565b90507fffffffffffffffffffffffffffffffffffffffffffffffffffffffffffffffff81146113e557818110156113d7576040517f08c379a00000000000000000000000000000000000000000000000000000000081526004016113ce906125b3565b60405180910390fd5b6113e48484848403611196565b5b50505050565b600073ffffffffffffffffffffffffffffffffffffffff168373ffffffffffffffffffffffffffffffffffffffff160361145a576040517f08c379a000000000000000000000000000000000000000000000000000000000815260040161145190612645565b60405180910390fd5b600073ffffffffffffffffffffffffffffffffffffffff168273ffffffffffffffffffffffffffffffffffffffff16036114c9576040517f08c379a00000000000000000000000000000000000000000000000000000000081526004016114c0906126d7565b60405180910390fd5b6114d4838383611984565b60008060008573ffffffffffffffffffffffffffffffffffffffff1673ffffffffffffffffffffffffffffffffffffffff1681526020019081526020016000205490508181101561155a576040517f08c379a000000000000000000000000000000000000000000000000000000000815260040161155190612769565b60405180910390fd5b8181036000808673ffffffffffffffffffffffffffffffffffffffff1673ffffffffffffffffffffffffffffffffffffffff16815260200190815260200160002081905550816000808573ffffffffffffffffffffffffffffffffffffffff1673ffffffffffffffffffffffffffffffffffffffff168152602001908152602001600020600082825401925050819055508273ffffffffffffffffffffffffffffffffffffffff168473ffffffffffffffffffffffffffffffffffffffff167fddf252ad1be2c89b69c2b068fc378daa952ba7f163c4a11628f55a4df523b3ef846040516116489190611b6d565b60405180910390a361165b848484611989565b50505050565b600073ffffffffffffffffffffffffffffffffffffffff168273ffffffffffffffffffffffffffffffffffffffff16036116d0576040517f08c379a00000000000000000000000000000000000000000000000000000000081526004016116c7906127fb565b60405180910390fd5b6116dc82600083611984565b60008060008473ffffffffffffffffffffffffffffffffffffffff1673ffffffffffffffffffffffffffffffffffffffff16815260200190815260200160002054905081811015611762576040517f08c379a00000000000000000000000000000000000000000000000000000000081526004016117599061288d565b60405180910390fd5b8181036000808573ffffffffffffffffffffffffffffffffffffffff1673ffffffffffffffffffffffffffffffffffffffff1681526020019081526020016000208190555081600260008282540392505081905550600073ffffffffffffffffffffffffffffffffffffffff168373ffffffffffffffffffffffffffffffffffffffff167fddf252ad1be2c89b69c2b068fc378daa952ba7f163c4a11628f55a4df523b3ef846040516118159190611b6d565b60405180910390a361182983600084611989565b505050565b600073ffffffffffffffffffffffffffffffffffffffff168273ffffffffffffffffffffffffffffffffffffffff160361189d576040517f08c379a0000000000000000000000000000000000000000000000000000000008152600401611894906128f9565b60405180910390fd5b6118a960008383611984565b80600260008282546118bb9190611f70565b92505081905550806000808473ffffffffffffffffffffffffffffffffffffffff1673ffffffffffffffffffffffffffffffffffffffff168152602001908152602001600020600082825401925050819055508173ffffffffffffffffffffffffffffffffffffffff16600073ffffffffffffffffffffffffffffffffffffffff167fddf252ad1be2c89b69c2b068fc378daa952ba7f163c4a11628f55a4df523b3ef8360405161196c9190611b6d565b60405180910390a361198060008383611989565b5050565b505050565b505050565b600081519050919050565b600082825260208201905092915050565b60005b838110156119c85780820151818401526020810190506119ad565b60008484015250505050565b6000601f19601f8301169050919050565b60006119f08261198e565b6119fa8185611999565b9350611a0a8185602086016119aa565b611a13816119d4565b840191505092915050565b60006020820190508181036000830152611a3881846119e5565b905092915050565b6000604051905090565b600080fd5b600080fd5b600073ffffffffffffffffffffffffffffffffffffffff82169050919050565b6000611a7f82611a54565b9050919050565b611a8f81611a74565b8114611a9a57600080fd5b50565b600081359050611aac81611a86565b92915050565b6000819050919050565b611ac581611ab2565b8114611ad057600080fd5b50565b600081359050611ae281611abc565b92915050565b60008060408385031215611aff57611afe611a4a565b5b6000611b0d85828601611a9d565b9250506020611b1e85828601611ad3565b9150509250929050565b60008115159050919050565b611b3d81611b28565b82525050565b6000602082019050611b586000830184611b34565b92915050565b611b6781611ab2565b82525050565b6000602082019050611b826000830184611b5e565b92915050565b600080600060608486031215611ba157611ba0611a4a565b5b6000611baf86828701611a9d565b9350506020611bc086828701611a9d565b9250506040611bd186828701611ad3565b9150509250925092565b600060ff82169050919050565b611bf181611bdb565b82525050565b6000602082019050611c0c6000830184611be8565b92915050565b6000819050919050565b6000611c37611c32611c2d84611a54565b611c12565b611a54565b9050919050565b6000611c4982611c1c565b9050919050565b6000611c5b82611c3e565b9050919050565b611c6b81611c50565b82525050565b6000602082019050611c866000830184611c62565b92915050565b600060208284031215611ca257611ca1611a4a565b5b6000611cb084828501611a9d565b91505092915050565b600060208284031215611ccf57611cce611a4a565b5b6000611cdd84828501611ad3565b91505092915050565b600080fd5b600080fd5b7f4e487b7100000000000000000000000000000000000000000000000000000000600052604160045260246000fd5b611d28826119d4565b810181811067ffffffffffffffff82111715611d4757611d46611cf0565b5b80604052505050565b6000611d5a611a40565b9050611d668282611d1f565b919050565b600067ffffffffffffffff821115611d8657611d85611cf0565b5b611d8f826119d4565b9050602081019050919050565b82818337600083830152505050565b6000611dbe611db984611d6b565b611d50565b905082815260208101848484011115611dda57611dd9611ceb565b5b611de5848285611d9c565b509392505050565b600082601f830112611e0257611e01611ce6565b5b8135611e12848260208601611dab565b91505092915050565b60008060408385031215611e3257611e31611a4a565b5b6000611e4085828601611ad3565b925050602083013567ffffffffffffffff811115611e6157611e60611a4f565b5b611e6d85828601611ded565b9150509250929050565b60008060408385031215611e8e57611e8d611a4a565b5b6000611e9c85828601611a9d565b9250506020611ead85828601611a9d565b9150509250929050565b611ec081611a74565b82525050565b6000602082019050611edb6000830184611eb7565b92915050565b7f4e487b7100000000000000000000000000000000000000000000000000000000600052602260045260246000fd5b60006002820490506001821680611f2857607f821691505b602082108103611f3b57611f3a611ee1565b5b50919050565b7f4e487b7100000000000000000000000000000000000000000000000000000000600052601160045260246000fd5b6000611f7b82611ab2565b9150611f8683611ab2565b9250828201905080821115611f9e57611f9d611f41565b5b92915050565b7f696e76656e746f72792048616e646c657220616c7265616479207365742e0000600082015250565b6000611fda601e83611999565b9150611fe582611fa4565b602082019050919050565b6000602082019050818103600083015261200981611fcd565b9050919050565b7f4f6e6c7920496e76656e746f72792048616e646c657220436f6e74726163742060008201527f616c6c6f7765642e000000000000000000000000000000000000000000000000602082015250565b600061206c602883611999565b915061207782612010565b604082019050919050565b6000602082019050818103600083015261209b8161205f565b9050919050565b7f496e73756666696369656e742045474f4c4420696e20436f6e74726163742e00600082015250565b60006120d8601f83611999565b91506120e3826120a2565b602082019050919050565b60006020820190508181036000830152612107816120cb565b9050919050565b60008151905061211d81611abc565b92915050565b60006020828403121561213957612138611a4a565b5b60006121478482850161210e565b91505092915050565b7f4e487b7100000000000000000000000000000000000000000000000000000000600052601260045260246000fd5b600061218a82611ab2565b915061219583611ab2565b9250826121a5576121a4612150565b5b828204905092915050565b60006121bb82611ab2565b91506121c683611ab2565b92508282026121d481611ab2565b915082820484148315176121eb576121ea611f41565b5b5092915050565b60006121fd82611ab2565b915061220883611ab2565b92508282039050818111156122205761221f611f41565b5b92915050565b600081905092915050565b600061223c8261198e565b6122468185612226565b93506122568185602086016119aa565b80840191505092915050565b600061226e8284612231565b915081905092915050565b600060608201905061228e6000830186611eb7565b61229b6020830185611b5e565b6122a86040830184611b5e565b949350505050565b7f45524332303a2064656372656173656420616c6c6f77616e63652062656c6f7760008201527f207a65726f000000000000000000000000000000000000000000000000000000602082015250565b600061230c602583611999565b9150612317826122b0565b604082019050919050565b6000602082019050818103600083015261233b816122ff565b9050919050565b7f45474f4c44205072696365206e6f742073657400000000000000000000000000600082015250565b6000612378601383611999565b915061238382612342565b602082019050919050565b600060208201905081810360008301526123a78161236b565b9050919050565b7f496e737566666369656e742042616c616e636500000000000000000000000000600082015250565b60006123e4601383611999565b91506123ef826123ae565b602082019050919050565b60006020820190508181036000830152612413816123d7565b9050919050565b600060408201905061242f6000830185611eb7565b61243c6020830184611b5e565b9392505050565b7f45524332303a20617070726f76652066726f6d20746865207a65726f2061646460008201527f7265737300000000000000000000000000000000000000000000000000000000602082015250565b600061249f602483611999565b91506124aa82612443565b604082019050919050565b600060208201905081810360008301526124ce81612492565b9050919050565b7f45524332303a20617070726f766520746f20746865207a65726f20616464726560008201527f7373000000000000000000000000000000000000000000000000000000000000602082015250565b6000612531602283611999565b915061253c826124d5565b604082019050919050565b6000602082019050818103600083015261256081612524565b9050919050565b7f45524332303a20696e73756666696369656e7420616c6c6f77616e6365000000600082015250565b600061259d601d83611999565b91506125a882612567565b602082019050919050565b600060208201905081810360008301526125cc81612590565b9050919050565b7f45524332303a207472616e736665722066726f6d20746865207a65726f20616460008201527f6472657373000000000000000000000000000000000000000000000000000000602082015250565b600061262f602583611999565b915061263a826125d3565b604082019050919050565b6000602082019050818103600083015261265e81612622565b9050919050565b7f45524332303a207472616e7366657220746f20746865207a65726f206164647260008201527f6573730000000000000000000000000000000000000000000000000000000000602082015250565b60006126c1602383611999565b91506126cc82612665565b604082019050919050565b600060208201905081810360008301526126f0816126b4565b9050919050565b7f45524332303a207472616e7366657220616d6f756e742065786365656473206260008201527f616c616e63650000000000000000000000000000000000000000000000000000602082015250565b6000612753602683611999565b915061275e826126f7565b604082019050919050565b6000602082019050818103600083015261278281612746565b9050919050565b7f45524332303a206275726e2066726f6d20746865207a65726f2061646472657360008201527f7300000000000000000000000000000000000000000000000000000000000000602082015250565b60006127e5602183611999565b91506127f082612789565b604082019050919050565b60006020820190508181036000830152612814816127d8565b9050919050565b7f45524332303a206275726e20616d6f756e7420657863656564732062616c616e60008201527f6365000000000000000000000000000000000000000000000000000000000000602082015250565b6000612877602283611999565b91506128828261281b565b604082019050919050565b600060208201905081810360008301526128a68161286a565b9050919050565b7f45524332303a206d696e7420746f20746865207a65726f206164647265737300600082015250565b60006128e3601f83611999565b91506128ee826128ad565b602082019050919050565b60006020820190508181036000830152612912816128d6565b905091905056fea2646970667358221220aa6054d65d1eab8a781e5fd758bd0d8ddc17533e49e4501f7b8dfee8fe6155dc64736f6c63430008110033",
  "immutableReferences": {},
  "source": "//SPDX-License-Identifier: MIT\n\npragma solidity ^0.8.17;\n\nimport \"@openzeppelin/contracts/token/ERC20/ERC20.sol\";\nimport \"./EINR.sol\";\n\ncontract EGOLDContract is ERC20 {\n    event Minted(address indexed _to, uint256 _amount);\n    event Burned(address indexed _to, uint256 _amount);\n    event InventoryAddressSet(address indexed _setBy, address indexed _InventoryAdd);\n    event EINRAddressSet(address indexed _setBy, address indexed _EGOLDAdd);\n    event EGOLD_EINR_PriceSet(address indexed _setBy, uint256 _EGOLDPriceEINR);\n    event EGOLD_INR_PriceSet(address indexed _setBy, uint256 _EGOLDPriceINR);\n    event EGOLD_EINR_Transfer(\n        address _from,\n        address indexed _to,\n        uint256 _EGoldAmount,\n        uint256 _EINRAmount\n    );\n    event EGOLD_INR_Transfer(\n        address _from,\n        address indexed _to,\n        string indexed _receipt,\n        uint256 _EGoldmount,\n        uint256 _INRAmount\n    );\n\n    EINRContract public _EINR;\n    uint256 public EGoldPriceEINR;\n    uint256 public EGoldPriceINR;\n    uint256 public availableSupply;\n    address public inventoryHandler;\n\n    modifier onlyInventoryHandler(){\n        require(msg.sender == inventoryHandler, \"Only Inventory Handler Contract allowed.\");\n        _;\n    }\n    constructor() ERC20(\"EGOLD\", \"EGOLD\") {}\n\n    function setInventoryHandler(address _address)public {\n        require(inventoryHandler == address(0), \"inventory Handler already set.\");\n        inventoryHandler = _address;\n        emit InventoryAddressSet(msg.sender, inventoryHandler);\n    }\n\n    function mint(uint256 _amount) public onlyInventoryHandler{\n        _mint(address(this), _amount);\n        availableSupply = totalSupply();\n        emit Minted(address(this), _amount);\n    }\n\n    function burn(uint256 _amount) public onlyInventoryHandler{\n        require(balanceOf(address(this)) >= _amount, \"Insufficient EGOLD in Contract.\");\n        _burn(address(this), _amount);\n        availableSupply = totalSupply();\n        emit Burned(address(this), _amount);\n    }\n\n    function setEINR(address _Einr) public {\n        _EINR = EINRContract(_Einr);\n        emit EINRAddressSet(msg.sender, _Einr);\n    }\n\n    function setGoldPriceEINR(uint256 _price) public {\n        EGoldPriceEINR = _price;\n        emit EGOLD_EINR_PriceSet(msg.sender, EGoldPriceEINR);\n    }\n\n    function setGoldPriceINR(uint256 _price) public {\n        EGoldPriceINR = _price;\n        emit EGOLD_INR_PriceSet(msg.sender, EGoldPriceINR);\n    }\n\n    function buyEGoldEINR(uint256 _EGoldAmount) public {\n        require(balanceOf(address(this)) >= _EGoldAmount, \"Insufficient EGOLD in Contract.\");\n        require(EGoldPriceEINR > 0, \"EGOLD Price not set\");\n        uint256 totalEINR = EGoldPriceEINR * (_EGoldAmount / 10**18);\n        require(\n            _EINR.balanceOf(msg.sender) >= totalEINR,\n            \"Insuffcient Balance\"\n        );\n        _EINR.transferBal(msg.sender, totalEINR);\n        _transfer(address(this), msg.sender, _EGoldAmount);\n        availableSupply -= _EGoldAmount;\n        emit EGOLD_EINR_Transfer(\n            address(this),\n            msg.sender,\n            _EGoldAmount,\n            totalEINR\n        );\n    }\n\n    function buyEGoldINR(uint256 _EGoldAmount, string memory _receipt) public {\n        require(balanceOf(address(this)) >= _EGoldAmount, \"Insufficient EGOLD in Contract.\");\n        uint256 totalINR = (EGoldPriceINR / 10**18) * (_EGoldAmount / 10**18);\n        _transfer(address(this), msg.sender, _EGoldAmount);\n        availableSupply -= _EGoldAmount;\n        emit EGOLD_INR_Transfer(\n            address(this),\n            msg.sender,\n            _receipt,\n            _EGoldAmount,\n            totalINR\n        );\n    }\n\n    function BalEINR() public view returns (uint256) {\n        return (_EINR.balanceOf(address(this)));\n    }\n}\n",
  "sourcePath": "/home/neosoft/S/EGOLD-EINR-POC/solidity/contracts/EGOLD.sol",
  "compiler": {
    "name": "solc",
    "version": "0.8.17+commit.8df45f5f.Emscripten.clang"
  },
  "schemaVersion": "3.4.11",
  "updatedAt": "2023-02-07T09:13:25.961Z",
  "networkType": "ethereum",
  "devdoc": {
    "kind": "dev",
    "methods": {
      "allowance(address,address)": {
        "details": "See {IERC20-allowance}."
      },
      "approve(address,uint256)": {
        "details": "See {IERC20-approve}. NOTE: If `amount` is the maximum `uint256`, the allowance is not updated on `transferFrom`. This is semantically equivalent to an infinite approval. Requirements: - `spender` cannot be the zero address."
      },
      "balanceOf(address)": {
        "details": "See {IERC20-balanceOf}."
      },
      "decimals()": {
        "details": "Returns the number of decimals used to get its user representation. For example, if `decimals` equals `2`, a balance of `505` tokens should be displayed to a user as `5.05` (`505 / 10 ** 2`). Tokens usually opt for a value of 18, imitating the relationship between Ether and Wei. This is the value {ERC20} uses, unless this function is overridden; NOTE: This information is only used for _display_ purposes: it in no way affects any of the arithmetic of the contract, including {IERC20-balanceOf} and {IERC20-transfer}."
      },
      "decreaseAllowance(address,uint256)": {
        "details": "Atomically decreases the allowance granted to `spender` by the caller. This is an alternative to {approve} that can be used as a mitigation for problems described in {IERC20-approve}. Emits an {Approval} event indicating the updated allowance. Requirements: - `spender` cannot be the zero address. - `spender` must have allowance for the caller of at least `subtractedValue`."
      },
      "increaseAllowance(address,uint256)": {
        "details": "Atomically increases the allowance granted to `spender` by the caller. This is an alternative to {approve} that can be used as a mitigation for problems described in {IERC20-approve}. Emits an {Approval} event indicating the updated allowance. Requirements: - `spender` cannot be the zero address."
      },
      "name()": {
        "details": "Returns the name of the token."
      },
      "symbol()": {
        "details": "Returns the symbol of the token, usually a shorter version of the name."
      },
      "totalSupply()": {
        "details": "See {IERC20-totalSupply}."
      },
      "transfer(address,uint256)": {
        "details": "See {IERC20-transfer}. Requirements: - `to` cannot be the zero address. - the caller must have a balance of at least `amount`."
      },
      "transferFrom(address,address,uint256)": {
        "details": "See {IERC20-transferFrom}. Emits an {Approval} event indicating the updated allowance. This is not required by the EIP. See the note at the beginning of {ERC20}. NOTE: Does not update the allowance if the current allowance is the maximum `uint256`. Requirements: - `from` and `to` cannot be the zero address. - `from` must have a balance of at least `amount`. - the caller must have allowance for ``from``'s tokens of at least `amount`."
      }
    },
    "version": 1
  },
  "userdoc": {
    "kind": "user",
    "methods": {},
    "version": 1
  }
}