{
  "contractName": "EGOLDContract",
  "abi": [
    {
      "inputs": [],
      "stateMutability": "nonpayable",
      "type": "constructor"
    },
    {
      "anonymous": false,
      "inputs": [
        {
          "indexed": true,
          "internalType": "address",
          "name": "owner",
          "type": "address"
        },
        {
          "indexed": true,
          "internalType": "address",
          "name": "spender",
          "type": "address"
        },
        {
          "indexed": false,
          "internalType": "uint256",
          "name": "value",
          "type": "uint256"
        }
      ],
      "name": "Approval",
      "type": "event"
    },
    {
      "anonymous": false,
      "inputs": [
        {
          "indexed": true,
          "internalType": "address",
          "name": "_setBy",
          "type": "address"
        },
        {
          "indexed": false,
          "internalType": "uint256",
          "name": "_EGOLDPriceEINR",
          "type": "uint256"
        }
      ],
      "name": "EGOLD_EINR_PriceSet",
      "type": "event"
    },
    {
      "anonymous": false,
      "inputs": [
        {
          "indexed": false,
          "internalType": "address",
          "name": "_from",
          "type": "address"
        },
        {
          "indexed": true,
          "internalType": "address",
          "name": "_to",
          "type": "address"
        },
        {
          "indexed": false,
          "internalType": "uint256",
          "name": "_EGoldAmount",
          "type": "uint256"
        },
        {
          "indexed": false,
          "internalType": "uint256",
          "name": "_EINRAmount",
          "type": "uint256"
        }
      ],
      "name": "EGOLD_EINR_Transfer",
      "type": "event"
    },
    {
      "anonymous": false,
      "inputs": [
        {
          "indexed": true,
          "internalType": "address",
          "name": "_setBy",
          "type": "address"
        },
        {
          "indexed": false,
          "internalType": "uint256",
          "name": "_EGOLDPriceINR",
          "type": "uint256"
        }
      ],
      "name": "EGOLD_INR_PriceSet",
      "type": "event"
    },
    {
      "anonymous": false,
      "inputs": [
        {
          "indexed": false,
          "internalType": "address",
          "name": "_from",
          "type": "address"
        },
        {
          "indexed": true,
          "internalType": "address",
          "name": "_to",
          "type": "address"
        },
        {
          "indexed": true,
          "internalType": "string",
          "name": "_receipt",
          "type": "string"
        },
        {
          "indexed": false,
          "internalType": "uint256",
          "name": "_EGoldmount",
          "type": "uint256"
        },
        {
          "indexed": false,
          "internalType": "uint256",
          "name": "_INRAmount",
          "type": "uint256"
        }
      ],
      "name": "EGOLD_INR_Transfer",
      "type": "event"
    },
    {
      "anonymous": false,
      "inputs": [
        {
          "indexed": true,
          "internalType": "address",
          "name": "_setBy",
          "type": "address"
        },
        {
          "indexed": true,
          "internalType": "address",
          "name": "_EGOLDAdd",
          "type": "address"
        }
      ],
      "name": "EINRAddressSet",
      "type": "event"
    },
    {
      "anonymous": false,
      "inputs": [
        {
          "indexed": true,
          "internalType": "address",
          "name": "_to",
          "type": "address"
        },
        {
          "indexed": false,
          "internalType": "uint256",
          "name": "_amount",
          "type": "uint256"
        }
      ],
      "name": "Minted",
      "type": "event"
    },
    {
      "anonymous": false,
      "inputs": [
        {
          "indexed": true,
          "internalType": "address",
          "name": "from",
          "type": "address"
        },
        {
          "indexed": true,
          "internalType": "address",
          "name": "to",
          "type": "address"
        },
        {
          "indexed": false,
          "internalType": "uint256",
          "name": "value",
          "type": "uint256"
        }
      ],
      "name": "Transfer",
      "type": "event"
    },
    {
      "inputs": [],
      "name": "EGoldPriceEINR",
      "outputs": [
        {
          "internalType": "uint256",
          "name": "",
          "type": "uint256"
        }
      ],
      "stateMutability": "view",
      "type": "function",
      "constant": true
    },
    {
      "inputs": [],
      "name": "EGoldPriceINR",
      "outputs": [
        {
          "internalType": "uint256",
          "name": "",
          "type": "uint256"
        }
      ],
      "stateMutability": "view",
      "type": "function",
      "constant": true
    },
    {
      "inputs": [],
      "name": "_EINR",
      "outputs": [
        {
          "internalType": "contract EINRContract",
          "name": "",
          "type": "address"
        }
      ],
      "stateMutability": "view",
      "type": "function",
      "constant": true
    },
    {
      "inputs": [
        {
          "internalType": "address",
          "name": "owner",
          "type": "address"
        },
        {
          "internalType": "address",
          "name": "spender",
          "type": "address"
        }
      ],
      "name": "allowance",
      "outputs": [
        {
          "internalType": "uint256",
          "name": "",
          "type": "uint256"
        }
      ],
      "stateMutability": "view",
      "type": "function",
      "constant": true
    },
    {
      "inputs": [
        {
          "internalType": "address",
          "name": "spender",
          "type": "address"
        },
        {
          "internalType": "uint256",
          "name": "amount",
          "type": "uint256"
        }
      ],
      "name": "approve",
      "outputs": [
        {
          "internalType": "bool",
          "name": "",
          "type": "bool"
        }
      ],
      "stateMutability": "nonpayable",
      "type": "function"
    },
    {
      "inputs": [],
      "name": "availableSupply",
      "outputs": [
        {
          "internalType": "uint256",
          "name": "",
          "type": "uint256"
        }
      ],
      "stateMutability": "view",
      "type": "function",
      "constant": true
    },
    {
      "inputs": [
        {
          "internalType": "address",
          "name": "account",
          "type": "address"
        }
      ],
      "name": "balanceOf",
      "outputs": [
        {
          "internalType": "uint256",
          "name": "",
          "type": "uint256"
        }
      ],
      "stateMutability": "view",
      "type": "function",
      "constant": true
    },
    {
      "inputs": [],
      "name": "decimals",
      "outputs": [
        {
          "internalType": "uint8",
          "name": "",
          "type": "uint8"
        }
      ],
      "stateMutability": "view",
      "type": "function",
      "constant": true
    },
    {
      "inputs": [
        {
          "internalType": "address",
          "name": "spender",
          "type": "address"
        },
        {
          "internalType": "uint256",
          "name": "subtractedValue",
          "type": "uint256"
        }
      ],
      "name": "decreaseAllowance",
      "outputs": [
        {
          "internalType": "bool",
          "name": "",
          "type": "bool"
        }
      ],
      "stateMutability": "nonpayable",
      "type": "function"
    },
    {
      "inputs": [
        {
          "internalType": "address",
          "name": "spender",
          "type": "address"
        },
        {
          "internalType": "uint256",
          "name": "addedValue",
          "type": "uint256"
        }
      ],
      "name": "increaseAllowance",
      "outputs": [
        {
          "internalType": "bool",
          "name": "",
          "type": "bool"
        }
      ],
      "stateMutability": "nonpayable",
      "type": "function"
    },
    {
      "inputs": [],
      "name": "name",
      "outputs": [
        {
          "internalType": "string",
          "name": "",
          "type": "string"
        }
      ],
      "stateMutability": "view",
      "type": "function",
      "constant": true
    },
    {
      "inputs": [],
      "name": "symbol",
      "outputs": [
        {
          "internalType": "string",
          "name": "",
          "type": "string"
        }
      ],
      "stateMutability": "view",
      "type": "function",
      "constant": true
    },
    {
      "inputs": [],
      "name": "totalSupply",
      "outputs": [
        {
          "internalType": "uint256",
          "name": "",
          "type": "uint256"
        }
      ],
      "stateMutability": "view",
      "type": "function",
      "constant": true
    },
    {
      "inputs": [
        {
          "internalType": "address",
          "name": "to",
          "type": "address"
        },
        {
          "internalType": "uint256",
          "name": "amount",
          "type": "uint256"
        }
      ],
      "name": "transfer",
      "outputs": [
        {
          "internalType": "bool",
          "name": "",
          "type": "bool"
        }
      ],
      "stateMutability": "nonpayable",
      "type": "function"
    },
    {
      "inputs": [
        {
          "internalType": "address",
          "name": "from",
          "type": "address"
        },
        {
          "internalType": "address",
          "name": "to",
          "type": "address"
        },
        {
          "internalType": "uint256",
          "name": "amount",
          "type": "uint256"
        }
      ],
      "name": "transferFrom",
      "outputs": [
        {
          "internalType": "bool",
          "name": "",
          "type": "bool"
        }
      ],
      "stateMutability": "nonpayable",
      "type": "function"
    },
    {
      "inputs": [
        {
          "internalType": "address",
          "name": "_Einr",
          "type": "address"
        }
      ],
      "name": "setEINR",
      "outputs": [],
      "stateMutability": "nonpayable",
      "type": "function"
    },
    {
      "inputs": [
        {
          "internalType": "uint256",
          "name": "_price",
          "type": "uint256"
        }
      ],
      "name": "setGoldPriceEINR",
      "outputs": [],
      "stateMutability": "nonpayable",
      "type": "function"
    },
    {
      "inputs": [
        {
          "internalType": "uint256",
          "name": "_price",
          "type": "uint256"
        }
      ],
      "name": "setGoldPriceINR",
      "outputs": [],
      "stateMutability": "nonpayable",
      "type": "function"
    },
    {
      "inputs": [
        {
          "internalType": "uint256",
          "name": "_EGoldAmount",
          "type": "uint256"
        }
      ],
      "name": "buyEGoldEINR",
      "outputs": [],
      "stateMutability": "nonpayable",
      "type": "function"
    },
    {
      "inputs": [
        {
          "internalType": "uint256",
          "name": "_EGoldAmount",
          "type": "uint256"
        },
        {
          "internalType": "string",
          "name": "_receipt",
          "type": "string"
        }
      ],
      "name": "buyEGoldINR",
      "outputs": [],
      "stateMutability": "nonpayable",
      "type": "function"
    },
    {
      "inputs": [],
      "name": "BalEINR",
      "outputs": [
        {
          "internalType": "uint256",
          "name": "",
          "type": "uint256"
        }
      ],
      "stateMutability": "view",
      "type": "function",
      "constant": true
    }
  ],
  "bytecode": "0x60806040523480156200001157600080fd5b506040518060400160405280600581526020017f45474f4c440000000000000000000000000000000000000000000000000000008152506040518060400160405280600581526020017f45474f4c4400000000000000000000000000000000000000000000000000000081525081600390816200008f91906200052d565b508060049081620000a191906200052d565b505050600069d3c21bcecceda10000009050620000c530826200013260201b60201c565b3073ffffffffffffffffffffffffffffffffffffffff167f30385c845b448a36257a6a1716e6ad2e1bc2cbe333cde1e69fe849ad6511adfe826040516200010d919062000625565b60405180910390a2620001256200029f60201b60201c565b600881905550506200072f565b600073ffffffffffffffffffffffffffffffffffffffff168273ffffffffffffffffffffffffffffffffffffffff1603620001a4576040517f08c379a00000000000000000000000000000000000000000000000000000000081526004016200019b90620006a3565b60405180910390fd5b620001b860008383620002a960201b60201c565b8060026000828254620001cc9190620006f4565b92505081905550806000808473ffffffffffffffffffffffffffffffffffffffff1673ffffffffffffffffffffffffffffffffffffffff168152602001908152602001600020600082825401925050819055508173ffffffffffffffffffffffffffffffffffffffff16600073ffffffffffffffffffffffffffffffffffffffff167fddf252ad1be2c89b69c2b068fc378daa952ba7f163c4a11628f55a4df523b3ef836040516200027f919062000625565b60405180910390a36200029b60008383620002ae60201b60201c565b5050565b6000600254905090565b505050565b505050565b600081519050919050565b7f4e487b7100000000000000000000000000000000000000000000000000000000600052604160045260246000fd5b7f4e487b7100000000000000000000000000000000000000000000000000000000600052602260045260246000fd5b600060028204905060018216806200033557607f821691505b6020821081036200034b576200034a620002ed565b5b50919050565b60008190508160005260206000209050919050565b60006020601f8301049050919050565b600082821b905092915050565b600060088302620003b57fffffffffffffffffffffffffffffffffffffffffffffffffffffffffffffffff8262000376565b620003c1868362000376565b95508019841693508086168417925050509392505050565b6000819050919050565b6000819050919050565b60006200040e620004086200040284620003d9565b620003e3565b620003d9565b9050919050565b6000819050919050565b6200042a83620003ed565b62000442620004398262000415565b84845462000383565b825550505050565b600090565b620004596200044a565b620004668184846200041f565b505050565b5b818110156200048e57620004826000826200044f565b6001810190506200046c565b5050565b601f821115620004dd57620004a78162000351565b620004b28462000366565b81016020851015620004c2578190505b620004da620004d18562000366565b8301826200046b565b50505b505050565b600082821c905092915050565b60006200050260001984600802620004e2565b1980831691505092915050565b60006200051d8383620004ef565b9150826002028217905092915050565b6200053882620002b3565b67ffffffffffffffff811115620005545762000553620002be565b5b6200056082546200031c565b6200056d82828562000492565b600060209050601f831160018114620005a5576000841562000590578287015190505b6200059c85826200050f565b8655506200060c565b601f198416620005b58662000351565b60005b82811015620005df57848901518255600182019150602085019450602081019050620005b8565b86831015620005ff5784890151620005fb601f891682620004ef565b8355505b6001600288020188555050505b505050505050565b6200061f81620003d9565b82525050565b60006020820190506200063c600083018462000614565b92915050565b600082825260208201905092915050565b7f45524332303a206d696e7420746f20746865207a65726f206164647265737300600082015250565b60006200068b601f8362000642565b9150620006988262000653565b602082019050919050565b60006020820190508181036000830152620006be816200067c565b9050919050565b7f4e487b7100000000000000000000000000000000000000000000000000000000600052601160045260246000fd5b60006200070182620003d9565b91506200070e83620003d9565b9250828201905080821115620007295762000728620006c5565b5b92915050565b611e3a806200073f6000396000f3fe608060405234801561001057600080fd5b50600436106101375760003560e01c8063721e3b9e116100b8578063a9059cbb1161007c578063a9059cbb14610352578063aa7bc94914610382578063d809d7db1461039e578063dd62ed3e146103ba578063f85abda1146103ea578063fc5e07971461040857610137565b8063721e3b9e146102ae5780637ecc2b56146102ca57806392a8463d146102e857806395d89b4114610304578063a457c2d71461032257610137565b80633481bb61116100ff5780633481bb61146101f65780633950935114610214578063485e3e1a14610244578063579b686f1461026257806370a082311461027e57610137565b806306fdde031461013c578063095ea7b31461015a57806318160ddd1461018a57806323b872dd146101a8578063313ce567146101d8575b600080fd5b610144610426565b6040516101519190611203565b60405180910390f35b610174600480360381019061016f91906112cd565b6104b8565b6040516101819190611328565b60405180910390f35b6101926104db565b60405161019f9190611352565b60405180910390f35b6101c260048036038101906101bd919061136d565b6104e5565b6040516101cf9190611328565b60405180910390f35b6101e0610514565b6040516101ed91906113dc565b60405180910390f35b6101fe61051d565b60405161020b9190611456565b60405180910390f35b61022e600480360381019061022991906112cd565b610543565b60405161023b9190611328565b60405180910390f35b61024c61057a565b6040516102599190611352565b60405180910390f35b61027c60048036038101906102779190611471565b61061d565b005b6102986004803603810190610293919061149e565b610677565b6040516102a59190611352565b60405180910390f35b6102c860048036038101906102c39190611600565b6106bf565b005b6102d2610788565b6040516102df9190611352565b60405180910390f35b61030260048036038101906102fd919061149e565b61078e565b005b61030c61082c565b6040516103199190611203565b60405180910390f35b61033c600480360381019061033791906112cd565b6108be565b6040516103499190611328565b60405180910390f35b61036c600480360381019061036791906112cd565b610935565b6040516103799190611328565b60405180910390f35b61039c60048036038101906103979190611471565b610958565b005b6103b860048036038101906103b39190611471565b610ba9565b005b6103d460048036038101906103cf919061165c565b610c03565b6040516103e19190611352565b60405180910390f35b6103f2610c8a565b6040516103ff9190611352565b60405180910390f35b610410610c90565b60405161041d9190611352565b60405180910390f35b606060038054610435906116cb565b80601f0160208091040260200160405190810160405280929190818152602001828054610461906116cb565b80156104ae5780601f10610483576101008083540402835291602001916104ae565b820191906000526020600020905b81548152906001019060200180831161049157829003601f168201915b5050505050905090565b6000806104c3610c96565b90506104d0818585610c9e565b600191505092915050565b6000600254905090565b6000806104f0610c96565b90506104fd858285610e67565b610508858585610ef3565b60019150509392505050565b60006012905090565b600560009054906101000a900473ffffffffffffffffffffffffffffffffffffffff1681565b60008061054e610c96565b905061056f8185856105608589610c03565b61056a919061172b565b610c9e565b600191505092915050565b6000600560009054906101000a900473ffffffffffffffffffffffffffffffffffffffff1673ffffffffffffffffffffffffffffffffffffffff166370a08231306040518263ffffffff1660e01b81526004016105d7919061176e565b602060405180830381865afa1580156105f4573d6000803e3d6000fd5b505050506040513d601f19601f82011682018060405250810190610618919061179e565b905090565b806006819055503373ffffffffffffffffffffffffffffffffffffffff167feddfcc4c735761863283625eeeb8f381ae31035e0a81a7b5e0ae6e2f421b8da660065460405161066c9190611352565b60405180910390a250565b60008060008373ffffffffffffffffffffffffffffffffffffffff1673ffffffffffffffffffffffffffffffffffffffff168152602001908152602001600020549050919050565b6000670de0b6b3a7640000836106d591906117fa565b670de0b6b3a76400006007546106eb91906117fa565b6106f5919061182b565b9050610702303385610ef3565b8260086000828254610714919061186d565b925050819055508160405161072991906118dd565b60405180910390203373ffffffffffffffffffffffffffffffffffffffff167f5f02b2e42c6ffbebd1549b76bf8bd2e613b44f1153dd124af9e1c2340086044430868560405161077b939291906118f4565b60405180910390a3505050565b60085481565b80600560006101000a81548173ffffffffffffffffffffffffffffffffffffffff021916908373ffffffffffffffffffffffffffffffffffffffff1602179055508073ffffffffffffffffffffffffffffffffffffffff163373ffffffffffffffffffffffffffffffffffffffff167f830be06b07932bb2e2881ba32668581cdee3c399577cdf53b9d9ec05ae7198aa60405160405180910390a350565b60606004805461083b906116cb565b80601f0160208091040260200160405190810160405280929190818152602001828054610867906116cb565b80156108b45780601f10610889576101008083540402835291602001916108b4565b820191906000526020600020905b81548152906001019060200180831161089757829003601f168201915b5050505050905090565b6000806108c9610c96565b905060006108d78286610c03565b90508381101561091c576040517f08c379a00000000000000000000000000000000000000000000000000000000081526004016109139061199d565b60405180910390fd5b6109298286868403610c9e565b60019250505092915050565b600080610940610c96565b905061094d818585610ef3565b600191505092915050565b60006006541161099d576040517f08c379a000000000000000000000000000000000000000000000000000000000815260040161099490611a09565b60405180910390fd5b6000670de0b6b3a7640000826109b391906117fa565b6006546109c0919061182b565b905080600560009054906101000a900473ffffffffffffffffffffffffffffffffffffffff1673ffffffffffffffffffffffffffffffffffffffff166370a08231336040518263ffffffff1660e01b8152600401610a1e919061176e565b602060405180830381865afa158015610a3b573d6000803e3d6000fd5b505050506040513d601f19601f82011682018060405250810190610a5f919061179e565b1015610aa0576040517f08c379a0000000000000000000000000000000000000000000000000000000008152600401610a9790611a75565b60405180910390fd5b600560009054906101000a900473ffffffffffffffffffffffffffffffffffffffff1673ffffffffffffffffffffffffffffffffffffffff1663e3060f2233836040518363ffffffff1660e01b8152600401610afd929190611a95565b600060405180830381600087803b158015610b1757600080fd5b505af1158015610b2b573d6000803e3d6000fd5b50505050610b3a303384610ef3565b8160086000828254610b4c919061186d565b925050819055503373ffffffffffffffffffffffffffffffffffffffff167fbfb2d47f240a2514f345656ec0f60068f7683420f974614a603e6b23b08f36bb308484604051610b9d939291906118f4565b60405180910390a25050565b806007819055503373ffffffffffffffffffffffffffffffffffffffff167f4bb7ad2630dfff3f1c80235fb217e04e7824290975fcc2851beb4e27e72eb9c2600754604051610bf89190611352565b60405180910390a250565b6000600160008473ffffffffffffffffffffffffffffffffffffffff1673ffffffffffffffffffffffffffffffffffffffff16815260200190815260200160002060008373ffffffffffffffffffffffffffffffffffffffff1673ffffffffffffffffffffffffffffffffffffffff16815260200190815260200160002054905092915050565b60075481565b60065481565b600033905090565b600073ffffffffffffffffffffffffffffffffffffffff168373ffffffffffffffffffffffffffffffffffffffff1603610d0d576040517f08c379a0000000000000000000000000000000000000000000000000000000008152600401610d0490611b30565b60405180910390fd5b600073ffffffffffffffffffffffffffffffffffffffff168273ffffffffffffffffffffffffffffffffffffffff1603610d7c576040517f08c379a0000000000000000000000000000000000000000000000000000000008152600401610d7390611bc2565b60405180910390fd5b80600160008573ffffffffffffffffffffffffffffffffffffffff1673ffffffffffffffffffffffffffffffffffffffff16815260200190815260200160002060008473ffffffffffffffffffffffffffffffffffffffff1673ffffffffffffffffffffffffffffffffffffffff168152602001908152602001600020819055508173ffffffffffffffffffffffffffffffffffffffff168373ffffffffffffffffffffffffffffffffffffffff167f8c5be1e5ebec7d5bd14f71427d1e84f3dd0314c0f7b2291e5b200ac8c7c3b92583604051610e5a9190611352565b60405180910390a3505050565b6000610e738484610c03565b90507fffffffffffffffffffffffffffffffffffffffffffffffffffffffffffffffff8114610eed5781811015610edf576040517f08c379a0000000000000000000000000000000000000000000000000000000008152600401610ed690611c2e565b60405180910390fd5b610eec8484848403610c9e565b5b50505050565b600073ffffffffffffffffffffffffffffffffffffffff168373ffffffffffffffffffffffffffffffffffffffff1603610f62576040517f08c379a0000000000000000000000000000000000000000000000000000000008152600401610f5990611cc0565b60405180910390fd5b600073ffffffffffffffffffffffffffffffffffffffff168273ffffffffffffffffffffffffffffffffffffffff1603610fd1576040517f08c379a0000000000000000000000000000000000000000000000000000000008152600401610fc890611d52565b60405180910390fd5b610fdc838383611169565b60008060008573ffffffffffffffffffffffffffffffffffffffff1673ffffffffffffffffffffffffffffffffffffffff16815260200190815260200160002054905081811015611062576040517f08c379a000000000000000000000000000000000000000000000000000000000815260040161105990611de4565b60405180910390fd5b8181036000808673ffffffffffffffffffffffffffffffffffffffff1673ffffffffffffffffffffffffffffffffffffffff16815260200190815260200160002081905550816000808573ffffffffffffffffffffffffffffffffffffffff1673ffffffffffffffffffffffffffffffffffffffff168152602001908152602001600020600082825401925050819055508273ffffffffffffffffffffffffffffffffffffffff168473ffffffffffffffffffffffffffffffffffffffff167fddf252ad1be2c89b69c2b068fc378daa952ba7f163c4a11628f55a4df523b3ef846040516111509190611352565b60405180910390a361116384848461116e565b50505050565b505050565b505050565b600081519050919050565b600082825260208201905092915050565b60005b838110156111ad578082015181840152602081019050611192565b60008484015250505050565b6000601f19601f8301169050919050565b60006111d582611173565b6111df818561117e565b93506111ef81856020860161118f565b6111f8816111b9565b840191505092915050565b6000602082019050818103600083015261121d81846111ca565b905092915050565b6000604051905090565b600080fd5b600080fd5b600073ffffffffffffffffffffffffffffffffffffffff82169050919050565b600061126482611239565b9050919050565b61127481611259565b811461127f57600080fd5b50565b6000813590506112918161126b565b92915050565b6000819050919050565b6112aa81611297565b81146112b557600080fd5b50565b6000813590506112c7816112a1565b92915050565b600080604083850312156112e4576112e361122f565b5b60006112f285828601611282565b9250506020611303858286016112b8565b9150509250929050565b60008115159050919050565b6113228161130d565b82525050565b600060208201905061133d6000830184611319565b92915050565b61134c81611297565b82525050565b60006020820190506113676000830184611343565b92915050565b6000806000606084860312156113865761138561122f565b5b600061139486828701611282565b93505060206113a586828701611282565b92505060406113b6868287016112b8565b9150509250925092565b600060ff82169050919050565b6113d6816113c0565b82525050565b60006020820190506113f160008301846113cd565b92915050565b6000819050919050565b600061141c61141761141284611239565b6113f7565b611239565b9050919050565b600061142e82611401565b9050919050565b600061144082611423565b9050919050565b61145081611435565b82525050565b600060208201905061146b6000830184611447565b92915050565b6000602082840312156114875761148661122f565b5b6000611495848285016112b8565b91505092915050565b6000602082840312156114b4576114b361122f565b5b60006114c284828501611282565b91505092915050565b600080fd5b600080fd5b7f4e487b7100000000000000000000000000000000000000000000000000000000600052604160045260246000fd5b61150d826111b9565b810181811067ffffffffffffffff8211171561152c5761152b6114d5565b5b80604052505050565b600061153f611225565b905061154b8282611504565b919050565b600067ffffffffffffffff82111561156b5761156a6114d5565b5b611574826111b9565b9050602081019050919050565b82818337600083830152505050565b60006115a361159e84611550565b611535565b9050828152602081018484840111156115bf576115be6114d0565b5b6115ca848285611581565b509392505050565b600082601f8301126115e7576115e66114cb565b5b81356115f7848260208601611590565b91505092915050565b600080604083850312156116175761161661122f565b5b6000611625858286016112b8565b925050602083013567ffffffffffffffff81111561164657611645611234565b5b611652858286016115d2565b9150509250929050565b600080604083850312156116735761167261122f565b5b600061168185828601611282565b925050602061169285828601611282565b9150509250929050565b7f4e487b7100000000000000000000000000000000000000000000000000000000600052602260045260246000fd5b600060028204905060018216806116e357607f821691505b6020821081036116f6576116f561169c565b5b50919050565b7f4e487b7100000000000000000000000000000000000000000000000000000000600052601160045260246000fd5b600061173682611297565b915061174183611297565b9250828201905080821115611759576117586116fc565b5b92915050565b61176881611259565b82525050565b6000602082019050611783600083018461175f565b92915050565b600081519050611798816112a1565b92915050565b6000602082840312156117b4576117b361122f565b5b60006117c284828501611789565b91505092915050565b7f4e487b7100000000000000000000000000000000000000000000000000000000600052601260045260246000fd5b600061180582611297565b915061181083611297565b9250826118205761181f6117cb565b5b828204905092915050565b600061183682611297565b915061184183611297565b925082820261184f81611297565b91508282048414831517611866576118656116fc565b5b5092915050565b600061187882611297565b915061188383611297565b925082820390508181111561189b5761189a6116fc565b5b92915050565b600081905092915050565b60006118b782611173565b6118c181856118a1565b93506118d181856020860161118f565b80840191505092915050565b60006118e982846118ac565b915081905092915050565b6000606082019050611909600083018661175f565b6119166020830185611343565b6119236040830184611343565b949350505050565b7f45524332303a2064656372656173656420616c6c6f77616e63652062656c6f7760008201527f207a65726f000000000000000000000000000000000000000000000000000000602082015250565b600061198760258361117e565b91506119928261192b565b604082019050919050565b600060208201905081810360008301526119b68161197a565b9050919050565b7f45474f4c44205072696365206e6f742073657400000000000000000000000000600082015250565b60006119f360138361117e565b91506119fe826119bd565b602082019050919050565b60006020820190508181036000830152611a22816119e6565b9050919050565b7f496e737566666369656e742042616c616e636500000000000000000000000000600082015250565b6000611a5f60138361117e565b9150611a6a82611a29565b602082019050919050565b60006020820190508181036000830152611a8e81611a52565b9050919050565b6000604082019050611aaa600083018561175f565b611ab76020830184611343565b9392505050565b7f45524332303a20617070726f76652066726f6d20746865207a65726f2061646460008201527f7265737300000000000000000000000000000000000000000000000000000000602082015250565b6000611b1a60248361117e565b9150611b2582611abe565b604082019050919050565b60006020820190508181036000830152611b4981611b0d565b9050919050565b7f45524332303a20617070726f766520746f20746865207a65726f20616464726560008201527f7373000000000000000000000000000000000000000000000000000000000000602082015250565b6000611bac60228361117e565b9150611bb782611b50565b604082019050919050565b60006020820190508181036000830152611bdb81611b9f565b9050919050565b7f45524332303a20696e73756666696369656e7420616c6c6f77616e6365000000600082015250565b6000611c18601d8361117e565b9150611c2382611be2565b602082019050919050565b60006020820190508181036000830152611c4781611c0b565b9050919050565b7f45524332303a207472616e736665722066726f6d20746865207a65726f20616460008201527f6472657373000000000000000000000000000000000000000000000000000000602082015250565b6000611caa60258361117e565b9150611cb582611c4e565b604082019050919050565b60006020820190508181036000830152611cd981611c9d565b9050919050565b7f45524332303a207472616e7366657220746f20746865207a65726f206164647260008201527f6573730000000000000000000000000000000000000000000000000000000000602082015250565b6000611d3c60238361117e565b9150611d4782611ce0565b604082019050919050565b60006020820190508181036000830152611d6b81611d2f565b9050919050565b7f45524332303a207472616e7366657220616d6f756e742065786365656473206260008201527f616c616e63650000000000000000000000000000000000000000000000000000602082015250565b6000611dce60268361117e565b9150611dd982611d72565b604082019050919050565b60006020820190508181036000830152611dfd81611dc1565b905091905056fea2646970667358221220db3890a281cd48d503b782d2d006382d6cfd20c6e1747a6b4e9b62184354ff2564736f6c63430008110033",
  "immutableReferences": {},
  "source": "//SPDX-License-Identifier: MIT\n\npragma solidity ^0.8.17;\n\nimport \"@openzeppelin/contracts/token/ERC20/ERC20.sol\";\nimport \"./EINR.sol\";\n\ncontract EGOLDContract is ERC20 {\n    event Minted(address indexed _to, uint256 _amount);\n    event EINRAddressSet(address indexed _setBy, address indexed _EGOLDAdd);\n    event EGOLD_EINR_PriceSet(address indexed _setBy, uint256 _EGOLDPriceEINR);\n    event EGOLD_INR_PriceSet(address indexed _setBy, uint256 _EGOLDPriceINR);\n    event EGOLD_EINR_Transfer(address  _from, address indexed _to, uint256 _EGoldAmount, uint256 _EINRAmount);\n    event EGOLD_INR_Transfer(address  _from, address indexed _to, string indexed _receipt, uint256 _EGoldmount, uint256 _INRAmount);\n\n    EINRContract public _EINR;\n    uint256 public EGoldPriceEINR;\n    uint256 public EGoldPriceINR;\n    uint256 public availableSupply;\n\n    constructor() ERC20(\"EGOLD\", \"EGOLD\") {\n        uint256 _amount = 1000000 * 10**18;\n        _mint(address(this), _amount);\n        emit Minted(address(this), _amount);\n        availableSupply = totalSupply();\n    }\n\n    function setEINR(address _Einr) public {\n        _EINR = EINRContract(_Einr);\n        emit EINRAddressSet(msg.sender, _Einr);\n    }\n\n    function setGoldPriceEINR(uint256 _price) public {\n        EGoldPriceEINR = _price;\n        emit EGOLD_EINR_PriceSet(msg.sender, EGoldPriceEINR);\n    }\n\n    function setGoldPriceINR(uint256 _price) public {\n        EGoldPriceINR = _price;\n        emit EGOLD_INR_PriceSet(msg.sender, EGoldPriceINR);\n    }\n\n    function buyEGoldEINR(uint256 _EGoldAmount) public {\n        require(EGoldPriceEINR > 0, \"EGOLD Price not set\");\n        uint256 totalEINR = EGoldPriceEINR * (_EGoldAmount / 10**18);\n        require(\n            _EINR.balanceOf(msg.sender) >= totalEINR,\n            \"Insuffcient Balance\"\n        );\n        _EINR.transferBal(msg.sender, totalEINR);\n        _transfer(address(this), msg.sender, _EGoldAmount);\n        availableSupply -= _EGoldAmount;\n        emit EGOLD_EINR_Transfer(address(this), msg.sender, _EGoldAmount, totalEINR);\n    }\n\n    function buyEGoldINR(uint256 _EGoldAmount, string memory _receipt) public {\n        uint256 totalINR = (EGoldPriceINR / 10**18) * (_EGoldAmount / 10**18);\n        _transfer(address(this), msg.sender, _EGoldAmount);\n        availableSupply -= _EGoldAmount;\n        emit EGOLD_INR_Transfer(address(this), msg.sender, _receipt ,_EGoldAmount, totalINR);\n    }\n\n    function BalEINR() public view returns (uint256) {\n        return (_EINR.balanceOf(address(this)));\n    }\n}\n",
  "sourcePath": "/home/neosoft/S/EGOLD-EINR-POC/solidity/contracts/EGOLD.sol",
  "compiler": {
    "name": "solc",
    "version": "0.8.17+commit.8df45f5f.Emscripten.clang"
  },
  "schemaVersion": "3.4.11",
  "updatedAt": "2023-01-17T09:35:06.110Z",
  "networkType": "ethereum",
  "devdoc": {
    "kind": "dev",
    "methods": {
      "allowance(address,address)": {
        "details": "See {IERC20-allowance}."
      },
      "approve(address,uint256)": {
        "details": "See {IERC20-approve}. NOTE: If `amount` is the maximum `uint256`, the allowance is not updated on `transferFrom`. This is semantically equivalent to an infinite approval. Requirements: - `spender` cannot be the zero address."
      },
      "balanceOf(address)": {
        "details": "See {IERC20-balanceOf}."
      },
      "decimals()": {
        "details": "Returns the number of decimals used to get its user representation. For example, if `decimals` equals `2`, a balance of `505` tokens should be displayed to a user as `5.05` (`505 / 10 ** 2`). Tokens usually opt for a value of 18, imitating the relationship between Ether and Wei. This is the value {ERC20} uses, unless this function is overridden; NOTE: This information is only used for _display_ purposes: it in no way affects any of the arithmetic of the contract, including {IERC20-balanceOf} and {IERC20-transfer}."
      },
      "decreaseAllowance(address,uint256)": {
        "details": "Atomically decreases the allowance granted to `spender` by the caller. This is an alternative to {approve} that can be used as a mitigation for problems described in {IERC20-approve}. Emits an {Approval} event indicating the updated allowance. Requirements: - `spender` cannot be the zero address. - `spender` must have allowance for the caller of at least `subtractedValue`."
      },
      "increaseAllowance(address,uint256)": {
        "details": "Atomically increases the allowance granted to `spender` by the caller. This is an alternative to {approve} that can be used as a mitigation for problems described in {IERC20-approve}. Emits an {Approval} event indicating the updated allowance. Requirements: - `spender` cannot be the zero address."
      },
      "name()": {
        "details": "Returns the name of the token."
      },
      "symbol()": {
        "details": "Returns the symbol of the token, usually a shorter version of the name."
      },
      "totalSupply()": {
        "details": "See {IERC20-totalSupply}."
      },
      "transfer(address,uint256)": {
        "details": "See {IERC20-transfer}. Requirements: - `to` cannot be the zero address. - the caller must have a balance of at least `amount`."
      },
      "transferFrom(address,address,uint256)": {
        "details": "See {IERC20-transferFrom}. Emits an {Approval} event indicating the updated allowance. This is not required by the EIP. See the note at the beginning of {ERC20}. NOTE: Does not update the allowance if the current allowance is the maximum `uint256`. Requirements: - `from` and `to` cannot be the zero address. - `from` must have a balance of at least `amount`. - the caller must have allowance for ``from``'s tokens of at least `amount`."
      }
    },
    "version": 1
  },
  "userdoc": {
    "kind": "user",
    "methods": {},
    "version": 1
  }
}