{
  "contractName": "EGOLDContract",
  "abi": [
    {
      "inputs": [],
      "stateMutability": "nonpayable",
      "type": "constructor"
    },
    {
      "anonymous": false,
      "inputs": [
        {
          "indexed": true,
          "internalType": "address",
          "name": "owner",
          "type": "address"
        },
        {
          "indexed": true,
          "internalType": "address",
          "name": "spender",
          "type": "address"
        },
        {
          "indexed": false,
          "internalType": "uint256",
          "name": "value",
          "type": "uint256"
        }
      ],
      "name": "Approval",
      "type": "event"
    },
    {
      "anonymous": false,
      "inputs": [
        {
          "indexed": true,
          "internalType": "address",
          "name": "_to",
          "type": "address"
        },
        {
          "indexed": false,
          "internalType": "uint256",
          "name": "_amount",
          "type": "uint256"
        }
      ],
      "name": "Burned",
      "type": "event"
    },
    {
      "anonymous": false,
      "inputs": [
        {
          "indexed": false,
          "internalType": "address",
          "name": "_from",
          "type": "address"
        },
        {
          "indexed": true,
          "internalType": "address",
          "name": "_to",
          "type": "address"
        },
        {
          "indexed": false,
          "internalType": "uint256",
          "name": "_EGoldAmount",
          "type": "uint256"
        },
        {
          "indexed": false,
          "internalType": "uint256",
          "name": "_EINRAmount",
          "type": "uint256"
        }
      ],
      "name": "EGOLD_EINR_Transfer",
      "type": "event"
    },
    {
      "anonymous": false,
      "inputs": [
        {
          "indexed": false,
          "internalType": "address",
          "name": "_from",
          "type": "address"
        },
        {
          "indexed": true,
          "internalType": "address",
          "name": "_to",
          "type": "address"
        },
        {
          "indexed": false,
          "internalType": "uint256",
          "name": "_EGoldAmount",
          "type": "uint256"
        },
        {
          "indexed": false,
          "internalType": "uint256",
          "name": "_EUSDAmount",
          "type": "uint256"
        }
      ],
      "name": "EGOLD_EUSD_Transfer",
      "type": "event"
    },
    {
      "anonymous": false,
      "inputs": [
        {
          "indexed": true,
          "internalType": "address",
          "name": "_setBy",
          "type": "address"
        },
        {
          "indexed": false,
          "internalType": "uint256",
          "name": "_EGOLDPriceINR",
          "type": "uint256"
        }
      ],
      "name": "EGOLD_INR_PriceSet",
      "type": "event"
    },
    {
      "anonymous": false,
      "inputs": [
        {
          "indexed": false,
          "internalType": "address",
          "name": "_from",
          "type": "address"
        },
        {
          "indexed": true,
          "internalType": "address",
          "name": "_to",
          "type": "address"
        },
        {
          "indexed": true,
          "internalType": "bytes32",
          "name": "_receipt",
          "type": "bytes32"
        },
        {
          "indexed": false,
          "internalType": "uint256",
          "name": "_EGoldmount",
          "type": "uint256"
        },
        {
          "indexed": false,
          "internalType": "uint256",
          "name": "_INRAmount",
          "type": "uint256"
        }
      ],
      "name": "EGOLD_INR_Transfer",
      "type": "event"
    },
    {
      "anonymous": false,
      "inputs": [
        {
          "indexed": true,
          "internalType": "address",
          "name": "_setBy",
          "type": "address"
        },
        {
          "indexed": false,
          "internalType": "uint256",
          "name": "_EGOLDPriceUSD",
          "type": "uint256"
        }
      ],
      "name": "EGOLD_USD_PriceSet",
      "type": "event"
    },
    {
      "anonymous": false,
      "inputs": [
        {
          "indexed": false,
          "internalType": "address",
          "name": "_from",
          "type": "address"
        },
        {
          "indexed": true,
          "internalType": "address",
          "name": "_to",
          "type": "address"
        },
        {
          "indexed": true,
          "internalType": "bytes32",
          "name": "_receipt",
          "type": "bytes32"
        },
        {
          "indexed": false,
          "internalType": "uint256",
          "name": "_EGoldmount",
          "type": "uint256"
        },
        {
          "indexed": false,
          "internalType": "uint256",
          "name": "_USDAmount",
          "type": "uint256"
        }
      ],
      "name": "EGOLD_USD_Transfer",
      "type": "event"
    },
    {
      "anonymous": false,
      "inputs": [
        {
          "indexed": true,
          "internalType": "address",
          "name": "_setBy",
          "type": "address"
        },
        {
          "indexed": true,
          "internalType": "address",
          "name": "_EINRAdd",
          "type": "address"
        }
      ],
      "name": "EINRAddressSet",
      "type": "event"
    },
    {
      "anonymous": false,
      "inputs": [
        {
          "indexed": true,
          "internalType": "address",
          "name": "_setBy",
          "type": "address"
        },
        {
          "indexed": true,
          "internalType": "address",
          "name": "_EUSDAdd",
          "type": "address"
        }
      ],
      "name": "EUSDAddressSet",
      "type": "event"
    },
    {
      "anonymous": false,
      "inputs": [
        {
          "indexed": true,
          "internalType": "address",
          "name": "_setBy",
          "type": "address"
        },
        {
          "indexed": true,
          "internalType": "address",
          "name": "_InventoryAdd",
          "type": "address"
        }
      ],
      "name": "InventoryAddressSet",
      "type": "event"
    },
    {
      "anonymous": false,
      "inputs": [
        {
          "indexed": true,
          "internalType": "address",
          "name": "_to",
          "type": "address"
        },
        {
          "indexed": false,
          "internalType": "uint256",
          "name": "_amount",
          "type": "uint256"
        }
      ],
      "name": "Minted",
      "type": "event"
    },
    {
      "anonymous": false,
      "inputs": [
        {
          "indexed": true,
          "internalType": "address",
          "name": "previousOwner",
          "type": "address"
        },
        {
          "indexed": true,
          "internalType": "address",
          "name": "newOwner",
          "type": "address"
        }
      ],
      "name": "OwnershipTransferred",
      "type": "event"
    },
    {
      "anonymous": false,
      "inputs": [
        {
          "indexed": true,
          "internalType": "address",
          "name": "from",
          "type": "address"
        },
        {
          "indexed": true,
          "internalType": "address",
          "name": "to",
          "type": "address"
        },
        {
          "indexed": false,
          "internalType": "uint256",
          "name": "value",
          "type": "uint256"
        }
      ],
      "name": "Transfer",
      "type": "event"
    },
    {
      "inputs": [],
      "name": "EGoldPriceINR",
      "outputs": [
        {
          "internalType": "uint256",
          "name": "",
          "type": "uint256"
        }
      ],
      "stateMutability": "view",
      "type": "function",
      "constant": true
    },
    {
      "inputs": [],
      "name": "EGoldPriceUSD",
      "outputs": [
        {
          "internalType": "uint256",
          "name": "",
          "type": "uint256"
        }
      ],
      "stateMutability": "view",
      "type": "function",
      "constant": true
    },
    {
      "inputs": [],
      "name": "_EINR",
      "outputs": [
        {
          "internalType": "contract EINRContract",
          "name": "",
          "type": "address"
        }
      ],
      "stateMutability": "view",
      "type": "function",
      "constant": true
    },
    {
      "inputs": [],
      "name": "_EUSD",
      "outputs": [
        {
          "internalType": "contract EUSDContract",
          "name": "",
          "type": "address"
        }
      ],
      "stateMutability": "view",
      "type": "function",
      "constant": true
    },
    {
      "inputs": [
        {
          "internalType": "address",
          "name": "owner",
          "type": "address"
        },
        {
          "internalType": "address",
          "name": "spender",
          "type": "address"
        }
      ],
      "name": "allowance",
      "outputs": [
        {
          "internalType": "uint256",
          "name": "",
          "type": "uint256"
        }
      ],
      "stateMutability": "view",
      "type": "function",
      "constant": true
    },
    {
      "inputs": [
        {
          "internalType": "address",
          "name": "spender",
          "type": "address"
        },
        {
          "internalType": "uint256",
          "name": "amount",
          "type": "uint256"
        }
      ],
      "name": "approve",
      "outputs": [
        {
          "internalType": "bool",
          "name": "",
          "type": "bool"
        }
      ],
      "stateMutability": "nonpayable",
      "type": "function"
    },
    {
      "inputs": [],
      "name": "availableSupply",
      "outputs": [
        {
          "internalType": "uint256",
          "name": "",
          "type": "uint256"
        }
      ],
      "stateMutability": "view",
      "type": "function",
      "constant": true
    },
    {
      "inputs": [
        {
          "internalType": "address",
          "name": "account",
          "type": "address"
        }
      ],
      "name": "balanceOf",
      "outputs": [
        {
          "internalType": "uint256",
          "name": "",
          "type": "uint256"
        }
      ],
      "stateMutability": "view",
      "type": "function",
      "constant": true
    },
    {
      "inputs": [],
      "name": "decimals",
      "outputs": [
        {
          "internalType": "uint8",
          "name": "",
          "type": "uint8"
        }
      ],
      "stateMutability": "view",
      "type": "function",
      "constant": true
    },
    {
      "inputs": [
        {
          "internalType": "address",
          "name": "spender",
          "type": "address"
        },
        {
          "internalType": "uint256",
          "name": "subtractedValue",
          "type": "uint256"
        }
      ],
      "name": "decreaseAllowance",
      "outputs": [
        {
          "internalType": "bool",
          "name": "",
          "type": "bool"
        }
      ],
      "stateMutability": "nonpayable",
      "type": "function"
    },
    {
      "inputs": [
        {
          "internalType": "address",
          "name": "spender",
          "type": "address"
        },
        {
          "internalType": "uint256",
          "name": "addedValue",
          "type": "uint256"
        }
      ],
      "name": "increaseAllowance",
      "outputs": [
        {
          "internalType": "bool",
          "name": "",
          "type": "bool"
        }
      ],
      "stateMutability": "nonpayable",
      "type": "function"
    },
    {
      "inputs": [],
      "name": "inventoryHandler",
      "outputs": [
        {
          "internalType": "address",
          "name": "",
          "type": "address"
        }
      ],
      "stateMutability": "view",
      "type": "function",
      "constant": true
    },
    {
      "inputs": [],
      "name": "name",
      "outputs": [
        {
          "internalType": "string",
          "name": "",
          "type": "string"
        }
      ],
      "stateMutability": "view",
      "type": "function",
      "constant": true
    },
    {
      "inputs": [],
      "name": "owner",
      "outputs": [
        {
          "internalType": "address",
          "name": "",
          "type": "address"
        }
      ],
      "stateMutability": "view",
      "type": "function",
      "constant": true
    },
    {
      "inputs": [],
      "name": "renounceOwnership",
      "outputs": [],
      "stateMutability": "nonpayable",
      "type": "function"
    },
    {
      "inputs": [],
      "name": "symbol",
      "outputs": [
        {
          "internalType": "string",
          "name": "",
          "type": "string"
        }
      ],
      "stateMutability": "view",
      "type": "function",
      "constant": true
    },
    {
      "inputs": [],
      "name": "totalSupply",
      "outputs": [
        {
          "internalType": "uint256",
          "name": "",
          "type": "uint256"
        }
      ],
      "stateMutability": "view",
      "type": "function",
      "constant": true
    },
    {
      "inputs": [
        {
          "internalType": "address",
          "name": "to",
          "type": "address"
        },
        {
          "internalType": "uint256",
          "name": "amount",
          "type": "uint256"
        }
      ],
      "name": "transfer",
      "outputs": [
        {
          "internalType": "bool",
          "name": "",
          "type": "bool"
        }
      ],
      "stateMutability": "nonpayable",
      "type": "function"
    },
    {
      "inputs": [
        {
          "internalType": "address",
          "name": "from",
          "type": "address"
        },
        {
          "internalType": "address",
          "name": "to",
          "type": "address"
        },
        {
          "internalType": "uint256",
          "name": "amount",
          "type": "uint256"
        }
      ],
      "name": "transferFrom",
      "outputs": [
        {
          "internalType": "bool",
          "name": "",
          "type": "bool"
        }
      ],
      "stateMutability": "nonpayable",
      "type": "function"
    },
    {
      "inputs": [
        {
          "internalType": "address",
          "name": "newOwner",
          "type": "address"
        }
      ],
      "name": "transferOwnership",
      "outputs": [],
      "stateMutability": "nonpayable",
      "type": "function"
    },
    {
      "inputs": [
        {
          "internalType": "address",
          "name": "_address",
          "type": "address"
        }
      ],
      "name": "setInventoryHandler",
      "outputs": [],
      "stateMutability": "nonpayable",
      "type": "function"
    },
    {
      "inputs": [
        {
          "internalType": "uint256",
          "name": "_amount",
          "type": "uint256"
        }
      ],
      "name": "mint",
      "outputs": [],
      "stateMutability": "nonpayable",
      "type": "function"
    },
    {
      "inputs": [
        {
          "internalType": "uint256",
          "name": "_amount",
          "type": "uint256"
        }
      ],
      "name": "burn",
      "outputs": [],
      "stateMutability": "nonpayable",
      "type": "function"
    },
    {
      "inputs": [
        {
          "internalType": "address",
          "name": "_Einr",
          "type": "address"
        }
      ],
      "name": "setEINR",
      "outputs": [],
      "stateMutability": "nonpayable",
      "type": "function"
    },
    {
      "inputs": [
        {
          "internalType": "address",
          "name": "_Eusd",
          "type": "address"
        }
      ],
      "name": "setEUSD",
      "outputs": [],
      "stateMutability": "nonpayable",
      "type": "function"
    },
    {
      "inputs": [
        {
          "internalType": "uint256",
          "name": "_price",
          "type": "uint256"
        }
      ],
      "name": "setEGoldPriceINR",
      "outputs": [],
      "stateMutability": "nonpayable",
      "type": "function"
    },
    {
      "inputs": [
        {
          "internalType": "uint256",
          "name": "_price",
          "type": "uint256"
        }
      ],
      "name": "setEGoldPriceUSD",
      "outputs": [],
      "stateMutability": "nonpayable",
      "type": "function"
    },
    {
      "inputs": [
        {
          "internalType": "uint256",
          "name": "_EGoldAmount",
          "type": "uint256"
        }
      ],
      "name": "buyEGoldEINR",
      "outputs": [],
      "stateMutability": "nonpayable",
      "type": "function"
    },
    {
      "inputs": [
        {
          "internalType": "uint256",
          "name": "_EGoldAmount",
          "type": "uint256"
        },
        {
          "internalType": "address",
          "name": "_to",
          "type": "address"
        },
        {
          "internalType": "bytes32",
          "name": "_receipt",
          "type": "bytes32"
        }
      ],
      "name": "buyEGoldINR",
      "outputs": [],
      "stateMutability": "nonpayable",
      "type": "function"
    },
    {
      "inputs": [
        {
          "internalType": "uint256",
          "name": "_EGoldAmount",
          "type": "uint256"
        }
      ],
      "name": "buyEGoldEUSD",
      "outputs": [],
      "stateMutability": "nonpayable",
      "type": "function"
    },
    {
      "inputs": [
        {
          "internalType": "uint256",
          "name": "_EGoldAmount",
          "type": "uint256"
        },
        {
          "internalType": "address",
          "name": "_to",
          "type": "address"
        },
        {
          "internalType": "bytes32",
          "name": "_receipt",
          "type": "bytes32"
        }
      ],
      "name": "buyEGoldUSD",
      "outputs": [],
      "stateMutability": "nonpayable",
      "type": "function"
    },
    {
      "inputs": [],
      "name": "BalEINR",
      "outputs": [
        {
          "internalType": "uint256",
          "name": "_BalEINR",
          "type": "uint256"
        },
        {
          "internalType": "uint256",
          "name": "_BalEUSD",
          "type": "uint256"
        }
      ],
      "stateMutability": "view",
      "type": "function",
      "constant": true
    }
  ],
  "bytecode": "0x60806040523480156200001157600080fd5b506040518060400160405280600581526020017f45474f4c440000000000000000000000000000000000000000000000000000008152506040518060400160405280600581526020017f45474f4c440000000000000000000000000000000000000000000000000000008152506200009e62000092620000ca60201b60201c565b620000d260201b60201c565b8160049081620000af919062000410565b508060059081620000c1919062000410565b505050620004f7565b600033905090565b60008060009054906101000a900473ffffffffffffffffffffffffffffffffffffffff169050816000806101000a81548173ffffffffffffffffffffffffffffffffffffffff021916908373ffffffffffffffffffffffffffffffffffffffff1602179055508173ffffffffffffffffffffffffffffffffffffffff168173ffffffffffffffffffffffffffffffffffffffff167f8be0079c531659141344cd1fd0a4f28419497f9722a3daafe3b4186f6b6457e060405160405180910390a35050565b600081519050919050565b7f4e487b7100000000000000000000000000000000000000000000000000000000600052604160045260246000fd5b7f4e487b7100000000000000000000000000000000000000000000000000000000600052602260045260246000fd5b600060028204905060018216806200021857607f821691505b6020821081036200022e576200022d620001d0565b5b50919050565b60008190508160005260206000209050919050565b60006020601f8301049050919050565b600082821b905092915050565b600060088302620002987fffffffffffffffffffffffffffffffffffffffffffffffffffffffffffffffff8262000259565b620002a4868362000259565b95508019841693508086168417925050509392505050565b6000819050919050565b6000819050919050565b6000620002f1620002eb620002e584620002bc565b620002c6565b620002bc565b9050919050565b6000819050919050565b6200030d83620002d0565b620003256200031c82620002f8565b84845462000266565b825550505050565b600090565b6200033c6200032d565b6200034981848462000302565b505050565b5b8181101562000371576200036560008262000332565b6001810190506200034f565b5050565b601f821115620003c0576200038a8162000234565b620003958462000249565b81016020851015620003a5578190505b620003bd620003b48562000249565b8301826200034e565b50505b505050565b600082821c905092915050565b6000620003e560001984600802620003c5565b1980831691505092915050565b6000620004008383620003d2565b9150826002028217905092915050565b6200041b8262000196565b67ffffffffffffffff811115620004375762000436620001a1565b5b620004438254620001ff565b6200045082828562000375565b600060209050601f83116001811462000488576000841562000473578287015190505b6200047f8582620003f2565b865550620004ef565b601f198416620004988662000234565b60005b82811015620004c2578489015182556001820191506020850194506020810190506200049b565b86831015620004e25784890151620004de601f891682620003d2565b8355505b6001600288020188555050505b505050505050565b61323580620005076000396000f3fe608060405234801561001057600080fd5b50600436106101f05760003560e01c8063715018a61161010f578063a9059cbb116100a2578063f85abda111610071578063f85abda114610594578063fcf6b5ae146105b2578063fe03e84a146105d0578063ffac932b146105ec576101f0565b8063a9059cbb146104fc578063aa7bc9491461052c578063dd62ed3e14610548578063f2fde38b14610578576101f0565b806392a8463d116100de57806392a8463d1461047657806395d89b4114610492578063a0712d68146104b0578063a457c2d7146104cc576101f0565b8063715018a6146104145780637ecc2b561461041e5780638d05a4c21461043c5780638da5cb5b14610458576101f0565b80633950935111610187578063485e3e1a11610156578063485e3e1a1461038957806349f3b6fe146103a8578063561e7702146103c657806370a08231146103e4576101f0565b8063395093511461030557806339b3af63146103355780634016ea731461035157806342966c681461036d576101f0565b806318160ddd116101c357806318160ddd1461027b57806323b872dd14610299578063313ce567146102c95780633481bb61146102e7576101f0565b806305ecf4f7146101f557806306fdde031461021157806307f3d3cb1461022f578063095ea7b31461024b575b600080fd5b61020f600480360381019061020a91906122b6565b610608565b005b61021961066a565b6040516102269190612373565b60405180910390f35b610249600480360381019061024491906122b6565b6106fc565b005b610265600480360381019061026091906123f3565b61075e565b604051610272919061244e565b60405180910390f35b610283610781565b6040516102909190612478565b60405180910390f35b6102b360048036038101906102ae9190612493565b61078b565b6040516102c0919061244e565b60405180910390f35b6102d16107ba565b6040516102de9190612502565b60405180910390f35b6102ef6107c3565b6040516102fc919061257c565b60405180910390f35b61031f600480360381019061031a91906123f3565b6107e9565b60405161032c919061244e565b60405180910390f35b61034f600480360381019061034a91906125cd565b610820565b005b61036b60048036038101906103669190612620565b61096d565b005b610387600480360381019061038291906122b6565b610ac6565b005b610391610c0b565b60405161039f92919061264d565b60405180910390f35b6103b0610d4e565b6040516103bd9190612478565b60405180910390f35b6103ce610d54565b6040516103db9190612697565b60405180910390f35b6103fe60048036038101906103f99190612620565b610d7a565b60405161040b9190612478565b60405180910390f35b61041c610dc3565b005b610426610dd7565b6040516104339190612478565b60405180910390f35b610456600480360381019061045191906122b6565b610ddd565b005b610460611079565b60405161046d91906126c1565b60405180910390f35b610490600480360381019061048b9190612620565b6110a2565b005b61049a611148565b6040516104a79190612373565b60405180910390f35b6104ca60048036038101906104c591906122b6565b6111da565b005b6104e660048036038101906104e191906123f3565b6112d4565b6040516104f3919061244e565b60405180910390f35b610516600480360381019061051191906123f3565b61134b565b604051610523919061244e565b60405180910390f35b610546600480360381019061054191906122b6565b61136e565b005b610562600480360381019061055d91906126dc565b61160a565b60405161056f9190612478565b60405180910390f35b610592600480360381019061058d9190612620565b611691565b005b61059c611714565b6040516105a99190612478565b60405180910390f35b6105ba61171a565b6040516105c791906126c1565b60405180910390f35b6105ea60048036038101906105e59190612620565b611740565b005b610606600480360381019061060191906125cd565b6117e6565b005b610610611933565b806009819055503373ffffffffffffffffffffffffffffffffffffffff167fe2af2e40180851ca869d5b4f94b61cf9241496ca9dbc6e3b2083382ec07a751160095460405161065f9190612478565b60405180910390a250565b6060600480546106799061274b565b80601f01602080910402602001604051908101604052809291908181526020018280546106a59061274b565b80156106f25780601f106106c7576101008083540402835291602001916106f2565b820191906000526020600020905b8154815290600101906020018083116106d557829003601f168201915b5050505050905090565b610704611933565b806008819055503373ffffffffffffffffffffffffffffffffffffffff167f4bb7ad2630dfff3f1c80235fb217e04e7824290975fcc2851beb4e27e72eb9c26008546040516107539190612478565b60405180910390a250565b6000806107696119b1565b90506107768185856119b9565b600191505092915050565b6000600354905090565b6000806107966119b1565b90506107a3858285611b82565b6107ae858585611c0e565b60019150509392505050565b60006012905090565b600660009054906101000a900473ffffffffffffffffffffffffffffffffffffffff1681565b6000806107f46119b1565b9050610815818585610806858961160a565b61081091906127ab565b6119b9565b600191505092915050565b610828611933565b8261083230610d7a565b1015610873576040517f08c379a000000000000000000000000000000000000000000000000000000000815260040161086a9061282b565b60405180910390fd5b6000600954116108b8576040517f08c379a00000000000000000000000000000000000000000000000000000000081526004016108af90612897565b60405180910390fd5b6000670de0b6b3a7640000846108ce91906128e6565b670de0b6b3a76400006009546108e491906128e6565b6108ee9190612917565b90506108fb308486611c0e565b83600a600082825461090d9190612959565b92505081905550818373ffffffffffffffffffffffffffffffffffffffff167fd80d6c70026f2d994b87695b959b5b7b690c03f4e38c00d2e66d723ffe86f55c30878560405161095f9392919061298d565b60405180910390a350505050565b610975611933565b600073ffffffffffffffffffffffffffffffffffffffff16600b60009054906101000a900473ffffffffffffffffffffffffffffffffffffffff1673ffffffffffffffffffffffffffffffffffffffff1614610a06576040517f08c379a00000000000000000000000000000000000000000000000000000000081526004016109fd90612a10565b60405180910390fd5b80600b60006101000a81548173ffffffffffffffffffffffffffffffffffffffff021916908373ffffffffffffffffffffffffffffffffffffffff160217905550600b60009054906101000a900473ffffffffffffffffffffffffffffffffffffffff1673ffffffffffffffffffffffffffffffffffffffff163373ffffffffffffffffffffffffffffffffffffffff167f2c639e388bc0e9bec1a30f91c4696708799b3f0da645d0a8f0ec26c44305935860405160405180910390a350565b600b60009054906101000a900473ffffffffffffffffffffffffffffffffffffffff1673ffffffffffffffffffffffffffffffffffffffff163373ffffffffffffffffffffffffffffffffffffffff1614610b56576040517f08c379a0000000000000000000000000000000000000000000000000000000008152600401610b4d90612aa2565b60405180910390fd5b80610b6030610d7a565b1015610ba1576040517f08c379a0000000000000000000000000000000000000000000000000000000008152600401610b989061282b565b60405180910390fd5b610bab3082611e87565b610bb430610d7a565b600a819055503073ffffffffffffffffffffffffffffffffffffffff167f696de425f79f4a40bc6d2122ca50507f0efbeabbff86a84871b7196ab8ea8df782604051610c009190612478565b60405180910390a250565b600080600660009054906101000a900473ffffffffffffffffffffffffffffffffffffffff1673ffffffffffffffffffffffffffffffffffffffff166370a08231306040518263ffffffff1660e01b8152600401610c6991906126c1565b602060405180830381865afa158015610c86573d6000803e3d6000fd5b505050506040513d601f19601f82011682018060405250810190610caa9190612ad7565b9150600760009054906101000a900473ffffffffffffffffffffffffffffffffffffffff1673ffffffffffffffffffffffffffffffffffffffff166370a08231306040518263ffffffff1660e01b8152600401610d0791906126c1565b602060405180830381865afa158015610d24573d6000803e3d6000fd5b505050506040513d601f19601f82011682018060405250810190610d489190612ad7565b91509091565b60095481565b600760009054906101000a900473ffffffffffffffffffffffffffffffffffffffff1681565b6000600160008373ffffffffffffffffffffffffffffffffffffffff1673ffffffffffffffffffffffffffffffffffffffff168152602001908152602001600020549050919050565b610dcb611933565b610dd56000612056565b565b600a5481565b80610de730610d7a565b1015610e28576040517f08c379a0000000000000000000000000000000000000000000000000000000008152600401610e1f9061282b565b60405180910390fd5b600060095411610e6d576040517f08c379a0000000000000000000000000000000000000000000000000000000008152600401610e6490612897565b60405180910390fd5b6000670de0b6b3a764000082610e8391906128e6565b600954610e909190612917565b905080600760009054906101000a900473ffffffffffffffffffffffffffffffffffffffff1673ffffffffffffffffffffffffffffffffffffffff166370a08231336040518263ffffffff1660e01b8152600401610eee91906126c1565b602060405180830381865afa158015610f0b573d6000803e3d6000fd5b505050506040513d601f19601f82011682018060405250810190610f2f9190612ad7565b1015610f70576040517f08c379a0000000000000000000000000000000000000000000000000000000008152600401610f6790612b50565b60405180910390fd5b600760009054906101000a900473ffffffffffffffffffffffffffffffffffffffff1673ffffffffffffffffffffffffffffffffffffffff1663e3060f2233836040518363ffffffff1660e01b8152600401610fcd929190612b70565b600060405180830381600087803b158015610fe757600080fd5b505af1158015610ffb573d6000803e3d6000fd5b5050505061100a303384611c0e565b81600a600082825461101c9190612959565b925050819055503373ffffffffffffffffffffffffffffffffffffffff167f7c6ac5c136b06f49647ac1133ca519b5676ec82fb9f58e9ad5ca1afeb059939d30848460405161106d9392919061298d565b60405180910390a25050565b60008060009054906101000a900473ffffffffffffffffffffffffffffffffffffffff16905090565b6110aa611933565b80600660006101000a81548173ffffffffffffffffffffffffffffffffffffffff021916908373ffffffffffffffffffffffffffffffffffffffff1602179055508073ffffffffffffffffffffffffffffffffffffffff163373ffffffffffffffffffffffffffffffffffffffff167f830be06b07932bb2e2881ba32668581cdee3c399577cdf53b9d9ec05ae7198aa60405160405180910390a350565b6060600580546111579061274b565b80601f01602080910402602001604051908101604052809291908181526020018280546111839061274b565b80156111d05780601f106111a5576101008083540402835291602001916111d0565b820191906000526020600020905b8154815290600101906020018083116111b357829003601f168201915b5050505050905090565b600b60009054906101000a900473ffffffffffffffffffffffffffffffffffffffff1673ffffffffffffffffffffffffffffffffffffffff163373ffffffffffffffffffffffffffffffffffffffff161461126a576040517f08c379a000000000000000000000000000000000000000000000000000000000815260040161126190612aa2565b60405180910390fd5b611274308261211a565b61127d30610d7a565b600a819055503073ffffffffffffffffffffffffffffffffffffffff167f30385c845b448a36257a6a1716e6ad2e1bc2cbe333cde1e69fe849ad6511adfe826040516112c99190612478565b60405180910390a250565b6000806112df6119b1565b905060006112ed828661160a565b905083811015611332576040517f08c379a000000000000000000000000000000000000000000000000000000000815260040161132990612c0b565b60405180910390fd5b61133f82868684036119b9565b60019250505092915050565b6000806113566119b1565b9050611363818585611c0e565b600191505092915050565b8061137830610d7a565b10156113b9576040517f08c379a00000000000000000000000000000000000000000000000000000000081526004016113b09061282b565b60405180910390fd5b6000600854116113fe576040517f08c379a00000000000000000000000000000000000000000000000000000000081526004016113f590612897565b60405180910390fd5b6000670de0b6b3a76400008261141491906128e6565b6008546114219190612917565b905080600660009054906101000a900473ffffffffffffffffffffffffffffffffffffffff1673ffffffffffffffffffffffffffffffffffffffff166370a08231336040518263ffffffff1660e01b815260040161147f91906126c1565b602060405180830381865afa15801561149c573d6000803e3d6000fd5b505050506040513d601f19601f820116820180604052508101906114c09190612ad7565b1015611501576040517f08c379a00000000000000000000000000000000000000000000000000000000081526004016114f890612b50565b60405180910390fd5b600660009054906101000a900473ffffffffffffffffffffffffffffffffffffffff1673ffffffffffffffffffffffffffffffffffffffff1663e3060f2233836040518363ffffffff1660e01b815260040161155e929190612b70565b600060405180830381600087803b15801561157857600080fd5b505af115801561158c573d6000803e3d6000fd5b5050505061159b303384611c0e565b81600a60008282546115ad9190612959565b925050819055503373ffffffffffffffffffffffffffffffffffffffff167fbfb2d47f240a2514f345656ec0f60068f7683420f974614a603e6b23b08f36bb3084846040516115fe9392919061298d565b60405180910390a25050565b6000600260008473ffffffffffffffffffffffffffffffffffffffff1673ffffffffffffffffffffffffffffffffffffffff16815260200190815260200160002060008373ffffffffffffffffffffffffffffffffffffffff1673ffffffffffffffffffffffffffffffffffffffff16815260200190815260200160002054905092915050565b611699611933565b600073ffffffffffffffffffffffffffffffffffffffff168173ffffffffffffffffffffffffffffffffffffffff1603611708576040517f08c379a00000000000000000000000000000000000000000000000000000000081526004016116ff90612c9d565b60405180910390fd5b61171181612056565b50565b60085481565b600b60009054906101000a900473ffffffffffffffffffffffffffffffffffffffff1681565b611748611933565b80600760006101000a81548173ffffffffffffffffffffffffffffffffffffffff021916908373ffffffffffffffffffffffffffffffffffffffff1602179055508073ffffffffffffffffffffffffffffffffffffffff163373ffffffffffffffffffffffffffffffffffffffff167f51c9a95724308f3b69758603328ff8af83109b54c8b7d8f88a2f3af4b09d09ea60405160405180910390a350565b6117ee611933565b826117f830610d7a565b1015611839576040517f08c379a00000000000000000000000000000000000000000000000000000000081526004016118309061282b565b60405180910390fd5b60006008541161187e576040517f08c379a000000000000000000000000000000000000000000000000000000000815260040161187590612897565b60405180910390fd5b6000670de0b6b3a76400008461189491906128e6565b670de0b6b3a76400006008546118aa91906128e6565b6118b49190612917565b90506118c1308486611c0e565b83600a60008282546118d39190612959565b92505081905550818373ffffffffffffffffffffffffffffffffffffffff167fb1abc58cc2f308d42e3d195e7348cf0e874ab4d2d8ca2e8da52681784882f5913087856040516119259392919061298d565b60405180910390a350505050565b61193b6119b1565b73ffffffffffffffffffffffffffffffffffffffff16611959611079565b73ffffffffffffffffffffffffffffffffffffffff16146119af576040517f08c379a00000000000000000000000000000000000000000000000000000000081526004016119a690612d09565b60405180910390fd5b565b600033905090565b600073ffffffffffffffffffffffffffffffffffffffff168373ffffffffffffffffffffffffffffffffffffffff1603611a28576040517f08c379a0000000000000000000000000000000000000000000000000000000008152600401611a1f90612d9b565b60405180910390fd5b600073ffffffffffffffffffffffffffffffffffffffff168273ffffffffffffffffffffffffffffffffffffffff1603611a97576040517f08c379a0000000000000000000000000000000000000000000000000000000008152600401611a8e90612e2d565b60405180910390fd5b80600260008573ffffffffffffffffffffffffffffffffffffffff1673ffffffffffffffffffffffffffffffffffffffff16815260200190815260200160002060008473ffffffffffffffffffffffffffffffffffffffff1673ffffffffffffffffffffffffffffffffffffffff168152602001908152602001600020819055508173ffffffffffffffffffffffffffffffffffffffff168373ffffffffffffffffffffffffffffffffffffffff167f8c5be1e5ebec7d5bd14f71427d1e84f3dd0314c0f7b2291e5b200ac8c7c3b92583604051611b759190612478565b60405180910390a3505050565b6000611b8e848461160a565b90507fffffffffffffffffffffffffffffffffffffffffffffffffffffffffffffffff8114611c085781811015611bfa576040517f08c379a0000000000000000000000000000000000000000000000000000000008152600401611bf190612e99565b60405180910390fd5b611c0784848484036119b9565b5b50505050565b600073ffffffffffffffffffffffffffffffffffffffff168373ffffffffffffffffffffffffffffffffffffffff1603611c7d576040517f08c379a0000000000000000000000000000000000000000000000000000000008152600401611c7490612f2b565b60405180910390fd5b600073ffffffffffffffffffffffffffffffffffffffff168273ffffffffffffffffffffffffffffffffffffffff1603611cec576040517f08c379a0000000000000000000000000000000000000000000000000000000008152600401611ce390612fbd565b60405180910390fd5b611cf7838383612271565b6000600160008573ffffffffffffffffffffffffffffffffffffffff1673ffffffffffffffffffffffffffffffffffffffff16815260200190815260200160002054905081811015611d7e576040517f08c379a0000000000000000000000000000000000000000000000000000000008152600401611d759061304f565b60405180910390fd5b818103600160008673ffffffffffffffffffffffffffffffffffffffff1673ffffffffffffffffffffffffffffffffffffffff1681526020019081526020016000208190555081600160008573ffffffffffffffffffffffffffffffffffffffff1673ffffffffffffffffffffffffffffffffffffffff168152602001908152602001600020600082825401925050819055508273ffffffffffffffffffffffffffffffffffffffff168473ffffffffffffffffffffffffffffffffffffffff167fddf252ad1be2c89b69c2b068fc378daa952ba7f163c4a11628f55a4df523b3ef84604051611e6e9190612478565b60405180910390a3611e81848484612276565b50505050565b600073ffffffffffffffffffffffffffffffffffffffff168273ffffffffffffffffffffffffffffffffffffffff1603611ef6576040517f08c379a0000000000000000000000000000000000000000000000000000000008152600401611eed906130e1565b60405180910390fd5b611f0282600083612271565b6000600160008473ffffffffffffffffffffffffffffffffffffffff1673ffffffffffffffffffffffffffffffffffffffff16815260200190815260200160002054905081811015611f89576040517f08c379a0000000000000000000000000000000000000000000000000000000008152600401611f8090613173565b60405180910390fd5b818103600160008573ffffffffffffffffffffffffffffffffffffffff1673ffffffffffffffffffffffffffffffffffffffff1681526020019081526020016000208190555081600360008282540392505081905550600073ffffffffffffffffffffffffffffffffffffffff168373ffffffffffffffffffffffffffffffffffffffff167fddf252ad1be2c89b69c2b068fc378daa952ba7f163c4a11628f55a4df523b3ef8460405161203d9190612478565b60405180910390a361205183600084612276565b505050565b60008060009054906101000a900473ffffffffffffffffffffffffffffffffffffffff169050816000806101000a81548173ffffffffffffffffffffffffffffffffffffffff021916908373ffffffffffffffffffffffffffffffffffffffff1602179055508173ffffffffffffffffffffffffffffffffffffffff168173ffffffffffffffffffffffffffffffffffffffff167f8be0079c531659141344cd1fd0a4f28419497f9722a3daafe3b4186f6b6457e060405160405180910390a35050565b600073ffffffffffffffffffffffffffffffffffffffff168273ffffffffffffffffffffffffffffffffffffffff1603612189576040517f08c379a0000000000000000000000000000000000000000000000000000000008152600401612180906131df565b60405180910390fd5b61219560008383612271565b80600360008282546121a791906127ab565b9250508190555080600160008473ffffffffffffffffffffffffffffffffffffffff1673ffffffffffffffffffffffffffffffffffffffff168152602001908152602001600020600082825401925050819055508173ffffffffffffffffffffffffffffffffffffffff16600073ffffffffffffffffffffffffffffffffffffffff167fddf252ad1be2c89b69c2b068fc378daa952ba7f163c4a11628f55a4df523b3ef836040516122599190612478565b60405180910390a361226d60008383612276565b5050565b505050565b505050565b600080fd5b6000819050919050565b61229381612280565b811461229e57600080fd5b50565b6000813590506122b08161228a565b92915050565b6000602082840312156122cc576122cb61227b565b5b60006122da848285016122a1565b91505092915050565b600081519050919050565b600082825260208201905092915050565b60005b8381101561231d578082015181840152602081019050612302565b60008484015250505050565b6000601f19601f8301169050919050565b6000612345826122e3565b61234f81856122ee565b935061235f8185602086016122ff565b61236881612329565b840191505092915050565b6000602082019050818103600083015261238d818461233a565b905092915050565b600073ffffffffffffffffffffffffffffffffffffffff82169050919050565b60006123c082612395565b9050919050565b6123d0816123b5565b81146123db57600080fd5b50565b6000813590506123ed816123c7565b92915050565b6000806040838503121561240a5761240961227b565b5b6000612418858286016123de565b9250506020612429858286016122a1565b9150509250929050565b60008115159050919050565b61244881612433565b82525050565b6000602082019050612463600083018461243f565b92915050565b61247281612280565b82525050565b600060208201905061248d6000830184612469565b92915050565b6000806000606084860312156124ac576124ab61227b565b5b60006124ba868287016123de565b93505060206124cb868287016123de565b92505060406124dc868287016122a1565b9150509250925092565b600060ff82169050919050565b6124fc816124e6565b82525050565b600060208201905061251760008301846124f3565b92915050565b6000819050919050565b600061254261253d61253884612395565b61251d565b612395565b9050919050565b600061255482612527565b9050919050565b600061256682612549565b9050919050565b6125768161255b565b82525050565b6000602082019050612591600083018461256d565b92915050565b6000819050919050565b6125aa81612597565b81146125b557600080fd5b50565b6000813590506125c7816125a1565b92915050565b6000806000606084860312156125e6576125e561227b565b5b60006125f4868287016122a1565b9350506020612605868287016123de565b9250506040612616868287016125b8565b9150509250925092565b6000602082840312156126365761263561227b565b5b6000612644848285016123de565b91505092915050565b60006040820190506126626000830185612469565b61266f6020830184612469565b9392505050565b600061268182612549565b9050919050565b61269181612676565b82525050565b60006020820190506126ac6000830184612688565b92915050565b6126bb816123b5565b82525050565b60006020820190506126d660008301846126b2565b92915050565b600080604083850312156126f3576126f261227b565b5b6000612701858286016123de565b9250506020612712858286016123de565b9150509250929050565b7f4e487b7100000000000000000000000000000000000000000000000000000000600052602260045260246000fd5b6000600282049050600182168061276357607f821691505b6020821081036127765761277561271c565b5b50919050565b7f4e487b7100000000000000000000000000000000000000000000000000000000600052601160045260246000fd5b60006127b682612280565b91506127c183612280565b92508282019050808211156127d9576127d861277c565b5b92915050565b7f496e73756666696369656e742045474f4c4420696e20436f6e74726163742e00600082015250565b6000612815601f836122ee565b9150612820826127df565b602082019050919050565b6000602082019050818103600083015261284481612808565b9050919050565b7f45474f4c44205072696365206e6f742073657400000000000000000000000000600082015250565b60006128816013836122ee565b915061288c8261284b565b602082019050919050565b600060208201905081810360008301526128b081612874565b9050919050565b7f4e487b7100000000000000000000000000000000000000000000000000000000600052601260045260246000fd5b60006128f182612280565b91506128fc83612280565b92508261290c5761290b6128b7565b5b828204905092915050565b600061292282612280565b915061292d83612280565b925082820261293b81612280565b915082820484148315176129525761295161277c565b5b5092915050565b600061296482612280565b915061296f83612280565b92508282039050818111156129875761298661277c565b5b92915050565b60006060820190506129a260008301866126b2565b6129af6020830185612469565b6129bc6040830184612469565b949350505050565b7f696e76656e746f72792048616e646c657220616c7265616479207365742e0000600082015250565b60006129fa601e836122ee565b9150612a05826129c4565b602082019050919050565b60006020820190508181036000830152612a29816129ed565b9050919050565b7f4f6e6c7920496e76656e746f72792048616e646c657220436f6e74726163742060008201527f616c6c6f7765642e000000000000000000000000000000000000000000000000602082015250565b6000612a8c6028836122ee565b9150612a9782612a30565b604082019050919050565b60006020820190508181036000830152612abb81612a7f565b9050919050565b600081519050612ad18161228a565b92915050565b600060208284031215612aed57612aec61227b565b5b6000612afb84828501612ac2565b91505092915050565b7f496e737566666369656e742042616c616e636500000000000000000000000000600082015250565b6000612b3a6013836122ee565b9150612b4582612b04565b602082019050919050565b60006020820190508181036000830152612b6981612b2d565b9050919050565b6000604082019050612b8560008301856126b2565b612b926020830184612469565b9392505050565b7f45524332303a2064656372656173656420616c6c6f77616e63652062656c6f7760008201527f207a65726f000000000000000000000000000000000000000000000000000000602082015250565b6000612bf56025836122ee565b9150612c0082612b99565b604082019050919050565b60006020820190508181036000830152612c2481612be8565b9050919050565b7f4f776e61626c653a206e6577206f776e657220697320746865207a65726f206160008201527f6464726573730000000000000000000000000000000000000000000000000000602082015250565b6000612c876026836122ee565b9150612c9282612c2b565b604082019050919050565b60006020820190508181036000830152612cb681612c7a565b9050919050565b7f4f776e61626c653a2063616c6c6572206973206e6f7420746865206f776e6572600082015250565b6000612cf36020836122ee565b9150612cfe82612cbd565b602082019050919050565b60006020820190508181036000830152612d2281612ce6565b9050919050565b7f45524332303a20617070726f76652066726f6d20746865207a65726f2061646460008201527f7265737300000000000000000000000000000000000000000000000000000000602082015250565b6000612d856024836122ee565b9150612d9082612d29565b604082019050919050565b60006020820190508181036000830152612db481612d78565b9050919050565b7f45524332303a20617070726f766520746f20746865207a65726f20616464726560008201527f7373000000000000000000000000000000000000000000000000000000000000602082015250565b6000612e176022836122ee565b9150612e2282612dbb565b604082019050919050565b60006020820190508181036000830152612e4681612e0a565b9050919050565b7f45524332303a20696e73756666696369656e7420616c6c6f77616e6365000000600082015250565b6000612e83601d836122ee565b9150612e8e82612e4d565b602082019050919050565b60006020820190508181036000830152612eb281612e76565b9050919050565b7f45524332303a207472616e736665722066726f6d20746865207a65726f20616460008201527f6472657373000000000000000000000000000000000000000000000000000000602082015250565b6000612f156025836122ee565b9150612f2082612eb9565b604082019050919050565b60006020820190508181036000830152612f4481612f08565b9050919050565b7f45524332303a207472616e7366657220746f20746865207a65726f206164647260008201527f6573730000000000000000000000000000000000000000000000000000000000602082015250565b6000612fa76023836122ee565b9150612fb282612f4b565b604082019050919050565b60006020820190508181036000830152612fd681612f9a565b9050919050565b7f45524332303a207472616e7366657220616d6f756e742065786365656473206260008201527f616c616e63650000000000000000000000000000000000000000000000000000602082015250565b60006130396026836122ee565b915061304482612fdd565b604082019050919050565b600060208201905081810360008301526130688161302c565b9050919050565b7f45524332303a206275726e2066726f6d20746865207a65726f2061646472657360008201527f7300000000000000000000000000000000000000000000000000000000000000602082015250565b60006130cb6021836122ee565b91506130d68261306f565b604082019050919050565b600060208201905081810360008301526130fa816130be565b9050919050565b7f45524332303a206275726e20616d6f756e7420657863656564732062616c616e60008201527f6365000000000000000000000000000000000000000000000000000000000000602082015250565b600061315d6022836122ee565b915061316882613101565b604082019050919050565b6000602082019050818103600083015261318c81613150565b9050919050565b7f45524332303a206d696e7420746f20746865207a65726f206164647265737300600082015250565b60006131c9601f836122ee565b91506131d482613193565b602082019050919050565b600060208201905081810360008301526131f8816131bc565b905091905056fea26469706673582212203976e5e6378eee54c897c4b6d05377cf3a0bd7e29a86b6c87c6550dc70f32cea64736f6c63430008110033",
  "immutableReferences": {},
  "source": "//SPDX-License-Identifier: MIT\n\npragma solidity ^0.8.17;\n\nimport \"@openzeppelin/contracts/token/ERC20/ERC20.sol\";\nimport \"@openzeppelin/contracts/access/Ownable.sol\";\nimport \"./EINR.sol\";\nimport \"./EUSD.sol\";\n\ncontract EGOLDContract is Ownable, ERC20 {\n    event Minted(address indexed _to, uint256 _amount);\n    event Burned(address indexed _to, uint256 _amount);\n    event InventoryAddressSet(\n        address indexed _setBy,\n        address indexed _InventoryAdd\n    );\n    event EINRAddressSet(address indexed _setBy, address indexed _EINRAdd);\n    event EUSDAddressSet(address indexed _setBy, address indexed _EUSDAdd);\n    event EGOLD_INR_PriceSet(address indexed _setBy, uint256 _EGOLDPriceINR);\n    event EGOLD_USD_PriceSet(address indexed _setBy, uint256 _EGOLDPriceUSD);\n    event EGOLD_EINR_Transfer(\n        address _from,\n        address indexed _to,\n        uint256 _EGoldAmount,\n        uint256 _EINRAmount\n    );\n    event EGOLD_INR_Transfer(\n        address _from,\n        address indexed _to,\n        bytes32 indexed _receipt,\n        uint256 _EGoldmount,\n        uint256 _INRAmount\n    );\n    event EGOLD_EUSD_Transfer(\n        address _from,\n        address indexed _to,\n        uint256 _EGoldAmount,\n        uint256 _EUSDAmount\n    );\n    event EGOLD_USD_Transfer(\n        address _from,\n        address indexed _to,\n        bytes32 indexed _receipt,\n        uint256 _EGoldmount,\n        uint256 _USDAmount\n    );\n\n    EINRContract public _EINR;\n    EUSDContract public _EUSD;\n    uint256 public EGoldPriceINR;\n    uint256 public EGoldPriceUSD;\n    uint256 public availableSupply;\n    address public inventoryHandler;\n\n    modifier onlyInventoryHandler() {\n        require(\n            msg.sender == inventoryHandler,\n            \"Only Inventory Handler Contract allowed.\"\n        );\n        _;\n    }\n\n    constructor() ERC20(\"EGOLD\", \"EGOLD\") {}\n\n    function setInventoryHandler(address _address) public onlyOwner {\n        require(\n            inventoryHandler == address(0),\n            \"inventory Handler already set.\"\n        );\n        inventoryHandler = _address;\n        emit InventoryAddressSet(msg.sender, inventoryHandler);\n    }\n\n    function mint(uint256 _amount) public onlyInventoryHandler {\n        _mint(address(this), _amount);\n        availableSupply = balanceOf(address(this));\n        emit Minted(address(this), _amount);\n    }\n\n    function burn(uint256 _amount) public onlyInventoryHandler {\n        require(\n            balanceOf(address(this)) >= _amount,\n            \"Insufficient EGOLD in Contract.\"\n        );\n        _burn(address(this), _amount);\n        availableSupply = balanceOf(address(this));\n        emit Burned(address(this), _amount);\n    }\n\n    function setEINR(address _Einr) public onlyOwner {\n        _EINR = EINRContract(_Einr);\n        emit EINRAddressSet(msg.sender, _Einr);\n    }\n\n    function setEUSD(address _Eusd) public onlyOwner {\n        _EUSD = EUSDContract(_Eusd);\n        emit EUSDAddressSet(msg.sender, _Eusd);\n    }\n\n    function setEGoldPriceINR(uint256 _price) public onlyOwner{\n        EGoldPriceINR = _price;\n        emit EGOLD_INR_PriceSet(msg.sender, EGoldPriceINR);\n    }\n\n    function setEGoldPriceUSD(uint256 _price) public onlyOwner{\n        EGoldPriceUSD = _price;\n        emit EGOLD_USD_PriceSet(msg.sender, EGoldPriceUSD);\n    }\n\n    function buyEGoldEINR(uint256 _EGoldAmount) public {\n        require(\n            balanceOf(address(this)) >= _EGoldAmount,\n            \"Insufficient EGOLD in Contract.\"\n        );\n        require(EGoldPriceINR > 0, \"EGOLD Price not set\");\n        uint256 totalEINR = EGoldPriceINR * (_EGoldAmount / 10**18);\n        require(\n            _EINR.balanceOf(msg.sender) >= totalEINR,\n            \"Insuffcient Balance\"\n        );\n        _EINR.transferBal(msg.sender, totalEINR);\n        _transfer(address(this), msg.sender, _EGoldAmount);\n        availableSupply -= _EGoldAmount;\n        emit EGOLD_EINR_Transfer(\n            address(this),\n            msg.sender,\n            _EGoldAmount,\n            totalEINR\n        );\n    }\n\n    function buyEGoldINR(uint256 _EGoldAmount, address _to, bytes32 _receipt) public onlyOwner{\n        require(\n            balanceOf(address(this)) >= _EGoldAmount,\n            \"Insufficient EGOLD in Contract.\"\n        );\n        require(EGoldPriceINR > 0, \"EGOLD Price not set\");\n        uint256 totalINR = (EGoldPriceINR / 10**18) * (_EGoldAmount / 10**18);\n        _transfer(address(this), _to, _EGoldAmount);\n        availableSupply -= _EGoldAmount;\n        emit EGOLD_INR_Transfer(\n            address(this),\n            _to,\n            _receipt,\n            _EGoldAmount,\n            totalINR\n        );\n    }\n\n\n    function buyEGoldEUSD(uint256 _EGoldAmount) public {\n        require(\n            balanceOf(address(this)) >= _EGoldAmount,\n            \"Insufficient EGOLD in Contract.\"\n        );\n        require(EGoldPriceUSD > 0, \"EGOLD Price not set\");\n        uint256 totalEUSD = EGoldPriceUSD * (_EGoldAmount / 10**18);\n        require(\n            _EUSD.balanceOf(msg.sender) >= totalEUSD,\n            \"Insuffcient Balance\"\n        );\n        _EUSD.transferBal(msg.sender, totalEUSD);\n        _transfer(address(this), msg.sender, _EGoldAmount);\n        availableSupply -= _EGoldAmount;\n        emit EGOLD_EUSD_Transfer(\n            address(this),\n            msg.sender,\n            _EGoldAmount,\n            totalEUSD\n        );\n    }\n\n    function buyEGoldUSD(uint256 _EGoldAmount, address _to, bytes32 _receipt) public onlyOwner{\n        require(\n            balanceOf(address(this)) >= _EGoldAmount,\n            \"Insufficient EGOLD in Contract.\"\n        );\n        require(EGoldPriceUSD > 0, \"EGOLD Price not set\");\n        uint256 totalUSD = (EGoldPriceUSD / 10**18) * (_EGoldAmount / 10**18);\n        _transfer(address(this), _to, _EGoldAmount);\n        availableSupply -= _EGoldAmount;\n        emit EGOLD_USD_Transfer(\n            address(this),\n            _to,\n            _receipt,\n            _EGoldAmount,\n            totalUSD\n        );\n    }\n\n    function BalEINR()\n        public\n        view\n        returns (uint256 _BalEINR, uint256 _BalEUSD)\n    {\n        _BalEINR = _EINR.balanceOf(address(this));\n        _BalEINR = _EUSD.balanceOf(address(this));\n        return (_BalEINR, _BalEUSD);\n    }\n}\n",
  "sourcePath": "/home/neosoft/S/EGOLD-EINR-POC/solidity/contracts/EGOLD.sol",
  "compiler": {
    "name": "solc",
    "version": "0.8.17+commit.8df45f5f.Emscripten.clang"
  },
  "schemaVersion": "3.4.11",
  "updatedAt": "2023-04-14T03:36:17.355Z",
  "networkType": "ethereum",
  "devdoc": {
    "kind": "dev",
    "methods": {
      "allowance(address,address)": {
        "details": "See {IERC20-allowance}."
      },
      "approve(address,uint256)": {
        "details": "See {IERC20-approve}. NOTE: If `amount` is the maximum `uint256`, the allowance is not updated on `transferFrom`. This is semantically equivalent to an infinite approval. Requirements: - `spender` cannot be the zero address."
      },
      "balanceOf(address)": {
        "details": "See {IERC20-balanceOf}."
      },
      "decimals()": {
        "details": "Returns the number of decimals used to get its user representation. For example, if `decimals` equals `2`, a balance of `505` tokens should be displayed to a user as `5.05` (`505 / 10 ** 2`). Tokens usually opt for a value of 18, imitating the relationship between Ether and Wei. This is the value {ERC20} uses, unless this function is overridden; NOTE: This information is only used for _display_ purposes: it in no way affects any of the arithmetic of the contract, including {IERC20-balanceOf} and {IERC20-transfer}."
      },
      "decreaseAllowance(address,uint256)": {
        "details": "Atomically decreases the allowance granted to `spender` by the caller. This is an alternative to {approve} that can be used as a mitigation for problems described in {IERC20-approve}. Emits an {Approval} event indicating the updated allowance. Requirements: - `spender` cannot be the zero address. - `spender` must have allowance for the caller of at least `subtractedValue`."
      },
      "increaseAllowance(address,uint256)": {
        "details": "Atomically increases the allowance granted to `spender` by the caller. This is an alternative to {approve} that can be used as a mitigation for problems described in {IERC20-approve}. Emits an {Approval} event indicating the updated allowance. Requirements: - `spender` cannot be the zero address."
      },
      "name()": {
        "details": "Returns the name of the token."
      },
      "owner()": {
        "details": "Returns the address of the current owner."
      },
      "renounceOwnership()": {
        "details": "Leaves the contract without owner. It will not be possible to call `onlyOwner` functions anymore. Can only be called by the current owner. NOTE: Renouncing ownership will leave the contract without an owner, thereby removing any functionality that is only available to the owner."
      },
      "symbol()": {
        "details": "Returns the symbol of the token, usually a shorter version of the name."
      },
      "totalSupply()": {
        "details": "See {IERC20-totalSupply}."
      },
      "transfer(address,uint256)": {
        "details": "See {IERC20-transfer}. Requirements: - `to` cannot be the zero address. - the caller must have a balance of at least `amount`."
      },
      "transferFrom(address,address,uint256)": {
        "details": "See {IERC20-transferFrom}. Emits an {Approval} event indicating the updated allowance. This is not required by the EIP. See the note at the beginning of {ERC20}. NOTE: Does not update the allowance if the current allowance is the maximum `uint256`. Requirements: - `from` and `to` cannot be the zero address. - `from` must have a balance of at least `amount`. - the caller must have allowance for ``from``'s tokens of at least `amount`."
      },
      "transferOwnership(address)": {
        "details": "Transfers ownership of the contract to a new account (`newOwner`). Can only be called by the current owner."
      }
    },
    "version": 1
  },
  "userdoc": {
    "kind": "user",
    "methods": {},
    "version": 1
  }
}