{
  "contractName": "EGOLDContract",
  "abi": [
    {
      "inputs": [],
      "stateMutability": "nonpayable",
      "type": "constructor"
    },
    {
      "anonymous": false,
      "inputs": [
        {
          "indexed": true,
          "internalType": "address",
          "name": "owner",
          "type": "address"
        },
        {
          "indexed": true,
          "internalType": "address",
          "name": "spender",
          "type": "address"
        },
        {
          "indexed": false,
          "internalType": "uint256",
          "name": "value",
          "type": "uint256"
        }
      ],
      "name": "Approval",
      "type": "event"
    },
    {
      "anonymous": false,
      "inputs": [
        {
          "indexed": false,
          "internalType": "address",
          "name": "_setBy",
          "type": "address"
        },
        {
          "indexed": false,
          "internalType": "uint256",
          "name": "_EGOLDPrice",
          "type": "uint256"
        }
      ],
      "name": "EGOLDPriceSet",
      "type": "event"
    },
    {
      "anonymous": false,
      "inputs": [
        {
          "indexed": false,
          "internalType": "address",
          "name": "_from",
          "type": "address"
        },
        {
          "indexed": false,
          "internalType": "address",
          "name": "_to",
          "type": "address"
        },
        {
          "indexed": false,
          "internalType": "uint256",
          "name": "_amount",
          "type": "uint256"
        }
      ],
      "name": "EGOLDTransfer",
      "type": "event"
    },
    {
      "anonymous": false,
      "inputs": [
        {
          "indexed": false,
          "internalType": "address",
          "name": "_setBy",
          "type": "address"
        },
        {
          "indexed": false,
          "internalType": "address",
          "name": "_EGOLDAdd",
          "type": "address"
        }
      ],
      "name": "EINRAddressSet",
      "type": "event"
    },
    {
      "anonymous": false,
      "inputs": [
        {
          "indexed": false,
          "internalType": "address",
          "name": "_to",
          "type": "address"
        },
        {
          "indexed": false,
          "internalType": "uint256",
          "name": "_amount",
          "type": "uint256"
        }
      ],
      "name": "Minted",
      "type": "event"
    },
    {
      "anonymous": false,
      "inputs": [
        {
          "indexed": true,
          "internalType": "address",
          "name": "from",
          "type": "address"
        },
        {
          "indexed": true,
          "internalType": "address",
          "name": "to",
          "type": "address"
        },
        {
          "indexed": false,
          "internalType": "uint256",
          "name": "value",
          "type": "uint256"
        }
      ],
      "name": "Transfer",
      "type": "event"
    },
    {
      "inputs": [],
      "name": "EGoldPrice",
      "outputs": [
        {
          "internalType": "uint256",
          "name": "",
          "type": "uint256"
        }
      ],
      "stateMutability": "view",
      "type": "function",
      "constant": true
    },
    {
      "inputs": [],
      "name": "_EINR",
      "outputs": [
        {
          "internalType": "contract EINRContract",
          "name": "",
          "type": "address"
        }
      ],
      "stateMutability": "view",
      "type": "function",
      "constant": true
    },
    {
      "inputs": [
        {
          "internalType": "address",
          "name": "owner",
          "type": "address"
        },
        {
          "internalType": "address",
          "name": "spender",
          "type": "address"
        }
      ],
      "name": "allowance",
      "outputs": [
        {
          "internalType": "uint256",
          "name": "",
          "type": "uint256"
        }
      ],
      "stateMutability": "view",
      "type": "function",
      "constant": true
    },
    {
      "inputs": [
        {
          "internalType": "address",
          "name": "spender",
          "type": "address"
        },
        {
          "internalType": "uint256",
          "name": "amount",
          "type": "uint256"
        }
      ],
      "name": "approve",
      "outputs": [
        {
          "internalType": "bool",
          "name": "",
          "type": "bool"
        }
      ],
      "stateMutability": "nonpayable",
      "type": "function"
    },
    {
      "inputs": [],
      "name": "availableSupply",
      "outputs": [
        {
          "internalType": "uint256",
          "name": "",
          "type": "uint256"
        }
      ],
      "stateMutability": "view",
      "type": "function",
      "constant": true
    },
    {
      "inputs": [
        {
          "internalType": "address",
          "name": "account",
          "type": "address"
        }
      ],
      "name": "balanceOf",
      "outputs": [
        {
          "internalType": "uint256",
          "name": "",
          "type": "uint256"
        }
      ],
      "stateMutability": "view",
      "type": "function",
      "constant": true
    },
    {
      "inputs": [],
      "name": "decimals",
      "outputs": [
        {
          "internalType": "uint8",
          "name": "",
          "type": "uint8"
        }
      ],
      "stateMutability": "view",
      "type": "function",
      "constant": true
    },
    {
      "inputs": [
        {
          "internalType": "address",
          "name": "spender",
          "type": "address"
        },
        {
          "internalType": "uint256",
          "name": "subtractedValue",
          "type": "uint256"
        }
      ],
      "name": "decreaseAllowance",
      "outputs": [
        {
          "internalType": "bool",
          "name": "",
          "type": "bool"
        }
      ],
      "stateMutability": "nonpayable",
      "type": "function"
    },
    {
      "inputs": [
        {
          "internalType": "address",
          "name": "spender",
          "type": "address"
        },
        {
          "internalType": "uint256",
          "name": "addedValue",
          "type": "uint256"
        }
      ],
      "name": "increaseAllowance",
      "outputs": [
        {
          "internalType": "bool",
          "name": "",
          "type": "bool"
        }
      ],
      "stateMutability": "nonpayable",
      "type": "function"
    },
    {
      "inputs": [],
      "name": "name",
      "outputs": [
        {
          "internalType": "string",
          "name": "",
          "type": "string"
        }
      ],
      "stateMutability": "view",
      "type": "function",
      "constant": true
    },
    {
      "inputs": [],
      "name": "symbol",
      "outputs": [
        {
          "internalType": "string",
          "name": "",
          "type": "string"
        }
      ],
      "stateMutability": "view",
      "type": "function",
      "constant": true
    },
    {
      "inputs": [],
      "name": "totalSupply",
      "outputs": [
        {
          "internalType": "uint256",
          "name": "",
          "type": "uint256"
        }
      ],
      "stateMutability": "view",
      "type": "function",
      "constant": true
    },
    {
      "inputs": [
        {
          "internalType": "address",
          "name": "to",
          "type": "address"
        },
        {
          "internalType": "uint256",
          "name": "amount",
          "type": "uint256"
        }
      ],
      "name": "transfer",
      "outputs": [
        {
          "internalType": "bool",
          "name": "",
          "type": "bool"
        }
      ],
      "stateMutability": "nonpayable",
      "type": "function"
    },
    {
      "inputs": [
        {
          "internalType": "address",
          "name": "from",
          "type": "address"
        },
        {
          "internalType": "address",
          "name": "to",
          "type": "address"
        },
        {
          "internalType": "uint256",
          "name": "amount",
          "type": "uint256"
        }
      ],
      "name": "transferFrom",
      "outputs": [
        {
          "internalType": "bool",
          "name": "",
          "type": "bool"
        }
      ],
      "stateMutability": "nonpayable",
      "type": "function"
    },
    {
      "inputs": [
        {
          "internalType": "address",
          "name": "_Einr",
          "type": "address"
        }
      ],
      "name": "setEINR",
      "outputs": [],
      "stateMutability": "nonpayable",
      "type": "function"
    },
    {
      "inputs": [
        {
          "internalType": "uint256",
          "name": "_price",
          "type": "uint256"
        }
      ],
      "name": "setGoldPrice",
      "outputs": [],
      "stateMutability": "nonpayable",
      "type": "function"
    },
    {
      "inputs": [
        {
          "internalType": "uint256",
          "name": "_GoldAmount",
          "type": "uint256"
        }
      ],
      "name": "buyGold",
      "outputs": [],
      "stateMutability": "nonpayable",
      "type": "function"
    },
    {
      "inputs": [],
      "name": "BalEINR",
      "outputs": [
        {
          "internalType": "uint256",
          "name": "",
          "type": "uint256"
        }
      ],
      "stateMutability": "view",
      "type": "function",
      "constant": true
    }
  ],
  "bytecode": "0x60806040523480156200001157600080fd5b506040518060400160405280600581526020017f45474f4c440000000000000000000000000000000000000000000000000000008152506040518060400160405280600581526020017f45474f4c4400000000000000000000000000000000000000000000000000000081525081600390816200008f919062000518565b508060049081620000a1919062000518565b505050600069d3c21bcecceda10000009050620000c530826200011d60201b60201c565b7f30385c845b448a36257a6a1716e6ad2e1bc2cbe333cde1e69fe849ad6511adfe3082604051620000f892919062000655565b60405180910390a1620001106200028a60201b60201c565b600781905550506200078c565b600073ffffffffffffffffffffffffffffffffffffffff168273ffffffffffffffffffffffffffffffffffffffff16036200018f576040517f08c379a00000000000000000000000000000000000000000000000000000000081526004016200018690620006e3565b60405180910390fd5b620001a3600083836200029460201b60201c565b8060026000828254620001b7919062000734565b92505081905550806000808473ffffffffffffffffffffffffffffffffffffffff1673ffffffffffffffffffffffffffffffffffffffff168152602001908152602001600020600082825401925050819055508173ffffffffffffffffffffffffffffffffffffffff16600073ffffffffffffffffffffffffffffffffffffffff167fddf252ad1be2c89b69c2b068fc378daa952ba7f163c4a11628f55a4df523b3ef836040516200026a91906200076f565b60405180910390a362000286600083836200029960201b60201c565b5050565b6000600254905090565b505050565b505050565b600081519050919050565b7f4e487b7100000000000000000000000000000000000000000000000000000000600052604160045260246000fd5b7f4e487b7100000000000000000000000000000000000000000000000000000000600052602260045260246000fd5b600060028204905060018216806200032057607f821691505b602082108103620003365762000335620002d8565b5b50919050565b60008190508160005260206000209050919050565b60006020601f8301049050919050565b600082821b905092915050565b600060088302620003a07fffffffffffffffffffffffffffffffffffffffffffffffffffffffffffffffff8262000361565b620003ac868362000361565b95508019841693508086168417925050509392505050565b6000819050919050565b6000819050919050565b6000620003f9620003f3620003ed84620003c4565b620003ce565b620003c4565b9050919050565b6000819050919050565b6200041583620003d8565b6200042d620004248262000400565b8484546200036e565b825550505050565b600090565b6200044462000435565b620004518184846200040a565b505050565b5b8181101562000479576200046d6000826200043a565b60018101905062000457565b5050565b601f821115620004c85762000492816200033c565b6200049d8462000351565b81016020851015620004ad578190505b620004c5620004bc8562000351565b83018262000456565b50505b505050565b600082821c905092915050565b6000620004ed60001984600802620004cd565b1980831691505092915050565b6000620005088383620004da565b9150826002028217905092915050565b62000523826200029e565b67ffffffffffffffff8111156200053f576200053e620002a9565b5b6200054b825462000307565b620005588282856200047d565b600060209050601f8311600181146200059057600084156200057b578287015190505b620005878582620004fa565b865550620005f7565b601f198416620005a0866200033c565b60005b82811015620005ca57848901518255600182019150602085019450602081019050620005a3565b86831015620005ea5784890151620005e6601f891682620004da565b8355505b6001600288020188555050505b505050505050565b600073ffffffffffffffffffffffffffffffffffffffff82169050919050565b60006200062c82620005ff565b9050919050565b6200063e816200061f565b82525050565b6200064f81620003c4565b82525050565b60006040820190506200066c600083018562000633565b6200067b602083018462000644565b9392505050565b600082825260208201905092915050565b7f45524332303a206d696e7420746f20746865207a65726f206164647265737300600082015250565b6000620006cb601f8362000682565b9150620006d88262000693565b602082019050919050565b60006020820190508181036000830152620006fe81620006bc565b9050919050565b7f4e487b7100000000000000000000000000000000000000000000000000000000600052601160045260246000fd5b60006200074182620003c4565b91506200074e83620003c4565b925082820190508082111562000769576200076862000705565b5b92915050565b600060208201905062000786600083018462000644565b92915050565b611a83806200079c6000396000f3fe608060405234801561001057600080fd5b50600436106101165760003560e01c806370a08231116100a2578063960256b611610071578063960256b6146102e5578063a457c2d714610301578063a9059cbb14610331578063dd62ed3e14610361578063f33815f31461039157610116565b806370a082311461025d5780637ecc2b561461028d57806392a8463d146102ab57806395d89b41146102c757610116565b80632d02a5b2116100e95780632d02a5b2146101b7578063313ce567146101d35780633481bb61146101f1578063395093511461020f578063485e3e1a1461023f57610116565b806306fdde031461011b578063095ea7b31461013957806318160ddd1461016957806323b872dd14610187575b600080fd5b6101236103af565b6040516101309190611016565b60405180910390f35b610153600480360381019061014e91906110d1565b610441565b604051610160919061112c565b60405180910390f35b610171610464565b60405161017e9190611156565b60405180910390f35b6101a1600480360381019061019c9190611171565b61046e565b6040516101ae919061112c565b60405180910390f35b6101d160048036038101906101cc91906111c4565b61049d565b005b6101db6104e2565b6040516101e8919061120d565b60405180910390f35b6101f96104eb565b6040516102069190611287565b60405180910390f35b610229600480360381019061022491906110d1565b610511565b604051610236919061112c565b60405180910390f35b610247610548565b6040516102549190611156565b60405180910390f35b610277600480360381019061027291906112a2565b6105eb565b6040516102849190611156565b60405180910390f35b610295610633565b6040516102a29190611156565b60405180910390f35b6102c560048036038101906102c091906112a2565b610639565b005b6102cf6106b6565b6040516102dc9190611016565b60405180910390f35b6102ff60048036038101906102fa91906111c4565b610748565b005b61031b600480360381019061031691906110d1565b610982565b604051610328919061112c565b60405180910390f35b61034b600480360381019061034691906110d1565b6109f9565b604051610358919061112c565b60405180910390f35b61037b600480360381019061037691906112cf565b610a1c565b6040516103889190611156565b60405180910390f35b610399610aa3565b6040516103a69190611156565b60405180910390f35b6060600380546103be9061133e565b80601f01602080910402602001604051908101604052809291908181526020018280546103ea9061133e565b80156104375780601f1061040c57610100808354040283529160200191610437565b820191906000526020600020905b81548152906001019060200180831161041a57829003601f168201915b5050505050905090565b60008061044c610aa9565b9050610459818585610ab1565b600191505092915050565b6000600254905090565b600080610479610aa9565b9050610486858285610c7a565b610491858585610d06565b60019150509392505050565b806006819055507f24e1b050e21f10a370f303557d0f5a29e3870d25a22f328edd8e0f6e342270f9336006546040516104d792919061137e565b60405180910390a150565b60006012905090565b600560009054906101000a900473ffffffffffffffffffffffffffffffffffffffff1681565b60008061051c610aa9565b905061053d81858561052e8589610a1c565b61053891906113d6565b610ab1565b600191505092915050565b6000600560009054906101000a900473ffffffffffffffffffffffffffffffffffffffff1673ffffffffffffffffffffffffffffffffffffffff166370a08231306040518263ffffffff1660e01b81526004016105a5919061140a565b602060405180830381865afa1580156105c2573d6000803e3d6000fd5b505050506040513d601f19601f820116820180604052508101906105e6919061143a565b905090565b60008060008373ffffffffffffffffffffffffffffffffffffffff1673ffffffffffffffffffffffffffffffffffffffff168152602001908152602001600020549050919050565b60075481565b80600560006101000a81548173ffffffffffffffffffffffffffffffffffffffff021916908373ffffffffffffffffffffffffffffffffffffffff1602179055507f830be06b07932bb2e2881ba32668581cdee3c399577cdf53b9d9ec05ae7198aa33826040516106ab929190611467565b60405180910390a150565b6060600480546106c59061133e565b80601f01602080910402602001604051908101604052809291908181526020018280546106f19061133e565b801561073e5780601f106107135761010080835404028352916020019161073e565b820191906000526020600020905b81548152906001019060200180831161072157829003601f168201915b5050505050905090565b60006006541161078d576040517f08c379a0000000000000000000000000000000000000000000000000000000008152600401610784906114dc565b60405180910390fd5b6000670de0b6b3a7640000826107a3919061152b565b6006546107b0919061155c565b905080600560009054906101000a900473ffffffffffffffffffffffffffffffffffffffff1673ffffffffffffffffffffffffffffffffffffffff166370a08231336040518263ffffffff1660e01b815260040161080e919061140a565b602060405180830381865afa15801561082b573d6000803e3d6000fd5b505050506040513d601f19601f8201168201806040525081019061084f919061143a565b1015610890576040517f08c379a0000000000000000000000000000000000000000000000000000000008152600401610887906115ea565b60405180910390fd5b600560009054906101000a900473ffffffffffffffffffffffffffffffffffffffff1673ffffffffffffffffffffffffffffffffffffffff1663e3060f2233836040518363ffffffff1660e01b81526004016108ed92919061137e565b600060405180830381600087803b15801561090757600080fd5b505af115801561091b573d6000803e3d6000fd5b5050505061092a303384610d06565b816007600082825461093c919061160a565b925050819055507f3e64894fe8c3ea8a2a33a9598d5fe31583ae989e770af72e68c990679a8a412a3033846040516109769392919061163e565b60405180910390a15050565b60008061098d610aa9565b9050600061099b8286610a1c565b9050838110156109e0576040517f08c379a00000000000000000000000000000000000000000000000000000000081526004016109d7906116e7565b60405180910390fd5b6109ed8286868403610ab1565b60019250505092915050565b600080610a04610aa9565b9050610a11818585610d06565b600191505092915050565b6000600160008473ffffffffffffffffffffffffffffffffffffffff1673ffffffffffffffffffffffffffffffffffffffff16815260200190815260200160002060008373ffffffffffffffffffffffffffffffffffffffff1673ffffffffffffffffffffffffffffffffffffffff16815260200190815260200160002054905092915050565b60065481565b600033905090565b600073ffffffffffffffffffffffffffffffffffffffff168373ffffffffffffffffffffffffffffffffffffffff1603610b20576040517f08c379a0000000000000000000000000000000000000000000000000000000008152600401610b1790611779565b60405180910390fd5b600073ffffffffffffffffffffffffffffffffffffffff168273ffffffffffffffffffffffffffffffffffffffff1603610b8f576040517f08c379a0000000000000000000000000000000000000000000000000000000008152600401610b869061180b565b60405180910390fd5b80600160008573ffffffffffffffffffffffffffffffffffffffff1673ffffffffffffffffffffffffffffffffffffffff16815260200190815260200160002060008473ffffffffffffffffffffffffffffffffffffffff1673ffffffffffffffffffffffffffffffffffffffff168152602001908152602001600020819055508173ffffffffffffffffffffffffffffffffffffffff168373ffffffffffffffffffffffffffffffffffffffff167f8c5be1e5ebec7d5bd14f71427d1e84f3dd0314c0f7b2291e5b200ac8c7c3b92583604051610c6d9190611156565b60405180910390a3505050565b6000610c868484610a1c565b90507fffffffffffffffffffffffffffffffffffffffffffffffffffffffffffffffff8114610d005781811015610cf2576040517f08c379a0000000000000000000000000000000000000000000000000000000008152600401610ce990611877565b60405180910390fd5b610cff8484848403610ab1565b5b50505050565b600073ffffffffffffffffffffffffffffffffffffffff168373ffffffffffffffffffffffffffffffffffffffff1603610d75576040517f08c379a0000000000000000000000000000000000000000000000000000000008152600401610d6c90611909565b60405180910390fd5b600073ffffffffffffffffffffffffffffffffffffffff168273ffffffffffffffffffffffffffffffffffffffff1603610de4576040517f08c379a0000000000000000000000000000000000000000000000000000000008152600401610ddb9061199b565b60405180910390fd5b610def838383610f7c565b60008060008573ffffffffffffffffffffffffffffffffffffffff1673ffffffffffffffffffffffffffffffffffffffff16815260200190815260200160002054905081811015610e75576040517f08c379a0000000000000000000000000000000000000000000000000000000008152600401610e6c90611a2d565b60405180910390fd5b8181036000808673ffffffffffffffffffffffffffffffffffffffff1673ffffffffffffffffffffffffffffffffffffffff16815260200190815260200160002081905550816000808573ffffffffffffffffffffffffffffffffffffffff1673ffffffffffffffffffffffffffffffffffffffff168152602001908152602001600020600082825401925050819055508273ffffffffffffffffffffffffffffffffffffffff168473ffffffffffffffffffffffffffffffffffffffff167fddf252ad1be2c89b69c2b068fc378daa952ba7f163c4a11628f55a4df523b3ef84604051610f639190611156565b60405180910390a3610f76848484610f81565b50505050565b505050565b505050565b600081519050919050565b600082825260208201905092915050565b60005b83811015610fc0578082015181840152602081019050610fa5565b60008484015250505050565b6000601f19601f8301169050919050565b6000610fe882610f86565b610ff28185610f91565b9350611002818560208601610fa2565b61100b81610fcc565b840191505092915050565b600060208201905081810360008301526110308184610fdd565b905092915050565b600080fd5b600073ffffffffffffffffffffffffffffffffffffffff82169050919050565b60006110688261103d565b9050919050565b6110788161105d565b811461108357600080fd5b50565b6000813590506110958161106f565b92915050565b6000819050919050565b6110ae8161109b565b81146110b957600080fd5b50565b6000813590506110cb816110a5565b92915050565b600080604083850312156110e8576110e7611038565b5b60006110f685828601611086565b9250506020611107858286016110bc565b9150509250929050565b60008115159050919050565b61112681611111565b82525050565b6000602082019050611141600083018461111d565b92915050565b6111508161109b565b82525050565b600060208201905061116b6000830184611147565b92915050565b60008060006060848603121561118a57611189611038565b5b600061119886828701611086565b93505060206111a986828701611086565b92505060406111ba868287016110bc565b9150509250925092565b6000602082840312156111da576111d9611038565b5b60006111e8848285016110bc565b91505092915050565b600060ff82169050919050565b611207816111f1565b82525050565b600060208201905061122260008301846111fe565b92915050565b6000819050919050565b600061124d6112486112438461103d565b611228565b61103d565b9050919050565b600061125f82611232565b9050919050565b600061127182611254565b9050919050565b61128181611266565b82525050565b600060208201905061129c6000830184611278565b92915050565b6000602082840312156112b8576112b7611038565b5b60006112c684828501611086565b91505092915050565b600080604083850312156112e6576112e5611038565b5b60006112f485828601611086565b925050602061130585828601611086565b9150509250929050565b7f4e487b7100000000000000000000000000000000000000000000000000000000600052602260045260246000fd5b6000600282049050600182168061135657607f821691505b6020821081036113695761136861130f565b5b50919050565b6113788161105d565b82525050565b6000604082019050611393600083018561136f565b6113a06020830184611147565b9392505050565b7f4e487b7100000000000000000000000000000000000000000000000000000000600052601160045260246000fd5b60006113e18261109b565b91506113ec8361109b565b9250828201905080821115611404576114036113a7565b5b92915050565b600060208201905061141f600083018461136f565b92915050565b600081519050611434816110a5565b92915050565b6000602082840312156114505761144f611038565b5b600061145e84828501611425565b91505092915050565b600060408201905061147c600083018561136f565b611489602083018461136f565b9392505050565b7f45474f4c44205072696365206e6f742073657400000000000000000000000000600082015250565b60006114c6601383610f91565b91506114d182611490565b602082019050919050565b600060208201905081810360008301526114f5816114b9565b9050919050565b7f4e487b7100000000000000000000000000000000000000000000000000000000600052601260045260246000fd5b60006115368261109b565b91506115418361109b565b925082611551576115506114fc565b5b828204905092915050565b60006115678261109b565b91506115728361109b565b92508282026115808161109b565b91508282048414831517611597576115966113a7565b5b5092915050565b7f496e737566666369656e742042616c616e636500000000000000000000000000600082015250565b60006115d4601383610f91565b91506115df8261159e565b602082019050919050565b60006020820190508181036000830152611603816115c7565b9050919050565b60006116158261109b565b91506116208361109b565b9250828203905081811115611638576116376113a7565b5b92915050565b6000606082019050611653600083018661136f565b611660602083018561136f565b61166d6040830184611147565b949350505050565b7f45524332303a2064656372656173656420616c6c6f77616e63652062656c6f7760008201527f207a65726f000000000000000000000000000000000000000000000000000000602082015250565b60006116d1602583610f91565b91506116dc82611675565b604082019050919050565b60006020820190508181036000830152611700816116c4565b9050919050565b7f45524332303a20617070726f76652066726f6d20746865207a65726f2061646460008201527f7265737300000000000000000000000000000000000000000000000000000000602082015250565b6000611763602483610f91565b915061176e82611707565b604082019050919050565b6000602082019050818103600083015261179281611756565b9050919050565b7f45524332303a20617070726f766520746f20746865207a65726f20616464726560008201527f7373000000000000000000000000000000000000000000000000000000000000602082015250565b60006117f5602283610f91565b915061180082611799565b604082019050919050565b60006020820190508181036000830152611824816117e8565b9050919050565b7f45524332303a20696e73756666696369656e7420616c6c6f77616e6365000000600082015250565b6000611861601d83610f91565b915061186c8261182b565b602082019050919050565b6000602082019050818103600083015261189081611854565b9050919050565b7f45524332303a207472616e736665722066726f6d20746865207a65726f20616460008201527f6472657373000000000000000000000000000000000000000000000000000000602082015250565b60006118f3602583610f91565b91506118fe82611897565b604082019050919050565b60006020820190508181036000830152611922816118e6565b9050919050565b7f45524332303a207472616e7366657220746f20746865207a65726f206164647260008201527f6573730000000000000000000000000000000000000000000000000000000000602082015250565b6000611985602383610f91565b915061199082611929565b604082019050919050565b600060208201905081810360008301526119b481611978565b9050919050565b7f45524332303a207472616e7366657220616d6f756e742065786365656473206260008201527f616c616e63650000000000000000000000000000000000000000000000000000602082015250565b6000611a17602683610f91565b9150611a22826119bb565b604082019050919050565b60006020820190508181036000830152611a4681611a0a565b905091905056fea2646970667358221220dbd548231b6f701a2359be268493f84a25d20ba336ea0037e369111ba5e6b59f64736f6c63430008110033",
  "immutableReferences": {},
  "source": "//SPDX-License-Identifier: MIT\n\npragma solidity ^0.8.17;\n\nimport \"@openzeppelin/contracts/token/ERC20/ERC20.sol\";\nimport \"./EINR.sol\";\n\ncontract EGOLDContract is ERC20 {\n    event Minted(address _to, uint256 _amount);\n    event EINRAddressSet(address _setBy, address _EGOLDAdd);\n    event EGOLDPriceSet(address _setBy, uint256 _EGOLDPrice);\n    event EGOLDTransfer(address _from, address _to, uint256 _amount);\n\n    EINRContract public _EINR;\n    uint256 public EGoldPrice;\n    uint256 public availableSupply;\n\n    constructor() ERC20(\"EGOLD\", \"EGOLD\") {\n        uint256 _amount = 1000000 * 10**18;\n        _mint(address(this), _amount);\n        emit Minted(address(this), _amount);\n        availableSupply = totalSupply();\n    }\n\n    function setEINR(address _Einr) public {\n        _EINR = EINRContract(_Einr);\n        emit EINRAddressSet(msg.sender, _Einr);\n    }\n\n    function setGoldPrice(uint256 _price) public {\n        EGoldPrice = _price;\n        emit EGOLDPriceSet(msg.sender, EGoldPrice);\n    }\n\n    function buyGold(uint256 _GoldAmount) public {\n        require(EGoldPrice > 0, \"EGOLD Price not set\");\n        uint256 totalEINR = EGoldPrice * (_GoldAmount / 10**18);\n        require(\n            _EINR.balanceOf(msg.sender) >= totalEINR,\n            \"Insuffcient Balance\"\n        );\n        _EINR.transferBal(msg.sender, totalEINR);\n        _transfer(address(this), msg.sender, _GoldAmount);\n        availableSupply -= _GoldAmount;\n        emit EGOLDTransfer(address(this), msg.sender, _GoldAmount);\n    }\n\n    function BalEINR() public view returns (uint256) {\n        return (_EINR.balanceOf(address(this)));\n    }\n}\n",
  "sourcePath": "/home/neosoft/S/EGOLD-EINR-POC/solidity/contracts/EGOLD.sol",
  "compiler": {
    "name": "solc",
    "version": "0.8.17+commit.8df45f5f.Emscripten.clang"
  },
  "schemaVersion": "3.4.11",
  "updatedAt": "2023-01-12T09:22:57.986Z",
  "networkType": "ethereum",
  "devdoc": {
    "kind": "dev",
    "methods": {
      "allowance(address,address)": {
        "details": "See {IERC20-allowance}."
      },
      "approve(address,uint256)": {
        "details": "See {IERC20-approve}. NOTE: If `amount` is the maximum `uint256`, the allowance is not updated on `transferFrom`. This is semantically equivalent to an infinite approval. Requirements: - `spender` cannot be the zero address."
      },
      "balanceOf(address)": {
        "details": "See {IERC20-balanceOf}."
      },
      "decimals()": {
        "details": "Returns the number of decimals used to get its user representation. For example, if `decimals` equals `2`, a balance of `505` tokens should be displayed to a user as `5.05` (`505 / 10 ** 2`). Tokens usually opt for a value of 18, imitating the relationship between Ether and Wei. This is the value {ERC20} uses, unless this function is overridden; NOTE: This information is only used for _display_ purposes: it in no way affects any of the arithmetic of the contract, including {IERC20-balanceOf} and {IERC20-transfer}."
      },
      "decreaseAllowance(address,uint256)": {
        "details": "Atomically decreases the allowance granted to `spender` by the caller. This is an alternative to {approve} that can be used as a mitigation for problems described in {IERC20-approve}. Emits an {Approval} event indicating the updated allowance. Requirements: - `spender` cannot be the zero address. - `spender` must have allowance for the caller of at least `subtractedValue`."
      },
      "increaseAllowance(address,uint256)": {
        "details": "Atomically increases the allowance granted to `spender` by the caller. This is an alternative to {approve} that can be used as a mitigation for problems described in {IERC20-approve}. Emits an {Approval} event indicating the updated allowance. Requirements: - `spender` cannot be the zero address."
      },
      "name()": {
        "details": "Returns the name of the token."
      },
      "symbol()": {
        "details": "Returns the symbol of the token, usually a shorter version of the name."
      },
      "totalSupply()": {
        "details": "See {IERC20-totalSupply}."
      },
      "transfer(address,uint256)": {
        "details": "See {IERC20-transfer}. Requirements: - `to` cannot be the zero address. - the caller must have a balance of at least `amount`."
      },
      "transferFrom(address,address,uint256)": {
        "details": "See {IERC20-transferFrom}. Emits an {Approval} event indicating the updated allowance. This is not required by the EIP. See the note at the beginning of {ERC20}. NOTE: Does not update the allowance if the current allowance is the maximum `uint256`. Requirements: - `from` and `to` cannot be the zero address. - `from` must have a balance of at least `amount`. - the caller must have allowance for ``from``'s tokens of at least `amount`."
      }
    },
    "version": 1
  },
  "userdoc": {
    "kind": "user",
    "methods": {},
    "version": 1
  }
}