{
  "contractName": "EINRContract",
  "abi": [
    {
      "inputs": [],
      "stateMutability": "nonpayable",
      "type": "constructor"
    },
    {
      "anonymous": false,
      "inputs": [
        {
          "indexed": true,
          "internalType": "address",
          "name": "owner",
          "type": "address"
        },
        {
          "indexed": true,
          "internalType": "address",
          "name": "spender",
          "type": "address"
        },
        {
          "indexed": false,
          "internalType": "uint256",
          "name": "value",
          "type": "uint256"
        }
      ],
      "name": "Approval",
      "type": "event"
    },
    {
      "anonymous": false,
      "inputs": [
        {
          "indexed": true,
          "internalType": "address",
          "name": "_setBy",
          "type": "address"
        },
        {
          "indexed": true,
          "internalType": "address",
          "name": "_EGOLDAdd",
          "type": "address"
        }
      ],
      "name": "EGOLDAddressSet",
      "type": "event"
    },
    {
      "anonymous": false,
      "inputs": [
        {
          "indexed": true,
          "internalType": "address",
          "name": "_to",
          "type": "address"
        },
        {
          "indexed": false,
          "internalType": "uint256",
          "name": "_amount",
          "type": "uint256"
        }
      ],
      "name": "Minted",
      "type": "event"
    },
    {
      "anonymous": false,
      "inputs": [
        {
          "indexed": true,
          "internalType": "address",
          "name": "from",
          "type": "address"
        },
        {
          "indexed": true,
          "internalType": "address",
          "name": "to",
          "type": "address"
        },
        {
          "indexed": false,
          "internalType": "uint256",
          "name": "value",
          "type": "uint256"
        }
      ],
      "name": "Transfer",
      "type": "event"
    },
    {
      "anonymous": false,
      "inputs": [
        {
          "indexed": true,
          "internalType": "address",
          "name": "_from",
          "type": "address"
        },
        {
          "indexed": false,
          "internalType": "address",
          "name": "_to",
          "type": "address"
        },
        {
          "indexed": false,
          "internalType": "uint256",
          "name": "_amount",
          "type": "uint256"
        }
      ],
      "name": "TransferEINRtoEGOLD",
      "type": "event"
    },
    {
      "inputs": [],
      "name": "EGOLD",
      "outputs": [
        {
          "internalType": "address",
          "name": "",
          "type": "address"
        }
      ],
      "stateMutability": "view",
      "type": "function",
      "constant": true
    },
    {
      "inputs": [
        {
          "internalType": "address",
          "name": "owner",
          "type": "address"
        },
        {
          "internalType": "address",
          "name": "spender",
          "type": "address"
        }
      ],
      "name": "allowance",
      "outputs": [
        {
          "internalType": "uint256",
          "name": "",
          "type": "uint256"
        }
      ],
      "stateMutability": "view",
      "type": "function",
      "constant": true
    },
    {
      "inputs": [
        {
          "internalType": "address",
          "name": "spender",
          "type": "address"
        },
        {
          "internalType": "uint256",
          "name": "amount",
          "type": "uint256"
        }
      ],
      "name": "approve",
      "outputs": [
        {
          "internalType": "bool",
          "name": "",
          "type": "bool"
        }
      ],
      "stateMutability": "nonpayable",
      "type": "function"
    },
    {
      "inputs": [
        {
          "internalType": "address",
          "name": "account",
          "type": "address"
        }
      ],
      "name": "balanceOf",
      "outputs": [
        {
          "internalType": "uint256",
          "name": "",
          "type": "uint256"
        }
      ],
      "stateMutability": "view",
      "type": "function",
      "constant": true
    },
    {
      "inputs": [],
      "name": "decimals",
      "outputs": [
        {
          "internalType": "uint8",
          "name": "",
          "type": "uint8"
        }
      ],
      "stateMutability": "view",
      "type": "function",
      "constant": true
    },
    {
      "inputs": [
        {
          "internalType": "address",
          "name": "spender",
          "type": "address"
        },
        {
          "internalType": "uint256",
          "name": "subtractedValue",
          "type": "uint256"
        }
      ],
      "name": "decreaseAllowance",
      "outputs": [
        {
          "internalType": "bool",
          "name": "",
          "type": "bool"
        }
      ],
      "stateMutability": "nonpayable",
      "type": "function"
    },
    {
      "inputs": [
        {
          "internalType": "address",
          "name": "spender",
          "type": "address"
        },
        {
          "internalType": "uint256",
          "name": "addedValue",
          "type": "uint256"
        }
      ],
      "name": "increaseAllowance",
      "outputs": [
        {
          "internalType": "bool",
          "name": "",
          "type": "bool"
        }
      ],
      "stateMutability": "nonpayable",
      "type": "function"
    },
    {
      "inputs": [],
      "name": "name",
      "outputs": [
        {
          "internalType": "string",
          "name": "",
          "type": "string"
        }
      ],
      "stateMutability": "view",
      "type": "function",
      "constant": true
    },
    {
      "inputs": [],
      "name": "symbol",
      "outputs": [
        {
          "internalType": "string",
          "name": "",
          "type": "string"
        }
      ],
      "stateMutability": "view",
      "type": "function",
      "constant": true
    },
    {
      "inputs": [],
      "name": "totalSupply",
      "outputs": [
        {
          "internalType": "uint256",
          "name": "",
          "type": "uint256"
        }
      ],
      "stateMutability": "view",
      "type": "function",
      "constant": true
    },
    {
      "inputs": [
        {
          "internalType": "address",
          "name": "to",
          "type": "address"
        },
        {
          "internalType": "uint256",
          "name": "amount",
          "type": "uint256"
        }
      ],
      "name": "transfer",
      "outputs": [
        {
          "internalType": "bool",
          "name": "",
          "type": "bool"
        }
      ],
      "stateMutability": "nonpayable",
      "type": "function"
    },
    {
      "inputs": [
        {
          "internalType": "address",
          "name": "from",
          "type": "address"
        },
        {
          "internalType": "address",
          "name": "to",
          "type": "address"
        },
        {
          "internalType": "uint256",
          "name": "amount",
          "type": "uint256"
        }
      ],
      "name": "transferFrom",
      "outputs": [
        {
          "internalType": "bool",
          "name": "",
          "type": "bool"
        }
      ],
      "stateMutability": "nonpayable",
      "type": "function"
    },
    {
      "inputs": [
        {
          "internalType": "uint256",
          "name": "_amount",
          "type": "uint256"
        }
      ],
      "name": "mint",
      "outputs": [],
      "stateMutability": "nonpayable",
      "type": "function"
    },
    {
      "inputs": [
        {
          "internalType": "address",
          "name": "_Egold",
          "type": "address"
        }
      ],
      "name": "setEGOLD",
      "outputs": [],
      "stateMutability": "nonpayable",
      "type": "function"
    },
    {
      "inputs": [
        {
          "internalType": "address",
          "name": "_from",
          "type": "address"
        },
        {
          "internalType": "uint256",
          "name": "_amount",
          "type": "uint256"
        }
      ],
      "name": "transferBal",
      "outputs": [],
      "stateMutability": "nonpayable",
      "type": "function"
    }
  ],
  "bytecode": "0x60806040523480156200001157600080fd5b506040518060400160405280600481526020017f45494e52000000000000000000000000000000000000000000000000000000008152506040518060400160405280600481526020017f45494e520000000000000000000000000000000000000000000000000000000081525081600390816200008f919062000324565b508060049081620000a1919062000324565b5050506200040b565b600081519050919050565b7f4e487b7100000000000000000000000000000000000000000000000000000000600052604160045260246000fd5b7f4e487b7100000000000000000000000000000000000000000000000000000000600052602260045260246000fd5b600060028204905060018216806200012c57607f821691505b602082108103620001425762000141620000e4565b5b50919050565b60008190508160005260206000209050919050565b60006020601f8301049050919050565b600082821b905092915050565b600060088302620001ac7fffffffffffffffffffffffffffffffffffffffffffffffffffffffffffffffff826200016d565b620001b886836200016d565b95508019841693508086168417925050509392505050565b6000819050919050565b6000819050919050565b600062000205620001ff620001f984620001d0565b620001da565b620001d0565b9050919050565b6000819050919050565b6200022183620001e4565b6200023962000230826200020c565b8484546200017a565b825550505050565b600090565b6200025062000241565b6200025d81848462000216565b505050565b5b8181101562000285576200027960008262000246565b60018101905062000263565b5050565b601f821115620002d4576200029e8162000148565b620002a9846200015d565b81016020851015620002b9578190505b620002d1620002c8856200015d565b83018262000262565b50505b505050565b600082821c905092915050565b6000620002f960001984600802620002d9565b1980831691505092915050565b6000620003148383620002e6565b9150826002028217905092915050565b6200032f82620000aa565b67ffffffffffffffff8111156200034b576200034a620000b5565b5b62000357825462000113565b6200036482828562000289565b600060209050601f8311600181146200039c576000841562000387578287015190505b62000393858262000306565b86555062000403565b601f198416620003ac8662000148565b60005b82811015620003d657848901518255600182019150602085019450602081019050620003af565b86831015620003f65784890151620003f2601f891682620002e6565b8355505b6001600288020188555050505b505050505050565b6117ed806200041b6000396000f3fe608060405234801561001057600080fd5b50600436106100f55760003560e01c806395d89b4111610097578063dd62ed3e11610066578063dd62ed3e146102ae578063e3060f22146102de578063ebd43aa4146102fa578063fc0b660314610318576100f5565b806395d89b4114610214578063a0712d6814610232578063a457c2d71461024e578063a9059cbb1461027e576100f5565b806323b872dd116100d357806323b872dd14610166578063313ce5671461019657806339509351146101b457806370a08231146101e4576100f5565b806306fdde03146100fa578063095ea7b31461011857806318160ddd14610148575b600080fd5b610102610334565b60405161010f9190610f72565b60405180910390f35b610132600480360381019061012d919061102d565b6103c6565b60405161013f9190611088565b60405180910390f35b6101506103e9565b60405161015d91906110b2565b60405180910390f35b610180600480360381019061017b91906110cd565b6103f3565b60405161018d9190611088565b60405180910390f35b61019e610422565b6040516101ab919061113c565b60405180910390f35b6101ce60048036038101906101c9919061102d565b61042b565b6040516101db9190611088565b60405180910390f35b6101fe60048036038101906101f99190611157565b610462565b60405161020b91906110b2565b60405180910390f35b61021c6104aa565b6040516102299190610f72565b60405180910390f35b61024c60048036038101906102479190611184565b61053c565b005b6102686004803603810190610263919061102d565b610597565b6040516102759190611088565b60405180910390f35b6102986004803603810190610293919061102d565b61060e565b6040516102a59190611088565b60405180910390f35b6102c860048036038101906102c391906111b1565b610631565b6040516102d591906110b2565b60405180910390f35b6102f860048036038101906102f3919061102d565b6106b8565b005b6103026107eb565b60405161030f9190611200565b60405180910390f35b610332600480360381019061032d9190611157565b610811565b005b6060600380546103439061124a565b80601f016020809104026020016040519081016040528092919081815260200182805461036f9061124a565b80156103bc5780601f10610391576101008083540402835291602001916103bc565b820191906000526020600020905b81548152906001019060200180831161039f57829003601f168201915b5050505050905090565b6000806103d16108af565b90506103de8185856108b7565b600191505092915050565b6000600254905090565b6000806103fe6108af565b905061040b858285610a80565b610416858585610b0c565b60019150509392505050565b60006012905090565b6000806104366108af565b90506104578185856104488589610631565b61045291906112aa565b6108b7565b600191505092915050565b60008060008373ffffffffffffffffffffffffffffffffffffffff1673ffffffffffffffffffffffffffffffffffffffff168152602001908152602001600020549050919050565b6060600480546104b99061124a565b80601f01602080910402602001604051908101604052809291908181526020018280546104e59061124a565b80156105325780601f1061050757610100808354040283529160200191610532565b820191906000526020600020905b81548152906001019060200180831161051557829003601f168201915b5050505050905090565b6105463382610d82565b3373ffffffffffffffffffffffffffffffffffffffff167f30385c845b448a36257a6a1716e6ad2e1bc2cbe333cde1e69fe849ad6511adfe8260405161058c91906110b2565b60405180910390a250565b6000806105a26108af565b905060006105b08286610631565b9050838110156105f5576040517f08c379a00000000000000000000000000000000000000000000000000000000081526004016105ec90611350565b60405180910390fd5b61060282868684036108b7565b60019250505092915050565b6000806106196108af565b9050610626818585610b0c565b600191505092915050565b6000600160008473ffffffffffffffffffffffffffffffffffffffff1673ffffffffffffffffffffffffffffffffffffffff16815260200190815260200160002060008373ffffffffffffffffffffffffffffffffffffffff1673ffffffffffffffffffffffffffffffffffffffff16815260200190815260200160002054905092915050565b600560009054906101000a900473ffffffffffffffffffffffffffffffffffffffff1673ffffffffffffffffffffffffffffffffffffffff163373ffffffffffffffffffffffffffffffffffffffff1614610748576040517f08c379a000000000000000000000000000000000000000000000000000000000815260040161073f906113bc565b60405180910390fd5b61077582600560009054906101000a900473ffffffffffffffffffffffffffffffffffffffff1683610b0c565b8173ffffffffffffffffffffffffffffffffffffffff167fd304361b7e84a0287f72989cb5935c7a3eec5a552d618ec9fc9ccbc38e1b44ac600560009054906101000a900473ffffffffffffffffffffffffffffffffffffffff16836040516107df9291906113dc565b60405180910390a25050565b600560009054906101000a900473ffffffffffffffffffffffffffffffffffffffff1681565b80600560006101000a81548173ffffffffffffffffffffffffffffffffffffffff021916908373ffffffffffffffffffffffffffffffffffffffff1602179055508073ffffffffffffffffffffffffffffffffffffffff163373ffffffffffffffffffffffffffffffffffffffff167f1a39a6a28d1e705ead0724cdfd9ebcc94efb208766e6cecb347d3fb3ed7307f960405160405180910390a350565b600033905090565b600073ffffffffffffffffffffffffffffffffffffffff168373ffffffffffffffffffffffffffffffffffffffff1603610926576040517f08c379a000000000000000000000000000000000000000000000000000000000815260040161091d90611477565b60405180910390fd5b600073ffffffffffffffffffffffffffffffffffffffff168273ffffffffffffffffffffffffffffffffffffffff1603610995576040517f08c379a000000000000000000000000000000000000000000000000000000000815260040161098c90611509565b60405180910390fd5b80600160008573ffffffffffffffffffffffffffffffffffffffff1673ffffffffffffffffffffffffffffffffffffffff16815260200190815260200160002060008473ffffffffffffffffffffffffffffffffffffffff1673ffffffffffffffffffffffffffffffffffffffff168152602001908152602001600020819055508173ffffffffffffffffffffffffffffffffffffffff168373ffffffffffffffffffffffffffffffffffffffff167f8c5be1e5ebec7d5bd14f71427d1e84f3dd0314c0f7b2291e5b200ac8c7c3b92583604051610a7391906110b2565b60405180910390a3505050565b6000610a8c8484610631565b90507fffffffffffffffffffffffffffffffffffffffffffffffffffffffffffffffff8114610b065781811015610af8576040517f08c379a0000000000000000000000000000000000000000000000000000000008152600401610aef90611575565b60405180910390fd5b610b0584848484036108b7565b5b50505050565b600073ffffffffffffffffffffffffffffffffffffffff168373ffffffffffffffffffffffffffffffffffffffff1603610b7b576040517f08c379a0000000000000000000000000000000000000000000000000000000008152600401610b7290611607565b60405180910390fd5b600073ffffffffffffffffffffffffffffffffffffffff168273ffffffffffffffffffffffffffffffffffffffff1603610bea576040517f08c379a0000000000000000000000000000000000000000000000000000000008152600401610be190611699565b60405180910390fd5b610bf5838383610ed8565b60008060008573ffffffffffffffffffffffffffffffffffffffff1673ffffffffffffffffffffffffffffffffffffffff16815260200190815260200160002054905081811015610c7b576040517f08c379a0000000000000000000000000000000000000000000000000000000008152600401610c729061172b565b60405180910390fd5b8181036000808673ffffffffffffffffffffffffffffffffffffffff1673ffffffffffffffffffffffffffffffffffffffff16815260200190815260200160002081905550816000808573ffffffffffffffffffffffffffffffffffffffff1673ffffffffffffffffffffffffffffffffffffffff168152602001908152602001600020600082825401925050819055508273ffffffffffffffffffffffffffffffffffffffff168473ffffffffffffffffffffffffffffffffffffffff167fddf252ad1be2c89b69c2b068fc378daa952ba7f163c4a11628f55a4df523b3ef84604051610d6991906110b2565b60405180910390a3610d7c848484610edd565b50505050565b600073ffffffffffffffffffffffffffffffffffffffff168273ffffffffffffffffffffffffffffffffffffffff1603610df1576040517f08c379a0000000000000000000000000000000000000000000000000000000008152600401610de890611797565b60405180910390fd5b610dfd60008383610ed8565b8060026000828254610e0f91906112aa565b92505081905550806000808473ffffffffffffffffffffffffffffffffffffffff1673ffffffffffffffffffffffffffffffffffffffff168152602001908152602001600020600082825401925050819055508173ffffffffffffffffffffffffffffffffffffffff16600073ffffffffffffffffffffffffffffffffffffffff167fddf252ad1be2c89b69c2b068fc378daa952ba7f163c4a11628f55a4df523b3ef83604051610ec091906110b2565b60405180910390a3610ed460008383610edd565b5050565b505050565b505050565b600081519050919050565b600082825260208201905092915050565b60005b83811015610f1c578082015181840152602081019050610f01565b60008484015250505050565b6000601f19601f8301169050919050565b6000610f4482610ee2565b610f4e8185610eed565b9350610f5e818560208601610efe565b610f6781610f28565b840191505092915050565b60006020820190508181036000830152610f8c8184610f39565b905092915050565b600080fd5b600073ffffffffffffffffffffffffffffffffffffffff82169050919050565b6000610fc482610f99565b9050919050565b610fd481610fb9565b8114610fdf57600080fd5b50565b600081359050610ff181610fcb565b92915050565b6000819050919050565b61100a81610ff7565b811461101557600080fd5b50565b60008135905061102781611001565b92915050565b6000806040838503121561104457611043610f94565b5b600061105285828601610fe2565b925050602061106385828601611018565b9150509250929050565b60008115159050919050565b6110828161106d565b82525050565b600060208201905061109d6000830184611079565b92915050565b6110ac81610ff7565b82525050565b60006020820190506110c760008301846110a3565b92915050565b6000806000606084860312156110e6576110e5610f94565b5b60006110f486828701610fe2565b935050602061110586828701610fe2565b925050604061111686828701611018565b9150509250925092565b600060ff82169050919050565b61113681611120565b82525050565b6000602082019050611151600083018461112d565b92915050565b60006020828403121561116d5761116c610f94565b5b600061117b84828501610fe2565b91505092915050565b60006020828403121561119a57611199610f94565b5b60006111a884828501611018565b91505092915050565b600080604083850312156111c8576111c7610f94565b5b60006111d685828601610fe2565b92505060206111e785828601610fe2565b9150509250929050565b6111fa81610fb9565b82525050565b600060208201905061121560008301846111f1565b92915050565b7f4e487b7100000000000000000000000000000000000000000000000000000000600052602260045260246000fd5b6000600282049050600182168061126257607f821691505b6020821081036112755761127461121b565b5b50919050565b7f4e487b7100000000000000000000000000000000000000000000000000000000600052601160045260246000fd5b60006112b582610ff7565b91506112c083610ff7565b92508282019050808211156112d8576112d761127b565b5b92915050565b7f45524332303a2064656372656173656420616c6c6f77616e63652062656c6f7760008201527f207a65726f000000000000000000000000000000000000000000000000000000602082015250565b600061133a602583610eed565b9150611345826112de565b604082019050919050565b600060208201905081810360008301526113698161132d565b9050919050565b7f6f6e6c792045474f4c4420636f6e747261637400000000000000000000000000600082015250565b60006113a6601383610eed565b91506113b182611370565b602082019050919050565b600060208201905081810360008301526113d581611399565b9050919050565b60006040820190506113f160008301856111f1565b6113fe60208301846110a3565b9392505050565b7f45524332303a20617070726f76652066726f6d20746865207a65726f2061646460008201527f7265737300000000000000000000000000000000000000000000000000000000602082015250565b6000611461602483610eed565b915061146c82611405565b604082019050919050565b6000602082019050818103600083015261149081611454565b9050919050565b7f45524332303a20617070726f766520746f20746865207a65726f20616464726560008201527f7373000000000000000000000000000000000000000000000000000000000000602082015250565b60006114f3602283610eed565b91506114fe82611497565b604082019050919050565b60006020820190508181036000830152611522816114e6565b9050919050565b7f45524332303a20696e73756666696369656e7420616c6c6f77616e6365000000600082015250565b600061155f601d83610eed565b915061156a82611529565b602082019050919050565b6000602082019050818103600083015261158e81611552565b9050919050565b7f45524332303a207472616e736665722066726f6d20746865207a65726f20616460008201527f6472657373000000000000000000000000000000000000000000000000000000602082015250565b60006115f1602583610eed565b91506115fc82611595565b604082019050919050565b60006020820190508181036000830152611620816115e4565b9050919050565b7f45524332303a207472616e7366657220746f20746865207a65726f206164647260008201527f6573730000000000000000000000000000000000000000000000000000000000602082015250565b6000611683602383610eed565b915061168e82611627565b604082019050919050565b600060208201905081810360008301526116b281611676565b9050919050565b7f45524332303a207472616e7366657220616d6f756e742065786365656473206260008201527f616c616e63650000000000000000000000000000000000000000000000000000602082015250565b6000611715602683610eed565b9150611720826116b9565b604082019050919050565b6000602082019050818103600083015261174481611708565b9050919050565b7f45524332303a206d696e7420746f20746865207a65726f206164647265737300600082015250565b6000611781601f83610eed565b915061178c8261174b565b602082019050919050565b600060208201905081810360008301526117b081611774565b905091905056fea264697066735822122020bd444610a40ada4c24fabfa522810c1df9af1bf755ef9f3b830fd819621ee764736f6c63430008110033",
  "immutableReferences": {},
  "source": "//SPDX-License-Identifier: MIT\n\npragma solidity ^0.8.17;\n\nimport \"@openzeppelin/contracts/token/ERC20/ERC20.sol\";\n\ncontract EINRContract is ERC20{\n    event Minted(address indexed _to, uint256 _amount);\n    event EGOLDAddressSet(address indexed _setBy, address indexed _EGOLDAdd);\n    event TransferEINRtoEGOLD(address indexed _from, address _to, uint256 _amount);\n\n    address public EGOLD;\n\n\n    constructor()ERC20(\"EINR\", \"EINR\"){}\n\n    modifier onlyEGOLD() {\n        require(msg.sender == EGOLD, \"only EGOLD contract\");\n        _;\n    }\n\n    function mint(uint256 _amount) public {\n        _mint(msg.sender, _amount);\n        emit Minted(msg.sender, _amount);\n    }\n\n    function setEGOLD(address _Egold) public {\n        EGOLD = _Egold;\n        emit EGOLDAddressSet(msg.sender, _Egold);\n    }\n\n    function transferBal(address _from, uint256 _amount) external onlyEGOLD {\n        _transfer(_from, EGOLD, _amount);\n        emit TransferEINRtoEGOLD(_from, EGOLD, _amount);\n    }\n}\n",
  "sourcePath": "/home/neosoft/S/EGOLD-EINR-POC/solidity/contracts/EINR.sol",
  "compiler": {
    "name": "solc",
    "version": "0.8.17+commit.8df45f5f.Emscripten.clang"
  },
  "schemaVersion": "3.4.11",
  "updatedAt": "2023-02-07T09:04:18.264Z",
  "networkType": "ethereum",
  "devdoc": {
    "kind": "dev",
    "methods": {
      "allowance(address,address)": {
        "details": "See {IERC20-allowance}."
      },
      "approve(address,uint256)": {
        "details": "See {IERC20-approve}. NOTE: If `amount` is the maximum `uint256`, the allowance is not updated on `transferFrom`. This is semantically equivalent to an infinite approval. Requirements: - `spender` cannot be the zero address."
      },
      "balanceOf(address)": {
        "details": "See {IERC20-balanceOf}."
      },
      "decimals()": {
        "details": "Returns the number of decimals used to get its user representation. For example, if `decimals` equals `2`, a balance of `505` tokens should be displayed to a user as `5.05` (`505 / 10 ** 2`). Tokens usually opt for a value of 18, imitating the relationship between Ether and Wei. This is the value {ERC20} uses, unless this function is overridden; NOTE: This information is only used for _display_ purposes: it in no way affects any of the arithmetic of the contract, including {IERC20-balanceOf} and {IERC20-transfer}."
      },
      "decreaseAllowance(address,uint256)": {
        "details": "Atomically decreases the allowance granted to `spender` by the caller. This is an alternative to {approve} that can be used as a mitigation for problems described in {IERC20-approve}. Emits an {Approval} event indicating the updated allowance. Requirements: - `spender` cannot be the zero address. - `spender` must have allowance for the caller of at least `subtractedValue`."
      },
      "increaseAllowance(address,uint256)": {
        "details": "Atomically increases the allowance granted to `spender` by the caller. This is an alternative to {approve} that can be used as a mitigation for problems described in {IERC20-approve}. Emits an {Approval} event indicating the updated allowance. Requirements: - `spender` cannot be the zero address."
      },
      "name()": {
        "details": "Returns the name of the token."
      },
      "symbol()": {
        "details": "Returns the symbol of the token, usually a shorter version of the name."
      },
      "totalSupply()": {
        "details": "See {IERC20-totalSupply}."
      },
      "transfer(address,uint256)": {
        "details": "See {IERC20-transfer}. Requirements: - `to` cannot be the zero address. - the caller must have a balance of at least `amount`."
      },
      "transferFrom(address,address,uint256)": {
        "details": "See {IERC20-transferFrom}. Emits an {Approval} event indicating the updated allowance. This is not required by the EIP. See the note at the beginning of {ERC20}. NOTE: Does not update the allowance if the current allowance is the maximum `uint256`. Requirements: - `from` and `to` cannot be the zero address. - `from` must have a balance of at least `amount`. - the caller must have allowance for ``from``'s tokens of at least `amount`."
      }
    },
    "version": 1
  },
  "userdoc": {
    "kind": "user",
    "methods": {},
    "version": 1
  }
}