{
  "contractName": "EUSDContract",
  "abi": [
    {
      "inputs": [],
      "stateMutability": "nonpayable",
      "type": "constructor"
    },
    {
      "anonymous": false,
      "inputs": [
        {
          "indexed": true,
          "internalType": "address",
          "name": "owner",
          "type": "address"
        },
        {
          "indexed": true,
          "internalType": "address",
          "name": "spender",
          "type": "address"
        },
        {
          "indexed": false,
          "internalType": "uint256",
          "name": "value",
          "type": "uint256"
        }
      ],
      "name": "Approval",
      "type": "event"
    },
    {
      "anonymous": false,
      "inputs": [
        {
          "indexed": true,
          "internalType": "address",
          "name": "_setBy",
          "type": "address"
        },
        {
          "indexed": true,
          "internalType": "address",
          "name": "_EGOLDAdd",
          "type": "address"
        }
      ],
      "name": "EGOLDAddressSet",
      "type": "event"
    },
    {
      "anonymous": false,
      "inputs": [
        {
          "indexed": true,
          "internalType": "address",
          "name": "_owner",
          "type": "address"
        },
        {
          "indexed": true,
          "internalType": "address",
          "name": "_to",
          "type": "address"
        },
        {
          "indexed": true,
          "internalType": "uint256",
          "name": "_amount",
          "type": "uint256"
        }
      ],
      "name": "Minted",
      "type": "event"
    },
    {
      "anonymous": false,
      "inputs": [
        {
          "indexed": true,
          "internalType": "address",
          "name": "previousOwner",
          "type": "address"
        },
        {
          "indexed": true,
          "internalType": "address",
          "name": "newOwner",
          "type": "address"
        }
      ],
      "name": "OwnershipTransferred",
      "type": "event"
    },
    {
      "anonymous": false,
      "inputs": [
        {
          "indexed": true,
          "internalType": "address",
          "name": "from",
          "type": "address"
        },
        {
          "indexed": true,
          "internalType": "address",
          "name": "to",
          "type": "address"
        },
        {
          "indexed": false,
          "internalType": "uint256",
          "name": "value",
          "type": "uint256"
        }
      ],
      "name": "Transfer",
      "type": "event"
    },
    {
      "anonymous": false,
      "inputs": [
        {
          "indexed": true,
          "internalType": "address",
          "name": "_from",
          "type": "address"
        },
        {
          "indexed": false,
          "internalType": "address",
          "name": "_to",
          "type": "address"
        },
        {
          "indexed": false,
          "internalType": "uint256",
          "name": "_amount",
          "type": "uint256"
        }
      ],
      "name": "TransferEUSDtoEGOLD",
      "type": "event"
    },
    {
      "inputs": [],
      "name": "EGOLD",
      "outputs": [
        {
          "internalType": "address",
          "name": "",
          "type": "address"
        }
      ],
      "stateMutability": "view",
      "type": "function",
      "constant": true
    },
    {
      "inputs": [
        {
          "internalType": "address",
          "name": "owner",
          "type": "address"
        },
        {
          "internalType": "address",
          "name": "spender",
          "type": "address"
        }
      ],
      "name": "allowance",
      "outputs": [
        {
          "internalType": "uint256",
          "name": "",
          "type": "uint256"
        }
      ],
      "stateMutability": "view",
      "type": "function",
      "constant": true
    },
    {
      "inputs": [
        {
          "internalType": "address",
          "name": "spender",
          "type": "address"
        },
        {
          "internalType": "uint256",
          "name": "amount",
          "type": "uint256"
        }
      ],
      "name": "approve",
      "outputs": [
        {
          "internalType": "bool",
          "name": "",
          "type": "bool"
        }
      ],
      "stateMutability": "nonpayable",
      "type": "function"
    },
    {
      "inputs": [
        {
          "internalType": "address",
          "name": "account",
          "type": "address"
        }
      ],
      "name": "balanceOf",
      "outputs": [
        {
          "internalType": "uint256",
          "name": "",
          "type": "uint256"
        }
      ],
      "stateMutability": "view",
      "type": "function",
      "constant": true
    },
    {
      "inputs": [],
      "name": "decimals",
      "outputs": [
        {
          "internalType": "uint8",
          "name": "",
          "type": "uint8"
        }
      ],
      "stateMutability": "view",
      "type": "function",
      "constant": true
    },
    {
      "inputs": [
        {
          "internalType": "address",
          "name": "spender",
          "type": "address"
        },
        {
          "internalType": "uint256",
          "name": "subtractedValue",
          "type": "uint256"
        }
      ],
      "name": "decreaseAllowance",
      "outputs": [
        {
          "internalType": "bool",
          "name": "",
          "type": "bool"
        }
      ],
      "stateMutability": "nonpayable",
      "type": "function"
    },
    {
      "inputs": [
        {
          "internalType": "address",
          "name": "spender",
          "type": "address"
        },
        {
          "internalType": "uint256",
          "name": "addedValue",
          "type": "uint256"
        }
      ],
      "name": "increaseAllowance",
      "outputs": [
        {
          "internalType": "bool",
          "name": "",
          "type": "bool"
        }
      ],
      "stateMutability": "nonpayable",
      "type": "function"
    },
    {
      "inputs": [],
      "name": "name",
      "outputs": [
        {
          "internalType": "string",
          "name": "",
          "type": "string"
        }
      ],
      "stateMutability": "view",
      "type": "function",
      "constant": true
    },
    {
      "inputs": [],
      "name": "owner",
      "outputs": [
        {
          "internalType": "address",
          "name": "",
          "type": "address"
        }
      ],
      "stateMutability": "view",
      "type": "function",
      "constant": true
    },
    {
      "inputs": [],
      "name": "renounceOwnership",
      "outputs": [],
      "stateMutability": "nonpayable",
      "type": "function"
    },
    {
      "inputs": [],
      "name": "symbol",
      "outputs": [
        {
          "internalType": "string",
          "name": "",
          "type": "string"
        }
      ],
      "stateMutability": "view",
      "type": "function",
      "constant": true
    },
    {
      "inputs": [],
      "name": "totalSupply",
      "outputs": [
        {
          "internalType": "uint256",
          "name": "",
          "type": "uint256"
        }
      ],
      "stateMutability": "view",
      "type": "function",
      "constant": true
    },
    {
      "inputs": [
        {
          "internalType": "address",
          "name": "to",
          "type": "address"
        },
        {
          "internalType": "uint256",
          "name": "amount",
          "type": "uint256"
        }
      ],
      "name": "transfer",
      "outputs": [
        {
          "internalType": "bool",
          "name": "",
          "type": "bool"
        }
      ],
      "stateMutability": "nonpayable",
      "type": "function"
    },
    {
      "inputs": [
        {
          "internalType": "address",
          "name": "from",
          "type": "address"
        },
        {
          "internalType": "address",
          "name": "to",
          "type": "address"
        },
        {
          "internalType": "uint256",
          "name": "amount",
          "type": "uint256"
        }
      ],
      "name": "transferFrom",
      "outputs": [
        {
          "internalType": "bool",
          "name": "",
          "type": "bool"
        }
      ],
      "stateMutability": "nonpayable",
      "type": "function"
    },
    {
      "inputs": [
        {
          "internalType": "address",
          "name": "newOwner",
          "type": "address"
        }
      ],
      "name": "transferOwnership",
      "outputs": [],
      "stateMutability": "nonpayable",
      "type": "function"
    },
    {
      "inputs": [
        {
          "internalType": "address",
          "name": "_account",
          "type": "address"
        },
        {
          "internalType": "uint256",
          "name": "_amount",
          "type": "uint256"
        }
      ],
      "name": "mint",
      "outputs": [],
      "stateMutability": "nonpayable",
      "type": "function"
    },
    {
      "inputs": [
        {
          "internalType": "address",
          "name": "_Egold",
          "type": "address"
        }
      ],
      "name": "setEGOLD",
      "outputs": [],
      "stateMutability": "nonpayable",
      "type": "function"
    },
    {
      "inputs": [
        {
          "internalType": "address",
          "name": "_from",
          "type": "address"
        },
        {
          "internalType": "uint256",
          "name": "_amount",
          "type": "uint256"
        }
      ],
      "name": "transferBal",
      "outputs": [],
      "stateMutability": "nonpayable",
      "type": "function"
    }
  ],
  "bytecode": "0x60806040523480156200001157600080fd5b506040518060400160405280600481526020017f45555344000000000000000000000000000000000000000000000000000000008152506040518060400160405280600481526020017f45555344000000000000000000000000000000000000000000000000000000008152506200009e62000092620000ca60201b60201c565b620000d260201b60201c565b8160049081620000af919062000410565b508060059081620000c1919062000410565b505050620004f7565b600033905090565b60008060009054906101000a900473ffffffffffffffffffffffffffffffffffffffff169050816000806101000a81548173ffffffffffffffffffffffffffffffffffffffff021916908373ffffffffffffffffffffffffffffffffffffffff1602179055508173ffffffffffffffffffffffffffffffffffffffff168173ffffffffffffffffffffffffffffffffffffffff167f8be0079c531659141344cd1fd0a4f28419497f9722a3daafe3b4186f6b6457e060405160405180910390a35050565b600081519050919050565b7f4e487b7100000000000000000000000000000000000000000000000000000000600052604160045260246000fd5b7f4e487b7100000000000000000000000000000000000000000000000000000000600052602260045260246000fd5b600060028204905060018216806200021857607f821691505b6020821081036200022e576200022d620001d0565b5b50919050565b60008190508160005260206000209050919050565b60006020601f8301049050919050565b600082821b905092915050565b600060088302620002987fffffffffffffffffffffffffffffffffffffffffffffffffffffffffffffffff8262000259565b620002a4868362000259565b95508019841693508086168417925050509392505050565b6000819050919050565b6000819050919050565b6000620002f1620002eb620002e584620002bc565b620002c6565b620002bc565b9050919050565b6000819050919050565b6200030d83620002d0565b620003256200031c82620002f8565b84845462000266565b825550505050565b600090565b6200033c6200032d565b6200034981848462000302565b505050565b5b8181101562000371576200036560008262000332565b6001810190506200034f565b5050565b601f821115620003c0576200038a8162000234565b620003958462000249565b81016020851015620003a5578190505b620003bd620003b48562000249565b8301826200034e565b50505b505050565b600082821c905092915050565b6000620003e560001984600802620003c5565b1980831691505092915050565b6000620004008383620003d2565b9150826002028217905092915050565b6200041b8262000196565b67ffffffffffffffff811115620004375762000436620001a1565b5b620004438254620001ff565b6200045082828562000375565b600060209050601f83116001811462000488576000841562000473578287015190505b6200047f8582620003f2565b865550620004ef565b601f198416620004988662000234565b60005b82811015620004c2578489015182556001820191506020850194506020810190506200049b565b86831015620004e25784890151620004de601f891682620003d2565b8355505b6001600288020188555050505b505050505050565b611b4880620005076000396000f3fe608060405234801561001057600080fd5b50600436106101165760003560e01c80638da5cb5b116100a2578063dd62ed3e11610071578063dd62ed3e146102f7578063e3060f2214610327578063ebd43aa414610343578063f2fde38b14610361578063fc0b66031461037d57610116565b80638da5cb5b1461025b57806395d89b4114610279578063a457c2d714610297578063a9059cbb146102c757610116565b8063313ce567116100e9578063313ce567146101b757806339509351146101d557806340c10f191461020557806370a0823114610221578063715018a61461025157610116565b806306fdde031461011b578063095ea7b31461013957806318160ddd1461016957806323b872dd14610187575b600080fd5b610123610399565b60405161013091906111fc565b60405180910390f35b610153600480360381019061014e91906112b7565b61042b565b6040516101609190611312565b60405180910390f35b61017161044e565b60405161017e919061133c565b60405180910390f35b6101a1600480360381019061019c9190611357565b610458565b6040516101ae9190611312565b60405180910390f35b6101bf610487565b6040516101cc91906113c6565b60405180910390f35b6101ef60048036038101906101ea91906112b7565b610490565b6040516101fc9190611312565b60405180910390f35b61021f600480360381019061021a91906112b7565b6104c7565b005b61023b600480360381019061023691906113e1565b610538565b604051610248919061133c565b60405180910390f35b610259610581565b005b610263610595565b604051610270919061141d565b60405180910390f35b6102816105be565b60405161028e91906111fc565b60405180910390f35b6102b160048036038101906102ac91906112b7565b610650565b6040516102be9190611312565b60405180910390f35b6102e160048036038101906102dc91906112b7565b6106c7565b6040516102ee9190611312565b60405180910390f35b610311600480360381019061030c9190611438565b6106ea565b60405161031e919061133c565b60405180910390f35b610341600480360381019061033c91906112b7565b610771565b005b61034b6108a4565b604051610358919061141d565b60405180910390f35b61037b600480360381019061037691906113e1565b6108ca565b005b610397600480360381019061039291906113e1565b61094d565b005b6060600480546103a8906114a7565b80601f01602080910402602001604051908101604052809291908181526020018280546103d4906114a7565b80156104215780601f106103f657610100808354040283529160200191610421565b820191906000526020600020905b81548152906001019060200180831161040457829003601f168201915b5050505050905090565b6000806104366109f3565b90506104438185856109fb565b600191505092915050565b6000600354905090565b6000806104636109f3565b9050610470858285610bc4565b61047b858585610c50565b60019150509392505050565b60006012905090565b60008061049b6109f3565b90506104bc8185856104ad85896106ea565b6104b79190611507565b6109fb565b600191505092915050565b6104cf610ec9565b6104d98282610f47565b808273ffffffffffffffffffffffffffffffffffffffff163373ffffffffffffffffffffffffffffffffffffffff167f9d228d69b5fdb8d273a2336f8fb8612d039631024ea9bf09c424a9503aa078f060405160405180910390a45050565b6000600160008373ffffffffffffffffffffffffffffffffffffffff1673ffffffffffffffffffffffffffffffffffffffff168152602001908152602001600020549050919050565b610589610ec9565b610593600061109e565b565b60008060009054906101000a900473ffffffffffffffffffffffffffffffffffffffff16905090565b6060600580546105cd906114a7565b80601f01602080910402602001604051908101604052809291908181526020018280546105f9906114a7565b80156106465780601f1061061b57610100808354040283529160200191610646565b820191906000526020600020905b81548152906001019060200180831161062957829003601f168201915b5050505050905090565b60008061065b6109f3565b9050600061066982866106ea565b9050838110156106ae576040517f08c379a00000000000000000000000000000000000000000000000000000000081526004016106a5906115ad565b60405180910390fd5b6106bb82868684036109fb565b60019250505092915050565b6000806106d26109f3565b90506106df818585610c50565b600191505092915050565b6000600260008473ffffffffffffffffffffffffffffffffffffffff1673ffffffffffffffffffffffffffffffffffffffff16815260200190815260200160002060008373ffffffffffffffffffffffffffffffffffffffff1673ffffffffffffffffffffffffffffffffffffffff16815260200190815260200160002054905092915050565b600660009054906101000a900473ffffffffffffffffffffffffffffffffffffffff1673ffffffffffffffffffffffffffffffffffffffff163373ffffffffffffffffffffffffffffffffffffffff1614610801576040517f08c379a00000000000000000000000000000000000000000000000000000000081526004016107f890611619565b60405180910390fd5b61082e82600660009054906101000a900473ffffffffffffffffffffffffffffffffffffffff1683610c50565b8173ffffffffffffffffffffffffffffffffffffffff167ff10fdc17eeb7a5e3317686ba95a574d551189eb621525e54b5bce792807ba378600660009054906101000a900473ffffffffffffffffffffffffffffffffffffffff1683604051610898929190611639565b60405180910390a25050565b600660009054906101000a900473ffffffffffffffffffffffffffffffffffffffff1681565b6108d2610ec9565b600073ffffffffffffffffffffffffffffffffffffffff168173ffffffffffffffffffffffffffffffffffffffff1603610941576040517f08c379a0000000000000000000000000000000000000000000000000000000008152600401610938906116d4565b60405180910390fd5b61094a8161109e565b50565b610955610ec9565b80600660006101000a81548173ffffffffffffffffffffffffffffffffffffffff021916908373ffffffffffffffffffffffffffffffffffffffff1602179055508073ffffffffffffffffffffffffffffffffffffffff163373ffffffffffffffffffffffffffffffffffffffff167f1a39a6a28d1e705ead0724cdfd9ebcc94efb208766e6cecb347d3fb3ed7307f960405160405180910390a350565b600033905090565b600073ffffffffffffffffffffffffffffffffffffffff168373ffffffffffffffffffffffffffffffffffffffff1603610a6a576040517f08c379a0000000000000000000000000000000000000000000000000000000008152600401610a6190611766565b60405180910390fd5b600073ffffffffffffffffffffffffffffffffffffffff168273ffffffffffffffffffffffffffffffffffffffff1603610ad9576040517f08c379a0000000000000000000000000000000000000000000000000000000008152600401610ad0906117f8565b60405180910390fd5b80600260008573ffffffffffffffffffffffffffffffffffffffff1673ffffffffffffffffffffffffffffffffffffffff16815260200190815260200160002060008473ffffffffffffffffffffffffffffffffffffffff1673ffffffffffffffffffffffffffffffffffffffff168152602001908152602001600020819055508173ffffffffffffffffffffffffffffffffffffffff168373ffffffffffffffffffffffffffffffffffffffff167f8c5be1e5ebec7d5bd14f71427d1e84f3dd0314c0f7b2291e5b200ac8c7c3b92583604051610bb7919061133c565b60405180910390a3505050565b6000610bd084846106ea565b90507fffffffffffffffffffffffffffffffffffffffffffffffffffffffffffffffff8114610c4a5781811015610c3c576040517f08c379a0000000000000000000000000000000000000000000000000000000008152600401610c3390611864565b60405180910390fd5b610c4984848484036109fb565b5b50505050565b600073ffffffffffffffffffffffffffffffffffffffff168373ffffffffffffffffffffffffffffffffffffffff1603610cbf576040517f08c379a0000000000000000000000000000000000000000000000000000000008152600401610cb6906118f6565b60405180910390fd5b600073ffffffffffffffffffffffffffffffffffffffff168273ffffffffffffffffffffffffffffffffffffffff1603610d2e576040517f08c379a0000000000000000000000000000000000000000000000000000000008152600401610d2590611988565b60405180910390fd5b610d39838383611162565b6000600160008573ffffffffffffffffffffffffffffffffffffffff1673ffffffffffffffffffffffffffffffffffffffff16815260200190815260200160002054905081811015610dc0576040517f08c379a0000000000000000000000000000000000000000000000000000000008152600401610db790611a1a565b60405180910390fd5b818103600160008673ffffffffffffffffffffffffffffffffffffffff1673ffffffffffffffffffffffffffffffffffffffff1681526020019081526020016000208190555081600160008573ffffffffffffffffffffffffffffffffffffffff1673ffffffffffffffffffffffffffffffffffffffff168152602001908152602001600020600082825401925050819055508273ffffffffffffffffffffffffffffffffffffffff168473ffffffffffffffffffffffffffffffffffffffff167fddf252ad1be2c89b69c2b068fc378daa952ba7f163c4a11628f55a4df523b3ef84604051610eb0919061133c565b60405180910390a3610ec3848484611167565b50505050565b610ed16109f3565b73ffffffffffffffffffffffffffffffffffffffff16610eef610595565b73ffffffffffffffffffffffffffffffffffffffff1614610f45576040517f08c379a0000000000000000000000000000000000000000000000000000000008152600401610f3c90611a86565b60405180910390fd5b565b600073ffffffffffffffffffffffffffffffffffffffff168273ffffffffffffffffffffffffffffffffffffffff1603610fb6576040517f08c379a0000000000000000000000000000000000000000000000000000000008152600401610fad90611af2565b60405180910390fd5b610fc260008383611162565b8060036000828254610fd49190611507565b9250508190555080600160008473ffffffffffffffffffffffffffffffffffffffff1673ffffffffffffffffffffffffffffffffffffffff168152602001908152602001600020600082825401925050819055508173ffffffffffffffffffffffffffffffffffffffff16600073ffffffffffffffffffffffffffffffffffffffff167fddf252ad1be2c89b69c2b068fc378daa952ba7f163c4a11628f55a4df523b3ef83604051611086919061133c565b60405180910390a361109a60008383611167565b5050565b60008060009054906101000a900473ffffffffffffffffffffffffffffffffffffffff169050816000806101000a81548173ffffffffffffffffffffffffffffffffffffffff021916908373ffffffffffffffffffffffffffffffffffffffff1602179055508173ffffffffffffffffffffffffffffffffffffffff168173ffffffffffffffffffffffffffffffffffffffff167f8be0079c531659141344cd1fd0a4f28419497f9722a3daafe3b4186f6b6457e060405160405180910390a35050565b505050565b505050565b600081519050919050565b600082825260208201905092915050565b60005b838110156111a657808201518184015260208101905061118b565b60008484015250505050565b6000601f19601f8301169050919050565b60006111ce8261116c565b6111d88185611177565b93506111e8818560208601611188565b6111f1816111b2565b840191505092915050565b6000602082019050818103600083015261121681846111c3565b905092915050565b600080fd5b600073ffffffffffffffffffffffffffffffffffffffff82169050919050565b600061124e82611223565b9050919050565b61125e81611243565b811461126957600080fd5b50565b60008135905061127b81611255565b92915050565b6000819050919050565b61129481611281565b811461129f57600080fd5b50565b6000813590506112b18161128b565b92915050565b600080604083850312156112ce576112cd61121e565b5b60006112dc8582860161126c565b92505060206112ed858286016112a2565b9150509250929050565b60008115159050919050565b61130c816112f7565b82525050565b60006020820190506113276000830184611303565b92915050565b61133681611281565b82525050565b6000602082019050611351600083018461132d565b92915050565b6000806000606084860312156113705761136f61121e565b5b600061137e8682870161126c565b935050602061138f8682870161126c565b92505060406113a0868287016112a2565b9150509250925092565b600060ff82169050919050565b6113c0816113aa565b82525050565b60006020820190506113db60008301846113b7565b92915050565b6000602082840312156113f7576113f661121e565b5b60006114058482850161126c565b91505092915050565b61141781611243565b82525050565b6000602082019050611432600083018461140e565b92915050565b6000806040838503121561144f5761144e61121e565b5b600061145d8582860161126c565b925050602061146e8582860161126c565b9150509250929050565b7f4e487b7100000000000000000000000000000000000000000000000000000000600052602260045260246000fd5b600060028204905060018216806114bf57607f821691505b6020821081036114d2576114d1611478565b5b50919050565b7f4e487b7100000000000000000000000000000000000000000000000000000000600052601160045260246000fd5b600061151282611281565b915061151d83611281565b9250828201905080821115611535576115346114d8565b5b92915050565b7f45524332303a2064656372656173656420616c6c6f77616e63652062656c6f7760008201527f207a65726f000000000000000000000000000000000000000000000000000000602082015250565b6000611597602583611177565b91506115a28261153b565b604082019050919050565b600060208201905081810360008301526115c68161158a565b9050919050565b7f6f6e6c792045474f4c4420636f6e747261637400000000000000000000000000600082015250565b6000611603601383611177565b915061160e826115cd565b602082019050919050565b60006020820190508181036000830152611632816115f6565b9050919050565b600060408201905061164e600083018561140e565b61165b602083018461132d565b9392505050565b7f4f776e61626c653a206e6577206f776e657220697320746865207a65726f206160008201527f6464726573730000000000000000000000000000000000000000000000000000602082015250565b60006116be602683611177565b91506116c982611662565b604082019050919050565b600060208201905081810360008301526116ed816116b1565b9050919050565b7f45524332303a20617070726f76652066726f6d20746865207a65726f2061646460008201527f7265737300000000000000000000000000000000000000000000000000000000602082015250565b6000611750602483611177565b915061175b826116f4565b604082019050919050565b6000602082019050818103600083015261177f81611743565b9050919050565b7f45524332303a20617070726f766520746f20746865207a65726f20616464726560008201527f7373000000000000000000000000000000000000000000000000000000000000602082015250565b60006117e2602283611177565b91506117ed82611786565b604082019050919050565b60006020820190508181036000830152611811816117d5565b9050919050565b7f45524332303a20696e73756666696369656e7420616c6c6f77616e6365000000600082015250565b600061184e601d83611177565b915061185982611818565b602082019050919050565b6000602082019050818103600083015261187d81611841565b9050919050565b7f45524332303a207472616e736665722066726f6d20746865207a65726f20616460008201527f6472657373000000000000000000000000000000000000000000000000000000602082015250565b60006118e0602583611177565b91506118eb82611884565b604082019050919050565b6000602082019050818103600083015261190f816118d3565b9050919050565b7f45524332303a207472616e7366657220746f20746865207a65726f206164647260008201527f6573730000000000000000000000000000000000000000000000000000000000602082015250565b6000611972602383611177565b915061197d82611916565b604082019050919050565b600060208201905081810360008301526119a181611965565b9050919050565b7f45524332303a207472616e7366657220616d6f756e742065786365656473206260008201527f616c616e63650000000000000000000000000000000000000000000000000000602082015250565b6000611a04602683611177565b9150611a0f826119a8565b604082019050919050565b60006020820190508181036000830152611a33816119f7565b9050919050565b7f4f776e61626c653a2063616c6c6572206973206e6f7420746865206f776e6572600082015250565b6000611a70602083611177565b9150611a7b82611a3a565b602082019050919050565b60006020820190508181036000830152611a9f81611a63565b9050919050565b7f45524332303a206d696e7420746f20746865207a65726f206164647265737300600082015250565b6000611adc601f83611177565b9150611ae782611aa6565b602082019050919050565b60006020820190508181036000830152611b0b81611acf565b905091905056fea26469706673582212207b21c02b51c3ba856843371d47cf6d9d4fd1bfb143f9824e3eb63c4798b9442f64736f6c63430008110033",
  "immutableReferences": {},
  "source": "//SPDX-License-Identifier: MIT\n\npragma solidity ^0.8.17;\n\nimport \"@openzeppelin/contracts/token/ERC20/ERC20.sol\";\nimport \"@openzeppelin/contracts/access/Ownable.sol\";\n\ncontract EUSDContract is Ownable, ERC20 {\n    event Minted(address indexed _owner, address indexed _to, uint256 indexed _amount);\n    event EGOLDAddressSet(address indexed _setBy, address indexed _EGOLDAdd);\n    event TransferEUSDtoEGOLD(\n        address indexed _from,\n        address _to,\n        uint256 _amount\n    );\n\n    address public EGOLD;\n\n    constructor() ERC20(\"EUSD\", \"EUSD\") {}\n\n    modifier onlyEGOLD() {\n        require(msg.sender == EGOLD, \"only EGOLD contract\");\n        _;\n    }\n\n    function mint(address _account, uint256 _amount) public onlyOwner {\n        _mint(_account, _amount);\n        emit Minted(msg.sender, _account, _amount);\n    }\n\n    function setEGOLD(address _Egold) public onlyOwner {\n        EGOLD = _Egold;\n        emit EGOLDAddressSet(msg.sender, _Egold);\n    }\n\n    function transferBal(address _from, uint256 _amount) external onlyEGOLD {\n        _transfer(_from, EGOLD, _amount);\n        emit TransferEUSDtoEGOLD(_from, EGOLD, _amount);\n    }\n}\n",
  "sourcePath": "/home/neosoft/S/EGOLD-EINR-POC/solidity/contracts/EUSD.sol",
  "compiler": {
    "name": "solc",
    "version": "0.8.17+commit.8df45f5f.Emscripten.clang"
  },
  "schemaVersion": "3.4.11",
  "updatedAt": "2023-04-14T03:36:00.515Z",
  "networkType": "ethereum",
  "devdoc": {
    "kind": "dev",
    "methods": {
      "allowance(address,address)": {
        "details": "See {IERC20-allowance}."
      },
      "approve(address,uint256)": {
        "details": "See {IERC20-approve}. NOTE: If `amount` is the maximum `uint256`, the allowance is not updated on `transferFrom`. This is semantically equivalent to an infinite approval. Requirements: - `spender` cannot be the zero address."
      },
      "balanceOf(address)": {
        "details": "See {IERC20-balanceOf}."
      },
      "decimals()": {
        "details": "Returns the number of decimals used to get its user representation. For example, if `decimals` equals `2`, a balance of `505` tokens should be displayed to a user as `5.05` (`505 / 10 ** 2`). Tokens usually opt for a value of 18, imitating the relationship between Ether and Wei. This is the value {ERC20} uses, unless this function is overridden; NOTE: This information is only used for _display_ purposes: it in no way affects any of the arithmetic of the contract, including {IERC20-balanceOf} and {IERC20-transfer}."
      },
      "decreaseAllowance(address,uint256)": {
        "details": "Atomically decreases the allowance granted to `spender` by the caller. This is an alternative to {approve} that can be used as a mitigation for problems described in {IERC20-approve}. Emits an {Approval} event indicating the updated allowance. Requirements: - `spender` cannot be the zero address. - `spender` must have allowance for the caller of at least `subtractedValue`."
      },
      "increaseAllowance(address,uint256)": {
        "details": "Atomically increases the allowance granted to `spender` by the caller. This is an alternative to {approve} that can be used as a mitigation for problems described in {IERC20-approve}. Emits an {Approval} event indicating the updated allowance. Requirements: - `spender` cannot be the zero address."
      },
      "name()": {
        "details": "Returns the name of the token."
      },
      "owner()": {
        "details": "Returns the address of the current owner."
      },
      "renounceOwnership()": {
        "details": "Leaves the contract without owner. It will not be possible to call `onlyOwner` functions anymore. Can only be called by the current owner. NOTE: Renouncing ownership will leave the contract without an owner, thereby removing any functionality that is only available to the owner."
      },
      "symbol()": {
        "details": "Returns the symbol of the token, usually a shorter version of the name."
      },
      "totalSupply()": {
        "details": "See {IERC20-totalSupply}."
      },
      "transfer(address,uint256)": {
        "details": "See {IERC20-transfer}. Requirements: - `to` cannot be the zero address. - the caller must have a balance of at least `amount`."
      },
      "transferFrom(address,address,uint256)": {
        "details": "See {IERC20-transferFrom}. Emits an {Approval} event indicating the updated allowance. This is not required by the EIP. See the note at the beginning of {ERC20}. NOTE: Does not update the allowance if the current allowance is the maximum `uint256`. Requirements: - `from` and `to` cannot be the zero address. - `from` must have a balance of at least `amount`. - the caller must have allowance for ``from``'s tokens of at least `amount`."
      },
      "transferOwnership(address)": {
        "details": "Transfers ownership of the contract to a new account (`newOwner`). Can only be called by the current owner."
      }
    },
    "version": 1
  },
  "userdoc": {
    "kind": "user",
    "methods": {},
    "version": 1
  }
}