{
  "contractName": "Inventory",
  "abi": [
    {
      "inputs": [
        {
          "internalType": "uint256",
          "name": "_eGOLDRatio",
          "type": "uint256"
        }
      ],
      "stateMutability": "nonpayable",
      "type": "constructor"
    },
    {
      "anonymous": false,
      "inputs": [
        {
          "indexed": true,
          "internalType": "address",
          "name": "_EGOLDAddress",
          "type": "address"
        }
      ],
      "name": "EGOLDAddressSet",
      "type": "event"
    },
    {
      "anonymous": false,
      "inputs": [
        {
          "indexed": true,
          "internalType": "address",
          "name": "_addBy",
          "type": "address"
        },
        {
          "indexed": true,
          "internalType": "uint256",
          "name": "_amount",
          "type": "uint256"
        }
      ],
      "name": "InventoryAdded",
      "type": "event"
    },
    {
      "anonymous": false,
      "inputs": [
        {
          "indexed": true,
          "internalType": "address",
          "name": "_removeBy",
          "type": "address"
        },
        {
          "indexed": true,
          "internalType": "uint256",
          "name": "_amount",
          "type": "uint256"
        }
      ],
      "name": "InventoryRemoved",
      "type": "event"
    },
    {
      "anonymous": false,
      "inputs": [
        {
          "indexed": true,
          "internalType": "address",
          "name": "_setBy",
          "type": "address"
        },
        {
          "indexed": true,
          "internalType": "address",
          "name": "_OwnableAddress",
          "type": "address"
        }
      ],
      "name": "OwnableAddressSet",
      "type": "event"
    },
    {
      "anonymous": false,
      "inputs": [
        {
          "indexed": false,
          "internalType": "uint256",
          "name": "_eGOLDTokens",
          "type": "uint256"
        }
      ],
      "name": "eGOLDRatio",
      "type": "event"
    },
    {
      "inputs": [],
      "name": "EGOLDAdd",
      "outputs": [
        {
          "internalType": "contract EGOLDContract",
          "name": "",
          "type": "address"
        }
      ],
      "stateMutability": "view",
      "type": "function",
      "constant": true
    },
    {
      "inputs": [],
      "name": "eGOLDratio",
      "outputs": [
        {
          "internalType": "uint256",
          "name": "",
          "type": "uint256"
        }
      ],
      "stateMutability": "view",
      "type": "function",
      "constant": true
    },
    {
      "inputs": [],
      "name": "inventory",
      "outputs": [
        {
          "internalType": "uint256",
          "name": "",
          "type": "uint256"
        }
      ],
      "stateMutability": "view",
      "type": "function",
      "constant": true
    },
    {
      "inputs": [],
      "name": "ownable",
      "outputs": [
        {
          "internalType": "contract OwnableContract",
          "name": "",
          "type": "address"
        }
      ],
      "stateMutability": "view",
      "type": "function",
      "constant": true
    },
    {
      "inputs": [
        {
          "internalType": "address",
          "name": "_ownable",
          "type": "address"
        }
      ],
      "name": "setOwnable",
      "outputs": [
        {
          "internalType": "bool",
          "name": "",
          "type": "bool"
        }
      ],
      "stateMutability": "nonpayable",
      "type": "function"
    },
    {
      "inputs": [
        {
          "internalType": "address",
          "name": "_EGOLDAddress",
          "type": "address"
        }
      ],
      "name": "setEGOLDAddress",
      "outputs": [],
      "stateMutability": "nonpayable",
      "type": "function"
    },
    {
      "inputs": [
        {
          "internalType": "uint256",
          "name": "_amount",
          "type": "uint256"
        }
      ],
      "name": "addInventory",
      "outputs": [],
      "stateMutability": "nonpayable",
      "type": "function"
    },
    {
      "inputs": [
        {
          "internalType": "uint256",
          "name": "_amount",
          "type": "uint256"
        }
      ],
      "name": "removeInventory",
      "outputs": [],
      "stateMutability": "nonpayable",
      "type": "function"
    }
  ],
  "bytecode": "0x60806040523480156200001157600080fd5b506040516200146b3803806200146b83398181016040528101906200003791906200009a565b670de0b6b3a7640000816200004d9190620000fb565b6003819055505062000146565b600080fd5b6000819050919050565b62000074816200005f565b81146200008057600080fd5b50565b600081519050620000948162000069565b92915050565b600060208284031215620000b357620000b26200005a565b5b6000620000c38482850162000083565b91505092915050565b7f4e487b7100000000000000000000000000000000000000000000000000000000600052601160045260246000fd5b600062000108826200005f565b915062000115836200005f565b925082820262000125816200005f565b915082820484148315176200013f576200013e620000cc565b5b5092915050565b61131580620001566000396000f3fe608060405234801561001057600080fd5b50600436106100885760003560e01c80633ea84e181161005b5780633ea84e18146101035780636c99a1651461011f578063b38854be1461013b578063c4618d181461015957610088565b806308638d961461008d5780630adb719f146100ab5780630edc4049146100c757806315d52a5c146100e5575b600080fd5b610095610189565b6040516100a29190610ca8565b60405180910390f35b6100c560048036038101906100c09190610cf4565b61018f565b005b6100cf610491565b6040516100dc9190610da0565b60405180910390f35b6100ed6104b7565b6040516100fa9190610ca8565b60405180910390f35b61011d60048036038101906101189190610df9565b6104bd565b005b61013960048036038101906101349190610cf4565b610676565b005b6101436109bd565b6040516101509190610e47565b60405180910390f35b610173600480360381019061016e9190610df9565b6109e1565b6040516101809190610e7d565b60405180910390f35b60035481565b600073ffffffffffffffffffffffffffffffffffffffff1660008054906101000a900473ffffffffffffffffffffffffffffffffffffffff1673ffffffffffffffffffffffffffffffffffffffff1614158015610282575060008054906101000a900473ffffffffffffffffffffffffffffffffffffffff1673ffffffffffffffffffffffffffffffffffffffff1663e0e3671c336040518263ffffffff1660e01b81526004016102409190610ea7565b602060405180830381865afa15801561025d573d6000803e3d6000fd5b505050506040513d601f19601f820116820180604052508101906102819190610eee565b5b6102c1576040517f08c379a00000000000000000000000000000000000000000000000000000000081526004016102b890610f9e565b60405180910390fd5b600073ffffffffffffffffffffffffffffffffffffffff16600160009054906101000a900473ffffffffffffffffffffffffffffffffffffffff1673ffffffffffffffffffffffffffffffffffffffff1603610352576040517f08c379a000000000000000000000000000000000000000000000000000000000815260040161034990611030565b60405180910390fd5b600060035411610397576040517f08c379a000000000000000000000000000000000000000000000000000000000815260040161038e906110c2565b60405180910390fd5b80600260008282546103a99190611111565b92505081905550600160009054906101000a900473ffffffffffffffffffffffffffffffffffffffff1673ffffffffffffffffffffffffffffffffffffffff1663a0712d68600354836103fc9190611145565b6040518263ffffffff1660e01b81526004016104189190610ca8565b600060405180830381600087803b15801561043257600080fd5b505af1158015610446573d6000803e3d6000fd5b50505050803373ffffffffffffffffffffffffffffffffffffffff167f6949ad9b1f5e13891ca8fdb03352574e9326e3e04807fdda31bb0878f36f910760405160405180910390a350565b600160009054906101000a900473ffffffffffffffffffffffffffffffffffffffff1681565b60025481565b600073ffffffffffffffffffffffffffffffffffffffff1660008054906101000a900473ffffffffffffffffffffffffffffffffffffffff1673ffffffffffffffffffffffffffffffffffffffff16141580156105b0575060008054906101000a900473ffffffffffffffffffffffffffffffffffffffff1673ffffffffffffffffffffffffffffffffffffffff1663e0e3671c336040518263ffffffff1660e01b815260040161056e9190610ea7565b602060405180830381865afa15801561058b573d6000803e3d6000fd5b505050506040513d601f19601f820116820180604052508101906105af9190610eee565b5b6105ef576040517f08c379a00000000000000000000000000000000000000000000000000000000081526004016105e690610f9e565b60405180910390fd5b80600160006101000a81548173ffffffffffffffffffffffffffffffffffffffff021916908373ffffffffffffffffffffffffffffffffffffffff1602179055508073ffffffffffffffffffffffffffffffffffffffff167fea40d61737df47427a0141caf2ee869e99c406ec09ac163c7c5d4b2e5679491160405160405180910390a250565b600073ffffffffffffffffffffffffffffffffffffffff1660008054906101000a900473ffffffffffffffffffffffffffffffffffffffff1673ffffffffffffffffffffffffffffffffffffffff1614158015610769575060008054906101000a900473ffffffffffffffffffffffffffffffffffffffff1673ffffffffffffffffffffffffffffffffffffffff1663e0e3671c336040518263ffffffff1660e01b81526004016107279190610ea7565b602060405180830381865afa158015610744573d6000803e3d6000fd5b505050506040513d601f19601f820116820180604052508101906107689190610eee565b5b6107a8576040517f08c379a000000000000000000000000000000000000000000000000000000000815260040161079f90610f9e565b60405180910390fd5b600073ffffffffffffffffffffffffffffffffffffffff16600160009054906101000a900473ffffffffffffffffffffffffffffffffffffffff1673ffffffffffffffffffffffffffffffffffffffff1603610839576040517f08c379a000000000000000000000000000000000000000000000000000000000815260040161083090611030565b60405180910390fd5b60006003541161087e576040517f08c379a0000000000000000000000000000000000000000000000000000000008152600401610875906110c2565b60405180910390fd5b8060025410156108c3576040517f08c379a00000000000000000000000000000000000000000000000000000000081526004016108ba906111f9565b60405180910390fd5b80600260008282546108d59190611219565b92505081905550600160009054906101000a900473ffffffffffffffffffffffffffffffffffffffff1673ffffffffffffffffffffffffffffffffffffffff166342966c68600354836109289190611145565b6040518263ffffffff1660e01b81526004016109449190610ca8565b600060405180830381600087803b15801561095e57600080fd5b505af1158015610972573d6000803e3d6000fd5b50505050803373ffffffffffffffffffffffffffffffffffffffff167f569ef9bcba9ee9f50c17c22a24707debc15b6d017f25f4bf900687dde7e7167c60405160405180910390a350565b60008054906101000a900473ffffffffffffffffffffffffffffffffffffffff1681565b60008073ffffffffffffffffffffffffffffffffffffffff168273ffffffffffffffffffffffffffffffffffffffff1603610a51576040517f08c379a0000000000000000000000000000000000000000000000000000000008152600401610a48906112bf565b60405180910390fd5b600073ffffffffffffffffffffffffffffffffffffffff1660008054906101000a900473ffffffffffffffffffffffffffffffffffffffff1673ffffffffffffffffffffffffffffffffffffffff1603610b4857816000806101000a81548173ffffffffffffffffffffffffffffffffffffffff021916908373ffffffffffffffffffffffffffffffffffffffff1602179055508173ffffffffffffffffffffffffffffffffffffffff163373ffffffffffffffffffffffffffffffffffffffff167fb309a3e7f526e103b1b3df0dfa0a2e9784e4505551ab3a82c0bc7db7087699f260405160405180910390a360019050610c8a565b60008054906101000a900473ffffffffffffffffffffffffffffffffffffffff1673ffffffffffffffffffffffffffffffffffffffff1663e0e3671c336040518263ffffffff1660e01b8152600401610ba19190610ea7565b602060405180830381865afa158015610bbe573d6000803e3d6000fd5b505050506040513d601f19601f82011682018060405250810190610be29190610eee565b610beb57600080fd5b816000806101000a81548173ffffffffffffffffffffffffffffffffffffffff021916908373ffffffffffffffffffffffffffffffffffffffff1602179055508173ffffffffffffffffffffffffffffffffffffffff163373ffffffffffffffffffffffffffffffffffffffff167fb309a3e7f526e103b1b3df0dfa0a2e9784e4505551ab3a82c0bc7db7087699f260405160405180910390a3600190505b919050565b6000819050919050565b610ca281610c8f565b82525050565b6000602082019050610cbd6000830184610c99565b92915050565b600080fd5b610cd181610c8f565b8114610cdc57600080fd5b50565b600081359050610cee81610cc8565b92915050565b600060208284031215610d0a57610d09610cc3565b5b6000610d1884828501610cdf565b91505092915050565b600073ffffffffffffffffffffffffffffffffffffffff82169050919050565b6000819050919050565b6000610d66610d61610d5c84610d21565b610d41565b610d21565b9050919050565b6000610d7882610d4b565b9050919050565b6000610d8a82610d6d565b9050919050565b610d9a81610d7f565b82525050565b6000602082019050610db56000830184610d91565b92915050565b6000610dc682610d21565b9050919050565b610dd681610dbb565b8114610de157600080fd5b50565b600081359050610df381610dcd565b92915050565b600060208284031215610e0f57610e0e610cc3565b5b6000610e1d84828501610de4565b91505092915050565b6000610e3182610d6d565b9050919050565b610e4181610e26565b82525050565b6000602082019050610e5c6000830184610e38565b92915050565b60008115159050919050565b610e7781610e62565b82525050565b6000602082019050610e926000830184610e6e565b92915050565b610ea181610dbb565b82525050565b6000602082019050610ebc6000830184610e98565b92915050565b610ecb81610e62565b8114610ed657600080fd5b50565b600081519050610ee881610ec2565b92915050565b600060208284031215610f0457610f03610cc3565b5b6000610f1284828501610ed9565b91505092915050565b600082825260208201905092915050565b7f496e76656e746f72793a204f776e61626c652061646472657373206e6f74207360008201527f6574000000000000000000000000000000000000000000000000000000000000602082015250565b6000610f88602283610f1b565b9150610f9382610f2c565b604082019050919050565b60006020820190508181036000830152610fb781610f7b565b9050919050565b7f496e76656e746f72793a2045474f4c442061646472657373206e6f742073657460008201527f2e00000000000000000000000000000000000000000000000000000000000000602082015250565b600061101a602183610f1b565b915061102582610fbe565b604082019050919050565b600060208201905081810360008301526110498161100d565b9050919050565b7f496e76656e746f72793a2065474f4c44526174696f2073686f756c64206e6f7460008201527f206265207a65726f2e0000000000000000000000000000000000000000000000602082015250565b60006110ac602983610f1b565b91506110b782611050565b604082019050919050565b600060208201905081810360008301526110db8161109f565b9050919050565b7f4e487b7100000000000000000000000000000000000000000000000000000000600052601160045260246000fd5b600061111c82610c8f565b915061112783610c8f565b925082820190508082111561113f5761113e6110e2565b5b92915050565b600061115082610c8f565b915061115b83610c8f565b925082820261116981610c8f565b915082820484148315176111805761117f6110e2565b5b5092915050565b7f496e76656e746f72793a20496e73756666696369656e7420696e76656e746f7260008201527f792e000000000000000000000000000000000000000000000000000000000000602082015250565b60006111e3602283610f1b565b91506111ee82611187565b604082019050919050565b60006020820190508181036000830152611212816111d6565b9050919050565b600061122482610c8f565b915061122f83610c8f565b9250828203905081811115611247576112466110e2565b5b92915050565b7f496e76656e746f72793a206e6577205f6f776e616c626520697320746865207a60008201527f65726f2061646472657373000000000000000000000000000000000000000000602082015250565b60006112a9602b83610f1b565b91506112b48261124d565b604082019050919050565b600060208201905081810360008301526112d88161129c565b905091905056fea26469706673582212202b24eceeb60411d2569e13f7724389d533602f5cbd755729b75cd2c534bf69e364736f6c63430008110033",
  "immutableReferences": {},
  "source": "//SPDX-License-Identifier: MIT\n\npragma solidity ^0.8.17;\n\nimport \"./ERC20/Ownable.sol\";\nimport \"./EGOLD.sol\";\n\ncontract Inventory {\n    event EGOLDAddressSet(address indexed _EGOLDAddress);\n    event eGOLDRatio(uint256 _eGOLDTokens);\n    event InventoryAdded(address indexed _addBy, uint256 indexed _amount);\n    event InventoryRemoved(address indexed _removeBy, uint256 indexed _amount);\n    event OwnableAddressSet(\n        address indexed _setBy,\n        address indexed _OwnableAddress\n    );\n\n    OwnableContract public ownable;\n    EGOLDContract public EGOLDAdd;\n    uint256 public inventory;\n    uint256 public eGOLDratio;\n\n    constructor(uint256 _eGOLDRatio) {\n        eGOLDratio = _eGOLDRatio * 10 ** 18;\n    }\n\n    function setOwnable(address _ownable) external returns (bool) {\n        require(\n            _ownable != address(0),\n            \"Inventory: new _ownalbe is the zero address\"\n        );\n        if (address(ownable) == address(0)) {\n            ownable = OwnableContract(_ownable);\n            emit OwnableAddressSet(msg.sender, _ownable);\n            return true;\n        }\n        require(ownable.checkOwner(msg.sender));\n        ownable = OwnableContract(_ownable);\n        emit OwnableAddressSet(msg.sender, _ownable);\n        return true;\n    }\n\n    function setEGOLDAddress(address _EGOLDAddress) public {\n        require(\n            address(ownable) != address(0) && ownable.checkOwner(msg.sender),\n            \"Inventory: Ownable address not set\"\n        );\n        EGOLDAdd = EGOLDContract(_EGOLDAddress);\n        emit EGOLDAddressSet(_EGOLDAddress);\n    }\n\n    function addInventory(uint256 _amount) public {\n        require(\n            address(ownable) != address(0) && ownable.checkOwner(msg.sender),\n            \"Inventory: Ownable address not set\"\n        );\n        require(\n            address(EGOLDAdd) != address(0),\n            \"Inventory: EGOLD address not set.\"\n        );\n        require(eGOLDratio > 0, \"Inventory: eGOLDRatio should not be zero.\");\n        inventory += _amount;\n        EGOLDAdd.mint(_amount * eGOLDratio);\n        emit InventoryAdded(msg.sender, _amount);\n    }\n\n    function removeInventory(uint256 _amount) public {\n        require(\n            address(ownable) != address(0) && ownable.checkOwner(msg.sender),\n            \"Inventory: Ownable address not set\"\n        );\n        require(\n            address(EGOLDAdd) != address(0),\n            \"Inventory: EGOLD address not set.\"\n        );\n        require(eGOLDratio > 0, \"Inventory: eGOLDRatio should not be zero.\");\n        require(inventory >= _amount, \"Inventory: Insufficient inventory.\");\n        inventory -= _amount;\n        EGOLDAdd.burn(_amount * eGOLDratio);\n        emit InventoryRemoved(msg.sender, _amount);\n    }\n}\n",
  "sourcePath": "/home/neosoft/S/EGOLD-EINR-POC/solidity/contracts/Inventory.sol",
  "compiler": {
    "name": "solc",
    "version": "0.8.17+commit.8df45f5f.Emscripten.clang"
  },
  "schemaVersion": "3.4.11",
  "updatedAt": "2023-04-24T13:30:42.016Z",
  "networkType": "ethereum",
  "devdoc": {
    "kind": "dev",
    "methods": {},
    "version": 1
  },
  "userdoc": {
    "kind": "user",
    "methods": {},
    "version": 1
  }
}