{
  "contractName": "Inventory",
  "abi": [
    {
      "inputs": [
        {
          "internalType": "uint256",
          "name": "_eGOLDRatio",
          "type": "uint256"
        }
      ],
      "stateMutability": "nonpayable",
      "type": "constructor"
    },
    {
      "anonymous": false,
      "inputs": [
        {
          "indexed": true,
          "internalType": "address",
          "name": "_EGOLDAddress",
          "type": "address"
        }
      ],
      "name": "EGOLDAddressSet",
      "type": "event"
    },
    {
      "anonymous": false,
      "inputs": [
        {
          "indexed": true,
          "internalType": "address",
          "name": "_addBy",
          "type": "address"
        },
        {
          "indexed": true,
          "internalType": "uint256",
          "name": "_amount",
          "type": "uint256"
        }
      ],
      "name": "InventoryAdded",
      "type": "event"
    },
    {
      "anonymous": false,
      "inputs": [
        {
          "indexed": true,
          "internalType": "address",
          "name": "_removeBy",
          "type": "address"
        },
        {
          "indexed": true,
          "internalType": "uint256",
          "name": "_amount",
          "type": "uint256"
        }
      ],
      "name": "InventoryRemoved",
      "type": "event"
    },
    {
      "anonymous": false,
      "inputs": [
        {
          "indexed": true,
          "internalType": "address",
          "name": "previousOwner",
          "type": "address"
        },
        {
          "indexed": true,
          "internalType": "address",
          "name": "newOwner",
          "type": "address"
        }
      ],
      "name": "OwnershipTransferred",
      "type": "event"
    },
    {
      "anonymous": false,
      "inputs": [
        {
          "indexed": false,
          "internalType": "uint256",
          "name": "_eGOLDTokens",
          "type": "uint256"
        }
      ],
      "name": "eGOLDRatio",
      "type": "event"
    },
    {
      "inputs": [],
      "name": "EGOLDAdd",
      "outputs": [
        {
          "internalType": "contract EGOLDContract",
          "name": "",
          "type": "address"
        }
      ],
      "stateMutability": "view",
      "type": "function"
    },
    {
      "inputs": [],
      "name": "admin",
      "outputs": [
        {
          "internalType": "address",
          "name": "",
          "type": "address"
        }
      ],
      "stateMutability": "view",
      "type": "function"
    },
    {
      "inputs": [],
      "name": "eGOLDratio",
      "outputs": [
        {
          "internalType": "uint256",
          "name": "",
          "type": "uint256"
        }
      ],
      "stateMutability": "view",
      "type": "function"
    },
    {
      "inputs": [],
      "name": "inventory",
      "outputs": [
        {
          "internalType": "uint256",
          "name": "",
          "type": "uint256"
        }
      ],
      "stateMutability": "view",
      "type": "function"
    },
    {
      "inputs": [],
      "name": "owner",
      "outputs": [
        {
          "internalType": "address",
          "name": "",
          "type": "address"
        }
      ],
      "stateMutability": "view",
      "type": "function"
    },
    {
      "inputs": [],
      "name": "renounceOwnership",
      "outputs": [],
      "stateMutability": "nonpayable",
      "type": "function"
    },
    {
      "inputs": [
        {
          "internalType": "address",
          "name": "newOwner",
          "type": "address"
        }
      ],
      "name": "transferOwnership",
      "outputs": [],
      "stateMutability": "nonpayable",
      "type": "function"
    },
    {
      "inputs": [
        {
          "internalType": "address",
          "name": "_EGOLDAddress",
          "type": "address"
        }
      ],
      "name": "setEGOLDAddress",
      "outputs": [],
      "stateMutability": "nonpayable",
      "type": "function"
    },
    {
      "inputs": [
        {
          "internalType": "uint256",
          "name": "_amount",
          "type": "uint256"
        }
      ],
      "name": "addInventory",
      "outputs": [],
      "stateMutability": "nonpayable",
      "type": "function"
    },
    {
      "inputs": [
        {
          "internalType": "uint256",
          "name": "_amount",
          "type": "uint256"
        }
      ],
      "name": "removeInventory",
      "outputs": [],
      "stateMutability": "nonpayable",
      "type": "function"
    }
  ],
  "bytecode": "0x60806040523480156200001157600080fd5b5060405162001243380380620012438339818101604052810190620000379190620001c7565b620000576200004b620000bb60201b60201c565b620000c360201b60201c565b33600160006101000a81548173ffffffffffffffffffffffffffffffffffffffff021916908373ffffffffffffffffffffffffffffffffffffffff160217905550670de0b6b3a764000081620000ae919062000228565b6004819055505062000273565b600033905090565b60008060009054906101000a900473ffffffffffffffffffffffffffffffffffffffff169050816000806101000a81548173ffffffffffffffffffffffffffffffffffffffff021916908373ffffffffffffffffffffffffffffffffffffffff1602179055508173ffffffffffffffffffffffffffffffffffffffff168173ffffffffffffffffffffffffffffffffffffffff167f8be0079c531659141344cd1fd0a4f28419497f9722a3daafe3b4186f6b6457e060405160405180910390a35050565b600080fd5b6000819050919050565b620001a1816200018c565b8114620001ad57600080fd5b50565b600081519050620001c18162000196565b92915050565b600060208284031215620001e057620001df62000187565b5b6000620001f084828501620001b0565b91505092915050565b7f4e487b7100000000000000000000000000000000000000000000000000000000600052601160045260246000fd5b600062000235826200018c565b915062000242836200018c565b925082820262000252816200018c565b915082820484148315176200026c576200026b620001f9565b5b5092915050565b610fc080620002836000396000f3fe608060405234801561001057600080fd5b506004361061009e5760003560e01c80636c99a165116100665780636c99a16514610135578063715018a6146101515780638da5cb5b1461015b578063f2fde38b14610179578063f851a440146101955761009e565b806308638d96146100a35780630adb719f146100c15780630edc4049146100dd57806315d52a5c146100fb5780633ea84e1814610119575b600080fd5b6100ab6101b3565b6040516100b89190610a4a565b60405180910390f35b6100db60048036038101906100d69190610a96565b6101b9565b005b6100e5610419565b6040516100f29190610b42565b60405180910390f35b61010361043f565b6040516101109190610a4a565b60405180910390f35b610133600480360381019061012e9190610b9b565b610445565b005b61014f600480360381019061014a9190610a96565b61055c565b005b610159610801565b005b610163610815565b6040516101709190610bd7565b60405180910390f35b610193600480360381019061018e9190610b9b565b61083e565b005b61019d6108c1565b6040516101aa9190610bd7565b60405180910390f35b60045481565b600160009054906101000a900473ffffffffffffffffffffffffffffffffffffffff1673ffffffffffffffffffffffffffffffffffffffff163373ffffffffffffffffffffffffffffffffffffffff1614610249576040517f08c379a000000000000000000000000000000000000000000000000000000000815260040161024090610c4f565b60405180910390fd5b600073ffffffffffffffffffffffffffffffffffffffff16600260009054906101000a900473ffffffffffffffffffffffffffffffffffffffff1673ffffffffffffffffffffffffffffffffffffffff16036102da576040517f08c379a00000000000000000000000000000000000000000000000000000000081526004016102d190610cbb565b60405180910390fd5b60006004541161031f576040517f08c379a000000000000000000000000000000000000000000000000000000000815260040161031690610d27565b60405180910390fd5b80600360008282546103319190610d76565b92505081905550600260009054906101000a900473ffffffffffffffffffffffffffffffffffffffff1673ffffffffffffffffffffffffffffffffffffffff1663a0712d68600454836103849190610daa565b6040518263ffffffff1660e01b81526004016103a09190610a4a565b600060405180830381600087803b1580156103ba57600080fd5b505af11580156103ce573d6000803e3d6000fd5b50505050803373ffffffffffffffffffffffffffffffffffffffff167f6949ad9b1f5e13891ca8fdb03352574e9326e3e04807fdda31bb0878f36f910760405160405180910390a350565b600260009054906101000a900473ffffffffffffffffffffffffffffffffffffffff1681565b60035481565b600160009054906101000a900473ffffffffffffffffffffffffffffffffffffffff1673ffffffffffffffffffffffffffffffffffffffff163373ffffffffffffffffffffffffffffffffffffffff16146104d5576040517f08c379a00000000000000000000000000000000000000000000000000000000081526004016104cc90610c4f565b60405180910390fd5b80600260006101000a81548173ffffffffffffffffffffffffffffffffffffffff021916908373ffffffffffffffffffffffffffffffffffffffff1602179055508073ffffffffffffffffffffffffffffffffffffffff167fea40d61737df47427a0141caf2ee869e99c406ec09ac163c7c5d4b2e5679491160405160405180910390a250565b600160009054906101000a900473ffffffffffffffffffffffffffffffffffffffff1673ffffffffffffffffffffffffffffffffffffffff163373ffffffffffffffffffffffffffffffffffffffff16146105ec576040517f08c379a00000000000000000000000000000000000000000000000000000000081526004016105e390610c4f565b60405180910390fd5b600073ffffffffffffffffffffffffffffffffffffffff16600260009054906101000a900473ffffffffffffffffffffffffffffffffffffffff1673ffffffffffffffffffffffffffffffffffffffff160361067d576040517f08c379a000000000000000000000000000000000000000000000000000000000815260040161067490610cbb565b60405180910390fd5b6000600454116106c2576040517f08c379a00000000000000000000000000000000000000000000000000000000081526004016106b990610d27565b60405180910390fd5b806003541015610707576040517f08c379a00000000000000000000000000000000000000000000000000000000081526004016106fe90610e38565b60405180910390fd5b80600360008282546107199190610e58565b92505081905550600260009054906101000a900473ffffffffffffffffffffffffffffffffffffffff1673ffffffffffffffffffffffffffffffffffffffff166342966c686004548361076c9190610daa565b6040518263ffffffff1660e01b81526004016107889190610a4a565b600060405180830381600087803b1580156107a257600080fd5b505af11580156107b6573d6000803e3d6000fd5b50505050803373ffffffffffffffffffffffffffffffffffffffff167f569ef9bcba9ee9f50c17c22a24707debc15b6d017f25f4bf900687dde7e7167c60405160405180910390a350565b6108096108e7565b6108136000610965565b565b60008060009054906101000a900473ffffffffffffffffffffffffffffffffffffffff16905090565b6108466108e7565b600073ffffffffffffffffffffffffffffffffffffffff168173ffffffffffffffffffffffffffffffffffffffff16036108b5576040517f08c379a00000000000000000000000000000000000000000000000000000000081526004016108ac90610efe565b60405180910390fd5b6108be81610965565b50565b600160009054906101000a900473ffffffffffffffffffffffffffffffffffffffff1681565b6108ef610a29565b73ffffffffffffffffffffffffffffffffffffffff1661090d610815565b73ffffffffffffffffffffffffffffffffffffffff1614610963576040517f08c379a000000000000000000000000000000000000000000000000000000000815260040161095a90610f6a565b60405180910390fd5b565b60008060009054906101000a900473ffffffffffffffffffffffffffffffffffffffff169050816000806101000a81548173ffffffffffffffffffffffffffffffffffffffff021916908373ffffffffffffffffffffffffffffffffffffffff1602179055508173ffffffffffffffffffffffffffffffffffffffff168173ffffffffffffffffffffffffffffffffffffffff167f8be0079c531659141344cd1fd0a4f28419497f9722a3daafe3b4186f6b6457e060405160405180910390a35050565b600033905090565b6000819050919050565b610a4481610a31565b82525050565b6000602082019050610a5f6000830184610a3b565b92915050565b600080fd5b610a7381610a31565b8114610a7e57600080fd5b50565b600081359050610a9081610a6a565b92915050565b600060208284031215610aac57610aab610a65565b5b6000610aba84828501610a81565b91505092915050565b600073ffffffffffffffffffffffffffffffffffffffff82169050919050565b6000819050919050565b6000610b08610b03610afe84610ac3565b610ae3565b610ac3565b9050919050565b6000610b1a82610aed565b9050919050565b6000610b2c82610b0f565b9050919050565b610b3c81610b21565b82525050565b6000602082019050610b576000830184610b33565b92915050565b6000610b6882610ac3565b9050919050565b610b7881610b5d565b8114610b8357600080fd5b50565b600081359050610b9581610b6f565b92915050565b600060208284031215610bb157610bb0610a65565b5b6000610bbf84828501610b86565b91505092915050565b610bd181610b5d565b82525050565b6000602082019050610bec6000830184610bc8565b92915050565b600082825260208201905092915050565b7f4f6e6c792041646d696e206163636573732e0000000000000000000000000000600082015250565b6000610c39601283610bf2565b9150610c4482610c03565b602082019050919050565b60006020820190508181036000830152610c6881610c2c565b9050919050565b7f45474f4c442061646472657373206e6f74207365742e00000000000000000000600082015250565b6000610ca5601683610bf2565b9150610cb082610c6f565b602082019050919050565b60006020820190508181036000830152610cd481610c98565b9050919050565b7f65474f4c44526174696f2073686f756c64206e6f74206265207a65726f2e0000600082015250565b6000610d11601e83610bf2565b9150610d1c82610cdb565b602082019050919050565b60006020820190508181036000830152610d4081610d04565b9050919050565b7f4e487b7100000000000000000000000000000000000000000000000000000000600052601160045260246000fd5b6000610d8182610a31565b9150610d8c83610a31565b9250828201905080821115610da457610da3610d47565b5b92915050565b6000610db582610a31565b9150610dc083610a31565b9250828202610dce81610a31565b91508282048414831517610de557610de4610d47565b5b5092915050565b7f496e73756666696369656e7420696e76656e746f72792e000000000000000000600082015250565b6000610e22601783610bf2565b9150610e2d82610dec565b602082019050919050565b60006020820190508181036000830152610e5181610e15565b9050919050565b6000610e6382610a31565b9150610e6e83610a31565b9250828203905081811115610e8657610e85610d47565b5b92915050565b7f4f776e61626c653a206e6577206f776e657220697320746865207a65726f206160008201527f6464726573730000000000000000000000000000000000000000000000000000602082015250565b6000610ee8602683610bf2565b9150610ef382610e8c565b604082019050919050565b60006020820190508181036000830152610f1781610edb565b9050919050565b7f4f776e61626c653a2063616c6c6572206973206e6f7420746865206f776e6572600082015250565b6000610f54602083610bf2565b9150610f5f82610f1e565b602082019050919050565b60006020820190508181036000830152610f8381610f47565b905091905056fea264697066735822122030191d1f50de27e309560a6bea73754211ae0dccb6a291673c879e696cb0d15964736f6c63430008110033",
  "immutableReferences": {},
  "source": "//SPDX-License-Identifier: MIT\n\npragma solidity ^0.8.17;\n\nimport \"@openzeppelin/contracts/access/Ownable.sol\";\nimport \"./EGOLD.sol\";\n\ncontract Inventory is Ownable{\n    event EGOLDAddressSet(address indexed _EGOLDAddress);\n    event eGOLDRatio(uint256 _eGOLDTokens);\n    event InventoryAdded(address indexed _addBy, uint256 indexed _amount);\n    event InventoryRemoved(address indexed _removeBy, uint256 indexed _amount);\n\n    address public admin;\n    EGOLDContract public EGOLDAdd;\n    uint256 public inventory;\n    uint256 public eGOLDratio;\n\n    modifier onlyAdmin() {\n        require(msg.sender == admin, \"Only Admin access.\");\n        _;\n    }\n\n    constructor(uint256 _eGOLDRatio) {\n        admin = msg.sender;\n        eGOLDratio = _eGOLDRatio * 10**18;\n    }\n\n    function setEGOLDAddress(address _EGOLDAddress) public onlyAdmin {\n        EGOLDAdd = EGOLDContract(_EGOLDAddress);\n        emit EGOLDAddressSet(_EGOLDAddress);\n    }\n\n    function addInventory(uint256 _amount) public onlyAdmin {\n        require(address(EGOLDAdd) != address(0), \"EGOLD address not set.\");\n        require(eGOLDratio > 0, \"eGOLDRatio should not be zero.\");\n        inventory += _amount;\n        EGOLDAdd.mint(_amount * eGOLDratio);\n        emit InventoryAdded(msg.sender, _amount);\n    }\n\n    function removeInventory(uint256 _amount) public onlyAdmin {\n        require(address(EGOLDAdd) != address(0), \"EGOLD address not set.\");\n        require(eGOLDratio > 0, \"eGOLDRatio should not be zero.\");\n        require(inventory >= _amount, \"Insufficient inventory.\");\n        inventory -= _amount;\n        EGOLDAdd.burn(_amount * eGOLDratio);\n        emit InventoryRemoved(msg.sender, _amount);\n    }\n\n}\n",
  "sourcePath": "/home/neosoft/S/EGOLD-EINR-POC/solidity/contracts/Inventory.sol",
  "compiler": {
    "name": "solc",
    "version": "0.8.17+commit.8df45f5f.Emscripten.clang"
  },
  "schemaVersion": "3.4.11",
  "updatedAt": "2023-04-14T03:29:39.780Z",
  "devdoc": {
    "kind": "dev",
    "methods": {
      "owner()": {
        "details": "Returns the address of the current owner."
      },
      "renounceOwnership()": {
        "details": "Leaves the contract without owner. It will not be possible to call `onlyOwner` functions anymore. Can only be called by the current owner. NOTE: Renouncing ownership will leave the contract without an owner, thereby removing any functionality that is only available to the owner."
      },
      "transferOwnership(address)": {
        "details": "Transfers ownership of the contract to a new account (`newOwner`). Can only be called by the current owner."
      }
    },
    "version": 1
  },
  "userdoc": {
    "kind": "user",
    "methods": {},
    "version": 1
  }
}