{
  "contractName": "Inventory",
  "abi": [
    {
      "inputs": [
        {
          "internalType": "uint256",
          "name": "_eGOLDRatio",
          "type": "uint256"
        }
      ],
      "stateMutability": "nonpayable",
      "type": "constructor"
    },
    {
      "anonymous": false,
      "inputs": [
        {
          "indexed": false,
          "internalType": "address",
          "name": "_EGOLDAddress",
          "type": "address"
        }
      ],
      "name": "EGOLDAddressSet",
      "type": "event"
    },
    {
      "anonymous": false,
      "inputs": [
        {
          "indexed": false,
          "internalType": "address",
          "name": "_addBy",
          "type": "address"
        },
        {
          "indexed": false,
          "internalType": "uint256",
          "name": "_amount",
          "type": "uint256"
        }
      ],
      "name": "InventoryAdded",
      "type": "event"
    },
    {
      "anonymous": false,
      "inputs": [
        {
          "indexed": false,
          "internalType": "address",
          "name": "_removeBy",
          "type": "address"
        },
        {
          "indexed": false,
          "internalType": "uint256",
          "name": "_amount",
          "type": "uint256"
        }
      ],
      "name": "InventoryRemoved",
      "type": "event"
    },
    {
      "anonymous": false,
      "inputs": [
        {
          "indexed": true,
          "internalType": "address",
          "name": "previousOwner",
          "type": "address"
        },
        {
          "indexed": true,
          "internalType": "address",
          "name": "newOwner",
          "type": "address"
        }
      ],
      "name": "OwnershipTransferred",
      "type": "event"
    },
    {
      "anonymous": false,
      "inputs": [
        {
          "indexed": false,
          "internalType": "uint256",
          "name": "_eGOLDTokens",
          "type": "uint256"
        }
      ],
      "name": "eGOLDRatio",
      "type": "event"
    },
    {
      "inputs": [],
      "name": "EGOLDAdd",
      "outputs": [
        {
          "internalType": "contract EGOLDContract",
          "name": "",
          "type": "address"
        }
      ],
      "stateMutability": "view",
      "type": "function",
      "constant": true
    },
    {
      "inputs": [],
      "name": "admin",
      "outputs": [
        {
          "internalType": "address",
          "name": "",
          "type": "address"
        }
      ],
      "stateMutability": "view",
      "type": "function",
      "constant": true
    },
    {
      "inputs": [],
      "name": "eGOLDratio",
      "outputs": [
        {
          "internalType": "uint256",
          "name": "",
          "type": "uint256"
        }
      ],
      "stateMutability": "view",
      "type": "function",
      "constant": true
    },
    {
      "inputs": [],
      "name": "inventory",
      "outputs": [
        {
          "internalType": "uint256",
          "name": "",
          "type": "uint256"
        }
      ],
      "stateMutability": "view",
      "type": "function",
      "constant": true
    },
    {
      "inputs": [],
      "name": "owner",
      "outputs": [
        {
          "internalType": "address",
          "name": "",
          "type": "address"
        }
      ],
      "stateMutability": "view",
      "type": "function",
      "constant": true
    },
    {
      "inputs": [],
      "name": "renounceOwnership",
      "outputs": [],
      "stateMutability": "nonpayable",
      "type": "function"
    },
    {
      "inputs": [
        {
          "internalType": "address",
          "name": "newOwner",
          "type": "address"
        }
      ],
      "name": "transferOwnership",
      "outputs": [],
      "stateMutability": "nonpayable",
      "type": "function"
    },
    {
      "inputs": [
        {
          "internalType": "address",
          "name": "_EGOLDAddress",
          "type": "address"
        }
      ],
      "name": "setEGOLDAddress",
      "outputs": [],
      "stateMutability": "nonpayable",
      "type": "function"
    },
    {
      "inputs": [
        {
          "internalType": "uint256",
          "name": "_amount",
          "type": "uint256"
        }
      ],
      "name": "addInventory",
      "outputs": [],
      "stateMutability": "nonpayable",
      "type": "function"
    },
    {
      "inputs": [
        {
          "internalType": "uint256",
          "name": "_amount",
          "type": "uint256"
        }
      ],
      "name": "removeInventory",
      "outputs": [],
      "stateMutability": "nonpayable",
      "type": "function"
    }
  ],
  "bytecode": "0x60806040523480156200001157600080fd5b506040516200124a3803806200124a8339818101604052810190620000379190620001c7565b620000576200004b620000bb60201b60201c565b620000c360201b60201c565b33600160006101000a81548173ffffffffffffffffffffffffffffffffffffffff021916908373ffffffffffffffffffffffffffffffffffffffff160217905550670de0b6b3a764000081620000ae919062000228565b6004819055505062000273565b600033905090565b60008060009054906101000a900473ffffffffffffffffffffffffffffffffffffffff169050816000806101000a81548173ffffffffffffffffffffffffffffffffffffffff021916908373ffffffffffffffffffffffffffffffffffffffff1602179055508173ffffffffffffffffffffffffffffffffffffffff168173ffffffffffffffffffffffffffffffffffffffff167f8be0079c531659141344cd1fd0a4f28419497f9722a3daafe3b4186f6b6457e060405160405180910390a35050565b600080fd5b6000819050919050565b620001a1816200018c565b8114620001ad57600080fd5b50565b600081519050620001c18162000196565b92915050565b600060208284031215620001e057620001df62000187565b5b6000620001f084828501620001b0565b91505092915050565b7f4e487b7100000000000000000000000000000000000000000000000000000000600052601160045260246000fd5b600062000235826200018c565b915062000242836200018c565b925082820262000252816200018c565b915082820484148315176200026c576200026b620001f9565b5b5092915050565b610fc780620002836000396000f3fe608060405234801561001057600080fd5b506004361061009e5760003560e01c80636c99a165116100665780636c99a16514610135578063715018a6146101515780638da5cb5b1461015b578063f2fde38b14610179578063f851a440146101955761009e565b806308638d96146100a35780630adb719f146100c15780630edc4049146100dd57806315d52a5c146100fb5780633ea84e1814610119575b600080fd5b6100ab6101b3565b6040516100b89190610a28565b60405180910390f35b6100db60048036038101906100d69190610a74565b6101b9565b005b6100e561040e565b6040516100f29190610b20565b60405180910390f35b610103610434565b6040516101109190610a28565b60405180910390f35b610133600480360381019061012e9190610b79565b61043a565b005b61014f600480360381019061014a9190610a74565b610545565b005b6101596107df565b005b6101636107f3565b6040516101709190610bb5565b60405180910390f35b610193600480360381019061018e9190610b79565b61081c565b005b61019d61089f565b6040516101aa9190610bb5565b60405180910390f35b60045481565b600160009054906101000a900473ffffffffffffffffffffffffffffffffffffffff1673ffffffffffffffffffffffffffffffffffffffff163373ffffffffffffffffffffffffffffffffffffffff1614610249576040517f08c379a000000000000000000000000000000000000000000000000000000000815260040161024090610c2d565b60405180910390fd5b600073ffffffffffffffffffffffffffffffffffffffff16600260009054906101000a900473ffffffffffffffffffffffffffffffffffffffff1673ffffffffffffffffffffffffffffffffffffffff16036102da576040517f08c379a00000000000000000000000000000000000000000000000000000000081526004016102d190610c99565b60405180910390fd5b60006004541161031f576040517f08c379a000000000000000000000000000000000000000000000000000000000815260040161031690610d05565b60405180910390fd5b80600360008282546103319190610d54565b92505081905550600260009054906101000a900473ffffffffffffffffffffffffffffffffffffffff1673ffffffffffffffffffffffffffffffffffffffff1663a0712d68600454836103849190610d88565b6040518263ffffffff1660e01b81526004016103a09190610a28565b600060405180830381600087803b1580156103ba57600080fd5b505af11580156103ce573d6000803e3d6000fd5b505050507f6949ad9b1f5e13891ca8fdb03352574e9326e3e04807fdda31bb0878f36f91073382604051610403929190610dca565b60405180910390a150565b600260009054906101000a900473ffffffffffffffffffffffffffffffffffffffff1681565b60035481565b600160009054906101000a900473ffffffffffffffffffffffffffffffffffffffff1673ffffffffffffffffffffffffffffffffffffffff163373ffffffffffffffffffffffffffffffffffffffff16146104ca576040517f08c379a00000000000000000000000000000000000000000000000000000000081526004016104c190610c2d565b60405180910390fd5b80600260006101000a81548173ffffffffffffffffffffffffffffffffffffffff021916908373ffffffffffffffffffffffffffffffffffffffff1602179055507fea40d61737df47427a0141caf2ee869e99c406ec09ac163c7c5d4b2e567949118160405161053a9190610bb5565b60405180910390a150565b600160009054906101000a900473ffffffffffffffffffffffffffffffffffffffff1673ffffffffffffffffffffffffffffffffffffffff163373ffffffffffffffffffffffffffffffffffffffff16146105d5576040517f08c379a00000000000000000000000000000000000000000000000000000000081526004016105cc90610c2d565b60405180910390fd5b600073ffffffffffffffffffffffffffffffffffffffff16600260009054906101000a900473ffffffffffffffffffffffffffffffffffffffff1673ffffffffffffffffffffffffffffffffffffffff1603610666576040517f08c379a000000000000000000000000000000000000000000000000000000000815260040161065d90610c99565b60405180910390fd5b6000600454116106ab576040517f08c379a00000000000000000000000000000000000000000000000000000000081526004016106a290610d05565b60405180910390fd5b8060035410156106f0576040517f08c379a00000000000000000000000000000000000000000000000000000000081526004016106e790610e3f565b60405180910390fd5b80600360008282546107029190610e5f565b92505081905550600260009054906101000a900473ffffffffffffffffffffffffffffffffffffffff1673ffffffffffffffffffffffffffffffffffffffff166342966c68600454836107559190610d88565b6040518263ffffffff1660e01b81526004016107719190610a28565b600060405180830381600087803b15801561078b57600080fd5b505af115801561079f573d6000803e3d6000fd5b505050507f569ef9bcba9ee9f50c17c22a24707debc15b6d017f25f4bf900687dde7e7167c33826040516107d4929190610dca565b60405180910390a150565b6107e76108c5565b6107f16000610943565b565b60008060009054906101000a900473ffffffffffffffffffffffffffffffffffffffff16905090565b6108246108c5565b600073ffffffffffffffffffffffffffffffffffffffff168173ffffffffffffffffffffffffffffffffffffffff1603610893576040517f08c379a000000000000000000000000000000000000000000000000000000000815260040161088a90610f05565b60405180910390fd5b61089c81610943565b50565b600160009054906101000a900473ffffffffffffffffffffffffffffffffffffffff1681565b6108cd610a07565b73ffffffffffffffffffffffffffffffffffffffff166108eb6107f3565b73ffffffffffffffffffffffffffffffffffffffff1614610941576040517f08c379a000000000000000000000000000000000000000000000000000000000815260040161093890610f71565b60405180910390fd5b565b60008060009054906101000a900473ffffffffffffffffffffffffffffffffffffffff169050816000806101000a81548173ffffffffffffffffffffffffffffffffffffffff021916908373ffffffffffffffffffffffffffffffffffffffff1602179055508173ffffffffffffffffffffffffffffffffffffffff168173ffffffffffffffffffffffffffffffffffffffff167f8be0079c531659141344cd1fd0a4f28419497f9722a3daafe3b4186f6b6457e060405160405180910390a35050565b600033905090565b6000819050919050565b610a2281610a0f565b82525050565b6000602082019050610a3d6000830184610a19565b92915050565b600080fd5b610a5181610a0f565b8114610a5c57600080fd5b50565b600081359050610a6e81610a48565b92915050565b600060208284031215610a8a57610a89610a43565b5b6000610a9884828501610a5f565b91505092915050565b600073ffffffffffffffffffffffffffffffffffffffff82169050919050565b6000819050919050565b6000610ae6610ae1610adc84610aa1565b610ac1565b610aa1565b9050919050565b6000610af882610acb565b9050919050565b6000610b0a82610aed565b9050919050565b610b1a81610aff565b82525050565b6000602082019050610b356000830184610b11565b92915050565b6000610b4682610aa1565b9050919050565b610b5681610b3b565b8114610b6157600080fd5b50565b600081359050610b7381610b4d565b92915050565b600060208284031215610b8f57610b8e610a43565b5b6000610b9d84828501610b64565b91505092915050565b610baf81610b3b565b82525050565b6000602082019050610bca6000830184610ba6565b92915050565b600082825260208201905092915050565b7f4f6e6c792041646d696e206163636573732e0000000000000000000000000000600082015250565b6000610c17601283610bd0565b9150610c2282610be1565b602082019050919050565b60006020820190508181036000830152610c4681610c0a565b9050919050565b7f45474f4c442061646472657373206e6f74207365742e00000000000000000000600082015250565b6000610c83601683610bd0565b9150610c8e82610c4d565b602082019050919050565b60006020820190508181036000830152610cb281610c76565b9050919050565b7f65474f4c44526174696f2073686f756c64206e6f74206265207a65726f2e0000600082015250565b6000610cef601e83610bd0565b9150610cfa82610cb9565b602082019050919050565b60006020820190508181036000830152610d1e81610ce2565b9050919050565b7f4e487b7100000000000000000000000000000000000000000000000000000000600052601160045260246000fd5b6000610d5f82610a0f565b9150610d6a83610a0f565b9250828201905080821115610d8257610d81610d25565b5b92915050565b6000610d9382610a0f565b9150610d9e83610a0f565b9250828202610dac81610a0f565b91508282048414831517610dc357610dc2610d25565b5b5092915050565b6000604082019050610ddf6000830185610ba6565b610dec6020830184610a19565b9392505050565b7f496e73756666696369656e7420696e76656e746f72792e000000000000000000600082015250565b6000610e29601783610bd0565b9150610e3482610df3565b602082019050919050565b60006020820190508181036000830152610e5881610e1c565b9050919050565b6000610e6a82610a0f565b9150610e7583610a0f565b9250828203905081811115610e8d57610e8c610d25565b5b92915050565b7f4f776e61626c653a206e6577206f776e657220697320746865207a65726f206160008201527f6464726573730000000000000000000000000000000000000000000000000000602082015250565b6000610eef602683610bd0565b9150610efa82610e93565b604082019050919050565b60006020820190508181036000830152610f1e81610ee2565b9050919050565b7f4f776e61626c653a2063616c6c6572206973206e6f7420746865206f776e6572600082015250565b6000610f5b602083610bd0565b9150610f6682610f25565b602082019050919050565b60006020820190508181036000830152610f8a81610f4e565b905091905056fea264697066735822122082334c7860cf61440ea3141ef4b076d8c62eeda7068bd626c7a4856d10230f5f64736f6c63430008110033",
  "immutableReferences": {},
  "source": "//SPDX-License-Identifier: MIT\n\npragma solidity ^0.8.17;\n\nimport \"@openzeppelin/contracts/access/Ownable.sol\";\nimport \"./EGOLD.sol\";\n\ncontract Inventory is Ownable{\n    event EGOLDAddressSet(address _EGOLDAddress);\n    event eGOLDRatio(uint256 _eGOLDTokens);\n    event InventoryAdded(address _addBy, uint256 _amount);\n    event InventoryRemoved(address _removeBy, uint256 _amount);\n\n    address public admin;\n    EGOLDContract public EGOLDAdd;\n    uint256 public inventory;\n    uint256 public eGOLDratio;\n\n    modifier onlyAdmin() {\n        require(msg.sender == admin, \"Only Admin access.\");\n        _;\n    }\n\n    constructor(uint256 _eGOLDRatio) {\n        admin = msg.sender;\n        eGOLDratio = _eGOLDRatio * 10**18;\n    }\n\n    function setEGOLDAddress(address _EGOLDAddress) public onlyAdmin {\n        EGOLDAdd = EGOLDContract(_EGOLDAddress);\n        emit EGOLDAddressSet(_EGOLDAddress);\n    }\n\n    // function setRatio(uint256 _eGOLD)public onlyAdmin{\n    //     eGOLDratio = _eGOLD;\n    //     emit eGOLDRatio(_eGOLD);\n    // }\n\n    function addInventory(uint256 _amount) public onlyAdmin {\n        require(address(EGOLDAdd) != address(0), \"EGOLD address not set.\");\n        require(eGOLDratio > 0, \"eGOLDRatio should not be zero.\");\n        inventory += _amount;\n        EGOLDAdd.mint(_amount * eGOLDratio);\n        emit InventoryAdded(msg.sender, _amount);\n    }\n\n    function removeInventory(uint256 _amount) public onlyAdmin {\n        require(address(EGOLDAdd) != address(0), \"EGOLD address not set.\");\n        require(eGOLDratio > 0, \"eGOLDRatio should not be zero.\");\n        require(inventory >= _amount, \"Insufficient inventory.\");\n        inventory -= _amount;\n        EGOLDAdd.burn(_amount * eGOLDratio);\n        emit InventoryRemoved(msg.sender, _amount);\n    }\n\n}\n",
  "sourcePath": "/home/neosoft/S/EGOLD-EINR-POC/solidity/contracts/Inventory.sol",
  "compiler": {
    "name": "solc",
    "version": "0.8.17+commit.8df45f5f.Emscripten.clang"
  },
  "schemaVersion": "3.4.11",
  "updatedAt": "2023-03-10T03:33:43.586Z",
  "networkType": "ethereum",
  "devdoc": {
    "kind": "dev",
    "methods": {
      "owner()": {
        "details": "Returns the address of the current owner."
      },
      "renounceOwnership()": {
        "details": "Leaves the contract without owner. It will not be possible to call `onlyOwner` functions anymore. Can only be called by the current owner. NOTE: Renouncing ownership will leave the contract without an owner, thereby removing any functionality that is only available to the owner."
      },
      "transferOwnership(address)": {
        "details": "Transfers ownership of the contract to a new account (`newOwner`). Can only be called by the current owner."
      }
    },
    "version": 1
  },
  "userdoc": {
    "kind": "user",
    "methods": {},
    "version": 1
  }
}