{
  "contractName": "Inventory",
  "abi": [
    {
      "inputs": [],
      "stateMutability": "nonpayable",
      "type": "constructor"
    },
    {
      "anonymous": false,
      "inputs": [
        {
          "indexed": false,
          "internalType": "address",
          "name": "_EGOLDAddress",
          "type": "address"
        }
      ],
      "name": "EGOLDAddressSet",
      "type": "event"
    },
    {
      "anonymous": false,
      "inputs": [
        {
          "indexed": false,
          "internalType": "address",
          "name": "_addBy",
          "type": "address"
        },
        {
          "indexed": false,
          "internalType": "uint256",
          "name": "_amount",
          "type": "uint256"
        }
      ],
      "name": "InventoryAdded",
      "type": "event"
    },
    {
      "anonymous": false,
      "inputs": [
        {
          "indexed": false,
          "internalType": "address",
          "name": "_removeBy",
          "type": "address"
        },
        {
          "indexed": false,
          "internalType": "uint256",
          "name": "_amount",
          "type": "uint256"
        }
      ],
      "name": "InventoryRemoved",
      "type": "event"
    },
    {
      "anonymous": false,
      "inputs": [
        {
          "indexed": false,
          "internalType": "uint256",
          "name": "_eGOLDTokens",
          "type": "uint256"
        }
      ],
      "name": "eGOLDRatio",
      "type": "event"
    },
    {
      "inputs": [],
      "name": "EGOLDAdd",
      "outputs": [
        {
          "internalType": "contract EGOLDContract",
          "name": "",
          "type": "address"
        }
      ],
      "stateMutability": "view",
      "type": "function",
      "constant": true
    },
    {
      "inputs": [],
      "name": "admin",
      "outputs": [
        {
          "internalType": "address",
          "name": "",
          "type": "address"
        }
      ],
      "stateMutability": "view",
      "type": "function",
      "constant": true
    },
    {
      "inputs": [],
      "name": "eGOLDratio",
      "outputs": [
        {
          "internalType": "uint256",
          "name": "",
          "type": "uint256"
        }
      ],
      "stateMutability": "view",
      "type": "function",
      "constant": true
    },
    {
      "inputs": [],
      "name": "inventory",
      "outputs": [
        {
          "internalType": "uint256",
          "name": "",
          "type": "uint256"
        }
      ],
      "stateMutability": "view",
      "type": "function",
      "constant": true
    },
    {
      "inputs": [
        {
          "internalType": "address",
          "name": "_EGOLDAddress",
          "type": "address"
        }
      ],
      "name": "setEGOLDAddress",
      "outputs": [],
      "stateMutability": "nonpayable",
      "type": "function"
    },
    {
      "inputs": [
        {
          "internalType": "uint256",
          "name": "_eGOLD",
          "type": "uint256"
        }
      ],
      "name": "setRatio",
      "outputs": [],
      "stateMutability": "nonpayable",
      "type": "function"
    },
    {
      "inputs": [
        {
          "internalType": "uint256",
          "name": "_amount",
          "type": "uint256"
        }
      ],
      "name": "addInventory",
      "outputs": [],
      "stateMutability": "nonpayable",
      "type": "function"
    },
    {
      "inputs": [
        {
          "internalType": "uint256",
          "name": "_amount",
          "type": "uint256"
        }
      ],
      "name": "removeInventory",
      "outputs": [],
      "stateMutability": "nonpayable",
      "type": "function"
    }
  ],
  "bytecode": "0x608060405234801561001057600080fd5b50336000806101000a81548173ffffffffffffffffffffffffffffffffffffffff021916908373ffffffffffffffffffffffffffffffffffffffff160217905550610bba806100606000396000f3fe608060405234801561001057600080fd5b50600436106100885760003560e01c80633ea84e181161005b5780633ea84e18146101035780636c99a1651461011f578063b2237ba31461013b578063f851a4401461015757610088565b806308638d961461008d5780630adb719f146100ab5780630edc4049146100c757806315d52a5c146100e5575b600080fd5b610095610175565b6040516100a29190610785565b60405180910390f35b6100c560048036038101906100c091906107d1565b61017b565b005b6100cf61033d565b6040516100dc919061087d565b60405180910390f35b6100ed610363565b6040516100fa9190610785565b60405180910390f35b61011d600480360381019061011891906108d6565b610369565b005b610139600480360381019061013491906107d1565b610472565b005b610155600480360381019061015091906107d1565b610679565b005b61015f610748565b60405161016c9190610912565b60405180910390f35b60035481565b60008054906101000a900473ffffffffffffffffffffffffffffffffffffffff1673ffffffffffffffffffffffffffffffffffffffff163373ffffffffffffffffffffffffffffffffffffffff1614610209576040517f08c379a00000000000000000000000000000000000000000000000000000000081526004016102009061098a565b60405180910390fd5b60006003541161024e576040517f08c379a0000000000000000000000000000000000000000000000000000000008152600401610245906109f6565b60405180910390fd5b80600260008282546102609190610a45565b92505081905550600160009054906101000a900473ffffffffffffffffffffffffffffffffffffffff1673ffffffffffffffffffffffffffffffffffffffff1663a0712d68600354836102b39190610a79565b6040518263ffffffff1660e01b81526004016102cf9190610785565b600060405180830381600087803b1580156102e957600080fd5b505af11580156102fd573d6000803e3d6000fd5b505050507f6949ad9b1f5e13891ca8fdb03352574e9326e3e04807fdda31bb0878f36f91073382604051610332929190610abb565b60405180910390a150565b600160009054906101000a900473ffffffffffffffffffffffffffffffffffffffff1681565b60025481565b60008054906101000a900473ffffffffffffffffffffffffffffffffffffffff1673ffffffffffffffffffffffffffffffffffffffff163373ffffffffffffffffffffffffffffffffffffffff16146103f7576040517f08c379a00000000000000000000000000000000000000000000000000000000081526004016103ee9061098a565b60405180910390fd5b80600160006101000a81548173ffffffffffffffffffffffffffffffffffffffff021916908373ffffffffffffffffffffffffffffffffffffffff1602179055507fea40d61737df47427a0141caf2ee869e99c406ec09ac163c7c5d4b2e56794911816040516104679190610912565b60405180910390a150565b60008054906101000a900473ffffffffffffffffffffffffffffffffffffffff1673ffffffffffffffffffffffffffffffffffffffff163373ffffffffffffffffffffffffffffffffffffffff1614610500576040517f08c379a00000000000000000000000000000000000000000000000000000000081526004016104f79061098a565b60405180910390fd5b600060035411610545576040517f08c379a000000000000000000000000000000000000000000000000000000000815260040161053c906109f6565b60405180910390fd5b80600254101561058a576040517f08c379a000000000000000000000000000000000000000000000000000000000815260040161058190610b30565b60405180910390fd5b806002600082825461059c9190610b50565b92505081905550600160009054906101000a900473ffffffffffffffffffffffffffffffffffffffff1673ffffffffffffffffffffffffffffffffffffffff166342966c68600354836105ef9190610a79565b6040518263ffffffff1660e01b815260040161060b9190610785565b600060405180830381600087803b15801561062557600080fd5b505af1158015610639573d6000803e3d6000fd5b505050507f569ef9bcba9ee9f50c17c22a24707debc15b6d017f25f4bf900687dde7e7167c338260405161066e929190610abb565b60405180910390a150565b60008054906101000a900473ffffffffffffffffffffffffffffffffffffffff1673ffffffffffffffffffffffffffffffffffffffff163373ffffffffffffffffffffffffffffffffffffffff1614610707576040517f08c379a00000000000000000000000000000000000000000000000000000000081526004016106fe9061098a565b60405180910390fd5b806003819055507f11e608fb783f4dee8f04caadebcba45d4f610469fe274dcc4d0aa5b5bb3d58208160405161073d9190610785565b60405180910390a150565b60008054906101000a900473ffffffffffffffffffffffffffffffffffffffff1681565b6000819050919050565b61077f8161076c565b82525050565b600060208201905061079a6000830184610776565b92915050565b600080fd5b6107ae8161076c565b81146107b957600080fd5b50565b6000813590506107cb816107a5565b92915050565b6000602082840312156107e7576107e66107a0565b5b60006107f5848285016107bc565b91505092915050565b600073ffffffffffffffffffffffffffffffffffffffff82169050919050565b6000819050919050565b600061084361083e610839846107fe565b61081e565b6107fe565b9050919050565b600061085582610828565b9050919050565b60006108678261084a565b9050919050565b6108778161085c565b82525050565b6000602082019050610892600083018461086e565b92915050565b60006108a3826107fe565b9050919050565b6108b381610898565b81146108be57600080fd5b50565b6000813590506108d0816108aa565b92915050565b6000602082840312156108ec576108eb6107a0565b5b60006108fa848285016108c1565b91505092915050565b61090c81610898565b82525050565b60006020820190506109276000830184610903565b92915050565b600082825260208201905092915050565b7f4f6e6c792041646d696e206163636573732e0000000000000000000000000000600082015250565b600061097460128361092d565b915061097f8261093e565b602082019050919050565b600060208201905081810360008301526109a381610967565b9050919050565b7f65474f4c44526174696f2073686f756c64206e6f74206265207a65726f2e0000600082015250565b60006109e0601e8361092d565b91506109eb826109aa565b602082019050919050565b60006020820190508181036000830152610a0f816109d3565b9050919050565b7f4e487b7100000000000000000000000000000000000000000000000000000000600052601160045260246000fd5b6000610a508261076c565b9150610a5b8361076c565b9250828201905080821115610a7357610a72610a16565b5b92915050565b6000610a848261076c565b9150610a8f8361076c565b9250828202610a9d8161076c565b91508282048414831517610ab457610ab3610a16565b5b5092915050565b6000604082019050610ad06000830185610903565b610add6020830184610776565b9392505050565b7f496e73756666696369656e7420696e76656e746f72792e000000000000000000600082015250565b6000610b1a60178361092d565b9150610b2582610ae4565b602082019050919050565b60006020820190508181036000830152610b4981610b0d565b9050919050565b6000610b5b8261076c565b9150610b668361076c565b9250828203905081811115610b7e57610b7d610a16565b5b9291505056fea264697066735822122089e1906ccf44a55abf877469b3ce69eb35e5f5fe5d8fc41dd029f9d60d8d0adc64736f6c63430008110033",
  "immutableReferences": {},
  "source": "//SPDX-License-Identifier: MIT\n\npragma solidity ^0.8.17;\n\nimport \"./EGOLD.sol\";\n\ncontract Inventory {\n    event EGOLDAddressSet(address _EGOLDAddress);\n    event eGOLDRatio(uint256 _eGOLDTokens);\n    event InventoryAdded(address _addBy, uint256 _amount);\n    event InventoryRemoved(address _removeBy, uint256 _amount);\n\n    address public admin;\n    EGOLDContract public EGOLDAdd;\n    uint256 public inventory;\n    uint256 public eGOLDratio;\n\n    modifier onlyAdmin() {\n        require(msg.sender == admin, \"Only Admin access.\");\n        _;\n    }\n\n    constructor() {\n        admin = msg.sender;\n    }\n\n    function setEGOLDAddress(address _EGOLDAddress) public onlyAdmin {\n        EGOLDAdd = EGOLDContract(_EGOLDAddress);\n        emit EGOLDAddressSet(_EGOLDAddress);\n    }\n\n    function setRatio(uint256 _eGOLD)public onlyAdmin{\n        eGOLDratio = _eGOLD;\n        emit eGOLDRatio(_eGOLD);\n    }\n\n    function addInventory(uint256 _amount) public onlyAdmin {\n        require(eGOLDratio > 0, \"eGOLDRatio should not be zero.\");\n        inventory += _amount;\n        EGOLDAdd.mint(_amount * eGOLDratio);\n        emit InventoryAdded(msg.sender, _amount);\n    }\n\n    function removeInventory(uint256 _amount) public onlyAdmin {\n        require(eGOLDratio > 0, \"eGOLDRatio should not be zero.\");\n        require(inventory >= _amount, \"Insufficient inventory.\");\n        inventory -= _amount;\n        EGOLDAdd.burn(_amount * eGOLDratio);\n        emit InventoryRemoved(msg.sender, _amount);\n    }\n\n}\n",
  "sourcePath": "/home/neosoft/S/EGOLD-EINR-POC/solidity/contracts/Inventory.sol",
  "compiler": {
    "name": "solc",
    "version": "0.8.17+commit.8df45f5f.Emscripten.clang"
  },
  "schemaVersion": "3.4.11",
  "updatedAt": "2023-02-07T09:13:51.045Z",
  "networkType": "ethereum",
  "devdoc": {
    "kind": "dev",
    "methods": {},
    "version": 1
  },
  "userdoc": {
    "kind": "user",
    "methods": {},
    "version": 1
  }
}