{
  "contractName": "OwnableContract",
  "abi": [
    {
      "inputs": [],
      "stateMutability": "nonpayable",
      "type": "constructor"
    },
    {
      "anonymous": false,
      "inputs": [
        {
          "indexed": true,
          "internalType": "address",
          "name": "addedBy",
          "type": "address"
        },
        {
          "indexed": true,
          "internalType": "address",
          "name": "newAdmin",
          "type": "address"
        }
      ],
      "name": "AdminAdded",
      "type": "event"
    },
    {
      "anonymous": false,
      "inputs": [
        {
          "indexed": true,
          "internalType": "address",
          "name": "removedBy",
          "type": "address"
        },
        {
          "indexed": true,
          "internalType": "address",
          "name": "admin",
          "type": "address"
        }
      ],
      "name": "AdminRemoved",
      "type": "event"
    },
    {
      "anonymous": false,
      "inputs": [
        {
          "indexed": true,
          "internalType": "address",
          "name": "previousOwner",
          "type": "address"
        },
        {
          "indexed": true,
          "internalType": "address",
          "name": "newOwner",
          "type": "address"
        }
      ],
      "name": "OwnershipTransferred",
      "type": "event"
    },
    {
      "inputs": [],
      "name": "owner",
      "outputs": [
        {
          "internalType": "address",
          "name": "",
          "type": "address"
        }
      ],
      "stateMutability": "view",
      "type": "function",
      "constant": true
    },
    {
      "inputs": [
        {
          "internalType": "address",
          "name": "_whitelistAdmin",
          "type": "address"
        }
      ],
      "name": "addWhitelistedAdmin",
      "outputs": [
        {
          "internalType": "bool",
          "name": "",
          "type": "bool"
        }
      ],
      "stateMutability": "nonpayable",
      "type": "function"
    },
    {
      "inputs": [
        {
          "internalType": "address",
          "name": "_whitelistAdmin",
          "type": "address"
        }
      ],
      "name": "removeWhitelistedAdmin",
      "outputs": [
        {
          "internalType": "bool",
          "name": "",
          "type": "bool"
        }
      ],
      "stateMutability": "nonpayable",
      "type": "function"
    },
    {
      "inputs": [
        {
          "internalType": "address",
          "name": "_address",
          "type": "address"
        }
      ],
      "name": "checkAdmin",
      "outputs": [
        {
          "internalType": "bool",
          "name": "",
          "type": "bool"
        }
      ],
      "stateMutability": "view",
      "type": "function",
      "constant": true
    },
    {
      "inputs": [
        {
          "internalType": "address",
          "name": "_address",
          "type": "address"
        }
      ],
      "name": "checkOwner",
      "outputs": [
        {
          "internalType": "bool",
          "name": "",
          "type": "bool"
        }
      ],
      "stateMutability": "view",
      "type": "function",
      "constant": true
    },
    {
      "inputs": [],
      "name": "renounceOwnership",
      "outputs": [],
      "stateMutability": "nonpayable",
      "type": "function"
    },
    {
      "inputs": [
        {
          "internalType": "address",
          "name": "newOwner",
          "type": "address"
        }
      ],
      "name": "transferOwnership",
      "outputs": [],
      "stateMutability": "nonpayable",
      "type": "function"
    }
  ],
  "bytecode": "0x608060405234801561001057600080fd5b5061002d61002261009660201b60201c565b61009e60201b60201c565b600180600061004061009660201b60201c565b73ffffffffffffffffffffffffffffffffffffffff1673ffffffffffffffffffffffffffffffffffffffff16815260200190815260200160002060006101000a81548160ff021916908315150217905550610162565b600033905090565b60008060009054906101000a900473ffffffffffffffffffffffffffffffffffffffff169050816000806101000a81548173ffffffffffffffffffffffffffffffffffffffff021916908373ffffffffffffffffffffffffffffffffffffffff1602179055508173ffffffffffffffffffffffffffffffffffffffff168173ffffffffffffffffffffffffffffffffffffffff167f8be0079c531659141344cd1fd0a4f28419497f9722a3daafe3b4186f6b6457e060405160405180910390a35050565b610d50806101716000396000f3fe608060405234801561001057600080fd5b506004361061007d5760003560e01c8063bf2f29771161005b578063bf2f2977146100da578063e0e3671c1461010a578063f2fde38b1461013a578063f441ecaa146101565761007d565b8063715018a6146100825780638da5cb5b1461008c5780639026dee8146100aa575b600080fd5b61008a610186565b005b610094610209565b6040516100a19190610960565b60405180910390f35b6100c460048036038101906100bf91906109ac565b610232565b6040516100d191906109f4565b60405180910390f35b6100f460048036038101906100ef91906109ac565b6102cb565b60405161010191906109f4565b60405180910390f35b610124600480360381019061011f91906109ac565b6104a2565b60405161013191906109f4565b60405180910390f35b610154600480360381019061014f91906109ac565b610524565b005b610170600480360381019061016b91906109ac565b610616565b60405161017d91906109f4565b60405180910390f35b338073ffffffffffffffffffffffffffffffffffffffff166101a6610209565b73ffffffffffffffffffffffffffffffffffffffff16146101fc576040517f08c379a00000000000000000000000000000000000000000000000000000000081526004016101f390610a6c565b60405180910390fd5b610206600061085b565b50565b60008060009054906101000a900473ffffffffffffffffffffffffffffffffffffffff16905090565b600081600160008273ffffffffffffffffffffffffffffffffffffffff1673ffffffffffffffffffffffffffffffffffffffff16815260200190815260200160002060009054906101000a900460ff166102c1576040517f08c379a00000000000000000000000000000000000000000000000000000000081526004016102b890610afe565b60405180910390fd5b6001915050919050565b600033600160008273ffffffffffffffffffffffffffffffffffffffff1673ffffffffffffffffffffffffffffffffffffffff16815260200190815260200160002060009054906101000a900460ff1661035a576040517f08c379a000000000000000000000000000000000000000000000000000000000815260040161035190610afe565b60405180910390fd5b600160008473ffffffffffffffffffffffffffffffffffffffff1673ffffffffffffffffffffffffffffffffffffffff16815260200190815260200160002060009054906101000a900460ff16156103e7576040517f08c379a00000000000000000000000000000000000000000000000000000000081526004016103de90610b90565b60405180910390fd5b60018060008573ffffffffffffffffffffffffffffffffffffffff1673ffffffffffffffffffffffffffffffffffffffff16815260200190815260200160002060006101000a81548160ff0219169083151502179055508273ffffffffffffffffffffffffffffffffffffffff163373ffffffffffffffffffffffffffffffffffffffff167fbf3f493c772c8c283fd124432c2d0f539ab343faa04258fe88e52912d36b102b60405160405180910390a36001915050919050565b6000818073ffffffffffffffffffffffffffffffffffffffff166104c4610209565b73ffffffffffffffffffffffffffffffffffffffff161461051a576040517f08c379a000000000000000000000000000000000000000000000000000000000815260040161051190610a6c565b60405180910390fd5b6001915050919050565b338073ffffffffffffffffffffffffffffffffffffffff16610544610209565b73ffffffffffffffffffffffffffffffffffffffff161461059a576040517f08c379a000000000000000000000000000000000000000000000000000000000815260040161059190610a6c565b60405180910390fd5b600073ffffffffffffffffffffffffffffffffffffffff168273ffffffffffffffffffffffffffffffffffffffff1603610609576040517f08c379a000000000000000000000000000000000000000000000000000000000815260040161060090610c22565b60405180910390fd5b6106128261085b565b5050565b600033600160008273ffffffffffffffffffffffffffffffffffffffff1673ffffffffffffffffffffffffffffffffffffffff16815260200190815260200160002060009054906101000a900460ff166106a5576040517f08c379a000000000000000000000000000000000000000000000000000000000815260040161069c90610afe565b60405180910390fd5b600160008473ffffffffffffffffffffffffffffffffffffffff1673ffffffffffffffffffffffffffffffffffffffff16815260200190815260200160002060009054906101000a900460ff16610731576040517f08c379a000000000000000000000000000000000000000000000000000000000815260040161072890610c8e565b60405180910390fd5b3373ffffffffffffffffffffffffffffffffffffffff168373ffffffffffffffffffffffffffffffffffffffff160361079f576040517f08c379a000000000000000000000000000000000000000000000000000000000815260040161079690610cfa565b60405180910390fd5b6000600160008573ffffffffffffffffffffffffffffffffffffffff1673ffffffffffffffffffffffffffffffffffffffff16815260200190815260200160002060006101000a81548160ff0219169083151502179055508273ffffffffffffffffffffffffffffffffffffffff163373ffffffffffffffffffffffffffffffffffffffff167fdb9d5d31320daf5bc7181d565b6da4d12e30f0f4d5aa324a992426c14a1d19ce60405160405180910390a36001915050919050565b60008060009054906101000a900473ffffffffffffffffffffffffffffffffffffffff169050816000806101000a81548173ffffffffffffffffffffffffffffffffffffffff021916908373ffffffffffffffffffffffffffffffffffffffff1602179055508173ffffffffffffffffffffffffffffffffffffffff168173ffffffffffffffffffffffffffffffffffffffff167f8be0079c531659141344cd1fd0a4f28419497f9722a3daafe3b4186f6b6457e060405160405180910390a35050565b600073ffffffffffffffffffffffffffffffffffffffff82169050919050565b600061094a8261091f565b9050919050565b61095a8161093f565b82525050565b60006020820190506109756000830184610951565b92915050565b600080fd5b6109898161093f565b811461099457600080fd5b50565b6000813590506109a681610980565b92915050565b6000602082840312156109c2576109c161097b565b5b60006109d084828501610997565b91505092915050565b60008115159050919050565b6109ee816109d9565b82525050565b6000602082019050610a0960008301846109e5565b92915050565b600082825260208201905092915050565b7f4f776e61626c653a2063616c6c6572206973206e6f7420746865206f776e6572600082015250565b6000610a56602083610a0f565b9150610a6182610a20565b602082019050919050565b60006020820190508181036000830152610a8581610a49565b9050919050565b7f4f776e61626c653a2063616c6c6572206973206e6f742074686520776869746560008201527f6c69737465642061646d696e0000000000000000000000000000000000000000602082015250565b6000610ae8602c83610a0f565b9150610af382610a8c565b604082019050919050565b60006020820190508181036000830152610b1781610adb565b9050919050565b7f4f776e61626c653a20616c726561647920612077686974656c6973746564206160008201527f646d696e00000000000000000000000000000000000000000000000000000000602082015250565b6000610b7a602483610a0f565b9150610b8582610b1e565b604082019050919050565b60006020820190508181036000830152610ba981610b6d565b9050919050565b7f4f776e61626c653a206e6577206f776e657220697320746865207a65726f206160008201527f6464726573730000000000000000000000000000000000000000000000000000602082015250565b6000610c0c602683610a0f565b9150610c1782610bb0565b604082019050919050565b60006020820190508181036000830152610c3b81610bff565b9050919050565b7f4f776e61626c653a206e6f7420612077686974656c69737465642061646d696e600082015250565b6000610c78602083610a0f565b9150610c8382610c42565b602082019050919050565b60006020820190508181036000830152610ca781610c6b565b9050919050565b7f4f776e61626c653a2073656c662d72656d6f7665206e6f7420616c6c6f776564600082015250565b6000610ce4602083610a0f565b9150610cef82610cae565b602082019050919050565b60006020820190508181036000830152610d1381610cd7565b905091905056fea2646970667358221220e0f5cf8c76b023b572823c6af91ce8dfed702c22512a1a7eb39882deaec2f59264736f6c63430008110033",
  "immutableReferences": {},
  "source": "// SPDX-License-Identifier: MIT\n// OpenZeppelin Contracts (last updated v4.7.0) (access/Ownable.sol)\n\npragma solidity ^0.8.0;\n\nimport \"./Context.sol\";\n\n/**\n * @dev Contract module which provides a basic access control mechanism, where\n * there is an account (an owner) that can be granted exclusive access to\n * specific functions.\n *\n * By default, the owner account will be the one that deploys the contract. This\n * can later be changed with {transferOwnership}.\n *\n * This module is used through inheritance. It will make available the modifier\n * `onlyOwner`, which can be applied to your functions to restrict their use to\n * the owner.\n */\ncontract OwnableContract is Context {\n    address private _owner;\n    mapping (address => bool) private _whitelistedAdmin;\n\n    event OwnershipTransferred(address indexed previousOwner, address indexed newOwner);\n    event AdminAdded(address indexed addedBy, address indexed newAdmin);\n    event AdminRemoved(address indexed removedBy, address indexed admin);\n\n    /**\n     * @dev Initializes the contract setting the deployer as the initial owner.\n     */\n    constructor() {\n        _transferOwnership(_msgSender());\n        _whitelistedAdmin[_msgSender()] = true;\n    }\n\n    /**\n     * @dev Throws if called by any account other than the owner.\n     */\n    modifier onlyOwner(address _address) {\n        require(owner() == _address, \"Ownable: caller is not the owner\");\n        _;\n    }\n\n    /**\n     * @dev Throws if called by any account other than the whitelistedAdmin.\n     */\n    modifier onlyWhitelistedAdmin(address _address){\n        require(_whitelistedAdmin[_address], \"Ownable: caller is not the whitelisted admin\");\n        _;\n    }\n\n    /**\n     * @dev Returns the address of the current owner.\n     */\n    function owner() public view virtual returns (address) {\n        return _owner;\n    }\n\n    /**\n     * @dev Add new Admin to _whitelistedAdmin mapping.\n     * Can only be called by the current owner and existing admin.\n     */\n    function addWhitelistedAdmin(address _whitelistAdmin)external onlyWhitelistedAdmin(msg.sender) returns(bool){\n        require(!_whitelistedAdmin[_whitelistAdmin], \"Ownable: already a whitelisted admin\");\n        _whitelistedAdmin[_whitelistAdmin] = true;\n        emit AdminAdded(msg.sender, _whitelistAdmin);\n        return true;\n    }\n\n    /**\n     * @dev Remove existing Admin from _whitelistedAdmin mapping.\n     * Can only be called by the current owner and existing admin.\n     * Existing admin will not able to remove him/her self form _whitelistedAdmin mapping.\n     */\n    function removeWhitelistedAdmin(address _whitelistAdmin)external onlyWhitelistedAdmin(msg.sender) returns(bool){\n        require(_whitelistedAdmin[_whitelistAdmin], \"Ownable: not a whitelisted admin\");\n        require(_whitelistAdmin != msg.sender, \"Ownable: self-remove not allowed\");\n        _whitelistedAdmin[_whitelistAdmin] = false;\n        emit AdminRemoved(msg.sender, _whitelistAdmin);\n        return true;\n    }\n\n\n    /**\n     * @dev Return `true` if the sender is the whitelistedAdmin else `revert`.\n     * \n     * Requirements:\n     *\n     * - `_address` that you need to check whether it is a whitelistedAdmin or not.\n     */\n    function checkAdmin(address _address) external view onlyWhitelistedAdmin(_address) returns(bool){\n        return true;\n    }\n\n    /**\n     * @dev Return `true` if the sender is the owner else `revert`.\n     * \n     * Requirements:\n     *\n     * - `_address` that you need to check whether it is a owner or not.\n     */\n    function checkOwner(address _address) external view onlyOwner(_address) returns(bool){\n        return true;\n    }\n\n    /**\n     * @dev Leaves the contract without owner. It will not be possible to call\n     * `onlyOwner` functions. Can only be called by the current owner.\n     *\n     * NOTE: Renouncing ownership will leave the contract without an owner,\n     * thereby disabling any functionality that is only available to the owner.\n     */\n    function renounceOwnership() public virtual onlyOwner(msg.sender) {\n        _transferOwnership(address(0));\n    }\n\n    /**\n     * @dev Transfers ownership of the contract to a new account (`newOwner`).\n     * Can only be called by the current owner.\n     */\n    function transferOwnership(address newOwner) public virtual onlyOwner(msg.sender) {\n        require(newOwner != address(0), \"Ownable: new owner is the zero address\");\n        _transferOwnership(newOwner);\n    }\n\n    /**\n     * @dev Transfers ownership of the contract to a new account (`newOwner`).\n     * Internal function without access restriction.\n     */\n    function _transferOwnership(address newOwner) internal virtual {\n        address oldOwner = _owner;\n        _owner = newOwner;\n        emit OwnershipTransferred(oldOwner, newOwner);\n    }\n}",
  "sourcePath": "/home/neosoft/S/EGOLD-EINR-POC/solidity/contracts/ERC20/Ownable.sol",
  "compiler": {
    "name": "solc",
    "version": "0.8.17+commit.8df45f5f.Emscripten.clang"
  },
  "schemaVersion": "3.4.11",
  "updatedAt": "2023-04-24T13:29:35.904Z",
  "networkType": "ethereum",
  "devdoc": {
    "details": "Contract module which provides a basic access control mechanism, where there is an account (an owner) that can be granted exclusive access to specific functions. By default, the owner account will be the one that deploys the contract. This can later be changed with {transferOwnership}. This module is used through inheritance. It will make available the modifier `onlyOwner`, which can be applied to your functions to restrict their use to the owner.",
    "kind": "dev",
    "methods": {
      "addWhitelistedAdmin(address)": {
        "details": "Add new Admin to _whitelistedAdmin mapping. Can only be called by the current owner and existing admin."
      },
      "checkAdmin(address)": {
        "details": "Return `true` if the sender is the whitelistedAdmin else `revert`.  Requirements: - `_address` that you need to check whether it is a whitelistedAdmin or not."
      },
      "checkOwner(address)": {
        "details": "Return `true` if the sender is the owner else `revert`.  Requirements: - `_address` that you need to check whether it is a owner or not."
      },
      "constructor": {
        "details": "Initializes the contract setting the deployer as the initial owner."
      },
      "owner()": {
        "details": "Returns the address of the current owner."
      },
      "removeWhitelistedAdmin(address)": {
        "details": "Remove existing Admin from _whitelistedAdmin mapping. Can only be called by the current owner and existing admin. Existing admin will not able to remove him/her self form _whitelistedAdmin mapping."
      },
      "renounceOwnership()": {
        "details": "Leaves the contract without owner. It will not be possible to call `onlyOwner` functions. Can only be called by the current owner. NOTE: Renouncing ownership will leave the contract without an owner, thereby disabling any functionality that is only available to the owner."
      },
      "transferOwnership(address)": {
        "details": "Transfers ownership of the contract to a new account (`newOwner`). Can only be called by the current owner."
      }
    },
    "version": 1
  },
  "userdoc": {
    "kind": "user",
    "methods": {},
    "version": 1
  }
}